:100000000C94EE090C94160A0C94160A0C94160A19
:100010000C94160A0C94160A0C94160A0C94160AE0
:100020000C94160A0C94160A0C9430210C94A221FC
:100030000C94160A0C94160A0C94160A0C94160AC0
:100040000C94160A0C94160A0C94160A0C94160AB0
:100050000C94160A0C94160A0C94160A0C94522846
:100060000C94160A0C94160A0C94160A0C94160A90
:100070000C94160A0C94160A0C94160A0C94160A80
:100080000C94160A0C94160A0C94160A0C94160A70
:100090000C94160A0C94160A0C94160A0C94160A60
:1000A0000C94160A0C94160A0C94160A590AA10A02
:1000B000DE0B560C080D190DED0C620F4412A61242
:1000C000A612A612BC13591286128B1286128B121C
:1000D00086128B1286128B12FA1328142E142814EF
:1000E0002E1428142E1428142E145C1857185C187B
:1000F00062187A187A187A1886188D18D118D118BB
:10010000D1188D184920616D20736F72727940206B
:10011000796F750A206C6F7374207468652067614D
:100120006D652E0A202020202020204920776F6E28
:100130002100436F6E67726174756C6174696F6ED4
:1001400073210A20202020202020202020596F7594
:1001500020576F6E210020596F757220637269629B
:10016000400020204D792063726962400020596F61
:1001700075722068616E64400020204D79206861AE
:100180006E64400020596F75722068616E64400093
:10019000204D792068616E6440002020476F212047
:1001A000200020476F20666F7220312E2000202013
:1001B000476F2120200020476F20666F7220312E6C
:1001C00020004D79207475726E20746F20737461F5
:1001D00072744000596F7572207475726E20746F5E
:1001E000207374617274400054776F20666F7220C0
:1001F000686973206865656C73210054776F2066A9
:100200006F7220686973206865656C732100202017
:1002100020492077696C6C207468726F770A746863
:100220006573652074776F2063617264732E0003B9
:10023000081F051F1F151B1F11111F110E1F151160
:100240001F05011F111D1F041F001F0010101F1F7D
:10025000041B1F10101F061F1F011F1F111F1F054A
:10026000071F311F1F051B17151D011F011F101F21
:100270000F100F1F0C1F1B041B071C071915130C55
:10028000121E1F120C1E12120C121F0C1A14041F25
:10029000052E2A1E1F021C001D00201D001F041A0F
:1002A000011F001E041E1E021E1E121E3E120C0CFA
:1002B000123E1E020614120A020F121E101E0E100B
:1002C0000E1E081E1A041A2E281E1A12161F111F9F
:1002D000121F101D151711151F07041F17151D1FBD
:1002E000151D01011F1F151F17151F0017000010F6
:1002F00000040404040E040229060A000010001081
:100300001C14FD1D1D5D9ABABAFAF4F4F474A8A881
:10031000485050505040404040C0E018E4FA1B3371
:1003200077F7F0F8FFFFFF07F807F8FE06FF07F77B
:1003300007FFFFFFFF0FF1FE7F3F080C0E0F0F0FAF
:100340000F0F0F000F000F0F0E0702060E0F0F0703
:10035000080F0F0F0E0C1C14C3E7FFFF0FF1FEFF79
:10036000FF07F604FE07FFFF00FF00FFFFFFFFFF90
:10037000FFE7C381FF7F87783F2F2F2F2FAEAEAED1
:10038000AF265751EEF1FEFFFFDFD190AE8E8CFD10
:100390000502010000000000000000000001010152
:1003A00002020202050505050B0B0B0B801800006D
:1003B000000000000000000000000000000000003D
:1003C0000000C030180C040404040404040C0808E1
:1003D000000000000000C0C080000000000000809D
:1003E0008000008080000000C040404040000000CD
:1003F000000000E010080C0404040C08183060C071
:10040000008000000000008080000000808080806C
:10041000800000000080808080000000000000005C
:1004200000000000000000000000000000000000CC
:1004300000000000000000000000000000000000BC
:10044000001F60408080808080808080804040E00D
:1004500030000000F02E2320213618E08000FF003D
:10046000010F0701011FF000001F704CC4848000C1
:100470000000001F30C08080808080C04060380F46
:100480000001070C70C07C03000E3B6949C88884DA
:1004900085878000000FF0000101000000000000CF
:1004A000000000000000000000000000000000004C
:1004B000000000000000000000000000000000003C
:1004C0000000000000000000000000000000000725
:1004D0000000000301000000000000000300000015
:1004E0000000000000000704000000000000000001
:1004F00000000000000000000000000000000000FC
:1005000000000000000000000000000000000000EB
:1005100000000000000001000000000000000000DA
:1005200000000000000000000000000000001610A5
:10053000FF00FF55AA55AA55AA55AA55AA55AA556E
:10054000AA55AAFF00FF1F205FB5AAB5AAB5AAB594
:10055000AAB5AAB5AAB5AAB5BA5F201F0E100000A9
:1005600000FFAA55AA55AA55AAFF00FF0008A0BF80
:10057000AAB5AAB5AAB5BA5F201F0E15F804FAFDF0
:10058000FDFDFDFDFDFDFD050000FF00FFFFFFFF80
:10059000FFFFFFFFFF0000001F001F1F1F1F1F1F87
:1005A0001F1F1F0000001615F804FAFDFDFDFDFDDC
:1005B000FDFDFDFDFDFDFDFDFDFDFDFA04F8FF0067
:1005C000FFFFFFFFFFFFFFFFFFFFFFFFFFFFFFFF3B
:1005D000FFFF00FF1F001F1F1F1F1F1F1F1F1F1FC9
:1005E0001F1F1F1F1F1F1F1F001F546F74616C3AB6
:1005F0000007040103070F070301010204080402B6
:10060000010704080C0E0F0E0C0808040201020476
:10061000084E6F7468696E672021004D792043721F
:1006200069624000596F7572204372696240004DE3
:10063000792048616E644000596F75722048616E80
:10064000644000596F75722048616E6440004D79B6
:100650002048616E6440004B3800FF010105010134
:10066000FF00515551555155515551555155515501
:10067000515551555155515551555155515551554A
:10068000515551555155515551555155515551553A
:100690005155515551555155515551A1A1428224A1
:1006A000081020C00077747475B45427301C1D1CCA
:1006B0005D1C5D1C5D1C5D1C5D1C5D1C5D1C5D1C72
:1006C0005D1C5D1C5D1C5D1C5D1C5D1C5D1C5D1C62
:1006D0005D1C5D1C5D1C5D1C5D1C5D1C5D1C5D1C52
:1006E0005D1C5D1C4900AA807F807F000800FF0020
:1006F00000FC028100F208F40AA90595C5D5C5D50C
:10070000C5D5C5D5C5D5C5D5C5D5C5D5C5D5C5D519
:10071000C5D5C5D5C5D5C5D5C5D5C5D5C5D5C5D509
:10072000C5D5C5D5C5D5C5D5C5D5C5D5C5D5C5D5F9
:10073000C5C4C2E1E0F2783C1E0700007FE0C08043
:10074000270817282A505451555155515551555184
:100750005551555155515551555155515551555169
:100760005551555155515551555155515551555159
:10077000555155515551555155515551A1A143828E
:1007800024081020C00000808183476F1E5E1C5C1F
:100790001C5D1C5D1C5D1C5D1C5D1C5D1C5D1C5D91
:1007A0001C5D1C5D1C5D1C5D1C5D1C5D1C5D1C5D81
:1007B0001C5D1C5D1C5D1C5D1C5D1C5D1C5D1C5D71
:1007C0001C5D1C5D1C4900AA807F807F000800FF23
:1007D0001837686A68F7E0C5D5C5D5C5D5C5D5C58C
:1007E000D5C5D5C5D5C5D5C5D5C5D5C5D5C5D5C539
:1007F000D5C5D5C5D5C5D5C5D5C5D5C5D5C5D5C529
:10080000D5C5D5C5D5C5D5C5D5C5D5C5D5C5D54598
:10081000D5C5C4C2E1E0F2783C1E0700000000002C
:1008200000010101010101010101010101010101B9
:1008300001010101010101010101010101010101A8
:100840000101010101010101010101010101010198
:100850000101010101010101010101010101010188
:100860000000000000000340FFFF55FFFF55FFFFA1
:1008700055FFFF55FFFF55FFFF55FFFF55CF3F5574
:10088000D5F08D14A1C881CFD9F1AF2000080B009D
:100890000202020100090400000102020000052416
:1008A00000100105240101010424020605240600AC
:1008B000010705810310004009040100020A00003D
:1008C0000007050202400000070583024000000403
:1008D00003090412010002EF0201404123368000A7
:1008E000010102030141726475696E6F204C4C4333
:1008F0000041726475696E6F204C656F6E61726441
:100900006F0035053B053D053F05410543054505A0
:10091000470549054B054D054F055105530555053F
:10092000570559055B055D055F05610563056505AF
:10093000670569056B056D056F0571057788798E0B
:10094000779471176F176D176B176917671765170E
:10095000631761175F175D175B17591757175517FF
:10096000531751174F174D174B174917471745176F
:10097000431741173F173D173B183B1A3B1C3D1DC2
:100980003F1D411D431D451D471D491D4B1D4D1D4F
:100990004F1D511D531D551D571D591D5B1D5D1DBF
:1009A0005F1D611D631D651D671D691D6B1D6D1D2F
:1009B0006F1D711D77A079A677AC712F6F2F6D2FEA
:1009C0006B2F692F672F652F632F612F5F2F5D2F8F
:1009D0005B2F592F572F552F532F512F4F2F4D2FFF
:1009E0004B2F492F472F452F432F412F3F2F3D2F6F
:1009F0003B2F392F34AC020207020200020702002B
:100A0000050300020502000002070200350B3B0B44
:100A10003D0B3F0B410B430B450B470B490B4B0B5E
:100A20004D0B4F0B510B530B550B570B590B5B0BCE
:100A30005D0B5F0B610B630B650B670B690B6B0B3E
:100A40006D0B6F0B710B738C738E739071116F1133
:100A50006D116B11691167116511631161115F11DE
:100A60005D115B11591157115511531151114F114E
:100A70004D114B11491147114511431141113F11BE
:100A80003D113714351A37203D233F23412343239B
:100A90004523472349234B234D234F2351235323DE
:100AA0005523572359235B235D235F23612363234E
:100AB0006523672369236B236D236F23712373A43D
:100AC00073A673A871296F296D296B296929672974
:100AD0006529632961295F295D295B2959295729DE
:100AE0005529532951294F294D294B29492947294E
:100AF0004529432941293F293D293B29392934AC3E
:100B0000FFFFFFFFFFFFFFFFFFFFFFFFFFFFFFFFF5
:100B1000FFFFFFFFFFFFFF7F3F1F010103070F0FD5
:100B20000F0F0F1F3F7FFFFF7F3D190101010101E3
:100B3000000000001A10BFBFBF1FEFEFEFEFEF1F65
:100B4000BFBFBFBFBFBFBFBFBFBFBFBF5F201F0013
:100B50000000010205050505050219245A5A24184A
:100B6000000000000000000000000F1F3F7FFFFF9B
:100B7000FFFF0808000F102F5F5F5F5FFFFFFFFFA1
:100B80007F3F1F0F08085F5F5F5F2F100F001F3F41
:100B90007FFFFFFFFFFFFFFFFFFFFFFFFFFFFFFFE5
:100BA000FFFFFFFFFFFFFFFF000000000101010149
:100BB00001193D7FFFFF7F3F1F0F0F0F0F0F07032F
:100BC00001011A10001F205FBFBFBFBFBFBFBFBF63
:100BD000BFBFBFBF1FEFEFEFEFEF1FBFBFBF0000F3
:100BE000000000000000000018245A5A24190205D1
:100BF0000505050502010000FFFFFFFFFEFCF8F000
:100C00000808FAFAFAFAF408F000F0F8FCFEFFFF20
:100C1000FFFF080800F008F4FAFAFAFA21080F0FAB
:100C200008080006090B06000E03030E000F090F4B
:100C300006000F0F000F02030F000E0F090D000E2C
:100C400010BEBDBEBDBEBDBEBDBEBDBEBDBE0000F4
:100C5000040004000400040004000400004E080F17
:100C60000D0702000F050F0A000F0D0900020B0D02
:100C700000020B0D00000000000F0D0702000F0F17
:100C80000808000E03030E00030E0E03000000060A
:100C9000090B06000F02030F00000000010F0F01F7
:100CA0000E03030E000F0D0702000F0D090E10A713
:100CB000C7A7C7A7C7A7C7A7C7A7C7A7000707078B
:100CC000070707070707070707070024080E1F1F66
:100CD0001F0E00000000000000000000001F0E04B6
:100CE000000000000000000000040E1F00040E1FA2
:100CF000001C14FD1D1D5D9ABABAFAF4F4F474A830
:100D0000A8485050505040404040C0E018E4FA1B02
:100D10003377F7F0F8FFFFFF07F807F8FE06FF0745
:100D2000F707FFFFFFFF0FF1FE7F3F080C0E0F0FCD
:100D30000F0F0F0F000F000F0F0E0702060E0F0F01
:100D400007080F0F0F0E0C721900C0F0F81C0C04EE
:100D50000682C2C2C2060CFCF8F8F8780000000057
:100D60000080800000808080000000AAABABABABAD
:100D7000AA000004FCFEFEFE0000808080800000CF
:100D8000000004FCFEFEFE00008080808000000069
:100D90000000000080808080808000000000000053
:100DA00000000000808080808000808000000000C3
:100DB00000808080808080000000003EFFFFFFF008
:100DC000C080000107050C0C0E0F07030300800014
:100DD00001FFFFFFFF0E07070707070000001FFFC7
:100DE000FF1F00000000FFFFFFFF0301010103FFE1
:100DF000FFFFFC0000FFFFFFFF0301010103FFFFF6
:100E0000FFFC0080C6E3F131190F3FFFFFFE8000B9
:100E10000000F0FCFEFF03000000FFFFFFFF0000EA
:100E2000F8FEFFE1202020233F3F3E380000000372
:100E300007070F0F1F1E1E1C1C1C1C0C0C0E06038C
:100E40000100101F1F1F1F10000000000000000005
:100E5000001F1F00000000100F0F0F1F18101018A8
:100E60001E0F07030000100F0F0F1F181010181E81
:100E70000F07030000070F1F1F181010101F1F1F60
:100E80001F10000081C78F9F1E1C1C0E9FFFFFFFBD
:100E900070000103070F0F1E1E1C1C1C0C04000019
:100EA0000000000000000000000000000000000042
:100EB0000000000000000000000000000000000032
:100EC0000000000000000000000000000000000022
:100ED0000000000000000000000000000000000012
:100EE0000000000000000000000000000000000002
:100EF00000000000000000000101010101010101EA
:100F000000000000000000000000000000000000E1
:100F1000003510BF7FE0840A44A04F1024AA24208B
:100F20004955494149554941495549414955494121
:100F30004955494149554941495549414955494111
:100F40004955494149554941000102050B0A162CF2
:100F50002C595A5958B2B5B2B0B2B5B2B0B2B5B256
:100F6000B0B2B5B2B0B2B5B2B0B2B5B2B0B2B5B25D
:100F7000B0B2B5B2B0B2B5B2B0B2B5B2B003051F3F
:100F8000041B03050F190F030508100F05051F00AB
:100F90001F111F030507051F03051F151F03051953
:100FA000050303051F151D030517151D030507047C
:100FB0001F030511151F03051D151703051F051F29
:100FC0000B0F00000000000000000000FF40404048
:100FD000404040404040201F0D11FC0251A955A93E
:100FE00055A955A95102FC7F80152A552A552A5525
:100FF0002A15807F000001010101010101010100AA
:10100000000D11A80200010001000100010002A86A
:101010002A80000000000000000000802A0000007C
:10102000010001000100010000000080F8FCFEFF4B
:10103000FEFCF8F8F8F8F0E0C0070F1F3F7FFFFF55
:10104000FFFFFF7F3F1F0F070F100000807804FA9B
:1010500004D810D010D020C000000708172C5F5F04
:101060005B5F5B2F170807000D14000000000000F5
:10107000000000000000FF00000000000000000071
:10108000000000FF0808080808080808080804020B
:101090000105060E1F3E1F0E0C1E3F1E0C0C2E3FA0
:1010A0002E0C0C2F372F0CFCFEFFFFFFFFFFFFFF66
:1010B000FFFFFFFFFFFFFEFCFFFFFFFFFFFFFFFF44
:1010C000FFFFFFFFFFFFFFFFFF1F3F7F7F7F7F7F50
:1010D0007F7F7F7F7F7F7F7F3F1F1117005004003E
:1010E000020002000200020002000450000055004D
:1010F0000000000000000000000000005500000596
:10110000100020002000200020002000100500001A
:10111000F80452AA52AA52AA52AA52AA5204F80099
:1011200000FF0055AA55AA55AA55AA55AA5500FF71
:1011300000000F10252A252A252A252A252A2510D0
:101140000F0000F804F2FAFAFAFAFAFAFAFAFAF2E6
:1011500004F80000FF00FFFFFFFFFFFFFFFFFFFF9E
:10116000FF00FF00000F10272F2F2F2F2F2F2F2FC3
:101170002F27100F00120AFFFFFFFFD7D353525241
:10118000525353D3D7FFFFFF7F0001010101010339
:101190000302020303010101010100FFFFFFFFED54
:1011A000D95B525252535BD9EDFFFFFF7F00010123
:1011B000010101030302020303010101010100FF18
:1011C000FFFFFFB7D3535252525353D3B7FFFFFF22
:1011D0007F00010101010103030202030301010178
:1011E000010100FFFFFFFFD7D353D2929293939355
:1011F000D7FFFFFF7F00010101010103020202028C
:1012000003010101010100FFFFFFFFD793939292B9
:1012100092D353D3D7FFFFFF7F00010101010103E8
:1012200002020202030101010101001409FFFFFF94
:10123000F77E7E7676F6F6F6F6F676767E7EFEF625
:10124000FC0101010000000000000101010000009C
:101250000000000101FFFFFF3B3E7E7A7AFAFAF6BA
:10126000F6F676767E7EFEF6FC01010101000000B6
:101270000000010101000000000000010115040050
:101280000606040604040604000B00040604040613
:1012900004060600000606040404040404000B000F
:1012A00004040404040406060030300000000000BA
:1012B0000000C02010080402024202020202020AD8
:1012C0000A0A0A0A0A0A0A0A0A0A0A0A0A12A408DE
:1012D00050A0C0000000000000000000000000005E
:1012E0000000FF00800000FE000000000000000081
:1012F000000000000000000000000000FC003F8033
:10130000552AFF000000000000000000000000005F
:10131000FE0101F95A81FCFDA1A1E1E1E1E1E1E178
:1013200021E1F7E1E1E1E1E1E1E1E1A1A1FCFD82FF
:1013300059F80101FE00000000000000000000005C
:10134000010202050990A7DF3F7F000000000000B6
:101350000000000000000000000000003FDFA79038
:1013600089050404030000000000000000C020D034
:10137000E8F4FA79B95204022C5ABC78F878B81813
:1013800040B07070B04018B878F878BC5A2C4AA4B5
:101390007AF1FAF4E8D020C0000000000300030353
:1013A0000301020100000000000000010201000032
:1013B0000000030300000000010201000000000023
:1013C00001020103030303000300000503000205FB
:1013D0000200000207020000EB31492F11241FBE5A
:1013E000CFEFDAE0DEBFCDBF12E0A0E0B1E0E0EC8D
:1013F000FCE602C005900D92A831B107D9F727E0AD
:10140000A8E1B2E001C01D92A73AB207E1F719E0E6
:10141000CDEED9E004C02197FE010E944A34CC3EB3
:10142000D107C9F70E944D2F0C9453360C9400003D
:101430002F923F924F925F926F927F928F929F92E4
:10144000AF92BF92CF92DF92EF92FF920F931F93D2
:10145000CF93DF93CDB7DEB729970FB6F894DEBFF1
:101460000FBECDBFDC01FB015B012EE0A20EB11C63
:101470008B010F5D1F4F91849094808598229E96DA
:101480008C919E97882321F08CE01C968C931C975E
:101490001C969C911C97492F50E04D30510510F03F
:1014A0000C946C156F017D01FA01EA5AFF4F0C9400
:1014B0004A34D60116968D919C9117978F70992773
:1014C000892B31F41E968C91882311F40C943B14D3
:1014D000F6016685663098F5868197818F70992729
:1014E000892B11F00C946C1584A991E0980F94ABA2
:1014F000E60FF11DD601A80FB11DD5968C91808BFA
:101500006F5FD6011E966C93C60140960E941B2BFE
:10151000F60184A991E0980F94AB61A1E60FF11D4B
:10152000D601A80FB11DD5968C9183A36F5FD6010C
:1015300091966C93C60183960E941B2B9CC781E0F9
:1015400048C2D6011E968C91853008F43EC095FEA7
:1015500006C0F701838D882311F08150838F96FE9A
:101560000EC0D7015B962C91422F50E0F601868584
:1015700090E001974817590714F40C944A1493FC0F
:1015800002C00C946C1581E0D7011E968C931E97B7
:101590005B966C91C5010E942B17682FF601E759E5
:1015A000FF4F8081811102C0C50101C0C8010E94A6
:1015B0004C17F701838DD6011E969C9189130C94CC
:1015C0006C158150838F0C946C158FEFF701858F0C
:1015D000868F86E0E6E1F1E0DE01119601900D9242
:1015E0008A95E1F786010D5D1F4F9601275D3F4FFC
:1015F000DE011196F8014DE051E08191642F0E94C7
:101600002A34943009F45C931196E217F307A9F792
:10161000AE014A5F5F4FFE013196D8013DE022E006
:10162000B22EAD908C91632F0E942A3421E0290FB5
:101630008A2D0E942A349F5F291308C080818F3F22
:1016400009F4B08281818F3F09F4B18231964E173F
:101650005F0739F7DE011196B12C8DE0A82E93E0DB
:10166000992EB394F80181918F016A2D0E942A343A
:101670009F5F292F30E02F5F3F4F8B2C482D50E08C
:10168000F601E40FF51F83A16A2D0E942A349F5FA3
:10169000892F90E02817390771F48C918F3F09F456
:1016A0009C92E1E0F0E0EC0FFD1FE40FF51F80815C
:1016B0008F3F09F490828394F6E08F12DFCF11966A
:1016C000F5E0BF12CECF9E01295F3F4FD601FE014C
:1016D00031964DE058E016E080818F3FB9F4939643
:1016E0008C919397642F0E942A3481E0890F89306E
:1016F00038F4873050F4943048F49B5F908306C0F0
:101700009950943018F4508301C01083319611968B
:10171000E217F30709F78FEF96012B5F3F4FF601B2
:10172000AE014F5F5F4FDA019D91AD01981315C077
:10173000D7015D969C915D979F3F21F493A15D96A3
:101740009C930BC0981749F0D7015E969C915E97C9
:101750009F3F19F493A15E969C933196E217F3078D
:1017600011F78150E1F6F701858D8F3F59F40E9402
:10177000133326E030E040E050E00E949033D70180
:101780005D966C93F701868D8F3FB1F4F6E08F2E56
:10179000912CA12CB12CD7015D969C915D975E9602
:1017A0008C91981749F00E941333A50194010E946F
:1017B0009033F701668FEFCF82E073C0FD01848D17
:1017C0008F5F848F8D33D8F48F3208F049C08E320A
:1017D00038F54DE2B601CD010E945A2D6EE072E05F
:1017E000CE0101960E94BD2001E020E042E0BE0152
:1017F0006F5F7F4FC7010E94262E0C946D148A36AE
:1018000048F48E3308F046C0FD01868DF601B3968C
:1018100060E028C08A3611F00C946C1583E041C05A
:101820005D968C91F601B39660E09191891721F055
:101830006F5F6630D1F76FEFC8010E942B17F6017A
:10184000E759FF4F8081811103C0F701658D1DC0ED
:10185000D7015D966C91C8010E944C170C946C15D1
:101860004CE319C09191891721F06F5F6630D1F771
:101870006FEFC8010E942B17F601E759FF4F8081D7
:10188000811105C0D7015E966C91C501E5CFF701C6
:10189000668DE1CF49E6B601C7010E945A2D0C942E
:1018A0006C15D7011C968C931C9763C7FD01848D22
:1018B0008F5F848F8934D8F48B3108F05CC08A3113
:1018C000D0F5803100F58F3011F00C946C15D601F5
:1018D000D4968C91D49791E0980FD4969C93F6016E
:1018E000E80FF11D85A9F70180A70C946C158E37C0
:1018F00028F48E3408F041C04DE7CDCF8E3709F47F
:101900005FC00C946C1561E0C5010E94561662E040
:10191000C8010E945616D70198968C9198976DE051
:101920000E942A349A3011F40C946C158DE45C9664
:101930008C930C946C15F601E759FF4F808162E09F
:1019400081110CC0C5010E945A176BEF71E0CE01E6
:1019500001960E94BD2000E022E00BC0C8010E9459
:101960005A1768EE71E0CE0101960E94BD2001E099
:1019700021E04EE4ACC74DE727C5B601CD010E947A
:10198000761E4DE7B601C7010E945A2DF601E759B0
:10199000FF4F8081813051F464ED71E0CE010196FA
:1019A0000E94BD2001E020E041E591C762EC71E0BA
:1019B000CE0101960E94BD2001E020E047E487C7E8
:1019C0005C961C92F601E759FF4F80818130F1F45B
:1019D00084E0F70184870C946C155C968C915C977D
:1019E0008F5F5C968C935C97853308F45AC085337F
:1019F00011F00C946C15B601CD010E94761EF70112
:101A0000148ED601D3968C91811162C087E00CC0F0
:101A1000BD01615E7F4FC5010E94921E81113FC0D2
:101A200081E0F60180A386E0D7011C968C930C948C
:101A30006C15FD01848D8E3208F454C08E3211F085
:101A40000C946C15B601CD010E94761EC7010E9450
:101A5000C21EF701148E8F3109F41DC287E08487FE
:101A6000F60180A181110C946C1583A9882309F4D7
:101A700024C2B701615E7F4FC5010E94921E811191
:101A80000EC0B601C7010E94821ED60191968C91AC
:101A900091978111BBCF1E968C91882309F185E027
:101AA00098CF873068F4863011F00C946C15F601ED
:101AB00083A98111F5C681A1882309F4F1C6FEC668
:101AC00044E3B601CD010E945A2D81E0D701E0C167
:101AD000B601C7010E94821EF6018685811178CF6A
:101AE00088E0A2CF813008F0C5C195FE08C05B96A2
:101AF0008C915B97882319F081505B968C9396FEAE
:101B00000DC0F701238D422F50E0D6011E968C9117
:101B100090E00197481759070CF4E4C693FEDCC720
:101B2000C7010E94C21E282FF701438DF601E40F62
:101B3000F11D80896DE00E942A3431E0390F3B307D
:101B400008F03AE0822F90E0830F911D80970CF00F
:101B5000C3C7642FC5010E942B17D70197960C911C
:101B6000F701E00FF11D878F0F5FF70107A3838D4A
:101B7000D6011E969C91891302C08150838FC701A4
:101B80000E94C21E982EF60153A9511104C051E0C3
:101B900081A1811150E0023008F4A8C6F701E00FDE
:101BA000F11D858D3DE0632F0E942A3421E0290F2D
:101BB000868D0E942A3431E0390F321302C012E0C0
:101BC00001C010E00230C9F0848D6DE00E942A341B
:101BD00041E0490F241303C0321301C01C5F0330DE
:101BE00061F0838D6DE00E942A349F5F491305C028
:101BF000241303C0321301C01A5F892D8F7E8F30EA
:101C000009F41E5F033008F411C1F701E00FF11D64
:101C1000848D3DE0632F0E942A34B1E0B90F858D99
:101C20000E942A3488248394890E868D0E942A3447
:101C300021E0290F8B1601F12B17F1F02815E1F0A7
:101C4000B81518F4882D8B1B02C08B2F8819833090
:101C500098F4B21718F4822F8B1B02C08B2F821BB3
:101C6000833050F4821618F4822F881902C0882D10
:101C7000821B833008F43CC6A0E0033009F4D6C0D0
:101C8000838D6DE00E942A3431E0390FB31709F4D7
:101C900042C0831609F43FC02317E9F18B16D9F12E
:101CA0002B17C9F12815B9F13B1718F48B2F831B9B
:101CB00002C0832F8B1B843070F5381518F4882DE3
:101CC000831B02C0832F8819843028F5321718F43B
:101CD000822F831B02C0832F821B8430E0F4B8154F
:101CE00018F4882D8B1B02C08B2F8819843098F430
:101CF000B21718F4822F8B1B02C08B2F821B8430EB
:101D000050F4821618F4822F881902C0882D821B85
:101D1000843008F4F0C540E0043009F487C0828DB7
:101D20006DE00E942A3481E0890F381709F47EC0E3
:101D3000B81709F47BC0881609F478C0281709F48D
:101D400075C0B31709F472C0831609F46FC0231766
:101D500009F46CC08B1609F469C02B1709F466C02E
:101D6000281509F463C0831718F4932F981B02C039
:101D7000982F931B953008F059C08B1718F49B2FA0
:101D8000981B02C0982F9B1B953008F04FC08815F8
:101D900018F4982D981B02C0982F9819953008F0C8
:101DA00045C0821720F4F22FF81B8F2F01C0821B31
:101DB0008530E0F53B1718F48B2F831B02C0832F6F
:101DC0008B1B853098F5381518F4882D831B02C0BD
:101DD000832F8819853050F5321720F4622F631B4A
:101DE000362F01C0321B353008F5B81518F4882D90
:101DF0008B1B02C08B2F88198530C0F4B21720F4DA
:101E0000722F7B1BB72F01C0B21BB53078F482163E
:101E100010F4281902C0821A282D253038F4AA237C
:101E200009F474C5442309F46FC51F5F8FE1981648
:101E300089F0552379F0D6011E968C91882309F4F8
:101E400069C5B701615E7F4FC5010E94921E88235C
:101E500009F460C5612FC5010E945A1700E022E015
:101E6000412F692DC7010E94622EF701848D8F5F7B
:101E7000848F32C64DE2B601CD010E945A2DD701A2
:101E80005C968C915C978F5F5C968C935C9781E0FD
:101E90005A968C9321C6D60191968C91882319F07D
:101EA00087E0848705C0F6018685882309F418CE6B
:101EB000B601C7010E94821E0FC681A1882309F4C2
:101EC000D8CD0AC6FD01848D8F5F848F8D3330F4A9
:101ED000813108F078C2803129F0FEC58D3309F4D4
:101EE0007BC2FAC5D6011E968C911E97823030F0C7
:101EF00090969C9181E09827998701C019863701B7
:101F0000BFE16B0E711C86E0E6E1F1E09E012F5F00
:101F10003F4F4901D90101900D928A95E1F7F301F4
:101F20009701295D3F4F412C512C4DE081918F3F0E
:101F300049F05394642F0E942A349F5F9B3008F02D
:101F40009AE0490EE217F30789F7B6016D5D7F4FFE
:101F50005B0172E0751508F044C0F301E50DF11D59
:101F6000DF0112978C912DE0622F0E942A3431E01C
:101F7000390F11978C910E942A349F5F391334C016
:101F8000319780810E942A3421E0290F23132CC02D
:101F9000822F2B3008F08AE0382E340C8FE1831525
:101FA00018F1D60191964C91F50130E05DE04317B0
:101FB000D9F08191652F0E942A349F5F29130FC0A9
:101FC000632FC8010E942B17382FBFE03B1629F062
:101FD000EFE18CE03E12FDC0C2C08EE0FAC03F5F70
:101FE000E6CFF2E05F12F7C0A301450D511DFA01E3
:101FF000329780812DE0622F0E942A3431E0390F20
:10200000319680810E942A3421E0290F231329C0B0
:10201000822F2B3008F08AE0382E340C6FE16315E4
:1020200000F1D60191962C90F501A0E0BDE02A16B2
:10203000C1F081916B2F0E942A349F5F29130FC03A
:102040006A2FC8010E942B17382FBFE03B1629F0DA
:10205000EFE196E03E12F7C0F3C098E0F4C0AF5F46
:10206000E6CFF2E0F51508F07CC0FA0133978081E5
:102070006DE00E942A3441E0490FD60191963C90D0
:10208000431718F4232E241A02C0242E231A4217B1
:1020900018F4A22FA41B02C0A42FA21B321718F4FD
:1020A000B22FB31B02C0B32FB21BF50150E035169F
:1020B00009F45AC081916DE00E942A349F5F892FF4
:1020C0009B3008F08AE0840D8F83803208F024C4AE
:1020D000341709F421C4241709F41EC4491709F45C
:1020E0001BC4231709F418C4391709F415C4291798
:1020F00009F412C463E0621508F40EC4A43008F0B9
:102100000BC4491718F4892F841B02C0842F891B24
:10211000843008F001C4B43008F0FEC3391718F455
:10212000892F831B02C0832F891B843008F0F4C3DE
:10213000291710F4921B03C0722F791B972F94302C
:1021400008F0EAC3652FC8010E942B17382FFF81C2
:10215000FF3009F4E3C38F818F31D1F584E092E041
:1021600073C092E0591237C0F601A1A1321718F4DA
:10217000522F531B02C0532F521BF50140E0BDE00C
:10218000A41749F181916B2F0E942A349F5F892FF8
:102190009B3008F08AE0382E340C6FE1631508F4A8
:1021A000BFC3231709F4BCC3391709F4B9C32917EE
:1021B00009F4B6C3533008F0B3C3391710F4931BB6
:1021C00003C0732F791B972F933008F0A9C3AAC3BC
:1021D00084E090E039C02985211103C0511033C437
:1021E000B2C30E94133323E030E040E050E00E948D
:1021F0009033613071058105910509F0A4C3EECFDC
:102200002F5F521709F49FC38191642F0E942A34D3
:102210009F5F892F9B3008F08AE0382E340C6FE1E5
:10222000631570F33913ECCF622FC8010E942B178E
:10223000382F7FE0371631F08FE192E0381203C07B
:1022400082E002C094E080E0B92EB80E17C02F5F84
:10225000421709F449C08191632F0E942A349F5F7D
:102260009B3008F09AE0940D9F7E9F3081F7622F9B
:10227000C8010E942B17382FE2E0BE2E3F3F09F421
:1022800082C0D70197968C91F701E80FF11D378F27
:102290008F5FF70187A3C7010E94C21EA82EFFE12E
:1022A0008F17B1F0D6011E968C911E97882321F0CE
:1022B00090968C91882361F0F60181A1882309F41E
:1022C000F2C3B301C8010E94921E882309F4EBC334
:1022D0006B2DC8010E945A1701E021E04B2D6A2D99
:1022E000C7010E94622EF8C3950150E07DE0272EC1
:1022F000E42DF0E0F887EF8345132DC3F701878DB8
:102300008F3F29F4F50120E03DE0421347C3252C1F
:10231000312CF1E02F1A3108260C371CF101808195
:102320006DE00E942A3451E0590FF50130E020E0C1
:102330006DE0B62E431341C3213061F4F4019DE0FA
:10234000A92E242D30E0BB24B3948E2F8819841736
:1023500008F43DC3F401D6015DE0242D30E08E2F5A
:102360008819841708F446C35FEF8DE0B82E242D3A
:1023700030E0D401F601A12C4A1153C35150C9F7E2
:1023800081E0F60183ABD60190968C91882369F0A9
:1023900061E0C8010E945A1762EA71E0C4010E941C
:1023A000BD2001E021E04DE208C06AE971E0C4010E
:1023B0000E94BD2001E020E042E2B401C7010E947A
:1023C000D91EC4018CC24CE3B601C7010E945A2D2C
:1023D00081E0F701828F80C3B601CD010E94761E95
:1023E000D7015C961C92C7010E94C21EF601968519
:1023F0008F3169F4992311F084E005C0F60181A1C1
:10240000882351F087E0D7011C968C9311C091115D
:1024100007C081A1811111C088E0F70184872BC01A
:1024200084E0F7018487D60190968C91882319F176
:10243000B601C7010E94821E1EC084E0F701848796
:10244000D60190968C919097811104C01E969C9114
:10245000911111C0F60193A99111E8CFB701615E06
:102460007F4FC8010E94921E882309F41EC387E093
:10247000D7011C968C9361E0C5010E94561662E05C
:10248000C8010E94561628C3F601868197818F7075
:102490009927892B09F044C05C968C915C97482F52
:1024A00050E049305105E0F5FA01ED59FF4F0C9429
:1024B0004A34F601878D9A969C919A97981710F452
:1024C0009A968C93F60182A9D7019B969C919B9733
:1024D000981710F49B968C93F70192A5D6015E96FF
:1024E0002C915E9783A5921728F0D1969C9189171D
:1024F00020F0E4C29F5FF70192A7D601D1969C918C
:10250000891770F48F5FF70183A70AC099961C9210
:1025100099978F5FD5C291E0FD0191A78F5F848F5E
:1025200093FEDAC289E0D7011C968C931C975C96C7
:102530001C925C9781E099968C9399979C961C923B
:10254000F601868D878F81A982ABC6C25C968C917D
:102550005C978E36D8F48F3508F0DAC0823309F4F0
:1025600070C050F4813308F061C021E0280F86303C
:10257000E8F4FD01248FD5C0803508F0C0C0813457
:1025800008F0C6C0833309F487C0C7C08B3938F45C
:102590008C3808F0B4C08D3708F0BAC0B0C08A3AA1
:1025A00008F4B6C0893B08F0B8C0A9C05C962C936B
:1025B000F601E759FF4F80819A3009F19B3039F1DC
:1025C000811109C060E971E0CE0101960E94BD2031
:1025D00003E021E008C064E871E0CE0101960E94AA
:1025E000BD2003E022E044E3BE016F5F7F4FC701DF
:1025F0000E94D91ECE0101960E94791F92C081309F
:1026000019F469E771E007C06DE671E0E6CF81304B
:1026100051F462E671E0CE0101960E94BD2003E014
:1026200021E042E3E1CF66E571E0D7CF82E3FD012F
:10263000848FB601CD010E941D1ED7019D968C93FB
:1026400070C0C5010E947B2793FE0AC0F70195A5C3
:10265000911102C0148E04C093E3948F912C08C092
:1026600097FE06C0F70194A5992311F0915094A705
:1026700094FE57C0D7019C969C919C97492F50E09F
:102680004B5F5F4F282F30E0421753070CF049C0D3
:102690009F5F9C969C9345C0F601878D9A969C916E
:1026A0009A97981710F49A968C93F60182A9D701FD
:1026B0009B969C919B97981710F49B968C93F60190
:1026C000868197818F709927892B59F5D7019A9622
:1026D0009C919A97268D9B968C91921720F091A9A8
:1026E000891720F0F0C19F5FF70192A7D601D1961C
:1026F0009C918917B0F48F5FF70183A712C08F5F99
:10270000D7015C968C935C9781E099968C9309C075
:102710008F5FF701848F11A604C0B601C7010E9424
:10272000761E93FED9C1D7015C968C91823330F42A
:10273000B601C7010E941D1EF70185A7D7011C968F
:102740008C911C978A3041F08B3051F0893059F4CC
:102750008AE01C968C9307C08BE0F701848703C046
:10276000D7011C961C92F601868D878F81A982ABBA
:10277000D7015C961C92B0C1FD01848DD6018234D4
:1027800020F55E968C91893750F062E371E0CE01BE
:1027900001960E94BD2002E02CE442E009C064E002
:1027A00071E0CE0101960E94BD2001E023E443E0E8
:1027B000BE016F5F7F4FC7010E942F2DCE01019692
:1027C0000E94791FF701848D4CC016962D913C9183
:1027D00017972F703327232B09F045C0482F50E05F
:1027E000FA01E254F109E930F105E8F5E459FF4F47
:1027F0000C944A34F601878DD7019A969C919A974A
:10280000981710F49A968C93F60182A9D7019B969B
:102810009C919B97981710F49B968C93F70192A527
:10282000D6015E962C915E9783A5921728F0D196DB
:102830009C91891720F04BC19F5FF70192A7D601A9
:10284000D1969C91891778F48F5FF70183A70BC00D
:10285000D70199961C9299978F5F3BC191E0F70140
:1028600091A78F5F848F93FE37C1F601E054FF4F2D
:1028700083E0808331C1B601C7010E94722DF60149
:10288000E759FF4F81E09081913009F480E0808327
:102890000C94680A2F5FD7015B962C930C94BF0AA7
:1028A00061E0C5010E945A1766EB71E0CE01019606
:1028B0000E94BD2000E022E04DE209C06EEA71E016
:1028C000CE0101960E94BD2000E020E042E2BE0160
:1028D0006F5F7F4FC7010E94D91ECE0101960E94F3
:1028E000791FFAC02F5FF701238F18C910E085C93F
:1028F0001D5FA1E0C2C9AA2329F081E0180F41E0C1
:10290000A1E00ACA84E0FACF1E5F90CA41118ECAC4
:102910001B5F8CCA1F5F9ECA5F5FC9CB86E059CC24
:102920004F5F2ECC642FC8010E942B17382F2FE049
:10293000321639F08FE1381202C083E010CC83E008
:1029400048CC85E046CCD60191964C91D501F50155
:1029500020E03DE07DCCF90181919F01622D0E9434
:102960002A349F5F9B3008F09AE0EF81F885E90FE9
:10297000F11D3B9789F4F601312C531549F083A1E1
:10298000622D0E942A349F5F9A3010F0652F0DC08F
:10299000339431964311F1CF5F5FAECC8191632FB9
:1029A0000E942A34933039F4622FC8010E942B17F9
:1029B000382FB12C63CC2F5FA8CC81916B2D0E9456
:1029C0002A349F5F591301C02F5F3F5FB3CC8D91B5
:1029D0006A2D0E942A349F5F59130AC0852F5B30ED
:1029E00008F08AE0B901680F711D60327105DCF1F1
:1029F0003196ABCC80818F3F89F493968C919397DD
:102A0000652F0E942A3481E0890F8B3008F08AE01C
:102A1000B901680F711D603271053CF11196319654
:102A20009ECC8D9158133CC083A16B2D0E942A34FB
:102A30009F5F9B3008F09AE0B901690F711D603209
:102A4000710574F515C0F301E50DF11D3197808115
:102A50006DE00E942A3431E0390FF60151A1F501F1
:102A600020E04DE0CECBB082C3CF9B5E9083D6CF2B
:102A70006A2DC8010E942B17382F552071F0D10103
:102A80008C914DE0642F0E942A3421E0290F832F7E
:102A90000E942A349F5F81E0291380E0B82EEECB9C
:102AA000A394319669CCB39413CCD6011E968C9125
:102AB0008111BECC87E0F7018487BACC81E0D701D1
:102AC0005C968C932DCD81E4F701848F2ACE83E42C
:102AD000D7015C968C93C7CE29960FB6F894DEBFCB
:102AE0000FBECDBFDF91CF911F910F91FF90EF905F
:102AF000DF90CF90BF90AF909F908F907F906F901E
:102B00005F904F903F902F900895DC01FB0121854D
:102B1000209590852923868197818F709927892B0D
:102B200059F450969C9150979F5F9C3119F05096A4
:102B30009C9302C050961C9223FF0FC083E884BD73
:102B40008FEF87BD81EF80938000109288001092F4
:102B50008A00E054FF4F81E080830895089580E06B
:102B600090E008950895CF93DF93FC016A3039F423
:102B70008581848396818185890F868351C0848174
:102B8000603219F48E5F84834BC06E37D9F3262FE1
:102B9000EF0166816F5F2A3331F178F42D32C9F18C
:102BA00030F4213211F12B3271F521E41FC02E32A5
:102BB000A1F0203340F12C5F19C02B3540F42134B3
:102BC00070F42F3371F02034F1F424E40FC09FE946
:102BD000920F9A31C0F4275409C02FE307C0215443
:102BE00005C022E403C023E401C02EE33F81062E8A
:102BF000000C770B082E000C990B313061F44FE27A
:102C000052E00E940D2A88858D5F9C81890F8C83FC
:102C100007C020E4EBCF4FE252E00E941D2AF3CF21
:102C200081E090E0DF91CF9108950F931F93CF93B0
:102C3000DF938C014CEA53E064E170E080E090E0C7
:102C40000E94B724CAE9D0E0F801808920E046E577
:102C500053E06FEF7FEFFE01E80FF11DCF010E94FF
:102C60000D2A6C97CA3BFFEFDF0771F7CCEEDFEF61
:102C7000F801808920E040E053E06DE270E0FE0161
:102C8000E81BF109CF010E940D2A6C96C03BD105CB
:102C900079F7DF91CF911F910F9108950C94E8344B
:102CA0000C94E8340C94E8340C94E834CF92DF921E
:102CB000FF920F931F93CF93DF938C01C62F69EC84
:102CC00071E084E296E00E94F5236C2F84E296E0A6
:102CD0000E94302661ED71E084E296E00E94F523C7
:102CE000C0E08DE0F82EF8018081C81708F062C0BE
:102CF00064ED71E084E296E00E94F5236801CC0E59
:102D0000D11CF601628184E296E00E94302666EDD5
:102D100071E084E296E00E94F523F601D281DF3F64
:102D200019F469ED71E03AC08D2F6F2D0E942A349D
:102D300061E0690F6B3081F018F4623040F404C038
:102D40006C3069F06D3071F06CED71E00DC084E2B3
:102D500096E00E9430260CC06EED71E005C060EE7A
:102D600071E002C062EE71E084E296E00E94F52319
:102D70008D2F6F2D0E942A34813059F068F08230F7
:102D800029F0833079F466EE71E008C064EE71E0FA
:102D900005C068EE71E002C06AEE71E084E296E080
:102DA0000E94F52365E172E084E296E00E94F5233B
:102DB000CF5F99CF6EEE71E084E296E00E94E0234F
:102DC0006CEE71E084E296E0DF91CF911F910F915C
:102DD000FF90DF90CF900C94E023CF93DF93FC0122
:102DE00010821182DC01129686E0ED0119928A951B
:102DF000E9F71A9684E0ED0119928A95E9F7128AAB
:102E0000662311F0108A118ADF91CF9108950F93F4
:102E10001F93CF93DF938C01EB0161E0CE010E96FF
:102E20000E94ED1661E0CE0181960E94ED16BE0172
:102E3000C8010E94722DF8011686148616A6FE019E
:102E4000E759FF4F1082C659DF4F1882DF91CF91AB
:102E50001F910F910895FC01DC01A60FB11D129680
:102E60008C91663050F4DF01A60FB11D13969C9132
:102E7000139712969C936F5FF4CF9FEF9783908187
:102E800091509083943039F4DF0118963296019076
:102E90000D929A95E1F70895FC019181DF01A90F48
:102EA000B11D1C966C9361E0690F6183CF010C9694
:102EB0000C941B2BFC019089690F6A3710F4608B0E
:102EC000089589E7808B08950895089508950895D9
:102ED0002F923F924F925F926F927F928F929F922A
:102EE000AF92BF92CF92DF92EF92FF920F931F9318
:102EF000CF93DF93CDB7DEB72C970FB6F894DEBF34
:102F00000FBECDBF5C014B01FB0166807780FC01E9
:102F100084858850853008F4BDC0008D22E147E5E6
:102F2000C5010E94162CF4018685880F982F990FF1
:102F3000990F890F845F869594E3F92EF81AE12C96
:102F40005DE0D52EF4018685E81608F059C02E2DD7
:102F500030E090E00197E20FF31F0F2D10E0C088E2
:102F60002817390724F520E04AE755E069E270E0C8
:102F7000C8010E940D2A0D5F1F4F8C2D6D2D0E94E0
:102F80002A34C92E282F41E950E164E370E0C801DA
:102F90000E941D2AEC2DF0E0EE0FFF1FE155FE4FC1
:102FA0004081518120E06DE270E0C80123C020E043
:102FB00046EA55E069E270E0C8010E940D2A8C2DB6
:102FC0006D2D0E942A34C92E282F41E950E164E377
:102FD00070E0C80108960E941D2AEC2DF0E0EE0F6B
:102FE000FF1FE155FE4F4081518120E06DE270E00E
:102FF000C80103960E941D2AE394FAE0FF0EA2CFB7
:10300000F40111A1110F812F880F880F180F145F81
:1030100016951A5C00E0F40181A10817F0F4202F46
:1030200030E090E00197281739074CF4812F90E0A9
:1030300020E04CE555E068EF7FEF0A9709C082E099
:10304000810F90E020E04EE255E068EF7FEF469779
:103050000E940D2A0F5F1A50DECF21E040E86DE399
:1030600070E080E090E00E944A2A20E040E86CE3B3
:1030700070E080E090E00E944A2A00E010E041E029
:103080006FE370E0C8010E948A2A0E5F1F4F00386C
:103090001105A9F7F5012485822F90E08D30910567
:1030A00008F050C2FC01EB58FF4F0C944A34F50174
:1030B000638DC4010E94C32CF5016685C4010E9482
:1030C000E42C40C2F50180A58F3F09F080C221E0C9
:1030D0004AED50E16CE070E080E090E00E940D2A43
:1030E00020E048E650E160E170E085E090E00E9479
:1030F0000D2A28C2C5010E94B32CF501848D8111CF
:1031000008C0638DC4010E94C32C03C0C5010E9486
:10311000B32CC5010E947C2C15C2F40191A9868DA7
:10312000891710F002E001C001E026E140E0B4019F
:10313000C5010E94162C20E046E658E060E070E0F1
:103140008BE290E00E940D2A20E047E556E064E023
:1031500070E083E390E00E940D2AF401968D878D44
:10316000981719F0F50111A501C010E0F40182A92A
:1031700091A9981719F0F50141A501C040E0F501AA
:1031800063A50E941827412FF50162A5F401878DE0
:103190000E94D42621E041E0B401C5010E94D12B58
:1031A000D1C16401FEE0CF0ED11CC40187599F4FED
:1031B0007C01FC018081293019F4882319F009C0B1
:1031C000813039F4C6010E947B27882311F001E089
:1031D00001C002E026E140E0B401C5010E94162CC6
:1031E00020E046E658E060E070E08BE290E00E946C
:1031F0000D2AF501828D81112AC093012F71332789
:1032000081E0213108F480E0F5012485948D2A3095
:1032100049F02B3039F02930D1F4F7012081211108
:1032200005C00BC0F7012081211107C041E0993B87
:1032300008F440E0482B21E006C021E0993B08F467
:1032400020E0282B41E0B401C5010E94D12BF501FB
:10325000848D823309F050C18683878310868485EC
:103260008A3081F08B30D1F0893029F5F701208147
:10327000C5010296211103C06EE476E01AC063E432
:1032800076E017C0F7012081C5010296211103C025
:1032900068E376E00EC06FE276E00BC0F7012081B4
:1032A000C5010296211103C064E276E002C06BE121
:1032B00076E00E945C27C6010E947B27E82E8111E0
:1032C0000DC088E4F501868387838CE1808761E106
:1032D00076E0C50102960E945C2734C1F5E0F8173C
:1032E00068F421E0F50184A5811120E041E056E079
:1032F00061E070E088E790E00E940D2A3401FBE66F
:103300006F0E711C230119861886F12C95012E5F12
:103310003F4F3C872B879885F50184A59E1508F0C3
:1033200090C0981708F484C090E0059628853985E8
:10333000821793070CF47CC038E0F39EC00111247F
:103340006C01EAE0CE0ED11C120102E310E01F82F4
:10335000F10180818F3F49F1FF81FF5FFF836DE0C5
:103360000E942A349F5FE92FF0E0EE0FFF1FE35524
:10337000FE4F40815181E1E0F0E09A3011F0E0E051
:10338000F0E020E0B601C8018E1B9F0B0E940D2AC1
:10339000F10180816DE00E942A34282F41E950E13B
:1033A000B601C80105960E940D2AFFEF2F1A3F0AA9
:1033B000025F1F4F0837110559F62F2D220F220FDC
:1033C000220F2A873F81353090F0F201158128E7DE
:1033D000F501268327838A85875F80871A3010F559
:1033E00064E172E08B859C850E94F5231BC03F81C0
:1033F0008EE0389F002D11240E5C82E7282E201AC3
:10340000312CCA849FE0C90ED12C10E041E0B601F6
:10341000C801830D911D0E948A2A3394339423148A
:10342000A8F7D3CF612F8B859C850E943026F3941B
:10343000E885F9853196F987E887F7E04F0E511C4A
:103440006ACF0E2D10E025E02E1578F490E0059659
:1034500021E0801791070CF420E041EF55E06CE388
:1034600070E088E790E00E940D2AF50184A590E0C5
:103470000596801791070CF465C081E081871F2DA8
:10348000110F110F110F165F8DE58683878310874B
:103490007501F2E0EF0EF11C6AEE75E0C7010E94C3
:1034A0005C2788E7F50186838783108784010154B0
:1034B0001F4FF30180E090819F3F11F09581890FAC
:1034C00037960E171F07B9F78A3028F464E172E0C7
:1034D000C7010E94F52360E0F30180818F3F11F066
:1034E0008581680FF7E06F0E711C06151705A1F7AF
:1034F000C7010E94302626C020E047E556E064E080
:1035000070E083E390E00E940D2AF401968D878D90
:10351000981719F0F50111A501C010E0F40182A976
:1035200091A9981719F0F50141A501C040E0F501F6
:1035300063A50E941827412FF50162A5F401878D2C
:103540000E94D426F501848588508530E0F0828D74
:10355000882329F0818D882311F0833051F4EE24E3
:10356000E394F40101A92FEF42E7B401C5010E94E1
:103570007426EE24E394F401068D24E342E7B401BB
:10358000C5010E947426F501828D882321F1C18C2A
:10359000E788068915891A8219821C821B821E827D
:1035A0001D82B501615F7F4FCE0101960E944F1FC2
:1035B000212FAE014F5F5F4FB401C5010E9403256B
:1035C000CE0101960E94791FF501128E04C0C5013B
:1035D0000E94B32CB7CF2C960FB6F894DEBF0FBE67
:1035E000CDBFDF91CF911F910F91FF90EF90DF90B2
:1035F000CF90BF90AF909F908F907F906F905F9093
:103600004F903F902F90089521E531E0FC013183E8
:1036100020830F960C94791FCF93DF93EC010E94C7
:10362000041BCE01DF91CF910C94E8342BEA31E0FA
:10363000FC013183208384529F4F0C94041BCF9351
:10364000DF93EC010E94161BCE01DF91CF910C9409
:10365000E8342F923F924F925F926F927F928F92B7
:103660009F92AF92BF92CF92DF92EF92FF920F9311
:103670001F93CF93DF93CDB7DEB72C970FB6F89497
:10368000DEBF0FBECDBF8C017A876987D42E1C01A7
:1036900044E5240E311C7C0145E050E06FEF70E002
:1036A000C7010E944536D70115961C92B7E0EB0E74
:1036B000F11CE214F30481F78D2D6DE00E942A3491
:1036C000C82E49855A854B5F5F4FA985BA8520E092
:1036D0009DE0B92E37E0F32EEE24E3943D913D15A5
:1036E00049F0832F6B2D0E942A349A3019F4C816A2
:1036F00009F43EC2A417B50789F78FE1482E512C73
:10370000FE0131967F013DE05E01F6E0AF0EB11C97
:1037100060901C0170901D0180901E0185E0EFE11A
:10372000F1E0D70101900D928A95E1F7E985FA85DC
:1037300080E090E0D12CA201082E02C0559547955B
:103740000A94E2F740FF06C04081D701AD0DB11DDC
:103750004C93D394019631968530910561F742E000
:10376000D41287C049815A81852F632F0E942A3441
:10377000CC24C394C90E842F0E942A349F5FC9129F
:1037800078C0F801FC87EB878681813009F054C04E
:103790008081632F0E942A349F5FC9124DC0BF01F0
:1037A000C12C90E080E0DB019D90BD01491102C079
:1037B000CC24C394BFEF9B1203C0911101C0982F7A
:1037C0008F5F853081F7C11005C0BF01690F711D82
:1037D000DB014C93BF0140E080E090E0DB01CD9045
:1037E000BD015C1101C041E0BFEFCB1203C08111EC
:1037F00001C0892F9F5F953089F7411106C08F5F07
:10380000BF01680F711DDB015C9390E080E0419186
:103810004F3F09F0982F8F5F8530C9F76E827F8206
:103820008886E5E0F0E0EC0FFD1FE90FF11D8081D7
:10383000EB85FC8585831DC037962E163F0609F063
:10384000A1CFB80187E0289F600D711D1124D70119
:10385000CB014D91FC014193CF01AA15BB05C9F7DE
:10386000E2E0DB011596EC931597F1E01696FC93D8
:103870002F5FF701D70140E08A2F8E198D1550F484
:103880008D91632F0E942A349F5F9B3008F09AE04D
:10389000490FF2CF4F30E1F4B80187E0289F600D67
:1038A000711D11247C876B87AB01C701DC016D9111
:1038B000CD01DA016D93AD01A816B906B9F742E062
:1038C000AB85BC8515964C93159716961C922F5F69
:1038D00063E0D61266C0D9808D2D632F0E942A34F2
:1038E0009F5F492F50E0CA80DA0111968C2D0E940B
:1038F0002A349F5F892F90E0A817B90709F01AC1F1
:103900009B804E5F5F4F892D0E942A349F5F892FD5
:1039100090E04817590709F00DC1D80140E016960C
:103920005C9116975450523018F57C9111966C9119
:10393000119712965C911297D71204C0C61202C05A
:103940009516A9F0D61207C0C51205C013966C9142
:103950001397961661F0D5120BC013965C911397CE
:10396000C51206C014965C911497951201C041E0EF
:1039700017962A163B0699F64111DCC0B80187E07C
:10398000289F600D711D1124CB014191DC014D93E5
:10399000CD01EA15FB05C9F743E0FB01458386E04D
:1039A000C7C094E0D91278C0D9808D2D632F0E94B2
:1039B0002A349F5F492F50E0CA80DA0111968C2D7E
:1039C0000E942A349F5F892F90E0A817B90709F059
:1039D000B1C09B80892D0E942A349F5F892F90E07F
:1039E000BA016E5F7F4F6817790709F0A3C0AC81F9
:1039F000AB874D5F5F4F8A2F632F0E942A349F5FF2
:103A0000892F90E04817590709F094C0C80140E099
:103A1000DC0116965C911697543029F56C9111963D
:103A20005C911197D6120CC0C5120AC012966C9107
:103A30001297961205C013966C91BB85B61791F03C
:103A4000D51211C0DC0112965C911297C5120BC001
:103A500013965C911397951206C014965C91BB85E2
:103A6000B51301C041E007962816390689F64111C1
:103A700061C0B80147E0249F600D711D1124CB0186
:103A80004191DC014D93CD01EA15FB05C9F744E0F6
:103A9000FB01458385E04CC095E0D9124BC089817C
:103AA000632F0E942A349F5F492F50E0DA0111965C
:103AB0008A810E942A349F5F892F90E0A817B90756
:103AC000C9F58B810E942A349F5F892F90E0BA014B
:103AD0006E5F7F4F6817790769F58C81632F0E94AD
:103AE0002A349F5F892F90E0BA016D5F7F4F68177E
:103AF000790701F54C5F5F4F8D81632F0E942A3457
:103B00009F5F892F90E048175907A1F4B801A7E0FB
:103B10002A9F600D711D1124CB014191DC014D9351
:103B2000CD01AE16BF06C9F745E0FB01458384E031
:103B300086832F5F91E0491A510809F0EFCD2C964A
:103B40000FB6F894DEBF0FBECDBFDF91CF911F91AE
:103B50000F91FF90EF90DF90CF90BF90AF909F902C
:103B60008F907F906F905F904F903F902F9008952F
:103B7000F80167E0269FE00DF11D11243083E582F6
:103B8000F6822F5FB7CDEF92FF921F93CF93DF9313
:103B900000D000D01F92CDB7DEB77B01142FFC01FF
:103BA0003C9694E0DE01119601900D929A95E1F712
:103BB0004D8365E0CE0101960E941B2B412FBE0173
:103BC0006F5F7F4FC7010E94291B0F900F900F90CE
:103BD0000F900F90DF91CF911F91FF90EF9008957C
:103BE000EF92FF921F93CF93DF9300D000D01F92EC
:103BF000CDB7DEB77B01142FFC01389694E0DE01CF
:103C0000119601900D929A95E1F74D8365E0CE01F2
:103C100001960E941B2B412FBE016F5F7F4FC70192
:103C20000E94291B0F900F900F900F900F90DF9123
:103C3000CF911F91FF90EF900895EF92FF920F9315
:103C40001F93CF93DF93FC01EB017B018EE0E80E25
:103C5000F11C8B010F5D1F4F84858A3071F08B3012
:103C6000E9F08930D1F5DB01A759BF4F8C91655937
:103C70007F4F40A581110AC00DC0DB01A759BF4F7E
:103C80008C9165597F4F40A5811104C0C7010E94E6
:103C9000F01D10C0C8010E94F01D16C0DB01A7591D
:103CA000BF4F8C9165597F4F40A581110AC0C70154
:103CB0000E94C31DCE010E94492DC82F682FC70145
:103CC00009C0C8010E94C31DCE010E94492DC82F02
:103CD000682FC8010E945A1701C0C0E08C2FDF91E5
:103CE000CF911F910F91FF90EF900895FB01268DCA
:103CF000293718F421A9293720F0FC01148E21E07E
:103D000026A70895FC017F969C01295D3F4F4FEF48
:103D10004193E217F307E1F7FC0117A2FB0110A2A0
:103D200013AA0895FC01DB01AB01485F5F4F20E05F
:103D30003DE08D918F3F41F0632F0E942A349F5FB9
:103D40009B3008F09AE0290FA417B50791F750812E
:103D5000329640E0ADE030E0541781F081916A2F57
:103D60000E942A349F5F9B3008F09AE0B901690FE6
:103D7000711D6032710524F04F5FEECF80E0089531
:103D800081E00895FC017F969C01295D3F4F40E052
:103D90005DE081918F3F41F0652F0E942A349F5F43
:103DA0009B3008F09AE0490FE217F30791F7842F50
:103DB0000895DF92EF92FF920F931F93CF93DF93BB
:103DC00000D000D000D0CDB7DEB77C01D42E122FAA
:103DD0001A8219821C821B821E821D82CE010196CC
:103DE0000E944F1FBE016F5F7F4FC7010F960E9459
:103DF0004F1F81E0F701858BD68A9FEF978B108F3D
:103E0000018F828FCE0101960E94791F26960FB6F0
:103E1000F894DEBF0FBECDBFDF91CF911F910F9100
:103E2000FF90EF90DF9008950E9437360F931F9315
:103E3000CF93DF93EC0188819981009729F02A8143
:103E40003B812617370788F48B016F5F7F4F0E94F5
:103E50007135009761F0998388831B830A832C81D5
:103E60003D81232B11F4FC01108281E001C080E030
:103E7000DF91CF911F910F910895CF93DF93EC01C4
:103E800088819981009711F00E94E8341982188284
:103E90001D821C821B821A82DF91CF910895EF92BE
:103EA000FF920F931F93CF93DF93EC018617970731
:103EB000C1F0FB01008111810115110539F0E48089
:103EC000F580B7010E94161F811104C0CE010E9427
:103ED0003D1F07C0FD82EC82B801888199810E9454
:103EE0004C36CE01DF91CF911F910F91FF90EF9053
:103EF0000895FC01808191810C94E8344091200662
:103F00005091210620911E0630911F06421753073B
:103F1000B4F49091E8009570E1F39091E80092FD7F
:103F200019C08093F100809120069091210601969E
:103F30008F739927892B19F48EEF8093E800809175
:103F400020069091210601969093210680932006E9
:103F500081E0089580E00895DF92EF92FF920F9341
:103F60001F93CF93DF93D82E8A017B01E40EF51EB9
:103F7000EB01CE15DF0571F0D7FE03C0FE01849181
:103F800001C088810E947E1F21968111F2CF8FEFA0
:103F90009FEF01C0C801DF91CF911F910F91FF905A
:103FA000EF90DF900895615030F02091F100FC0116
:103FB00020830196F8CF289884E68093950708958A
:103FC000CF92DF92EF92FF920F931F93CF93DF93E5
:103FD0006C017A018B01C0E0D0E0CE15DF0581F0E5
:103FE000D8016D918D01D601ED91FC910190F08188
:103FF000E02DC6010995892B11F02196EECF7E01A7
:10400000C701DF91CF911F910F91FF90EF90DF904B
:10401000CF900895CF93DF931F92CDB7DEB769831A
:10402000DC01ED91FC910280F381E02D41E050E054
:10403000BE016F5F7F4F09950F90DF91CF9108957B
:1040400083E08093E9008091F200882319F08AE3ED
:104050008093E8000895FC018485958597FD0BC049
:104060009FB7F89482E08093E9008091F2009FBFAF
:1040700090E0019608959FB7F89482E08093E9005C
:104080008091F2009FBF90E008950F931F93CF930C
:10409000DF931F92CDB7DEB782E0898342E450E020
:1040A0006DE878E080E80E94AC1F0E94122EDC01CF
:1040B00012960D911C9113970115110589F0D801E5
:1040C000ED91FC910280F381E02DBE016F5F7F4F87
:1040D000C801099597FD04C0F80100851185ECCF52
:1040E00089810F90DF91CF911F910F9108950E94C8
:1040F000012E90E008950F931F93CF93DF931F92AB
:10410000CDB7DEB78C01FC018485958597FF0EC085
:10411000CE0101960E94D32D019719F4898190E078
:1041200002C08FEF9FEFF80195878487F80184859F
:1041300095850F90DF91CF911F910F910895CF93A7
:10414000DF931F92CDB7DEB7FC018485958597FD7F
:1041500005C02FEF3FEF358724870BC0CE010196B6
:104160000E94D32D019719F4898190E002C08FEF4E
:104170009FEF0F90DF91CF910895EF92FF920F93F1
:104180001F93CF93DF93EC01198218821B821A824E
:104190001D821C826115710509F18B01CB010E9402
:1041A00071337C01BC01CE010E94161F811109C030
:1041B000CE01DF91CF911F910F91FF90EF900C9462
:1041C0003D1FFD82EC82B80188819981DF91CF91FA
:1041D0001F910F91FF90EF900C946A33DF91CF9174
:1041E0001F910F91FF90EF900895EF92FF920F9320
:1041F0001F93CF93DF93EC01198218821B821A82DE
:104200001D821C826115710521F18B01FB0101905A
:104210000020E9F731977F01E61AF70AB7010E94FB
:10422000161F811109C0CE01DF91CF911F910F910F
:10423000FF90EF900C943D1FFD82EC82B8018881C5
:104240009981DF91CF911F910F91FF90EF900C9486
:104250004C36DF91CF911F910F91FF90EF90089511
:104260001F920F920FB60F9211248F939F938091FC
:10427000E1009091E100937F9093E10083FF0FC0F4
:104280001092E90091E09093EB001092EC0092E321
:104290009093ED001092960798E09093F00082FFC3
:1042A00020C093E09093E9009091F200992319F0D7
:1042B0009AE39093E80090912306992339F0909126
:1042C0002306915090932306992389F190919507A5
:1042D000992339F0909195079150909395079923E0
:1042E00041F184FF10C08091E2008E7E8160809356
:1042F000E2008091E1008F7E8093E10080911802BE
:104300008E7E806111C080FF16C08091E2008E7E9B
:1043100080618093E2008091E1008E7E8093E100D5
:10432000809118028E7E81608093180204C05D9A8D
:10433000CDCF289AD6CF9F918F910F900FBE0F901F
:104340001F9018951F920F920FB60F921124CF92C3
:10435000DF92EF92FF920F931F932F933F934F9310
:104360005F936F937F938F939F93AF93BF93EF93DD
:10437000FF93CF93DF93CDB7DEB76C97DEBFCDBF92
:104380001092E9008091E80083FFFBC168E0CE0154
:1043900045960E94D31F82EF8093E8008D8987FFA6
:1043A00005C09091E80090FFFCCF03C09EEF909372
:1043B000E800982F907609F0C6C09E894F89588DE5
:1043C0002F89F88C91110CC0803829F48091190242
:1043D0008093F10002C01092F1001092F10045C1EB
:1043E000913051F4811141C14130510509F03DC175
:1043F000809119028D7F0BC0933061F4811135C11A
:104400004130510509F031C18091190282608093D9
:1044100019022BC1953049F48091E80080FFFCCF50
:10442000822F80688093E30020C1963009F05EC03F
:104430000B8D1C8D22E01092E90010922106109243
:104440002006F21232C010921F0610921E060E9421
:10445000452099E0BE016F5F7F4FDB01E92F1D9280
:10446000EA95E9F79983FA8291E09E8390EA98872A
:104470009AEF99872091200630912106275F3F4FC0
:104480003C832B838D831092E900109221061092B9
:10449000200610931F0600931E0649E050E080E0BE
:1044A0000E94AC1F0E944520E0C010931F0600939D
:1044B0001E060E94122EDC0112960D911C9113977C
:1044C0000115110509F4BBC0D801ED91FC910480E0
:1044D000F581E02DBE016B5E7F4FC8010995009705
:1044E00009F0C7C0F80100851185EACF973009F4BB
:1044F00045C1983021F481E08093F100B6C0993035
:1045000009F0B3C0837009F039C1E5E2F1E081E060
:1045100031E096E32081211109C08EE78093EA0003
:104520001092EA008F89809396079FC08093E900DC
:104530003093EB0021912093EC009093ED008F5F7E
:10454000873041F7EACF8B8D9C8D1092E900109255
:1045500021061092200690931F0680931E06898DD7
:10456000811153C08E899D89913A49F4813209F0B5
:1045700005C147E050E064E071E080E0BBC09132EB
:1045800009F0FCC0833269F48F89988DA0E0B0E017
:104590008093000190930101A0930201B093030165
:1045A00064C0803269F48091E80082FFFCCF67E04C
:1045B00084E091E00E94D31F8BEF8093E80055C008
:1045C000823209F052C08F8980930B01EEEFFFE732
:1045D000859194918B3F9C4D19F0E0E0F8E002C08A
:1045E000EEEFFAE08091040190910501A09106019F
:1045F000B0910701803B9440A105B10509F09EC030
:1046000080910B0180FF79C099C00E94122EFC019D
:10461000028113810115110509F4B0C0D801ED9193
:10462000FC910190F081E02DBE016B5E7F4FC801CF
:10463000099581111AC0F80100851185EBCFF1E0D1
:10464000FF1609F44EC0F3E0FF1298C08F8988234B
:1046500009F44AC0823089F440E860E181EF98E0D3
:104660000E94B631882309F489C08EEF8093E80058
:1046700088C018161906CCF381C0813029F440E8AF
:104680006BE085EE98E0ECCF833009F077C00E94B4
:10469000122EDC011296ED90FC9013978E010F5FA5
:1046A0001F4F6801E114F10479F0D701ED91FC91FD
:1046B0000680F781E02DB801C7010995080F111D8B
:1046C000F701E084F184EECFD8011C92F60101904D
:1046D0000020E9F73197BF016C197D0940E0C60160
:1046E000BFCF63ED78E002C06FEC78E0FB0144914E
:1046F00050E080E80E94AC1FB8CFEE3F2AE0F207FE
:1047000051F0808191818737A7E79A0721F0909334
:10471000FF0A8093FE0A87E797E791838083809161
:104720006000809322069BE088E10FB6F894A8957C
:10473000809360000FBE9093600097CF808191813D
:104740008737974709F091CFA895809160008861DD
:10475000809360008091220680936000EE3FBAE073
:10476000FB0739F08091FE0A9091FF0A91838083C4
:104770007CCF1092FF0A1092FE0A77CF81E28093DD
:10478000EB006C960FB6F894DEBF0FBECDBFDF9185
:10479000CF91FF91EF91BF91AF919F918F917F91B9
:1047A0006F915F914F913F912F911F910F91FF90CA
:1047B000EF90DF90CF900F900FBE0F901F90189545
:1047C0006115710579F0FB0101900020E9F731973F
:1047D000AF01461B570BDC01ED91FC910280F38188
:1047E000E02D099480E090E008950C94E0238F92EE
:1047F0009F92AF92BF92CF92DF92EF92FF926B01A6
:104800007C010E942D284B015C01C114D104E104FC
:10481000F104F1F00E942D28DC01CB0188199909DF
:10482000AA09BB09883E9340A105B10570F321E0B8
:10483000C21AD108E108F10888EE880E83E0981EBC
:10484000A11CB11CC114D104E104F10419F7DDCF9E
:10485000FF90EF90DF90CF90BF90AF909F908F90A0
:1048600008958F929F92AF92BF92CF92DF92EF9274
:10487000FF920F931F93CF93DF936C017B018A010B
:1048800080910B01882309F45CC0809196078823EE
:1048900009F457C08091180280FF05C08091E000A4
:1048A00082608093E000E801B12C8AEFA82E93E0AB
:1048B000892E2AE3922E209711F4BB20D9F10E9471
:1048C000012E81110AC0AA94AA20D9F161E070E0FA
:1048D00080E090E00E94F723EECF282F30E0C2174F
:1048E000D3070CF48C2F9FB7F8948092E9002091A5
:1048F000E80025FF1DC0282F30E0C21BD30BF701B5
:10490000815020F041914093F100FACFE20EF31E66
:10491000BB2019F09092E8000AC08091E80085FD64
:1049200007C09092E800BB24B394209709F0B12C03
:104930009FBFC1CF5D9884E68093230610161106B1
:1049400044F081E090E0F6019383828380E090E080
:1049500001C0C801DF91CF911F910F91FF90EF909F
:10496000DF90CF90BF90AF909F908F900895CF929F
:10497000EF920F931F9322E0C22EE12C00E010E093
:1049800020E00E949C281F910F91EF90CF900895F6
:104990008F929F92AF92BF92CF92DF92EF920F933E
:1049A0001F93CF93DF936A01EB014B01820E911CA1
:1049B0005A01A00EB11CC815D905CCF48601D7FE4A
:1049C00002C000E010E0C50121E4A216B10414F019
:1049D00080E490E00817190744F44E2DB801CE0189
:1049E0000E948A2A0F5F1F4FEECF2196E4CFDF91FE
:1049F000CF911F910F91EF90DF90CF90BF90AF902C
:104A00009F908F9008952F923F924F925F926F9256
:104A10007F928F929F92AF92BF92CF92DF92EF924E
:104A2000FF920F931F93CF93DF9300D01F92CDB7C8
:104A3000DEB75C011A01702E4C2CCC2039F083E0DB
:104A4000C81621F080E8582E501A01C0512C9FEF53
:104A5000E9125E2C122F110F110F110FE3E0E10F7D
:104A6000E983C52CD12CCB0103969B838A8304E078
:104A7000010FE12C272D43E050E0B6010E94C8242D
:104A8000460194E0890E911C0CE0010F28EFF22EF4
:104A9000F70C2F2D4FEF5FEFB4018A819B810E94AD
:104AA000C82405E0010FB6016F5F7F4FEE24E39449
:104AB0002EEF270D43E050E08A819B810E94C8249D
:104AC0000AE0010F2F2D40E050E0B4018A819B8164
:104AD0000E94C82438E0F32EF10E4CEF642E670CD0
:104AE000F6013296FB83EA8320E0462D61E070E018
:104AF000CF010E944A2A0F2D10E0FFE3FF1538F086
:104B000020E0462DB8018A819B810E944A2A0F5FCE
:104B10001F4FEE24E394F12C4801013411051CF0E1
:104B200080E4882E912CE814F90454F440E0B70195
:104B30008A819B810E948A2A8FEFE81AF80AECCFBB
:104B4000EA81FB81E60DF11D3197FB83EA8301E0E9
:104B500010E00815190549F040E0B8018A819B81F1
:104B60000E948A2A0F5F1F4FF4CFE12C00E02AE059
:104B70003CE042E15CE06FEF7FEFC6010E942D2A2E
:104B80004601870C911C3401F8E06F1A710828EF78
:104B90003BE040E05CE06FEF7FEFC3010E942D2A15
:104BA0009981892F90E09B838A83442019F0E3E068
:104BB0004E1215C06A817B8161507109E12C00E0C1
:104BC0002EE83BE042EC5BE0C6010E942D2A2CE778
:104BD0003BE044E85BE06A817B81C30115C0E12CC6
:104BE00000E02AE63BE042E75BE06A817B81C601A8
:104BF0000E942D2A6A817B816150710920E03BE08F
:104C000044E35BE0C4014A970E942D2A86E0850DAB
:104C1000F5018683878385E080871186F1014481D1
:104C2000558160817181C50102960E94E01F81E07B
:104C3000F50181870F900F900F90DF91CF911F9119
:104C40000F91FF90EF90DF90CF90BF90AF909F902B
:104C50008F907F906F905F904F903F902F9008952E
:104C60008F929F92AF92BF92EF92FF920F931F93FA
:104C7000CF93DF93CDB7DEB7A1970FB6F894DEBF21
:104C80000FBECDBF7C01262F30E040E050E019A2DE
:104C90008E010F5D1F4F8AE0882E912CA12CB12C24
:104CA000CA01B901A50194010E94F933605DF801C0
:104CB00062938F01211531054105510589F7BF0127
:104CC000C7010E94E023A1960FB6F894DEBF0FBE85
:104CD000CDBFDF91CF911F910F91FF90EF90BF90CB
:104CE000AF909F908F9008956F927F928F929F9236
:104CF000AF92BF92CF92DF92EF92FF920F931F93EA
:104D0000CF93DF936C01122F702E6E2C89E08017E9
:104D100018F026E0F22E08C0E3E6E01718F094E061
:104D2000F92E02C082E0F82EF40EF6011186812ED3
:104D3000012E000C9908C42FD0E05B01F3E0AF0E08
:104D4000B11CE12C08E02EE0A401BE01C5010E94C7
:104D5000C824A4014F5F5F4FBE016F5F7F4FEE24F9
:104D6000E39407E02DE0C5010E94C824F601F68215
:104D7000F7821F5F1087662029F0672DC601029613
:104D80000E94302681E0F6018187DF91CF911F914B
:104D90000F91FF90EF90DF90CF90BF90AF909F90DA
:104DA0008F907F906F900895EF92FF920F931F93D3
:104DB000CF93DF93D42FE82FF0E0EE0FFF1FE45FD7
:104DC000F54F849131969491E62FF0E0EE0FFF1F9E
:104DD000E45FF54FF4903196C49197FF04C09F773C
:104DE000EE24E39401C0E12CC7FF03C0CF7711E0AC
:104DF00001C010E0692F70E001E026EF39E040E0EB
:104E00005AE090E00E942D2ADD2359F06C2F70E0CB
:104E1000E12E26EF39E040E05AE08F2D90E00E942D
:104E20002D2ADF91CF911F910F91FF90EF90089560
:104E3000EF92FF920F931F93CF93DF93D42FE82F1E
:104E4000F0E0EE0FFF1FEE5FF64F849131969491E4
:104E5000E62FF0E0EE0FFF1FEE5FF64FF490319675
:104E6000C49197FF04C09F77EE24E39401C0E12C26
:104E7000C7FF03C0CF7711E001C010E0692F70E0D9
:104E800000E026EF39E040E05AE090E00E942D2A51
:104E9000DD2359F06C2F70E0E12E26EF39E040E081
:104EA0005AE08F2D90E00E942D2ADF91CF911F9123
:104EB0000F91FF90EF900895EF92FF920F931F9341
:104EC000CF93DF938C017B01C0E0D0E0F701EC0FC2
:104ED000FD1F6491662339F0C8010E94B315892B28
:104EE00011F02196F3CFCE01DF91CF911F910F9159
:104EF000FF90EF900895FC01E35AFF4F9C012F545F
:104F00003F4F80E090819F3F09F08F5F3796E21717
:104F1000F307C1F708950895DC01FB0190858185B1
:104F20008095892394FF18C01C969C911C97903102
:104F300028F49F5F1C969C931C9711C0F89487E7F8
:104F40008093000880930108A89588E18093600011
:104F500088E080936000FFCF1C961C921C972681EE
:104F600037812F703327232B59F41D969C911D9761
:104F70009F5F9C3119F01D969C9302C01D961C9258
:104F800083FF04C0E054FF4F82E0808308950895BA
:104F9000FC01DB0119968C911997809518969C91CC
:104FA000892399F08485882311F08CE78487948580
:104FB00091110EC081E0848780E48093900081E4A9
:104FC0009FE0909399008093980094859923C1F075
:104FD0009F5F9487953059F09D3761F0923081F44E
:104FE00080E596E49093990080939800089510923C
:104FF00090000895FB01E054FF4F81E08083089505
:1050000008950F931F93CF93DF938C0141E15FE0ED
:1050100060E070E08BE490E00E94B72447E45DE03C
:1050200060E170E087E090E00E94B724CCEEDFEF13
:10503000F801858541EF5CE06CE270E09E01281B81
:105040003109C9010E94B7246C96C03BD10581F794
:10505000DF91CF911F910F9108953FB7F894809100
:10506000910790919207A0919307B091940726B56C
:10507000A89B05C02F3F19F00196A11DB11D3FBF90
:10508000BA2FA92F982F8827820F911DA11DB11D1E
:10509000BC01CD0142E0660F771F881F991F4A951A
:1050A000D1F708951F920F920FB60F9211242F93EC
:1050B0003F938F939F93AF93BF9380911A069091E4
:1050C0001B06A0911C06B0911D063091900723E0AD
:1050D000230F2D3720F40196A11DB11D05C026E830
:1050E000230F0296A11DB11D2093900780931A06ED
:1050F00090931B06A0931C06B0931D068091910708
:1051000090919207A0919307B09194070196A11DE9
:10511000B11D8093910790939207A0939307B0934A
:105120009407BF91AF919F918F913F912F910F90D5
:105130000FBE0F901F9018952F923F924F925F9243
:105140006F927F928F929F92AF92BF92CF92DF9297
:10515000EF92FF920F931F93CF93DF9300D000D075
:1051600000D0CDB7DEB74115510509F43DC1FA01B4
:10517000B4903196E4914E5F5F4F6B2C712C2111EE
:1051800002C0EE2061F1A1E0B0E03E2F377011F4D3
:10519000A0E0B0E03E2F3695369536954D01830E52
:1051A000911C869CD001879CB00D969CB00D11245B
:1051B000F3E0CF1203C0AA0FBB1F0AC001151105EF
:1051C00039F0EA9E4001EB9E900C1124080D191D48
:1051D0002A9F70012B9FF00C11244E0D5F1D2FEFA5
:1051E000C21208C00115110519F0CC24C39402C0E5
:1051F00032E0C32E7301E80EF91E1E141F040CF0DA
:10520000F3C0803891050CF0EFC09B012E0F311DCB
:10521000121613060CF0E8C0603471050CF0E4C0FF
:105220004115510509F4E0C0362F37703D83DB018D
:1052300077FD179623E0B595A7952A95E1F73A2FC4
:1052400077FF05C06D81662311F03FEF3A0F97FF9E
:1052500005C0AA27BB27A81BB90B02C0A0E0B0E07D
:10526000F0E8EF16F10424F020E8D22ED81A01C09D
:10527000DB2CDA1A632F032E000C770B3F3F1CF454
:10528000A62EA09401C0A12CF1E02E2F277009F4C6
:10529000F0E0E695E695E695FE0F6F0F711D69301B
:1052A000710514F0F8E0F31B7A2C730E272D60E8DB
:1052B0002603800D911D11244C018A0E9B1E61E076
:1052C00070E00D8002C0660F771F0A94E2F783E05A
:1052D000C81611F0E1E001C0E2E02B2D2D192E9F40
:1052E000202D1124EE2EF12CBA9CA00DB11D1124FD
:1052F000AE9DC001AF9D900DBE9D900D11245A0131
:10530000A80EB91E0115110509F0A801D7011197C2
:105310008A0F9B1F480F591FAFEFA69FC001A79F81
:10532000900D11242C0140945094C401865E9D4F31
:10533000F30FFE8330E0ED9D200D311D1124EE8131
:105340007E1609F451C0DC014A018501612CD61496
:1053500009F442C0F8013490369EF001379EF00DFA
:105360001124FA83E983E095F095FC83EB83F2E066
:10537000CF1203C05C824B8211C0EBEFCE1203C090
:105380001A8219820BC0F4013490369EF001379EC8
:10539000F00D1124E095F095FC83EB8377FC06C0BB
:1053A000FB81EC91EF23F981EF2BEC93FD81FF233F
:1053B00061F0E6E0E7154CF0FD01E058FF4F20807A
:1053C0003C8032202A80322830828E0C9F1C0E0DA9
:1053D0001F1D63941196BBCF7394A20EB31E420F90
:1053E000531F80589F4FABCF26960FB6F894DEBF61
:1053F0000FBECDBFDF91CF911F910F91FF90EF9026
:10540000DF90CF90BF90AF909F908F907F906F90E4
:105410005F904F903F902F900895CF92EF920F930F
:105420001F933AEFC32EE12C00E010E00E949C286D
:105430001F910F91EF90CF900895CF92EF920F931D
:105440001F933BEFC32EE12C00E010E00E949C284C
:105450001F910F91EF90CF900895CF92EF920F93FD
:105460001F93F901202FCC24C3948F010E949C2804
:105470001F910F91EF90CF900895BC0180E090E0D4
:105480000C94F7238FB18095807F669B88601C9B6E
:1054900084600895FC01E40FF11DAF011E161F0684
:1054A000C4F580389105ACF597FF02C080E090E02C
:1054B0004138510514F040E850E0481BFB0177FDEE
:1054C000379633E0F595E7953A95E1F7F695FE2F97
:1054D000EE27F795E795E80FF91FE65EFD4F677039
:1054E000772781E090E001C0880F6A95EAF7382FAE
:1054F000222341F0213069F4415058F08081832B00
:105500008193FACF8095415020F090819823919318
:10551000FACF089580389105B8F460347105A0F48D
:1055200090E121E061FD24E060FD220F62FD229503
:10553000687F969FD0011124A80FA65EBD4F8C9165
:10554000822B40FF82278C9308950F931F93CF9354
:10555000DF93EC014BEC5CE061E170E08FE290E006
:105560000E94B7244DEA5CE06AE170E08BE290E0D3
:105570000E94B7244DEA5CE06AE170E089E490E0C3
:105580000E94B7248C85811114C04DEA5CE06AE169
:1055900070E08AE390E00E94B7244DE55CE06EE2A3
:1055A00070E08AE190E0DF91CF911F910F910C9410
:1055B000B7244FE35CE06AE170E08AE390E00E9488
:1055C000B7244CE15CE06EE270E08CE290E00E9477
:1055D000B7248C856FE00E942A34082F0370CFE433
:1055E000D0E010E0011749F041E061E370E0CE0146
:1055F0000E948A2A1F5F2296F5CFDF91CF911F91DB
:105600000F910895FF920F931F93CF93DF93EC01B7
:10561000F62E08811981C8010E947A33F81621F00C
:105620006F2DC8010E948233CE01DF91CF911F916F
:105630000F91FF9008954F925F927F928F929F9269
:10564000AF92BF92CF92DF92EF92FF920F931F9390
:10565000CF93DF938C01A0E0462F50E06A0131E048
:10566000C31AD1088DE0B82E8A2F90E08C159D05C5
:10567000CCF5B0E0EA01C81BD90B2E0161E0461A57
:1056800051082B2F30E02415350554F57801E20E32
:10569000F31EE701A8808A2D6B2D0E942A34782EF4
:1056A000892E2F5F3F4FF801E20FF31F9080892D65
:1056B0000E942A34292F90E0DAE02D9F800D911D61
:1056C0001124272D30E06AE0869E200D311D112423
:1056D0008217930718F4E7019882A082BF5FD1CFA9
:1056E000AF5FC2CFDF91CF911F910F91FF90EF90ED
:1056F000DF90CF90BF90AF909F908F907F905F9002
:105700004F900895BF92CF92DF92EF92FF920F9346
:105710001F93CF93DF93C82FC62E842F6DE00E9476
:105720002A34B82E11E0190F211103C026E0F22E01
:1057300002C094E0F92ED12CD0E0E12C02E027EA5F
:1057400030E14AED50E1B601CE010E942D2ACF0D85
:10575000D11DB601645F7F4F2B2D41E950E1CE0191
:105760000E941D2AE12FF0E0EE0FFF1FE355FE4FD0
:1057700040815181B6016B5F7F4F81E090E01A302C
:1057800011F480E090E020E08C0F9D1FDF91CF911D
:105790001F910F91FF90EF90DF90CF90BF900C94EE
:1057A0001D2ACF92DF92EF920F931F93CF93DF9337
:1057B0006C01EB01142FE22E09A92FEF45E00E94A6
:1057C0007426E12E0E8D2FEF4AE1BE01C6010E9424
:1057D00074262396EE24E39407E025E040E050E0B1
:1057E00061E070E0CE010E94C82425E040E050E076
:1057F00066E170E0CE010E94C82420E04BEC53E14A
:1058000062E070E081E090E00E941D2A21E04BEC14
:1058100053E162E070E086E190E0DF91CF911F916B
:105820000F91EF90DF90CF900C941D2A8F929F9252
:10583000AF92BF92CF92DF92EF92FF920F93CF93EE
:10584000DF936C01DB011696ED90FC901797C22F49
:10585000D0E0A42EB12C49EA52E1BE01C5010E945C
:10586000B7244501BDE08B0E911CC7018F779927A6
:1058700021E0843008F020E04DE752E1BE016F5E88
:105880007F4FC4010E940D2A21E0013009F020E081
:10589000BE01695F7F4F4BE252E1C4010E940D2AB5
:1058A000F601828D6896F5013F96882399F0D6011E
:1058B00059969C919D7F913069F4C70164E270E034
:1058C0000E9436346CE00E942A34282F882319F075
:1058D0002E5F01C0202F45E751E1BE01CF01DF91CE
:1058E000CF910F91FF90EF90DF90CF90BF90AF904E
:1058F0009F908F900C940D2ACF92DF92EF92FF929F
:105900000F931F93CF938C01FC0187A1CBEF8C9F4A
:10591000C02D11247801FFE1EF0EF11CCA5CC12CEF
:10592000D12CF70141917F014F3F69F0F80187A128
:1059300090E0019721E08C159D0509F420E06DE0D1
:105940008C2F0E94822BFFEFCF1ADF0AC65F88E000
:10595000C816D10431F7CF911F910F91FF90EF90AE
:10596000DF90CF90089520E0FC0140A56CE080E03E
:105970000E94822B20E048E650E160E170E085E083
:1059800090E00C940D2AEF920F93FC019685990FED
:10599000292F220F220F920F945F969524E3291B43
:1059A000FAE06F9FC0011124820F911DE12C00E0ED
:1059B0002AE230E148E450E163E370E001960E949E
:1059C0002D2A0F91EF900895EF92FF920F931F935E
:1059D000CF93DF93FC01E759FF4F2081FC01211198
:1059E00003C0E784C5E202C0E2A0C0E0662319F06C
:1059F000613081F02DC06C2F70E020E041E050E17B
:105A000080E090E0DF91CF911F910F91FF90EF9098
:105A10000C940D2AEE20E1F0D0E020E048ED5FE0AC
:105A2000BE0180E090E00E940D2A04E010E0FF2417
:105A3000F394FE1469F0BE01600F711F20E040EC8A
:105A40005FE0C8010E940D2AF3940E5F1F4FF1CF53
:105A5000DF91CF911F910F91FF90EF900895FF92EA
:105A60000F931F93CF93DF93EC01F42E122F0F9619
:105A70000E944F1FFD8A1E8B80E38F8B088F83E06F
:105A8000898F81E08A8FDF91CF911F910F91FF90D5
:105A90000895FC01E559FF4F9C0121543F4F80E0E0
:105AA00090819F3F31F09581890F3796E217F30778
:105AB000B9F70895DC01FB018185809590858923E4
:105AC00083FF0FC0868D893718F481A9893738F094
:105AD0005C961C925C978CE01C968C9308955C9667
