:100000000C942D0A0C94550A0C94550A0C94550A1C
:100010000C94550A0C94550A0C94550A0C94550AE4
:100020000C94550A0C94550A0C94181E0C948A1EB4
:100030000C94550A0C94550A0C94550A0C94550AC4
:100040000C94550A0C94550A0C94550A0C94550AB4
:100050000C94550A0C94550A0C94550A0C94142CC3
:100060000C94550A0C94550A0C94550A0C94550A94
:100070000C94550A0C94550A0C94550A0C94550A84
:100080000C94550A0C94550A0C94550A0C94550A74
:100090000C94550A0C94550A0C94550A0C94550A64
:1000A0000C94550A0C94550A0C94550A990AE20AC4
:1000B000400C8F0C620D700D3E0DB50FA812EC12A6
:1000C000EC12EC12DF13BD12C212CA12C212CA1213
:1000D000C212CA12C212CA121C14211426142114EC
:1000E00026142114261421142614AC17A717AC17B4
:1000F000B217CA17CA17CA17D617DD172D182D1829
:100100002D18DD174920616D20736F7272794020C0
:10011000796F750A206C6F7374207468652067614D
:100120006D652E0A202020202020204920776F6E28
:100130002100436F6E67726174756C6174696F6ED4
:1001400073210A20202020202020202020596F7594
:1001500020576F6E210020596F757220637269629B
:10016000400020204D792063726962400020596F61
:1001700075722068616E64400020204D79206861AE
:100180006E64400020596F75722068616E64400093
:10019000204D792068616E6440002020476F212047
:1001A000200020476F20666F7220312E2000202013
:1001B000476F2120200020476F20666F7220312E6C
:1001C00020004D79207475726E20746F20737461F5
:1001D00072744000596F7572207475726E20746F5E
:1001E000207374617274400054776F20666F7220C0
:1001F000686973206865656C73210054776F2066A9
:100200006F7220686973206865656C732100202017
:1002100020492077696C6C207468726F770A746863
:100220006573652074776F2063617264732E005468
:1002300068726F772074776F2063617264730A6FDE
:10024000757420746F2074686520637269622E0073
:1002500003081F051F1F151B1F11111F110E1F154E
:10026000111F05011F111D1F041F001F0010101F6B
:100270001F041B1F10101F061F1F011F1F111F1F10
:1002800005071F311F1F051B17151D011F011F101B
:100290001F0F100F1F0C1F1B041B071C0719151322
:1002A0000C121E1F120C1E12120C121F0C1A140418
:1002B0001F052E2A1E1F021C001D00201D001F04EA
:1002C0001A011F001E041E1E021E1E121E3E120CCC
:1002D0000C123E1E020614120A020F121E101E0EEF
:1002E000100E1E081E1A041A2E281E1A12161F118E
:1002F0001F121F101D151711151F07041F17151D9D
:100300001F151D01011F1F151F17151F00170000C6
:100310001000040404040E040229060A0000100060
:10032000100080F8FCFEFFFEFCF8F8F8F8F0E0C0E2
:10033000070F1F3F7FFFFFFFFFFF7F3F1F0F070FCD
:10034000100000807804FA04D810D010D020C0002B
:10035000000708172C5F5F5B5F5B2F170807001C07
:1003600014FD1D1D5D9ABABAFAF4F4F474A8A848F5
:100370005050505040404040C0E018E4FA1B3377E2
:10038000F7F0F8FFFFFF07F807F8FE06FF07F7078B
:10039000FFFFFFFF0FF1FE7F3F080C0E0F0F0F0F47
:1003A0000F0F000F000F0F0E0702060E0F0F0708AA
:1003B0000F0F0F0E0C4A0F020E3EFEF0C080E03E03
:1003C0000E82C1202020E0C0800000C0E0A090107C
:1003D000302000000000000000000000000000804D
:1003E000E0F03C18000000000000000002FE0E1EBD
:1003F0007EF0C08006FE060080E0F0101010E0E005
:1004000080000000203F3F3F200000071F1D3931C2
:1004100031311100001133232327273F1E00000034
:10042000000000000060703C1F0703000000000097
:10043000000000000000303F30000001071F7E3F39
:100440003020071F1F2020201F1F07621102FEFE01
:10045000FE02020286C67C7C3802FEFF00000060BD
:1004600020B0B0F0E0C0002060E0C0000020E0E07C
:100470002000000000000000000C04C23E02063C08
:10048000FCF88400000000C0E0301010F0E0100024
:100490006020B0B0F0E0C0000000EEEEE000002010
:1004A000E0E0202020E0E000083C12C2FE7C382082
:1004B0003F3F3F020D010000000000203F3F2000B1
:1004C0001C1E3F2120273F3F200000818FBF7C0C56
:1004D0000300000000000000000020303E31010158
:1004E0000101233F3F3820008F9F3F383010BFFF6E
:1004F000601C1E3F2120273F3F2000203F3F3F2020
:1005000000203F3F2000003F3F200000103B300014
:1005100000000000000000000000000000000000DB
:1005200000000000000000000000000000010101C8
:1005300000000000000000000000000000000000BB
:1005400000000000000000000000000101010101A6
:10055000010000000000000000000000000000009A
:10056000000000000000000000000000000000008B
:100570000000001610FF00FF55AA55AA55AA55AA5B
:1005800055AA55AA55AA55AAFF00FF1F205FB5AA74
:10059000B5AAB5AAB5AAB5AAB5AAB5AAB5BA5F2033
:1005A0001F0E10000000FFAA55AA55AA55AAFF0069
:1005B000FF0008A0BFAAB5AAB5AAB5BA5F201F0E52
:1005C00015F804FAFDFDFDFDFDFDFDFD050000FF34
:1005D00000FFFFFFFFFFFFFFFFFF0000001F001FE6
:1005E0001F1F1F1F1F1F1F1F0000001615F804FAF2
:1005F000FDFDFDFDFDFDFDFDFDFDFDFDFDFDFDFD2B
:10060000FA04F8FF00FFFFFFFFFFFFFFFFFFFFFF00
:10061000FFFFFFFFFFFFFF00FF1F001F1F1F1F1F28
:100620001F1F1F1F1F1F1F1F1F1F1F1F1F001F54C4
:100630006F74616C3A0007040103070F070301019F
:100640000204080402014E6F7468696E672021007D
:100650000704080C0E0F0E0C08080402010204081F
:10066000204D79204372696200596F757220437280
:10067000696200596F75722048616E6400204D797F
:100680002048616E64002053636F72653A20004B0E
:100690003800FF0101050101FF0051555155515529
:1006A000515551555155515551555155515551551A
:1006B000515551555155515551555155515551550A
:1006C00051555155515551555155515551555155FA
:1006D000515551A1A1428224081020C000777474A2
:1006E00075B45427301C1D1C5D1C5D1C5D1C5D1CFD
:1006F0005D1C5D1C5D1C5D1C5D1C5D1C5D1C5D1C32
:100700005D1C5D1C5D1C5D1C5D1C5D1C5D1C5D1C21
:100710005D1C5D1C5D1C5D1C5D1C5D1C4900AA8090
:100720007F807F000800FF0000FC028100F208F4D7
:100730000AA90595C5D5C5D5C5D5C5D5C5D5C5D5D0
:10074000C5D5C5D5C5D5C5D5C5D5C5D5C5D5C5D5D9
:10075000C5D5C5D5C5D5C5D5C5D5C5D5C5D5C5D5C9
:10076000C5D5C5D5C5D5C5D5C5C4C2E1E0F2783C6F
:100770001E0700007FE0C080270817282A50545128
:100780005551555155515551555155515551555139
:100790005551555155515551555155515551555129
:1007A0005551555155515551555155515551555119
:1007B00055515551A1A1438224081020C00000804A
:1007C0008183476F1E5E1C5C1C5D1C5D1C5D1C5D97
:1007D0001C5D1C5D1C5D1C5D1C5D1C5D1C5D1C5D51
:1007E0001C5D1C5D1C5D1C5D1C5D1C5D1C5D1C5D41
:1007F0001C5D1C5D1C5D1C5D1C5D1C5D1C4900AA14
:10080000807F807F000800FF1837686A68F7E0C5BE
:10081000D5C5D5C5D5C5D5C5D5C5D5C5D5C5D5C508
:10082000D5C5D5C5D5C5D5C5D5C5D5C5D5C5D5C5F8
:10083000D5C5D5C5D5C5D5C5D5C5D5C5D5C5D5C5E8
:10084000D5C5D5C5D5C5D545D5C5C4C2E1E0F27875
:100850003C1E070000000000000101010101010130
:100860000101010101010101010101010101010178
:100870000101010101010101010101010101010168
:100880000101010101010101010101010101010158
:10089000010101010101010100000000000003400D
:1008A000FFFF55FFFF55FFFF55FFFF55FFFF55FFAA
:1008B000FF55FFFF55CF3F55080B00020202010014
:1008C00009040000010202000005240010010524B3
:1008D0000101010424020605240600010705810325
:1008E00010004009040100020A000000070502028E
:1008F00040000007058302400000040309041201C0
:100900000002EF0201404123368000010102030191
:1009100041726475696E6F204C4C4300417264757E
:10092000696E6F204C656F6E6172646F00D5F08DDB
:1009300014A1C881CFD9F1AF200003051F041B0308
:10094000050F190F030508100F05051F001F111FC4
:10095000030507051F03051F151F030519050303DD
:10096000051F151D030517151D030507041F0305A6
:1009700011151F03051D151703051F051F05060E7D
:100980001F3E1F0E0C1E3F1E0C0C2E3F2E0C0C2F5C
:10099000372F0CFCFEFFFFFFFFFFFFFFFFFFFFFFF6
:1009A000FFFFFEFCFFFFFFFFFFFFFFFFFFFFFFFF5B
:1009B000FFFFFFFFFF1F3F7F7F7F7F7F7F7F7F7F67
:1009C0007F7F7F7F3F1F111700500400020002004D
:1009D0000200020002000450000055000000000068
:1009E000000000000000000055000005100020007D
:1009F000200020002000200010050000F80452AA6A
:100A000052AA52AA52AA52AA5204F80000FF005554
:100A1000AA55AA55AA55AA55AA5500FF00000F10BD
:100A2000252A252A252A252A252A25100F0000F8FF
:100A300004F2FAFAFAFAFAFAFAFAFAF204F8000008
:100A4000FF00FFFFFFFFFFFFFFFFFFFFFF00FF00B3
:100A5000000F10272F2F2F2F2F2F2F2F2F27100F63
:100A60000035053B053D053F054105430545054767
:100A70000549054B054D054F0551055305550557CE
:100A80000559055B055D055F05610563056505673E
:100A90000569056B056D056F0571057788798E779A
:100AA0009471176F176D176B1769176717651763C1
:100AB0001761175F175D175B1759175717551753AE
:100AC0001751174F174D174B17491747174517431E
:100AD0001741173F173D173B183B1A3B1C3D1D3F65
:100AE0001D411D431D451D471D491D4B1D4D1D4FDE
:100AF0001D511D531D551D571D591D5B1D5D1D5F4E
:100B00001D611D631D651D671D691D6B1D6D1D6FBD
:100B10001D711D77A079A677AC712F6F2F6D2F6B8C
:100B20002F692F672F652F632F612F5F2F5D2F5B3D
:100B30002F592F572F552F532F512F4F2F4D2F4BAD
:100B40002F492F472F452F432F412F3F2F3D2F3B1D
:100B50002F392F34AC0202070202000207020005FF
:100B60000300020502000002070200350B3B0B3DAB
:100B70000B3F0B410B430B450B470B490B4B0B4DED
:100B80000B4F0B510B530B550B570B590B5B0B5D5D
:100B90000B5F0B610B630B650B670B690B6B0B6DCD
:100BA0000B6F0B710B738C738E739071116F116DD2
:100BB000116B11691167116511631161115F115D8D
:100BC000115B11591157115511531151114F114DFD
:100BD000114B11491147114511431141113F113D6D
:100BE000113714351A37203D233F23412343234532
:100BF00023472349234B234D234F2351235323556D
:100C000023572359235B235D235F236123632365DC
:100C100023672369236B236D236F23712373A473CD
:100C2000A673A871296F296D296B29692967296520
:100C300029632961295F295D295B2959295729558C
:100C400029532951294F294D294B294929472945FC
:100C500029432941293F293D293B29392934ACFF22
:100C6000FFFFFFFFFFFFFFFFFFFFFFFFFFFFFFFF94
:100C7000FFFFFFFFFFFF7F3F1F010103070F0F0F64
:100C80000F0F1F3F7FFFFF7F3D1901010101010091
:100C90000000001A10BFBFBF1FEFEFEFEFEF1FBF45
:100CA000BFBFBFBFBFBFBFBFBFBFBF5F201F000071
:100CB00000010205050505050219245A5A241800E9
:100CC0000000000000000000000F1F3F7FFFFFFF3B
:100CD000FF0808000F102F5F5F5F5FFFFFFFFF7FC0
:100CE0003F1F0F08085F5F5F5F2F100F001F3F7FE0
:100CF000FFFFFFFFFFFFFFFFFFFFFFFFFFFFFFFF04
:100D0000FFFFFFFFFFFFFF000000000101010101E5
:100D1000193D7FFFFF7F3F1F0F0F0F0F0F070301CD
:100D2000011A10001F205FBFBFBFBFBFBFBFBFBF43
:100D3000BFBFBF1FEFEFEFEFEF1FBFBFBF00000050
:100D40000000000000000018245A5A24190205056A
:100D500005050502010000FFFFFFFFFEFCF8F0089B
:100D600008FAFAFAFAF408F000F0F8FCFEFFFFFFC8
:100D7000FF080800F008F4FAFAFAFA0C083B3B3BCB
:100D80006B6B4B4B6B6B3B3BBB3D3B3B6B6B4B4BD1
:100D90006B6B3B3BBD373B3B6B6B4B4B6B6B3B3BE5
:100DA000B73D39357575555575753539BD3D39358D
:100DB0007575555579793939BD3D3939797959552F
:100DC00075753539BD1508D0D6F4F6F4F4F6F496F9
:100DD000707B7076F4F6F4F4F6F4D6D0D0D6F4F452
:100DE000F4F4F4F496707B7076F4F4F4F4F4F4D63E
:100DF000D00000000000C0E0F0F8FCFEFFFFFFFFA5
:100E0000FFFFFFFFFFFFFFFFFFFFFFFFFFFFFFFFF2
:100E1000FFFFFFFEFCF8F0E0C00000000000000053
:100E2000000000FFFFFFFFFFFFFFFFFFFFFFFFFFCF
:100E3000FFFFFFFFFFFFFFFFFFFFFFFFFFFFFFFFC2
:100E4000FFFFFFFFFFFF000000000000000000FCAC
:100E5000FFFFFFFFFFFFFFFFFFFFFFFFFFFFFFFFA2
:100E6000FFFFFFFFFFFFFFFFFFFFFFFFFFFFFFFF92
:100E7000FFFFFFFC000000000000000003070F8FD1
:100E80009FFFFFFFFFFFFFFFFFFFFFFFFFFFFFFFD2
:100E9000FFFFFFFFFFFFFFFFFFFFFFFF9F8F0F071A
:100EA0000300000000C0E0F0F8FCFEFFFFFFFFFFC2
:100EB000FFFFFFFFFFFFFFFFFFFFFFFFFFFFFFFF42
:100EC000FFFFFFFFFFFFFFFFFFFFFFFFFEFCF8F04C
:100ED000E0C0030303030303030303030303030348
:100EE00003030303030303030303030303030303D2
:100EF0000303030303030303030303030303032D98
:100F00002A000000000000C02050A8040282C6820F
:100F1000820202020A0A0A0A0A0A0E0A0E0A0A0AC9
:100F20000A0A16A40850A0C000000000000000003B
:100F300000000000FF40800000FEFFFFFF7B3F3FFE
:100F40003B3B7BFBFBFB7B3B3B3F3F7FFBFEFC00DC
:100F50003FC0552AFF000000000000000000000014
:100F6000FC37F95E81FCFD01010101010101010174
:100F7000010101010101010101010101FCFDAA5969
:100F8000F823FC000000000000000000000305053D
:100F90000B90A7DF3E7EFEFEFE0200000000000078
:100FA0000000000002FEFE7E3EDFA790090504035C
:100FB000000000000000C020D0E8F4FA79BD52041F
:100FC000022D5ABC7BF978B81840B87070B04078E0
:100FD000F878F979BD5A2D4AA47BF1FAF4E8D020CB
:100FE000C000000003030301020100000000000034
:100FF00000010201000000000303020100000102E1
:101000000100000000000102010303030300000BC4
:101010000F00000000000000000000FF40404040C2
:101020004040404040201F0D11FC0251A955A955D8
:10103000A955A95102FC7F80152A552A552A552AFF
:1010400015807F0000010101010101010101000083
:101050000D11A80200010001000100010002A82AF0
:1010600080000000000000000000802A0000000155
:101070000001000100010000000080F8FCFEFFFEFE
:10108000FCF8F8F8F8F0E0C0070F1F3F7FFFFFFF04
:10109000FFFF7F3F1F0F070F100000807804FA0446
:1010A000D810D010D020C000000708172C5F5F5B5D
:1010B0005F5B2F170807000D140000000000000000
:1010C0000000000000FF0000000000000000000021
:1010D0000000FF08080808080808080808040201BA
:1010E00005030002050200000207020021080F0F9D
:1010F00008080006090B06000E03030E000F090F77
:1011000006000F0F000F02030F000E0F090D000E57
:1011100010BEBDBEBDBEBDBEBDBEBDBEBDBE00001F
:10112000040004000400040004000400004E080F42
:101130000D0702000F050F0A000F0D0900020B0D2D
:1011400000020B0D00000000000F0D0702000F0F42
:101150000808000E03030E00030E0E030000000635
:10116000090B06000F02030F00000000010F0F0122
:101170000E03030E000F0D0702000F0D090E10A73E
:10118000C7A7C7A7C7A7C7A7C7A7C7A700070707B6
:10119000070707070707070707070024080E1F1F91
:1011A0001F0E00000000000000000000001F0E04E1
:1011B000000000000000000000040E1F00040E1FCD
:1011C000001C14FD1D1D5D9ABABAFAF4F4F474A85B
:1011D000A8485050505040404040C0E018E4FA1B2E
:1011E0003377F7F0F8FFFFFF07F807F8FE06FF0771
:1011F000F707FFFFFFFF0FF1FE7F3F080C0E0F0FF9
:101200000F0F0F0F000F000F0F0E0702060E0F0F2C
:1012100007080F0F0F0E0C721900C0F0F81C0C0419
:101220000682C2C2C2060CFCF8F8F8780000000082
:101230000080800000808080000000AAABABABABD8
:10124000AA000004FCFEFEFE0000808080800000FA
:10125000000004FCFEFEFE00008080808000000094
:10126000000000008080808080800000000000007E
:1012700000000000808080808000808000000000EE
:1012800000808080808080000000003EFFFFFFF033
:10129000C080000107050C0C0E0F0703030080003F
:1012A00001FFFFFFFF0E07070707070000001FFFF2
:1012B000FF1F00000000FFFFFFFF0301010103FF0C
:1012C000FFFFFC0000FFFFFFFF0301010103FFFF21
:1012D000FFFC0080C6E3F131190F3FFFFFFE8000E5
:1012E0000000F0FCFEFF03000000FFFFFFFF000016
:1012F000F8FEFFE1202020233F3F3E38000000039E
:1013000007070F0F1F1E1E1C1C1C1C0C0C0E0603B7
:101310000100101F1F1F1F10000000000000000030
:10132000001F1F00000000100F0F0F1F18101018D3
:101330001E0F07030000100F0F0F1F181010181EAC
:101340000F07030000070F1F1F181010101F1F1F8B
:101350001F10000081C78F9F1E1C1C0E9FFFFFFFE8
:1013600070000103070F0F1E1E1C1C1C0C04000044
:10137000000000000000000000000000000000006D
:10138000000000000000000000000000000000005D
:10139000000000000000000000000000000000004D
:1013A000000000000000000000000000000000003D
:1013B000000000000000000000000000000000002D
:1013C0000000000000000000010101010101010115
:1013D000000000000000000000000000000000000D
:1013E000003510BF7FE0840A44A04F1024AA2420B7
:1013F000495549414955494149554941495549414D
:10140000495549414955494149554941495549413C
:101410004955494149554941000102050B0A162C1D
:101420002C595A5958B2B5B2B0B2B5B2B0B2B5B281
:10143000B0B2B5B2B0B2B5B2B0B2B5B2B0B2B5B288
:10144000B0B2B5B2B0B2B5B2B0B2B5B2B00102048A
:1014500008102040800011337A3011241FBECFEFD6
:10146000DAE0DEBFCDBF11E0A0E0B1E0E4E0FFE6EE
:1014700002C005900D92A43FB107D9F727E0A4EF71
:10148000B1E001C01D92A238B207E1F71AE0CCE248
:10149000DAE004C02197FE010E946C35CB32D107FF
:1014A000C9F70E94B3300C9475370C9400002F924A
:1014B0003F924F925F926F927F928F929F92AF92E4
:1014C000BF92CF92DF92EF92FF920F931F93CF9331
:1014D000DF93CDB7DEB729970FB6F894DEBF0FBE06
:1014E000CDBFDC01FB013B012EE0620E711C4B0104
:1014F00031E2830E911C20851185109512239E9652
:101500008C919E97882321F08CE01C968C931C97DD
:101510001C969C911C97492F50E04D30510510F0BE
:101520000C9440155F016D01FA01EA5AFF4F0C94CB
:101530006C35D50116968D919C9117978F709927D0
:10154000892B31F41E968C91882311F40C94361457
:10155000F50166856630A0F5868197818F709927A1
:10156000892B11F00C94401584A991E0980F94AB4D
:10157000E60FF11DD501A80FB11DD5968C91808B7A
:101580006F5FD5011E966C93C50140960E94133083
:10159000F50184A991E0980F94AB61A1E60FF11DCC
:1015A000D501A80FB11DD5968C9183A36F5FD5018E
:1015B00091966C93C50183960E9413300C9440154C
:1015C00081E07DC25C968C915C97873418F48F5FC4
:1015D0005C968C93F5018685853008F458C0D60159
:1015E0005C968C918634A8F46FE272E0CE0101968D
:1015F0000E94A51DEE24E39400E026E442E0BE0133
:101600006F5F7F4FC6010E946A26CE0101960E943D
:101610000C2715FF06C0F601838D882311F0815039
:10162000838F16FF0EC0D6015B962C91422F50E09F
:10163000F501868590E001974817590714F40C943A
:10164000451413FD02C00C94401581E0D6011E968E
:101650008C931E975B966C91C3010E945D16682F58
:10166000F501E759FF4F8081811102C0C30101C01C
:10167000C4010E947E16F601838DD5011E969C91B1
:1016800089130C9440158150838F0C9440158FEF73
:10169000F601858F868F86E0E6E1F1E0DE011196A6
:1016A00001900D928A95E1F785010D5D1F4F95011F
:1016B000275D3F4FDE011196F8014DE051E0819129
:1016C000642F0E944C35943009F45C931196E21714
:1016D000F307A9F7AE014A5F5F4FFE013196D801CB
:1016E0003DE082E0F82EED908C91632F0E944C3506
:1016F00021E0290F8E2D0E944C359F5F291308C0D1
:1017000080818F3F09F4F08281818F3F09F4F1825B
:101710003196E417F50739F7DE011196F12CEDE06B
:10172000EE2EF3E09F2EF394F80181918F016E2D40
:101730000E944C359F5F292F30E02F5F3F4F8F2C49
:10174000482D50E0F501E40FF51F83A16E2D0E9496
:101750004C359F5F892F90E02817390771F48C91E1
:101760008F3F09F49C92E1E0F0E0EC0FFD1FE40FE5
:10177000F51F80818F3F09F490828394F6E08F12E9
:10178000DFCF1196F5E0FF12CECF9E01295F3F4FCC
:10179000D501FE0131964DE058E016E080818F3F83
:1017A000B9F493968C919397642F0E944C3581E005
:1017B000890F893038F4873050F4943048F49B5FB7
:1017C000908306C09950943018F4508301C0108360
:1017D00031961196E217F30709F78FEF95012B5F0A
:1017E0003F4FF501AE014F5F5F4FDA019D91AD01B3
:1017F000981315C0D6015D969C915D979F3F21F48B
:1018000093A15D969C930BC0981749F0D6015E9604
:101810009C915E979F3F19F493A15E969C9331969D
:101820002E173F0711F78150E1F6F601858D8F3FA6
:1018300059F40E94353426E030E040E050E00E9448
:10184000B234D6015D966C93F601868D8F3FB1F46C
:1018500076E0872E912CA12CB12CD6015D969C911F
:101860005D975E968C91981749F00E943534A501DA
:1018700094010E94B234F601668FEFCF82E04AC035
:10188000FD01848D8F5F848F863478F546E4B50141
:10189000CD010E94BE2A6EE072E0CE0101960E9448
:1018A000A51D01E020E042E0BE016F5F7F4FC60151
:1018B0000E945E2CCE0101960E940C27D6015C96F8
:1018C0008C915C97893129F45D966C91C5010E94D9
:1018D000D62AF601848D823311F00C944015668D62
:1018E000C5010E94D62A0C944015D50191968C9181
:1018F000863028F0F601668DC5010E94D62AD501F2
:1019000091968C91853028F0F601658DC5010E9475
:10191000D62A83E0D6011C968C931C974DC7FD01F7
:10192000848D8F5F848F8D35D8F48B3108F065C03E
:101930008A31B0F5803128F58F3011F00C944015C4
:10194000D501D4968C91D49791E0980FD4969C931E
:10195000F501E80FF11D85A9F60180A70C9440154B
:101960008C3E50F4883A08F04AC04BEEB501CD01E8
:101970000E94BE2A0C9440158C3E09F465C00C945C
:10198000401598968C9198976DE00E944C359A304E
:1019900011F40C94401587EA5C968C930C944015D6
:1019A000F501E759FF4F808162E081110CC0C3014E
:1019B0000E948C166BEF71E0CE0101960E94A51D6E
:1019C000E12C02E00CC0C4010E948C1668EE71E0AC
:1019D000CE0101960E94A51DEE24E39401E02EE4C1
:1019E00041E0BE016F5F7F4FC6010E946A26CE01B3
:1019F00001960E940C270C9440154BEE52C5B50180
:101A0000CD010E9418264BEEB501C6010E94BE2AE8
:101A1000F501E759FF4F8081813059F464ED71E0A1
:101A2000CE0101960E94A51DEE24E39400E021E57D
:101A3000D7CF62EC71E0CE0101960E94A51DEE2485
:101A4000E39400E027E4CCCF5C961C925C978CE09A
:101A5000F501808B868B8AE0818B878B88E0828B77
:101A6000808F86E0838B818F8FE098968C93E759E7
:101A7000FF4F8081813011F584E06FC0FD01848DBE
:101A80008F5F848F22FF6DC091E097A7893408F49F
:101A90006BC0893411F00C944015B501C6010E9449
:101AA0001826F601148ED501D3968C91D397811107
:101AB00009C791968C91882309F404C787E0F60141
:101AC0008487DEC7BD01615E7F4FC3010E943A2655
:101AD000811142C081E0D50190968C9386E0EFCFD2
:101AE00022FF58C081E0FD0187A7F601848D8C3468
:101AF00008F453C08C3409F0C3C7B501C6010E9475
:101B00001826C6010E940528F601148E8F3109F4AB
:101B10001AC287E0F6018487D50190968C91909740
:101B20008111AEC7D3968C91D397882309F417C23D
:101B3000B601615E7F4FC3010E943A2681110CC03D
:101B4000B501C6010E942426F50181A18111B6CFFD
:101B50008685882309F401C285E0D6011C968C9302
:101B60008FC79F961C9292CF873060F4863009F021
:101B700087C7F50183A981118DC681A1882309F446
:101B800089C696C648E4B501C6010E94BE2A81E016
:101B9000D601D6C19F961C92A8CF813008F0C2C151
:101BA00015FF05C0838D882311F08150838F16FFA8
:101BB0000DC0F601238D422F50E0D5011E968C9169
:101BC00090E00197481759070CF48AC613FF58C7CD
:101BD000C6010E940528282FF601438DF501E40F68
:101BE000F11D80896DE00E944C3531E0390F3B30AA
:101BF00008F03AE0822F90E0830F911D80970CF05F
:101C00003FC7642FC3010E945D16D60197960C91C1
:101C1000F601E00FF11D878F0F5FF60107A3838D9B
:101C2000D5011E969C91891302C08150838FC601F5
:101C30000E940528F82EF50153A9511104C051E066
:101C400081A1811150E0023008F44EC6F601E00F88
:101C5000F11D858D3DE0632F0E944C3521E0290F59
:101C6000868D0E944C3531E0390F321302C012E0EC
:101C700001C010E00230C9F0848D6DE00E944C3547
:101C800041E0490F241303C0321301C01C5F03302D
:101C900061F0838D6DE00E944C359F5F491305C054
:101CA000241303C0321301C01A5F8F2D8F7E8F3033
:101CB00009F41E5F033008F411C1F601E00FF11DB5
:101CC000848D3DE0632F0E944C35B1E0B90F858DC6
:101CD0000E944C35EE24E394E90E868D0E944C352B
:101CE00021E0290FEB1601F12B17F1F02E15E1F091
:101CF000BE1518F48E2D8B1B02C08B2F8E198330CE
:101D000098F4B21718F4822F8B1B02C08B2F821B02
:101D1000833050F4E21618F4822F8E1902C08E2DF3
:101D2000821B833008F4E2C5A0E0033009F4D6C07A
:101D3000838D6DE00E944C3531E0390FB31709F403
:101D400042C0E31609F43FC02317E9F1EB16D9F1BD
:101D50002B17C9F12E15B9F13B1718F48B2F831BE4
:101D600002C0832F8B1B843070F53E1518F48E2D26
:101D7000831B02C0832F8E19843028F5321718F484
:101D8000822F831B02C0832F821B8430E0F4BE1598
:101D900018F48E2D8B1B02C08B2F8E19843098F473
:101DA000B21718F4822F8B1B02C08B2F821B84303A
:101DB00050F4E21618F4822F8E1902C08E2D821B69
:101DC000843008F496C540E0043009F487C0828D61
:101DD0006DE00E944C3581E0890F381709F47EC010
:101DE000B81709F47BC0E81609F478C0281709F47D
:101DF00075C0B31709F472C0E31609F46FC0231756
:101E000009F46CC0EB1609F469C02B1709F466C01D
:101E10002E1509F463C0831718F4932F981B02C082
:101E2000982F931B953008F059C08B1718F49B2FEF
:101E3000981B02C0982F9B1B953008F04FC08E1541
:101E400018F49E2D981B02C0982F9E19953008F00B
:101E500045C0821720F4F22FF81B8F2F01C0821B80
:101E60008530E0F53B1718F48B2F831B02C0832FBE
:101E70008B1B853098F53E1518F48E2D831B02C000
:101E8000832F8E19853050F5321720F4622F631B93
:101E9000362F01C0321B353008F5BE1518F48E2DD3
:101EA0008B1B02C08B2F8E198530C0F4B21720F423
:101EB000722F7B1BB72F01C0B21BB53078F4E2162E
:101EC00010F42E1902C0E21A2E2D253038F4AA2360
:101ED00009F41AC5442309F415C51F5F8FE1F816EC
:101EE00089F0552379F0D5011E968C91882309F449
:101EF0000FC5B601615E7F4FC3010E943A26882359
:101F000009F406C5612FC3010E948C1600E022E08F
:101F1000412F6F2DC6010E949A2CF601848D8F5F90
:101F2000848FAEC54BE4B501C6010E94BE2AD6011E
:101F30005C968C915C978F5F5C968C935C9781E04C
:101F40005A968C939DC5D50191968C918111FCC2B6
:101F5000D5011E968C918111C0C288E0FECD91966C
:101F60008C91882309F4E4CD8BC55C968C915C97A9
:101F70008F5F5C968C935C9722FF04C091E09F96E4
:101F80009C9302C0FD0117A68B3530F4813108F017
:101F900087C2803129F074C58B3509F48AC270C5B7
:101FA000D5011E968C911E97823030F090969C91B0
:101FB00081E09827998701C019867601BFE1EB0E71
:101FC000F11C86E0E6E1F1E09E012F5F3F4F390111
:101FD000D90101900D928A95E1F7F7019601295DEB
:101FE0003F4F412C512C4DE081918F3F49F053944C
:101FF000642F0E944C359F5F9B3008F09AE0490E99
:10200000E217F30789F785010D5D1F4F32E03515A3
:1020100008F044C0F701E50DF11DDF0112978C9126
:102020002DE0622F0E944C3531E0390F11978C91D1
:102030000E944C359F5F391334C0319780810E94D4
:102040004C3521E0290F23132CC0822F2B3008F0B0
:102050008AE0382E340C6FE1631518F1D5019196A2
:102060004C91F80130E05DE04317D9F08191652F84
:102070000E944C359F5F29130FC0632FC4010E943B
:102080005D16382FBFE03B1629F0EFE18CE03E12E1
:102090004AC144C18EE047C13F5FE6CFF2E05F1224
:1020A000F7C0A701450D511DFA01329780812DE03F
:1020B000622F0E944C3531E0390F319680810E94A9
:1020C0004C3521E0290F231329C0822F2B3008F033
:1020D0008AE0382E340C6FE1631500F1D50191963A
:1020E0002C90F801A0E0BDE02A16C1F081916B2F81
:1020F0000E944C359F5F29130FC06A2FC4010E94B4
:102100005D16382FBFE03B1629F0EFE116E03E12D6
:10211000BDC0B9C018E0BAC0AF5FE6CFF2E0F515B8
:1021200008F06EC0FA01339780816DE00E944C3553
:1021300041E0490FD50191963C90431718F4232EA6
:10214000241A02C0242E231A421718F4A22FA41B0B
:1021500002C0A42FA21B321718F4B22FB31B02C067
:10216000B32FB21BF80150E0351609F44CC0819131
:102170006DE00E944C359F5F892F9B3008F08AE00C
:10218000840D8F83803208F0C5C3341709F4C2C3AD
:10219000241709F4BFC3491709F4BCC3231709F472
:1021A000B9C3391709F4B6C3291709F4B3C363E0F7
:1021B000621508F4AFC3A43008F0ACC3491718F493
:1021C000892F841B02C0842F891B843008F0A2C38E
:1021D000B43008F09FC3391718F4892F831B02C04D
:1021E000832F891B843008F095C3291710F4921BA4
:1021F00003C0722F791B972F943008F08BC337C020
:1022000092E0591245C0F501A1A1321718F4522FDE
:10221000531B02C0532F521BF80140E0BDE0A4172E
:10222000B9F181916B2F0E944C359F5F892F9B30B4
:1022300008F08AE0382E340C6FE1631508F46CC3A3
:10224000231709F469C3391709F466C3291709F478
:1022500063C3533008F060C3391710F4931B03C0F5
:10226000732F791B972F933008F056C357C3652FF0
:10227000C4010E945D16382FFF81FF3031F08F813D
:1022800014E08F3119F482E04FC016E080E04CC0BA
:102290002985211114C0552009F44FC3F701E50D1C
:1022A000F11D319780816DE00E944C3531E0390F8E
:1022B000D50191965C91F80120E04DE01EC00E948E
:1022C000353423E030E040E050E00E94B234613029
:1022D00071058105910509F030C3DDCF8191642F2F
:1022E0000E944C359F5F892F9B3008F08AE0382E82
:1022F000340C6FE1631520F42F5F5213EFCF1DC331
:102300003913FACF622FC4010E945D16382F7FE087
:10231000371631F08FE1381205C082E012E004C0B8
:1023200084E001C082E010E0180F16C02F5F421752
:1023300009F448C08191632F0E944C359F5F9B3008
:1023400008F09AE0940D9F7E9F3081F7622FC401C0
:102350000E945D16382F12E03F3F09F47EC0D6017F
:1023600097968C91F601E80FF11D378F8F5FF6017C
:1023700087A3C6010E940528782EFFE18F17B1F0D0
:10238000D5011E968C911E97882321F090968C91F2
:10239000882361F0F50181A1882309F46DC3B70199
:1023A000C4010E943A26882309F466C3612FC40140
:1023B0000E948C1601E021E0412F672DC6010E948A
:1023C0009A2C5EC3980150E06DE0262EE42DF0E0DB
:1023D000F887EF834513B8C2F601878D8F3F29F444
:1023E000F80120E03DE04213D2C2252C312CF1E06F
:1023F0002F1A31082E0C3F1CF10180816DE00E94E4
:102400004C3551E0590FF80130E020E01DE0431356
:10241000CCC2213051F4F3010DE0242D30E011E065
:102420008E2F8619841708F4CAC2F301D5015DE026
:10243000242D30E08E2F8619841708F4D3C25FEF65
:102440001DE0242D30E0D301F50100E04013E1C28E
:102450005150C9F781E0F50183ABD50190968C917D
:10246000882371F061E0C4010E948C1662EA71E079
:10247000C3010E94A51DEE24E39401E02DE209C0F2
:102480006AE971E0C3010E94A51DEE24E39400E017
:1024900022E241E0B301C6010E946A26C301A9CA33
:1024A0004AE5B501C6010E94BE2A81E0F601828F8D
:1024B000E7C2B501C6010E941826D6015C961C929F
:1024C000C6010E940528F50196858F3189F499236C
:1024D00049F084E0D6011C968C93B501C6010E9498
:1024E0002426CEC2F50181A1882309F436CD2CC063
:1024F000911105C081A1882309F42FCD07C084E084
:10250000F6018487D50190968C91B8C284E0F601DB
:102510008487D50190968C919097811104C01E9666
:102520009C919111ADC2F50193A99111A7C2B60179
:10253000615E7F4FC4010E943A268111BFCAD50156
:102540001E968C918111C9CF87E0F6018487C5CF93
:10255000D50116968D919C9117978F709927892B8D
:1025600029F5F601848D482F50E049305105C0F41B
:10257000FA01ED59FF4F0C946C35B501C6010E946C
:102580007D2E14C0D60199961C9299978F5F5C9608
:102590008C930CC091E0F60191A78F5F848F06C0E9
:1025A00081E081A7B501C6010E94182613FF68C209
:1025B00089E0F6018487148E81E081A714A6D501F5
:1025C0005E968C915E975F968C935F97D1968C9177
:1025D000D197D2968C9354C2FD01848D8D37E0F44F
:1025E0008E3608F0A6C08E3409F475C050F48D34D0
:1025F00008F066C021E0280F8630F0F45C962C933A
:10260000AEC08F3508F09EC0803508F092C0B5018D
:10261000CD010E947D2EA3C08A3A38F48B3908F090
:1026200091C08C3808F085C08DC0893B08F481C00A
:10263000883C08F08CC086C0FD01248FF501E75965
:10264000FF4F80819A3021F19B3051F181110AC0F6
:1026500060E971E0CE0101960E94A51D23E0E22E03
:1026600001E009C064E871E0CE0101960E94A51D59
:1026700093E0E92E02E024E341E0BE016F5F7F4F6B
:10268000C6010E946A26CE0101960E940C2767C0EF
:10269000813019F469E771E007C06DE671E0E4CFBD
:1026A000813059F462E671E0CE0101960E94A51DC9
:1026B00083E0E82E01E022E3DFCF66E571E0D4CFCE
:1026C0008EE45C968C935C97B501CD010E94BF258A
:1026D000F60185A744C0C3010E945F2A13FF0EC004
:1026E000D6019D969C919D97911103C05C961C927A
:1026F00005C09FE4F601948F10E00BC017FF09C0DE
:10270000D6019C969C919C97992319F091509C9688
:102710009C9314FF24C0F60194A5492F50E04D5F0F
:102720005F4F282F30E042175307CCF49F5F94A7E8
:1027300016C08F5FD6015C968C935C9781E099966A
:102740008C930DC08F5FF601848F11A608C081E0C5
:1027500099968C939997B501CD010E94182613FF85
:102760008FC1F601848D8E3438F4B501C6010E9404
:10277000BF25D6019D968C93F501868D878F81A903
:1027800082ABD6011C968C911C978A3041F08B301D
:1027900051F0893059F48AE01C968C9307C08BE085
:1027A000F601848703C0D6011C961C92F501868D24
:1027B000878F81A982ABD6015C961C9261C1FD0115
:1027C000848DD5018C3420F55E968C91893750F03C
:1027D00062E371E0CE0101960E94A51D02E02CE4A7
:1027E00042E009C064E071E0CE0101960E94A51D9F
:1027F00001E023E443E0BE016F5F7F4FC6010E940A
:10280000A72ECE0101960E940C27F601848D1BC0D5
:1028100016962D913C9117972F703327232BF1F4A7
:10282000482F50E0FA01EC54F109E930F105B0F419
:10283000E459FF4F0C946C35B501C6010E947D2E02
:102840000DC0F60111A68F5F848F08C091E0D601FC
:1028500099969C9399978F5F5C968C9313FF10C108
:10286000F501E054FF4F83E080830AC1B501C60142
:102870000E94002BF501E759FF4F81E090819130D4
:1028800009F480E080830C94A80A2F5FF601238F5F
:102890000C94210B61E0C3010E948C1666EB71E081
:1028A000CE0101960E94A51DE12C02E02DE298C800
:1028B0006EEA71E0CE0101960E94A51DE12C00E0B8
:1028C00022E28EC8B501C6010E942426D501919648
:1028D0008C918111F3C8F50186858111CDC83DCB5E
:1028E0002F5FF601238F72C910E0DFC91D5FA1E0E1
:1028F0001CCAAA2329F081E0180F41E0A1E064CAB4
:1029000084E0FACF1E5FEACA4111E8CA1B5FE6CA3B
:102910001F5FF8CA5F5F28CC4F5F81CC642FC40172
:102920000E945D16382F2FE0321629F08FE113E058
:102930003812ACCCA8CC15E0A9CCF50141A1D80146
:10294000F80120E03DE0F3CCF90181919F01622D77
:102950000E944C359F5F9B3008F09AE0EF81F8852C
:10296000E90FF11D3B9789F4F501312C531549F01E
:1029700083A1622D0E944C359F5F9A3010F0652F25
:102980000DC0339431964311F1CF5F5F23CD819118
:10299000632F0E944C35933031F4622FC4010E94A2
:1029A0005D16382F64C02F5F1ECD8191612F0E946C
:1029B0004C359F5F591301C02F5F3F5F28CD8D912C
:1029C000602F0E944C359F5F59130AC0852F5B30E2
:1029D00008F08AE0B901680F711D603271055CF181
:1029E00031961ECD80818F3F89F493968C91939779
:1029F000652F0E944C3581E0890F8B3008F08AE00A
:102A0000B901680F711D60327105BCF011963196E5
:102A100011CD8D9158132DC083A1612F0E944C358B
:102A20009F5F9B3008F09AE0B901690F711D603219
:102A30007105FCF405C01083D3CF9B5E9083E6CF75
:102A4000602FC4010E945D16382F552081F0D101FE
:102A50008C914DE0642F0E944C3521E0290F832F8B
:102A60000E944C359F5F11E0291709F475CC10E0E6
:102A700073CC0F5F3196EACC1F5F98CC81112DCDBE
:102A800029960FB6F894DEBF0FBECDBFDF91CF9170
:102A90001F910F91FF90EF90DF90CF90BF90AF907C
:102AA0009F908F907F906F905F904F903F902F906E
:102AB0000895FC01DB0119968C9119978095189661
:102AC0009C911897892316962D913C911797277002
:102AD0003327232B39F495859F5F9C3111F095871F
:102AE00001C0158685FF04C09685913009F41686CD
:102AF00086FF05C09685911102C091E0968783FFFD
:102B000009C08685A054BF4F811102C082E001C078
:102B100081E08C930895089580E090E008950895F1
:102B20000F931F93CF93DF93EC018B0119821882CF
:102B30001B821A821D821C820E94E226F801868175
:102B40008E8387818F838085888781858987828529
:102B50008A8783858B87DF91CF911F910F9108958D
:102B6000CF93DF93FC016A3039F4858184839681A9
:102B70008185890F868351C08481603219F48E5F0C
:102B800084834BC06E37D9F3262FEF0166816F5FC8
:102B90002A3331F178F42D32C9F130F4213211F1B8
:102BA0002B3271F521E41FC02E32A1F0203340F109
:102BB0002C5F19C02B3540F4213470F42F3371F0A1
:102BC0002034F1F424E40FC09FE9920F9A31C0F44D
:102BD000275409C02FE307C0215405C022E403C0D5
:102BE00023E401C02EE33F81062E000C770B082E54
:102BF000000C990B313061F440E552E00E944E2206
:102C000088858D5F9C81890F8C8307C020E4EBCF82
:102C100040E552E00E945E22F3CF81E090E0DF9138
:102C2000CF9108950C940A360C940A360C940A3607
:102C30000C940A361F93CF93DF93EC01162F188262
:102C4000198246E050E06FEF70E002960E9467370D
:102C500044E050E06FEF70E0CE010C960E946737C1
:102C60001A8A112311F0188A198ADF91CF911F91C6
:102C700008950F931F93CF93DF938C01EB010E9474
:102C8000002B61E0CE010E960E941A1661E0CE0183
:102C900081960E941A16F8011686148616A612A6A8
:102CA00013A6FE01E759FF4F1082C659DF4F188265
:102CB000DF91CF911F910F910895FC01DC01A60FC8
:102CC000B11D12968C91663050F4DF01A60FB11D34
:102CD00013969C91139712969C936F5FF4CF9FEF7E
:102CE0009783908191509083943039F4DF01189646
:102CF000329601900D929A95E1F70895FC01918129
:102D0000DF01A90FB11D1C966C9361E0690F61830F
:102D1000CF010C960C941330FC019089690F6A372F
:102D200010F4608B089589E7808B089508950895C5
:102D3000089508952F923F924F925F926F927F92E3
:102D40008F929F92AF92BF92CF92DF92EF92FF92BB
:102D50000F931F93CF93DF93CDB7DEB765970FB671
:102D6000F894DEBF0FBECDBF1C015B01FB010680E6
:102D7000F781E02DFE87ED87FC0184858850853042
:102D800008F4D8C0B101615F7F4FCE0101960E9467
:102D900090158E010F5F1F4FF101208D42E168E514
:102DA000C5010E945227C8010E940C27F501068523
:102DB000902F990F892F880F880F890F845F869530
:102DC0003501F0E16F0E711C14E3181BC12CD12CDE
:102DD000802E912C21E0821A9108EDE05E2EC01623
:102DE00008F056C0F30141903F01E12EF12C20E0A4
:102DF000C814D90424F54FEB55E069E270E0C7012F
:102E00000E944E22F3E0EF0EF11C842D652D0E94EE
:102E10004C35492E282F4DE759E064E370E0C70197
:102E20000E945E22E42DF0E0EE0FFF1FE55DFE4FF5
:102E30004081518120E06DE270E0C70122C04BEE7D
:102E400055E069E270E0C7010E944E22842D652D95
:102E50000E944C35492E282F4DE759E064E370E07D
:102E6000C70108960E945E22E42DF0E0EE0FFF1FDE
:102E7000E55DFE4F4081518120E06DE270E0C701C9
:102E800003960E945E222FEFC21AD20A165FA7CFC6
:102E9000F50101A1102F110F812F880F880F180F36
:102EA000145F16951A5CE12CF12CC02ED12CF1E0A8
:102EB000CF1AD108E016E0F4EC14FD044CF4812F95
:102EC00090E020E041EA55E068EF7FEF0A9709C003
:102ED00082E0810F90E020E043E755E068EF7FEF6C
:102EE00046970E944E222FEFE21AF20A1A50E2CFC2
:102EF00021E040E86DE370E080E090E00E948B22EA
:102F000020E040E86CE370E080E090E00E948B22DB
:102F100000E010E0750133E0E30EF11C21E04FE327
:102F200050E0B801C7010E94742F0E5F1F4F003898
:102F30001105A1F7F1012485822F90E08D309105D4
:102F400008F0D9C2FC01EB58FF4F0C946C35F1012D
:102F5000638DC5010E94112EF1016685C5010E9495
:102F6000322EC9C2F10180A58F3F09F049C321E08B
:102F700046EC59E06CE070E080E090E00E944E2268
:102F800020E047EB50E160E170E085E090E00E94D6
:102F90004E22B1C2C1010E94012EF101848D811126
:102FA00008C0638DC5010E94112E03C0C1010E949B
:102FB000012EC1010E94CA2D9EC2B101615F7F4FE7
:102FC000CE0101960E949015F50191A9868D891771
:102FD00010F022E001C021E08E010F5F1F4F46E19B
:102FE0006FEFC5010E945227C8010E940C2720E004
:102FF0004EE958E060E070E08BE290E00E944E22E3
:1030000020E04FE856E067E070E083E390E00E9444
:103010004E22F501968D878D981719F0F10111A5B3
:1030200001C010E0F50182A991A9981719F0F101EA
:1030300041A501C040E0F10163A50E94182A412F7B
:10304000F10162A5F501878D0E94D12921E041E0BF
:10305000B501C1010E94852D4EC2C50187599F4F00
:103060006C0111E0FC018081293019F4882321F0E2
:1030700002C0813009F010E04501FEE08F0E911C86
:10308000B101615F7F4FCE0101960E94901511231F
:1030900039F0C4010E945F2A882311F021E001C0A9
:1030A00022E08E010F5F1F4F46E16FEFC5010E94C6
:1030B0005227C8010E940C2720E04EE958E060E04A
:1030C00070E08BE290E00E944E22F101828D81112E
:1030D0002BC02D853E852F71332781E0213108F4E7
:1030E00080E0F1012485948D2A3049F02B3039F0AD
:1030F0002930D1F4F6012081211105C00BC0F60161
:103100002081211107C041E0993B08F440E0482BA1
:1031100021E006C021E0993B08F420E0282B41E0A3
:10312000B501C1010E94852DF101848D8E3409F015
:10313000BCC184E08683878388E0808795012D5F0A
:103140003F4F398B288BEE24E39407E027E248E0D9
:1031500050E061E070E0888999890E941127F101AF
:103160009485993038F19B3018F09B30B1F022C033
:10317000F601808191012E5F3F4F811103C099308C
:1031800041F404C0813029F49A3019F46DE776E0F7
:1031900002C063E776E0C9010BC0F6012081C101DE
:1031A0000296211103C069E676E002C060E676E08F
:1031B0000E941C2881E0F1018187C4010E945F2ADE
:1031C000082F20E0F10140A561E081E30E946F2A11
:1031D000750154E4752E10E0F1018485893030F1D9
:1031E0008B3018F08B3091F021C0F6019081911155
:1031F00003C0893041F404C0913029F48A3019F4B5
:10320000F70141A50BC0F701468908C0F60180818E
:10321000F701811102C0428D01C045A521E01330A4
:1032200009F420E061E0872D0E946F2A1F5FFAE019
:103230007F0E2FEFE21AF20A143071F6063068F0B2
:1032400021E0F10184A5811120E040E556E063E131
:1032500070E088E790E00E944E22C4010E945F2A3D
:1032600081110EC088E4F1018683878386E280871E
:1032700066E476E0C10102960E941C2810E0B2C00C
:10328000950125593F4F3E872D87412C512C10E049
:10329000C10102969D8B8C8B401608F0A3C0F101F2
:1032A00084A5481608F494C090E00396841595050B
:1032B0000CF48EC0E12EF12CC70133E0880F991F6A
:1032C0003A95E1F79C01255E3F4F3B8B2A8B6D843D
:1032D0007E8442E3C42ED12C1F86F30180818F3F70
:1032E00059F1FF85FF5FFF876DE00E944C359F5FBE
:1032F000E92FF0E0EE0FFF1FE75DFE4F40815181A7
:10330000E1E0F0E09A3011F0E0E0F0E020E06A89DE
:103310007B89C6018E1B9F0B0E944E22F301808188
:103320006DE00E944C35282F4DE759E06A897B8972
:10333000C60105960E944E22FFEF6F1A7F0A2EE00B
:10334000C20ED11C3CE5C316D10439F68F858530F9
:10335000B8F0ED85FE85F58028E7F1012683278307
:10336000812F880F880F880F865E808739E03F1590
:1033700048F160EF71E08C899D890E94C82022C0CD
:10338000670184E0C80ED11CCC0CCC0CCC0C9F8502
:10339000EEE09E9F802D11248E5C92E7692E681AC4
:1033A000712CD12CE82EF12CB701670D711D21E095
:1033B000A601888999890E94742F73947394671465
:1033C00098F7C7CF6F2D8C899D890E94C1271F5FF9
:1033D000FFEF4F1A5F0A2D853E85295F3F4F3E87DD
:1033E0002D875ACFC4010E945F2A882309F45AC04E
:1033F000E02EF12C043088F0F10184A590E00396D2
:1034000021E08E159F050CF420E046E356E06CE3C6
:1034100070E088E790E00E944E22F10184A590E0E0
:1034200003968E159F05F4F1110F110F110F155E04
:103430008DE58683878310877101F2E0EF0EF11C22
:103440006FE276E0C7010E941C2888E7F1018683BD
:1034500087831087850105591F4F6501FFEBCF0E4C
:10346000D11CF80180E090819F3F11F09581890F78
:103470003796EC15FD05B9F78A3028F460EF71E056
:10348000C7010E94C82060E0F80180818F3F11F0E1
:103490008581680F095F1F4F0C151D05A9F7C7012E
:1034A0000E94C127F101118626C020E04FE856E0B6
:1034B00067E070E083E390E00E944E22F501968D74
:1034C000878D981719F0F10111A501C010E0F501E1
:1034D00082A991A9981719F0F10141A501C040E016
:1034E000F10163A50E94182A412FF10162A5F5019F
:1034F000878D0E94D129F101848588508530E0F0C4
:10350000828D882329F0818D882311F0833051F436
:10351000EE24E394F50101A92FEF42E7B501C101C3
:103520000E946829EE24E394F501068D24E342E726
:10353000B501C1010E946829F101828D8823F9F04B
:10354000C18CE788068915891A8219821C821B8220
:103550001E821D82B101615F7F4FCE0101960E94E4
:10356000E226212FAE014F5F5F4FB501C1010E94DE
:103570003B28CE0101960E940C27F101128EF10129
:1035800087A5882309F440C06501F3E0CF0ED11C64
:10359000E12C0BE02AE24AE150E06AE270E0C60169
:1035A0000E941127EE24E39409E028E24BE150E069
:1035B0006BE270E0C6010E9411278DE2F101868363
:1035C00087838CE1808781010E5F1F4F66E876E07C
:1035D000C8010E941C28C1010E9405288A3018F0E9
:1035E00062EF71E002C069EC71E0C8010E94C8207E
:1035F000C1010E940528682FC8010E94C12704C08C
:10360000C1010E94012E77CF65960FB6F894DEBFF8
:103610000FBECDBFDF91CF911F910F91FF90EF9023
:10362000DF90CF90BF90AF909F908F907F906F90E2
:103630005F904F903F902F9008952BE631E0FC0172
:10364000318320830F960C940C27CF93DF93EC01EA
:103650000E941D1BCE01DF91CF910C940A3625EC00
:1036600031E0FC013183208384529F4F0C941D1B59
:10367000CF93DF93EC010E942F1BCE01DF91CF91FE
:103680000C940A36AF92BF92CF92DF92EF920F93D3
:103690001F93CF93DF93CDB7DEB768970FB6F8943B
:1036A000DEBF0FBECDBF5C016B014BE454E060E0B8
:1036B00070E080E090E00E94B02745EB53E063E1CA
:1036C00070E081E090E00E94B0270CEE1FEFF50162
:1036D000858520E04FE553E06DE270E0F801E81BDE
:1036E000F109CF010E944E22045E1F4F003B1105DD
:1036F00071F762EF71E0CE010D960E94DD1D1E8A0A
:1037000084E08F8B188EBE01635F7F4FCE010196E0
:103710000E9490158E010F5F1F4F20E042E167E588
:10372000C6010E945227C8010E940C27F3E0CF0E69
:10373000D11CE12C0FE320E84CE350E060E070E0A6
:10374000C6010E94112721E040E86DE370E080E0AF
:1037500090E00E948B2200E010E021E04FE350E077
:10376000B801C6010E94742F0E5F1F4F003811056B
:10377000A1F7F5018685882319F08AE390E002C05D
:103780008AE090E0E12C00E021E233E04FE353E0F7
:1037900062E270E00E946E22CE010D960E940C271C
:1037A00068960FB6F894DEBF0FBECDBFDF91CF9104
:1037B0001F910F91EF90DF90CF90BF90AF90089541
:1037C0004091F6015091F7012091F4013091F501FB
:1037D00042175307B4F49091E8009570E1F390918B
:1037E000E80092FD19C08093F1008091F60190915C
:1037F000F70101968F739927892B19F48EEF809327
:10380000E8008091F6019091F70101969093F701FD
:103810008093F60181E0089580E00895DF92EF92B1
:10382000FF920F931F93CF93DF93D82E8A017B01D2
:10383000E40EF51EEB01CE15DF0571F0D7FE03C0D7
:10384000FE01849101C088810E94E01B21968111B4
:10385000F2CF8FEF9FEF01C0C801DF91CF911F9191
:103860000F91FF90EF90DF900895615030F020911C
:10387000F100FC0120830196F8CF289884E680931C
:103880006B070895CF92DF92EF92FF920F931F93F1
:10389000CF93DF936C017A018B01C0E0D0E0CE15AD
:1038A000DF0581F0D8016D918D01D601ED91FC917C
:1038B0000190F081E02DC6010995892B11F0219628
:1038C000EECF7E01C701DF91CF911F910F91FF9045
:1038D000EF90DF90CF900895CF93DF931F92CDB7F5
:1038E000DEB76983DC01ED91FC910280F381E02D6C
:1038F00041E050E0BE016F5F7F4F09950F90DF916F
:10390000CF91089583E08093E9008091F2008823AD
:1039100019F08AE38093E8000895FC018485958579
:1039200097FD0BC09FB7F89482E08093E9008091E7
:10393000F2009FBF90E0019608959FB7F89482E04F
:103940008093E9008091F2009FBF90E008950F936B
:103950001F93CF93DF931F92CDB7DEB782E08983A9
:1039600042E450E068EB78E080E80E940E1C0E9480
:10397000A12BDC0112960D911C91139701151105D5
:1039800089F0D801ED91FC910280F381E02DBE0118
:103990006F5F7F4FC801099597FD04C0F80100854E
:1039A0001185ECCF89810F90DF91CF911F910F91FD
:1039B00008958F929F92AF92BF92CF92DF92EF9233
:1039C000FF920F931F93CF93DF936C017B018A01CA
:1039D00080910B01882309F45CC080916C078823D7
:1039E00009F457C08091FA0180FF05C08091E00082
:1039F00082608093E000E801B12C8AEFA82E93E06A
:103A0000892E2AE3922E209711F4BB20D9F10E942F
:103A1000902B81110AC0AA94AA20D9F161E070E02C
:103A200080E090E00E94DA2BEECF282F30E0C21722
:103A3000D3070CF48C2F9FB7F8948092E900209163
:103A4000E80025FF1DC0282F30E0C21BD30BF70173
:103A5000815020F041914093F100FACFE20EF31E25
:103A6000BB2019F09092E8000AC08091E80085FD23
:103A700007C09092E800BB24B394209709F0B12CC2
:103A80009FBFC1CF5D9884E68093F901101611069F
:103A900044F081E090E0F6019383828380E090E03F
:103AA00001C0C801DF91CF911F910F91FF90EF905E
:103AB000DF90CF90BF90AF909F908F9008950E941D
:103AC000902B90E008950F931F93CF93DF931F9255
:103AD000CDB7DEB78C01FC018485958597FF0EC0BC
:103AE000CE0101960E94622B019719F4898190E022
:103AF00002C08FEF9FEFF80195878487F8018485D6
:103B000095850F90DF91CF911F910F910895CF93DD
:103B1000DF931F92CDB7DEB7FC018485958597FDB5
:103B200005C02FEF3FEF358724870BC0CE010196EC
:103B30000E94622B019719F4898190E002C08FEFF7
:103B40009FEF0F90DF91CF910895EF92FF920F9327
:103B50001F93CF93DF93EC01198218821B821A8284
:103B60001D821C826115710509F18B01CB010E9438
:103B700093347C01BC01CE010E94A926811109C0A9
:103B8000CE01DF91CF911F910F91FF90EF900C9498
:103B9000D026FD82EC82B80188819981DF91CF9196
:103BA0001F910F91FF90EF900C948C34DF91CF9187
:103BB0001F910F91FF90EF900895EF92FF920F9356
:103BC0001F93CF93DF93EC01198218821B821A8214
:103BD0001D821C826115710521F18B01FB01019091
:103BE0000020E9F731977F01E61AF70AB7010E9432
:103BF000A926811109C0CE01DF91CF911F910F91AC
:103C0000FF90EF900C94D026FD82EC82B801888161
:103C10009981DF91CF911F910F91FF90EF900C94BC
:103C20006E37DF91CF911F910F91FF90EF90089524
:103C30001F920F920FB60F9211248F939F93809132
:103C4000E1009091E100937F9093E10083FF0FC02A
:103C50001092E90091E09093EB001092EC0092E357
:103C60009093ED0010926C0798E09093F00082FF23
:103C700020C093E09093E9009091F200992319F00D
:103C80009AE39093E8009091F901992339F090918B
:103C9000F90191509093F901992389F190916B0763
:103CA000992339F090916B07915090936B0799236A
:103CB00041F184FF10C08091E2008E7E816080938C
:103CC000E2008091E1008F7E8093E1008091FA0113
:103CD0008E7E806111C080FF16C08091E2008E7ED2
:103CE00080618093E2008091E1008E7E8093E1000C
:103CF0008091FA018E7E81608093FA0104C05D9A02
:103D0000CDCF289AD6CF9F918F910F900FBE0F9055
:103D10001F9018951F920F920FB60F921124CF92F9
:103D2000DF92EF92FF920F931F932F933F934F9346
:103D30005F936F937F938F939F93AF93BF93EF9313
:103D4000FF93CF93DF93CDB7DEB76C97DEBFCDBFC8
:103D50001092E9008091E80083FFFBC168E0CE018A
:103D600045960E94351C82EF8093E8008D8987FF7D
:103D700005C09091E80090FFFCCF03C09EEF9093A8
:103D8000E800982F907609F0C6C09E894F89588D1B
:103D90002F89F88C91110CC0803829F48091FB0197
:103DA0008093F10002C01092F1001092F10045C121
:103DB000913051F4811141C14130510509F03DC1AB
:103DC0008091FB018D7F0BC0933061F4811135C16F
:103DD0004130510509F031C18091FB01826080932F
:103DE000FB012BC1953049F48091E80080FFFCCFA6
:103DF000822F80688093E30020C1963009F05EC076
:103E00000B8D1C8D22E01092E9001092F7011092A8
:103E1000F601F21232C01092F5011092F4010E94E4
:103E2000A71C99E0BE016F5F7F4FDB01E92F1D9258
:103E3000EA95E9F79983FA8291E09E8390EA988760
:103E40009AEF99872091F6013091F701275F3F4F54
:103E50003C832B838D831092E9001092F70110921E
:103E6000F6011093F5010093F40149E050E080E081
:103E70000E940E1C0E94A71CE0C01093F501009345
:103E8000F4010E94A12BDC0112960D911C91139755
:103E90000115110509F4BBC0D801ED91FC91048016
:103EA000F581E02DBE016B5E7F4FC801099500973B
:103EB00009F0C7C0F80100851185EACF973009F4F1
:103EC00045C1983021F481E08093F100B6C099306B
:103ED00009F0B3C0837009F039C1EDE1F1E081E090
:103EE00031E096E32081211109C08EE78093EA003A
:103EF0001092EA008F8980936C079FC08093E9003D
:103F00003093EB0021912093EC009093ED008F5FB4
:103F1000873041F7EACF8B8D9C8D1092E90010928B
:103F2000F7011092F6019093F5018093F401898DC9
:103F3000811153C08E899D89913A49F4813209F0EB
:103F400005C147E050E064E071E080E0BBC0913221
:103F500009F0FCC0833269F48F89988DA0E0B0E04D
:103F60008093000190930101A0930201B09303019B
:103F700064C0803269F48091E80082FFFCCF67E082
:103F800084E091E00E94351C8BEF8093E80055C0DF
:103F9000823209F052C08F8980930B01EEEFFFE768
:103FA000859194918B3F9C4D19F0E0E0F8E002C0C0
:103FB000EEEFFAE08091040190910501A0910601D5
:103FC000B0910701803B9440A105B10509F09EC066
:103FD00080910B0180FF79C099C00E94A12BFC0148
:103FE000028113810115110509F4B0C0D801ED91CA
:103FF000FC910190F081E02DBE016B5E7F4FC80106
:10400000099581111AC0F80100851185EBCFF1E007
:10401000FF1609F44EC0F3E0FF1298C08F89882381
:1040200009F44AC0823089F440E860E18CE199E00B
:104030000E947E30882309F489C08EEF8093E800C7
:1040400088C018161906CCF381C0813029F440E8E5
:104050006BE080E199E0ECCF833009F077C00E94FB
:10406000A12BDC011296ED90FC9013978E010F5F4F
:104070001F4F6801E114F10479F0D701ED91FC9133
:104080000680F781E02DB801C7010995080F111DC1
:10409000F701E084F184EECFD8011C92F601019083
:1040A0000020E9F73197BF016C197D0940E0C60196
:1040B000BFCF6EEF78E002C06AEF78E0FB01449179
:1040C00050E080E80E940E1CB8CFEE3F2AE0F207D5
:1040D00051F0808191818737A7E79A0721F090936B
:1040E000FF0A8093FE0A87E797E791838083809198
:1040F00060008093F8019BE088E10FB6F894A895E2
:10410000809360000FBE9093600097CF8081918173
:104110008737974709F091CFA89580916000886113
:10412000809360008091F80180936000EE3FBAE0D8
:10413000FB0739F08091FE0A9091FF0A91838083FA
:104140007CCF1092FF0A1092FE0A77CF81E2809313
:10415000EB006C960FB6F894DEBF0FBECDBFDF91BB
:10416000CF91FF91EF91BF91AF919F918F917F91EF
:104170006F915F914F913F912F911F910F91FF9000
:10418000EF90DF90CF900F900FBE0F901F9018957B
:104190006115710579F0FB0101900020E9F7319775
:1041A000AF01461B570BDC01ED91FC910280F381BE
:1041B000E02D099480E090E008952F923F924F9275
:1041C0005F926F927F928F929F92AF92BF92CF92A7
:1041D000DF92EF92FF920F931F93CF93DF9300D064
:1041E00000D000D0CDB7DEB74115510509F43DC16F
:1041F000FA01B4903196E4914E5F5F4F6B2C712CB5
:10420000211102C0EE2061F1A1E0B0E03E2F377035
:1042100011F4A0E0B0E03E2F3695369536954D016D
:10422000830E911C869CD001879CB00D969CB00D8E
:104230001124F3E0CF1203C0AA0FBB1F0AC001155F
:10424000110539F0EA9E4001EB9E900C1124080DF7
:10425000191D2A9F70012B9FF00C11244E0D5F1D1C
:104260002FEFC21208C00115110519F0CC24C39418
:1042700002C032E0C32E7301E80EF91E1E141F04A3
:104280000CF0F3C0803891050CF0EFC09B012E0FAD
:10429000311D121613060CF0E8C0603471050CF0E5
:1042A000E4C04115510509F4E0C0362F37703D8355
:1042B000DB0177FD179623E0B595A7952A95E1F7E1
:1042C0003A2F77FF05C06D81662311F03FEF3A0F5B
:1042D00097FF05C0AA27BB27A81BB90B02C0A0E007
:1042E000B0E0F0E8EF16F10424F020E8D22ED81A5E
:1042F00001C0DB2CDA1A632F032E000C770B3F3F33
:104300001CF4A62EA09401C0A12CF1E02E2F277042
:1043100009F4F0E0E695E695E695FE0F6F0F711D46
:104320006930710514F0F8E0F31B7A2C730E272D19
:1043300060E82603800D911D11244C018A0E9B1EFE
:1043400061E070E00D8002C0660F771F0A94E2F70B
:1043500083E0C81611F0E1E001C0E2E02B2D2D1939
:104360002E9F202D1124EE2EF12CBA9CA00DB11DF4
:104370001124AE9DC001AF9D900DBE9D900D1124E6
:104380005A01A80EB91E0115110509F0A801D7019F
:1043900011978A0F9B1F480F591FAFEFA69FC001AF
:1043A000A79F900D11242C0140945094C401845077
:1043B0009E4FF30FFE8330E0ED9D200D311D112443
:1043C000EE817E1609F451C0DC014A018501612CA1
:1043D000D61409F442C0F8013490369EF001379E9D
:1043E000F00D1124FA83E983E095F095FC83EB83CB
:1043F000F2E0CF1203C05C824B8211C0EBEFCE1211
:1044000003C01A8219820BC0F4013490369EF00169
:10441000379EF00D1124E095F095FC83EB8377FC3B
:1044200006C0FB81EC91EF23F981EF2BEC93FD812A
:10443000FF2361F0E6E0E7154CF0FD01E058FF4F87
:1044400020803C8032202A80322830828E0C9F1CB3
:104450000E0D1F1D63941196BBCF7394A20EB31E55
:10446000420F531F80589F4FABCF26960FB6F8943C
:10447000DEBF0FBECDBFDF91CF911F910F91FF9097
:10448000EF90DF90CF90BF90AF909F908F907F90F4
:104490006F905F904F903F902F900895CF92EF9242
:1044A0000F931F933AEFC32EE12C00E010E00E941F
:1044B000DD201F910F91EF90CF900895CF92EF9252
:1044C0000F931F933BEFC32EE12C00E010E00E94FE
:1044D000DD201F910F91EF90CF900895CF92EF9232
:1044E0000F931F93F901202FCC24C3948F010E94B6
:1044F000DD201F910F91EF90CF900895BC0180E0D7
:1045000090E00C94DA2B8FB18095807F669B886059
:104510001C9B84600895FC01E40FF11DAF011E1681
:104520001F06C4F580389105ACF597FF02C080E006
:1045300090E04138510514F040E850E0481BFB0181
:1045400077FD379633E0F595E7953A95E1F7F695DF
:10455000FE2FEE27F795E795E80FF91FE450FE4F81
:104560006770772781E090E001C0880F6A95EAF7CD
:10457000382F222341F0213069F4415058F08081D6
:10458000832B8193FACF8095415020F0908198231E
:104590009193FACF08952F923F924F925F926F922C
:1045A0007F928F929F92AF92BF92CF92DF92EF92C3
:1045B000FF920F931F93CF93DF93CDB7DEB72C9766
:1045C0000FB6F894DEBF0FBECDBF8C017A87698726
:1045D000D42E1C0144E5240E311C7C0145E050E042
:1045E0006FEF70E0C7010E946737D70115961C92E4
:1045F000B7E0EB0EF11CE214F30481F78D2D6DE0B2
:104600000E944C35C82E49855A854B5F5F4FA9855E
:10461000BA8520E09DE0B92E37E0F32EEE24E39436
:104620003D913D1549F0832F6B2D0E944C359A30FA
:1046300019F4C81609F43EC2A417B50789F78FE12B
:10464000482E512CFE0131967F013DE05E01F6E0DF
:10465000AF0EB11C60902301709024018090250161
:1046600085E0E6E2F1E0D70101900D928A95E1F74D
:10467000E985FA8580E090E0D12CA201082E02C0E5
:10468000559547950A94E2F740FF06C04081D7014F
:10469000AD0DB11D4C93D3940196319685309105A3
:1046A00061F742E0D41287C049815A81852F632F78
:1046B0000E944C35CC24C394C90E842F0E944C35E3
:1046C0009F5FC91278C0F801FC87EB878681813033
:1046D00009F054C08081632F0E944C359F5FC9123E
:1046E0004DC0BF01C12C90E080E0DB019D90BD0179
:1046F000491102C0CC24C394BFEF9B1203C0911197
:1047000001C0982F8F5F853081F7C11005C0BF01B0
:10471000690F711DDB014C93BF0140E080E090E028
:10472000DB01CD90BD015C1101C041E0BFEFCB12B8
:1047300003C0811101C0892F9F5F953089F7411116
:1047400006C08F5FBF01680F711DDB015C9390E0B5
:1047500080E041914F3F09F0982F8F5F8530C9F776
:104760006E827F828886E5E0F0E0EC0FFD1FE90FA6
:10477000F11D8081EB85FC8585831DC037962E1643
:104780003F0609F0A1CFB80187E0289F600D711D99
:104790001124D701CB014D91FC014193CF01AA1502
:1047A000BB05C9F7E2E0DB011596EC931597F1E044
:1047B0001696FC932F5FF701D70140E08A2F8E19E0
:1047C0008D1550F48D91632F0E944C359F5F9B3067
:1047D00008F09AE0490FF2CF4F30E1F4B80187E0DA
:1047E000289F600D711D11247C876B87AB01C70169
:1047F000DC016D91CD01DA016D93AD01A816B9060A
:10480000B9F742E0AB85BC8515964C931597169683
:104810001C922F5F63E0D61266C0D9808D2D632F66
:104820000E944C359F5F492F50E0CA80DA011196F3
:104830008C2D0E944C359F5F892F90E0A817B907F7
:1048400009F01AC19B804E5F5F4F892D0E944C3545
:104850009F5F892F90E04817590709F00DC1D801D3
:1048600040E016965C9116975450523018F57C91A2
:1048700011966C91119712965C911297D71204C001
:10488000C61202C09516A9F0D61207C0C51205C0FF
:1048900013966C911397961661F0D5120BC0139670
:1048A0005C911397C51206C014965C9114979512EB
:1048B00001C041E017962A163B0699F64111DCC06B
:1048C000B80187E0289F600D711D1124CB01419133
:1048D000DC014D93CD01EA15FB05C9F743E0FB016F
:1048E000458386E0C7C094E0D91278C0D9808D2D69
:1048F000632F0E944C359F5F492F50E0CA80DA0138
:1049000011968C2D0E944C359F5F892F90E0A8173F
:10491000B90709F0B1C09B80892D0E944C359F5F7B
:10492000892F90E0BA016E5F7F4F6817790709F011
:10493000A3C0AC81AB874D5F5F4F8A2F632F0E946E
:104940004C359F5F892F90E04817590709F094C0B4
:10495000C80140E0DC0116965C911697543029F5A9
:104960006C9111965C911197D6120CC0C5120AC0B9
:1049700012966C911297961205C013966C91BB8596
:10498000B61791F0D51211C0DC0112965C91129706
:10499000C5120BC013965C911397951206C014961E
:1049A0005C91BB85B51301C041E007962816390616
:1049B00089F6411161C0B80147E0249F600D711D67
:1049C0001124CB014191DC014D93CD01EA15FB058A
:1049D000C9F744E0FB01458385E04CC095E0D9125E
:1049E0004BC08981632F0E944C359F5F492F50E057
:1049F000DA0111968A810E944C359F5F892F90E0E1
:104A0000A817B907C9F58B810E944C359F5F892F84
:104A100090E0BA016E5F7F4F6817790769F58C8166
:104A2000632F0E944C359F5F892F90E0BA016D5F24
:104A30007F4F6817790701F54C5F5F4F8D81632FBA
:104A40000E944C359F5F892F90E048175907A1F4C9
:104A5000B801A7E02A9F600D711D1124CB0141917F
:104A6000DC014D93CD01AE16BF06C9F745E0FB0151
:104A7000458384E086832F5F91E0491A510809F04D
:104A8000EFCD2C960FB6F894DEBF0FBECDBFDF91F1
:104A9000CF911F910F91FF90EF90DF90CF90BF903B
:104AA000AF909F908F907F906F905F904F903F90CE
:104AB0002F900895F80167E0269FE00DF11D112465
:104AC0003083E582F6822F5FB7CDEF92FF921F937E
:104AD000CF93DF9300D000D01F92CDB7DEB77B011C
:104AE000142FFC013C9694E0DE01119601900D928A
:104AF0009A95E1F74D8365E0CE0101960E9413304F
:104B0000412FBE016F5F7F4FC7010E94CB220F90E4
:104B10000F900F900F900F90DF91CF911F91FF900A
:104B2000EF900895EF92FF921F93CF93DF9300D001
:104B300000D01F92CDB7DEB77B01142FFC01389651
:104B400094E0DE01119601900D929A95E1F74D8364
:104B500065E0CE0101960E941330412FBE016F5FC8
:104B60007F4FC7010E94CB220F900F900F900F90A4
:104B70000F90DF91CF911F91FF90EF900895EF92EA
:104B8000FF920F931F93CF93DF93FC01EB017B0107
:104B90008EE0E80EF11C8B010F5D1F4F84858A307B
:104BA00071F08B30E9F08930D1F5DB01A759BF4FA7
:104BB0008C9165597F4F40A581110AC00DC0DB0162
:104BC000A759BF4F8C9165597F4F40A5811104C0F3
:104BD000C7010E94922510C0C8010E94922516C0EC
:104BE000DB01A759BF4F8C9165597F4F40A58111BB
:104BF0000AC0C7010E946525CE010E94C12EC82FA0
:104C0000682FC70109C0C8010E946525CE010E9416
:104C1000C12EC82F682FC8010E948C1601C0C0E0A9
:104C20008C2FDF91CF911F910F91FF90EF900895FE
:104C3000FB01268D293718F421A9293720F0FC0122
:104C4000148E21E026A708950F931F93CF93DF932F
:104C50008C01EB0148E050E06FEF70E04F960E944E
:104C60006737F80117A218A21BAADF91CF911F91F5
:104C70000F910895FC01DB01AB01485F5F4F20E01D
:104C80003DE08D918F3F41F0632F0E944C359F5F37
:104C90009B3008F09AE0290FA417B50791F75081CF
:104CA000329640E0ADE030E0541781F081916A2FF8
:104CB0000E944C359F5F9B3008F09AE0B901690F64
:104CC000711D6032710524F04F5FEECF80E00895D2
:104CD00081E00895CF92DF92EF92FF920F931F939E
:104CE000CF93DF9300D000D000D0CDB7DEB76C01FA
:104CF000F42E122F1A8219821C821B821E821D82A0
:104D0000CE0101960E94E226BE016F5F7F4FC60171
:104D10000F960E94E226F601F58A168B8FEF878B9D
:104D2000008FE18E81E0828FCE0101960E940C27D8
:104D300026960FB6F894DEBF0FBECDBFDF91CF91A0
:104D40001F910F91FF90EF90DF90CF9008950E94F8
:104D500059370F931F93CF93DF93EC01888199818B
:104D6000009729F02A813B812617370788F48B01A9
:104D70006F5F7F4F0E949336009761F0998388831D
:104D80001B830A832C813D81232B11F4FC011082AB
:104D900081E001C080E0DF91CF911F910F910895D4
:104DA000CF93DF93EC0188819981009711F00E94E5
:104DB0000A36198218821D821C821B821A82DF9198
:104DC000CF910895EF92FF920F931F93CF93DF93AC
:104DD000EC0186179707C1F0FB01008111810115D5
:104DE000110539F0E480F580B7010E94A9268111F0
:104DF00004C0CE010E94D02607C0FD82EC82B8011B
:104E0000888199810E946E37CE01DF91CF911F91E9
:104E10000F91FF90EF900895FC01808191810C9497
:104E20000A366F927F928F929F92AF92BF92CF92EB
:104E3000DF92EF920F931F93CF93DF934C016A01A0
:104E4000EB013B01620E711C5A01A00EB11CC6158C
:104E5000D705D4F48601D7FE02C000E010E0C501FA
:104E600021E4A216B10414F080E490E008171907B9
:104E70004CF42E2DA801BE01C4010E94742F0F5FB7
:104E80001F4FEDCF2196E3CFDF91CF911F910F916F
:104E9000EF90DF90CF90BF90AF909F908F907F90DA
:104EA0006F9008958F929F92AF92BF92CF92DF92B0
:104EB000EF92FF920F931F93CF93DF93F22E48014F
:104EC000DC011696AD90BC901797C42ED12CC62F3E
:104ED000660FDD0BE12C00E021EF3DE04FEF5EE0DF
:104EE000B601CE010E946E22C5018F77992721E07D
:104EF000843008F020E0B6016F5E7F4F45EC5DE046
:104F0000CE010C960E944E22F4018385F6017B9619
:104F10006196882391F0D4011A968C918D7F81300F
:104F200061F4C50160E370E00E9458356CE00E94B6
:104F30004C3581118E5F282F01C02F2D4BE75DE08E
:104F4000BF01CE01DF91CF911F910F91FF90EF90A4
:104F5000DF90CF90BF90AF909F908F900C944E2297
:104F6000CF92EF920F931F9322E0C22EE12C00E02C
:104F700010E020E00E94DD201F910F91EF90CF9074
:104F800008958F929F92AF92BF92EF92FF920F93EC
:104F90001F93CF93DF93CDB7DEB7A1970FB6F894E9
:104FA000DEBF0FBECDBF7C01262F30E040E050E0D9
:104FB00019A28E010F5D1F4F8AE0882E912CA12C23
:104FC000B12CCA01B901A50194010E941B35605D95
:104FD000F80162938F01211531054105510589F7CB
:104FE000BF01C7010E94C820A1960FB6F894DEBF8A
:104FF0000FBECDBFDF91CF911F910F91FF90EF902A
:10500000BF90AF909F908F900895FC017F969C0178
:10501000295D3F4F40E05DE081918F3F41F0652F7A
:105020000E944C359F5F9B3008F09AE0490FE217D1
:10503000F30791F7842F0895EF92FF920F931F9338
:10504000CF93DF938C017B01C0E0D0E0F701EC0F40
:10505000FD1F6491662339F0C8010E94B015892BA9
:1050600011F02196F3CFCE01DF91CF911F910F91D7
:10507000FF90EF9008952F923F924F925F926F9220
:105080007F928F929F92AF92BF92CF92DF92EF92D8
:10509000FF920F931F93CF93DF9300D000D01F9206
:1050A000CDB7DEB75C011A01702ECA82CC2039F070
:1050B0008C2D833021F080E8682E601A01C0612CAD
:1050C0009FEFE9126E2C122F110F110F110FE3E059
:1050D000E10FEB83862D90E09D838C836B0193E041
:1050E000C90ED11C04E0010FE12C272D43E050E054
:1050F0006C817D81C6010E9411278C809D80E4E037
:105100008E0E911C0CE0010F38EFF32EF70C2F2DB3
:105110004FEF5FEFB401C6010E94112705E0010FB8
:105120006C817D816F5F7F4FEE24E3942EEF270D1E
:1051300043E050E0C6010E9411270AE0010F2F2D25
:1051400040E050E0B401C6010E94112748E0942ECF
:10515000910EFCEFF70DF9830C811D810E5F1F4F3F
:1051600020E04F2F61E070E0C8010E948B22E92C03
:10517000F12C8FE3891530F020E04981B701C80197
:105180000E948B229FEFE91AF90A88248394912CBC
:105190002701E1E4EE16F1041CF090E4492E512CB5
:1051A0008414950454F420E0A401B801C6010E94BF
:1051B000742FFFEF8F1A9F0AEBCF8981080F111D03
:1051C00001501109EE24E394F12CE414F50451F09C
:1051D00020E0A701B801C6010E94742F9FEFE91AD1
:1051E000F90AF3CFE12C00E029E63DE041E75DE07C
:1051F0006FEF7FEF8C819D810E946E228C809D805D
:10520000870C911C2401E8E04E1A510827E53DE087
:105210004FE55DE06FEF7FEFC2010E946E22FB81E0
:10522000CF2ED12C8A81882311F08330A1F4B601CE
:1052300061507109E12C00E02DEE3CE041E25DE0BF
:105240008C819D810E946E222BED3CE043EE5CE060
:10525000B601C20114C0E12C00E029EC3CE041EDB4
:105260005CE0B6018C819D810E946E22B601615086
:1052700071092FE53CE043E95CE0C4014A970E94D4
:105280006E2286E0860DF5018683878385E0808720
:10529000F1014481558160817181C50102960F90B1
:1052A0000F900F900F900F90DF91CF911F910F9162
:1052B000FF90EF90DF90CF90BF90AF909F908F9036
:1052C0007F906F905F904F903F902F900C94421C76
:1052D0006F927F928F929F92AF92BF92CF92DF9206
:1052E000EF92FF920F931F93CF93DF936C01122FD6
:1052F000702E6E2C89E0801718F026E0F22E08C080
:10530000E3E6E01718F094E0F92E02C082E0F82EF0
:10531000F40E812E012E000C9908C42FD0E05B0101
:10532000F3E0AF0EB11CE12C08E02EE0A401BE01B9
:10533000C5010E941127A4014F5F5F4FBE016F5F3F
:105340007F4FEE24E39407E02DE0C5010E94112772
:10535000F601F682F7821F5F1087662099F0672DAD
:10536000C6010296DF91CF911F910F91FF90EF90B0
:10537000DF90CF90BF90AF909F908F907F906F9075
:105380000C94C127DF91CF911F910F91FF90EF9067
:10539000DF90CF90BF90AF909F908F907F906F9055
:1053A0000895EF92FF920F931F93CF93DF93D42F23
:1053B000E82FF0E0EE0FFF1FE559F44F849131968E
:1053C00094919D5FE62FF0E0EE0FFF1FE559F44F3B
:1053D000F49031966491C3E0C60F97FF04C09F77A5
:1053E000EE24E39401C0E12CC7FF03C0CF7711E0A6
:1053F00001C010E0692F70E001E025E53BE04FE5DA
:105400005BE090E00E946E22DD2359F06C2F70E08B
:10541000E12E25E53BE04FE55BE08F2D90E00E941B
:105420006E22DF91CF911F910F91FF90EF90089521
:10543000EF92FF920F931F93CF93DF93D42FE82F18
:10544000F0E0EE0FFF1FEF59F54F849131969491E4
:105450009D5FE62FF0E0EE0FFF1FEF59F54FF49040
:1054600031966491C3E0C60F97FF04C09F77EE2486
:10547000E39401C0E12CC7FF03C0CF7711E001C066
:1054800010E0692F70E000E025E53BE04FE55BE0D0
:1054900090E00E946E22DD2359F06C2F70E0E12E27
:1054A00025E53BE04FE55BE08F2D90E00E946E220A
:1054B000DF91CF911F910F91FF90EF900895FC0124
:1054C000E35AFF4F9C012F543F4F80E090819F3F54
:1054D00009F08F5F3796E217F307C1F70895BF927F
:1054E000CF92DF92EF92FF920F931F93CF93DF93B0
:1054F000C82FC62E842F6DE00E944C35B82E11E0C7
:10550000190F211103C026E0F22E02C094E0F92EFB
:10551000D12CD0E0E12C02E023E939E046EC59E05F
:10552000B601CE010E946E22CF0DD11DB601645F7F
:105530007F4F2B2D4DE759E0CE010E945E22E12FD7
:10554000F0E0EE0FFF1FE75DFE4F40815181B60195
:105550006B5F7F4F81E090E01A3011F480E090E0C3
:1055600020E08C0F9D1FDF91CF911F910F91FF9035
:10557000EF90DF90CF90BF900C945E22DC01FB0196
:10558000818580959085892383FF0FC0868D89371B
:1055900018F481A9893738F05C961C925C978CE0EE
:1055A0001C968C9308955C964C930895EF92FF920D
:1055B0001F93CF93DF93EC01162F7C0181E2E80E5D
:1055C000F11CFE01B39660E08191181721F06F5F26
:1055D0006630D1F76FEFC7010E945D16FE01E759F3
:1055E000FF4F8081612F811103C0CE010E9601C053
:1055F000C701DF91CF911F91FF90EF900C947E1621
:10560000AF92BF92CF92DF92EF92FF920F931F93D0
:10561000CF93DF93EC018B0160E0C8010E960E94EE
:105620001A1660E0C80181960E941A16F801F596D4
:1056300080E081938F5F8433E1F7580189E6A80EFB
:10564000B11C84E3C82ED12CE12CF12C0E943534FE
:10565000A70196010E94B234F801E60FF11D85A959
:10566000D5019E915D0195AB8C93B1E0CB1AD10829
:10567000E108F108E1E0CE16D104E104F10431F7CC
:10568000D801D4961C9248E050E06FEF70E0CE0154
:105690004F960E9467371E861B8E1C8E1D8E1E8E97
:1056A0001FA28FEF88A781E089A71AA61BA6DF910A
:1056B000CF911F910F91FF90EF90DF90CF90BF900F
:1056C000AF90089520916C07211103C08FEF9FEFD9
:1056D00008955FB7F89422E02093E9002091F2004A
:1056E00030E01216130614F421E030E0422FFC01E2
:1056F00084E6415038F0289880936B079091F10030
:105700009193F7CF2115310521F08091F200882384
:1057100019F05FBFC90108958BE68093E800F9CFC7
:105720002FB7F89483E08093E9009091E800892FE7
:10573000807295FF04C09091F20080E4891B2FBF16
:1057400008958091760781110DC082E080937207E1
:1057500084E080937307109275071092740781E0BC
:105760008093760782E797E008953FB7F894809199
:105770006E0790916F07A0917007B091710726B5E1
:10578000A89B05C02F3F19F00196A11DB11D3FBF79
:10579000BA2FA92F982F8827820F911DA11DB11D07
:1057A000BC01CD0142E0660F771F881F991F4A9503
:1057B000D1F708958F929F92AF92BF92CF92DF92CE
:1057C000EF92FF926B017C010E94B52B4B015C01B3
:1057D000C114D104E104F104F1F00E94B52BDC0105
:1057E000CB0188199909AA09BB09883E9340A105F4
:1057F000B10570F321E0C21AD108E108F10888EE82
:10580000880E83E0981EA11CB11CC114D104E104D0
:10581000F10419F7DDCFFF90EF90DF90CF90BF90AC
:10582000AF909F908F9008951F920F920FB60F9296
:1058300011242F933F938F939F93AF93BF938091A6
:10584000670790916807A0916907B0916A07309146
:105850006D0723E0230F2D3720F40196A11DB11D04
:1058600005C026E8230F0296A11DB11D20936D07E8
:105870008093670790936807A0936907B0936A07BE
:1058800080916E0790916F07A0917007B09171079A
:105890000196A11DB11D80936E0790936F07A09391
:1058A0007007B0937107BF91AF919F918F913F9116
:1058B0002F910F900FBE0F901F901895DF92EF92CF
:1058C000FF920F931F93CF93DF9300D000D000D0AF
:1058D000CDB7DEB77C01D42E122F1A8219821C821A
:1058E0001B821E821D82CE0101960E94E226BE010D
:1058F0006F5F7F4FC7010F960E94E226F701D58A9E
:1059000088E4868B8FEF878B108F018F81E0828FE9
:10591000CE0101960E940C2726960FB6F894DEBFA2
:105920000FBECDBFDF91CF911F910F91FF90EF90F0
:10593000DF900895CF92DF92EF920F931F93CF9352
:10594000DF93CDB7DEB7AE970FB6F894DEBF0FBECC
:10595000CDBF6C01362F122F442309F48AC086E094
:10596000EBECF1E0DE01999601900D928A95E1F75A
:1059700088E0E1EDF1E0DE015B9601900D928A9501
:10598000E1F789E0E9EDF1E0DE01529601900D9238
:105990008A95E1F781E1E2EEF1E0DE0111960190F6
:1059A0000D928A95E1F76A3040F0862F6AE00E94F6
:1059B0004C35805D898321E001C020E0E1E0F0E02A
:1059C000EC0FFD1FE20FF11D5AE0832F652F0E949F
:1059D0004C35905D908381E0820FA1E0B0E0AC0F88
:1059E000BD1FA80FB11D85E0FE01B99601900D9273
:1059F0008A95E1F786E0820F90E0295FE1E0F0E030
:105A0000EC0FFD1FE80FF91F4A3078F0842F0E9439
:105A10004C35805D8083A1E0B0E0AC0FBD1FA20FCC
:105A2000B11D88E0FE0172960EC030E3340F308362
:105A3000413089F7A1E0B0E0AC0FBD1FA20FB11D4E
:105A400087E0FE017B9601900D928A95E1F7BE01F9
:105A50006F5F7F4FCE0183960E94DD1D212F41E0B5
:105A6000BE016D5D7F4FC6010E945E2CCE01839604
:105A70003CC087E0ECEEF1E0DE01119601900D9262
:105A80008A95E1F76A3040F0862F6AE00E944C3533
:105A9000805D8C8324E001C023E0E1E0F0E0EC0FC6
:105AA000FD1FE20FF11D832F6AE00E944C35905DCF
:105AB00090832F5FE1E0F0E0EC0FFD1FE20FF11D9E
:105AC0008EE28083BE016F5F7F4FCE0142960E94BF
:105AD000DD1DE02E012F22E241E0BE016E5E7F4F10
