:100000000C9454090C947C090C947C090C947C0984
:100010000C947C090C947C090C947C090C947C094C
:100020000C947C090C947C090C94C9200C943B2101
:100030000C947C090C947C090C947C090C947C092C
:100040000C947C090C947C090C947C090C947C091C
:100050000C947C090C947C090C947C090C94D22798
:100060000C947C090C947C090C947C090C947C09FC
:100070000C947C090C947C090C947C090C947C09EC
:100080000C947C090C947C090C947C090C947C09DC
:100090000C947C090C947C090C947C090C947C09CC
:1000A0000C947C090C947C090C947C09C209030A09
:1000B000530BCA0B720C830C5A0CD00E4A12AE12A0
:1000C000AE12AE12C4135F128D1293128D129312E0
:1000D0008D1293128D129312FF132D1433142D14BD
:1000E00033142D1433142D143314BF17B917C51737
:1000F000C917E117E117E117F017F7173818381883
:100100003818F7174920616D20736F72727940209B
:10011000796F750A206C6F7374207468652067614D
:100120006D652E0A202020202020204920776F6E28
:100130002100436F6E67726174756C6174696F6ED4
:1001400073210A20202020202020202020596F7594
:1001500020576F6E210020596F757220637269629B
:10016000400020204D792063726962400020596F61
:1001700075722068616E64400020204D79206861AE
:100180006E64400020596F75722068616E64400093
:10019000204D792068616E6440002020476F212047
:1001A000200020476F20666F7220312E2000202013
:1001B000476F2120200020476F20666F7220312E6C
:1001C00020004D79207475726E20746F20737461F5
:1001D00072744000596F7572207475726E20746F5E
:1001E000207374617274400054776F20666F7220C0
:1001F000686973206865656C73210054776F2066A9
:100200006F7220686973206865656C732100202017
:1002100020492077696C6C207468726F770A746863
:100220006573652074776F2063617264732E0003B9
:10023000081F051F1F151B1F11111F110E1F151160
:100240001F05011F111D1F041F001F0010101F1F7D
:10025000041B1F10101F061F1F011F1F111F1F054A
:10026000071F311F1F051B17151D011F011F101F21
:100270000F100F1F0C1F1B041B071C071915130C55
:10028000121E1F120C1E12120C121F0C1A14041F25
:10029000052E2A1E1F021C001D00201D001F041A0F
:1002A000011F001E041E1E021E1E121E3E120C0CFA
:1002B000123E1E020614120A020F121E101E0E100B
:1002C0000E1E081E1A041A2E281E1A12161F111F9F
:1002D000121F101D151711151F07041F17151D1FBD
:1002E000151D01011F1F151F17151F0017000010F6
:1002F00000040404040E040229060A000010001081
:100300001C14FD1D1D5D9ABABAFAF4F4F474A8A881
:10031000485050505040404040C0E018E4FA1B3371
:1003200077F7F0F8FFFFFF07F807F8FE06FF07F77B
:1003300007FFFFFFFF0FF1FE7F3F080C0E0F0F0FAF
:100340000F0F0F000F000F0F0E0702060E0F0F0703
:10035000080F0F0F0E0C1C14C3E7FFFF0FF1FEFF79
:10036000FF07F604FE07FFFF00FF00FFFFFFFFFF90
:10037000FFE7C381FF7F87783F2F2F2F2FAEAEAED1
:10038000AF265751EEF1FEFFFFDFD190AE8E8CFD10
:100390000502010000000000000000000001010152
:1003A00002020202050505050B0B0B0B801800006D
:1003B000000000000000000000000000000000003D
:1003C0000000C030180C040404040404040C0808E1
:1003D000000000000000C0C080000000000000809D
:1003E0008000008080000000C040404040000000CD
:1003F000000000E010080C0404040C08183060C071
:10040000008000000000008080000000808080806C
:10041000800000000080808080000000000000005C
:1004200000000000000000000000000000000000CC
:1004300000000000000000000000000000000000BC
:10044000001F60408080808080808080804040E00D
:1004500030000000F02E2320213618E08000FF003D
:10046000010F0701011FF000001F704CC4848000C1
:100470000000001F30C08080808080C04060380F46
:100480000001070C70C07C03000E3B6949C88884DA
:1004900085878000000FF0000101000000000000CF
:1004A000000000000000000000000000000000004C
:1004B000000000000000000000000000000000003C
:1004C0000000000000000000000000000000000725
:1004D0000000000301000000000000000300000015
:1004E0000000000000000704000000000000000001
:1004F00000000000000000000000000000000000FC
:1005000000000000000000000000000000000000EB
:1005100000000000000001000000000000000000DA
:1005200000000000000000000000000000001610A5
:10053000FF00FF55AA55AA55AA55AA55AA55AA556E
:10054000AA55AAFF00FF1F205FB5AAB5AAB5AAB594
:10055000AAB5AAB5AAB5AAB5BA5F201F0E100000A9
:1005600000FFAA55AA55AA55AAFF00FF0008A0BF80
:10057000AAB5AAB5AAB5BA5F201F0E15F804FAFDF0
:10058000FDFDFDFDFDFDFD050000FF00FFFFFFFF80
:10059000FFFFFFFFFF0000001F001F1F1F1F1F1F87
:1005A0001F1F1F0000001615F804FAFDFDFDFDFDDC
:1005B000FDFDFDFDFDFDFDFDFDFDFDFA04F8FF0067
:1005C000FFFFFFFFFFFFFFFFFFFFFFFFFFFFFFFF3B
:1005D000FFFF00FF1F001F1F1F1F1F1F1F1F1F1FC9
:1005E0001F1F1F1F1F1F1F1F001F546F74616C3AB6
:1005F0000007040103070F070301010204080402B6
:10060000010704080C0E0F0E0C0808040201020476
:10061000084E6F7468696E672021004D792043721F
:1006200069624000596F7572204372696240004DE3
:10063000792048616E644000596F75722048616E80
:10064000644000596F75722048616E6440004D79B6
:100650002048616E6440004B3800FF010105010134
:10066000FF00515551555155515551555155515501
:10067000515551555155515551555155515551554A
:10068000515551555155515551555155515551553A
:100690005155515551555155515551A1A1428224A1
:1006A000081020C00077747475B45427301C1D1CCA
:1006B0005D1C5D1C5D1C5D1C5D1C5D1C5D1C5D1C72
:1006C0005D1C5D1C5D1C5D1C5D1C5D1C5D1C5D1C62
:1006D0005D1C5D1C5D1C5D1C5D1C5D1C5D1C5D1C52
:1006E0005D1C5D1C4900AA807F807F000800FF0020
:1006F00000FC028100F208F40AA90595C5D5C5D50C
:10070000C5D5C5D5C5D5C5D5C5D5C5D5C5D5C5D519
:10071000C5D5C5D5C5D5C5D5C5D5C5D5C5D5C5D509
:10072000C5D5C5D5C5D5C5D5C5D5C5D5C5D5C5D5F9
:10073000C5C4C2E1E0F2783C1E0700007FE0C08043
:10074000270817282A505451555155515551555184
:100750005551555155515551555155515551555169
:100760005551555155515551555155515551555159
:10077000555155515551555155515551A1A143828E
:1007800024081020C00000808183476F1E5E1C5C1F
:100790001C5D1C5D1C5D1C5D1C5D1C5D1C5D1C5D91
:1007A0001C5D1C5D1C5D1C5D1C5D1C5D1C5D1C5D81
:1007B0001C5D1C5D1C5D1C5D1C5D1C5D1C5D1C5D71
:1007C0001C5D1C5D1C4900AA807F807F000800FF23
:1007D0001837686A68F7E0C5D5C5D5C5D5C5D5C58C
:1007E000D5C5D5C5D5C5D5C5D5C5D5C5D5C5D5C539
:1007F000D5C5D5C5D5C5D5C5D5C5D5C5D5C5D5C529
:10080000D5C5D5C5D5C5D5C5D5C5D5C5D5C5D54598
:10081000D5C5C4C2E1E0F2783C1E0700000000002C
:1008200000010101010101010101010101010101B9
:1008300001010101010101010101010101010101A8
:100840000101010101010101010101010101010198
:100850000101010101010101010101010101010188
:100860000000000000000340FFFF55FFFF55FFFFA1
:1008700055FFFF55FFFF55FFFF55FFFF55CF3F5574
:10088000303000000000000000C020100804028288
:10089000C282820202020A0A0A0A0A0A0A0A0A0A28
:1008A0000A0A0A0A12A4081020C000000000000072
:1008B000000000000000000000FF00800000FEFFBC
:1008C000FFFF7B3F3F3B3B7BFBFBFB7B3B3B3F3FE0
:1008D0007FFBFEFC003F800000FF000000000000E6
:1008E00000000000000000FE0101F95A81FCFDA19A
:1008F000ADEDE9E5E1E1E529E1F7E1E9E5E1E1E592
:10090000E9EDADA1FCFD8259F80101FE00000000F7
:1009100000000000000000010202050990A7DF3F6F
:100920007FFFFFFFFFB7D3535252525353D3B7FF4A
:10093000FFFF7F3FDFA7908905040403000000004C
:1009400000000000C020D0E8F4FA79B95204022C6B
:100950005ABC79F979B91943B37272B34319B979A9
:10096000F979BC5A2C4AA47AF1FAF4E8D020C000F4
:100970000000000300030303010201000000000067
:10098000000001020100000000030300000000015C
:100990000201000000000001020103030303000341
:1009A0000000D5F08D14A1C881CFD9F1AF20000887
:1009B0000B00020202010009040000010202000013
:1009C0000524001001052401010104240206052468
:1009D0000600010705810310004009040100020A16
:1009E00000000007050202400000070583024000E6
:1009F000000403090412010002EF02014041233602
:100A00008000010102030141726475696E6F204C20
:100A10004C430041726475696E6F204C656F6E6166
:100A200072646F0035053B053D053F0541054305F3
:100A30004505470549054B054D054F05510553052E
:100A40005505570559055B055D055F05610563059E
:100A50006505670569056B056D056F057105778887
:100A6000798E779471176F176D176B176917671762
:100A70006517631761175F175D175B1759175717CE
:100A80005517531751174F174D174B17491747173E
:100A90004517431741173F173D173B183B1A3B1C9F
:100AA0003D1D3F1D411D431D451D471D491D4B1D3E
:100AB0004D1D4F1D511D531D551D571D591D5B1DAE
:100AC0005D1D5F1D611D631D651D671D691D6B1D1E
:100AD0006D1D6F1D711D77A079A677AC712F6F2FDB
:100AE0006D2F6B2F692F672F652F632F612F5F2F5E
:100AF0005D2F5B2F592F572F552F532F512F4F2FCE
:100B00004D2F4B2F492F472F452F432F412F3F2F3D
:100B10003D2F3B2F392F34AC02020702020002079F
:100B20000200050300020502000002070200350B67
:100B30003B0B3D0B3F0B410B430B450B470B490B4D
:100B40004B0B4D0B4F0B510B530B550B570B590BBD
:100B50005B0B5D0B5F0B610B630B650B670B690B2D
:100B60006B0B6D0B6F0B710B738C738E739071111C
:100B70006F116D116B1169116711651163116111AD
:100B80005F115D115B11591157115511531151111D
:100B90004F114D114B11491147114511431141118D
:100BA0003F113D113714351A37203D233F23412390
:100BB00043234523472349234B234D234F235123CD
:100BC00053235523572359235B235D235F2361233D
:100BD00063236523672369236B236D236F237123AD
:100BE00073A473A673A871296F296D296B296929CC
:100BF00067296529632961295F295D295B295929AD
:100C000057295529532951294F294D294B2949291C
:100C100047294529432941293F293D293B2939298C
:100C200034ACFFFFFFFFFFFFFFFFFFFFFFFFFFFFF2
:100C3000FFFFFFFFFFFFFFFFFF7F3F1F01010307D4
:100C40000F0F0F0F0F1F3F7FFFFF7F3D19010101A6
:100C50000101000000001A10BFBFBF1FEFEFEFEF50
:100C6000EF1FBFBFBFBFBFBFBFBFBFBFBFBF5F2003
:100C70001F000000010205050505050219245A5A46
:100C80002418000000000000000000000F1F3F7F3C
:100C9000FFFFFFFF0808000F102F5F5F5F5FFFFF80
:100CA000FFFF7F3F1F0F08085F5F5F5F2F100F0080
:100CB0001F3F7FFFFFFFFFFFFFFFFFFFFFFFFFFF64
:100CC000FFFFFFFFFFFFFFFFFFFF0000000001012C
:100CD000010101193D7FFFFF7F3F1F0F0F0F0F0F16
:100CE000070301011A10001F205FBFBFBFBFBFBFB6
:100CF000BFBFBFBFBFBF1FEFEFEFEFEF1FBFBFBF54
:100D00000000000000000000000018245A5A2419B6
:100D100002050505050502010000FFFFFFFFFEFCBF
:100D2000F8F00808FAFAFAFAF408F000F0F8FCFE15
:100D3000FFFFFFFF080800F008F4FAFAFAFA2108AA
:100D40000F0F08080006090B06000E03030E000F24
:100D5000090F06000F0F000F02030F000E0F090D01
:100D6000000E10BEBDBEBDBEBDBEBDBEBDBEBDBEC5
:100D70000000040004000400040004000400004E0D
:100D8000080F0D0702000F050F0A000F0D090002E2
:100D90000B0D00020B0D00000000000F0D070200FC
:100DA0000F0F0808000E03030E00030E0E030000D1
:100DB0000006090B06000F02030F00000000010FE0
:100DC0000F010E03030E000F0D0702000F0D090E99
:100DD00010A7C7A7C7A7C7A7C7A7C7A7C7A70007C1
:100DE0000707070707070707070707070024080E75
:100DF0001F1F1F0E00000000000000000000001F69
:100E00000E04000000000000000000040E1F00049B
:100E10000E1F001C14FD1D1D5D9ABABAFAF4F4F4FD
:100E200074A8A8485050505040404040C0E018E4DA
:100E3000FA1B3377F7F0F8FFFFFF07F807F8FE0615
:100E4000FF07F707FFFFFFFF0FF1FE7F3F080C0EC4
:100E50000F0F0F0F0F0F000F000F0F0E0702060EE0
:100E60000F0F07080F0F0F0E0C721900C0F0F81CBF
:100E70000C040682C2C2C2060CFCF8F8F878000026
:100E800000000080800000808080000000AAABABE2
:100E9000ABABAA000004FCFEFEFE00008080808058
:100EA0000000000004FCFEFEFE0000808080800048
:100EB0000000000000008080808080800000000032
:100EC00000000000000080808080800080800000A2
:100ED000000000808080808080000000003EFFFFD6
:100EE000FFF0C080000107050C0C0E0F0703030084
:100EF000800001FFFFFFFF0E070707070700000044
:100F00001FFFFF1F00000000FFFFFFFF03010101A3
:100F100003FFFFFFFC0000FFFFFFFF0301010103D0
:100F2000FFFFFFFC0080C6E3F131190F3FFFFFFE1A
:100F300080000000F0FCFEFF03000000FFFFFFFF49
:100F40000000F8FEFFE1202020233F3F3E38000054
:100F5000000307070F0F1F1E1E1C1C1C1C0C0C0E71
:100F600006030100101F1F1F1F10000000000000DB
:100F70000000001F1F00000000100F0F0F1F1810AF
:100F800010181E0F07030000100F0F0F1F1810106E
:100F9000181E0F07030000070F1F1F181010101F47
:100FA0001F1F1F10000081C78F9F1E1C1C0E9FFF5C
:100FB000FFFF70000103070F0F1E1E1C1C1C0C04FA
:100FC0000000000000000000000000000000000021
:100FD0000000000000000000000000000000000011
:100FE0000000000000000000000000000000000001
:100FF00000000000000000000000000000000000F1
:1010000000000000000000000000000000000000E0
:1010100000000000000000000000010101010101CA
:1010200001010000000000000000000000000000BE
:101030000000003510BF7FE0840A44A04F1024AAAE
:101040002420495549414955494149554941495546
:1010500049414955494149554941495549414955F0
:1010600049414955494149554941000102050B0A89
:10107000162C2C595A5958B2B5B2B0B2B5B2B0B25A
:10108000B5B2B0B2B5B2B0B2B5B2B0B2B5B2B0B23C
:10109000B5B2B0B2B5B2B0B2B5B2B0B2B5B2B003DB
:1010A000051F041B03050F190F030508100F050585
:1010B0001F001F111F030507051F03051F151F0331
:1010C0000519050303051F151D030517151D030548
:1010D00007041F030511151F03051D151703051F21
:1010E000051F0B0F00000000000000000000FF4083
:1010F0004040404040404040201F0D11FC0251A99B
:1011000055A955A955A95102FC7F80152A552A5584
:101110002A552A15807F000001010101010101010A
:101120000100000D11A802000100010001000100F2
:1011300002A82A80000000000000000000802A00B1
:101140000000010001000100010000000080F8FC27
:10115000FEFFFEFCF8F8F8F8F0E0C0070F1F3F7F35
:10116000FFFFFFFFFF7F3F1F0F070F10000080787A
:1011700004FA04D810D010D020C000000708172CA3
:101180005F5F5B5F5B2F170807000D140000000016
:101190000000000000000000FF0000000000000050
:1011A0000000000000FF08080808080808080808F0
:1011B00004020105060E1F3E1F0E0C1E3F1E0C0CE6
:1011C0002E3F2E0C0C2F372F0CFCFEFFFFFFFFFFD6
:1011D000FFFFFFFFFFFFFFFFFEFCFFFFFFFFFFFF23
:1011E000FFFFFFFFFFFFFFFFFFFFFF1F3F7F7F7F2F
:1011F0007F7F7F7F7F7F7F7F7F7F3F1F1117005023
:10120000040002000200020002000200045000007C
:101210005500000000000000000000000000550024
:1012200000051000200020002000200020001005F4
:101230000000F80452AA52AA52AA52AA52AA520470
:10124000F80000FF0055AA55AA55AA55AA55AA5557
:1012500000FF00000F10252A252A252A252A252AE5
:1012600025100F0000F804F2FAFAFAFAFAFAFAFA7C
:10127000FAF204F80000FF00FFFFFFFFFFFFFFFF8F
:10128000FFFFFF00FF00000F10272F2F2F2F2F2F02
:101290002F2F2F27100F0005030002050200000268
:1012A000070200002931872E11241FBECFEFDAE09C
:1012B000DEBFCDBF12E0A0E0B1E0E0E1FBE602C09E
:1012C00005900D92A033B107D9F727E0A0E3B2E073
:1012D00001C01D92AE3BB207E1F719E0C3E5D9E0CA
:1012E00004C02197FE010E947233C235D107C9F7AD
:1012F0000E948B2E0C947B350C9400002F923F9211
:101300004F925F926F927F928F929F92AF92BF9215
:10131000CF92DF92EF92FF920F931F93CF93DF93C1
:10132000CDB7DEB729970FB6F894DEBF0FBECDBF9D
:10133000FC01DB015B012EE0A20EB11C6B0131E26E
:10134000C30ED11C4B0164E3860E911C19967C9050
:101350001997709418968C911897782285A58823F0
:1013600011F08CE084879485492F50E04D30510571
:1013700010F00C94C9147D018F01FA01EA5AFF4F55
:101380000C94723316968D919C9117978F709927B4
:10139000892B39F41E968C911E97882311F40C9496
:1013A0004014F7018685863060F5868197818F70BD
:1013B0009927892B11F00C94C914C4010E941A2B8F
:1013C000D7011E966C91F701E60FF11D808B6F5FC0
:1013D000F7016687C70140960E949B2AC4010E94BC
:1013E0001A2BD70191966C91F701E60FF11D83A39B
:1013F0006F5FF70161A3C70183960E949B2A0C943B
:10140000411281E052C2FD018685853008F440C05A
:1014100075FE09C0D8015A968C915A97882319F005
:1014200081505A968C9376FE0EC0F801228D422F81
:1014300050E0D7011E968C9190E00197481759070C
:1014400014F40C944F1473FC02C00C94C91481E082
:10145000F8018687628DC5010E948816682FF70102
:10146000E759FF4F8081811102C0C50101C0C6014B
:101470000E94A916D8015A968C915A97F701968521
:1014800089130C94C91481505A968C930C94C914E6
:101490008FEFD8015C968C935C975D968C9386E079
:1014A000E6E1F1E0DE01119601900D928A95E1F7F7
:1014B0003701B3E26B0E711CA701475D5F4F9E01C0
:1014C0002F5F3F4FD3016DE0D62ECC24C3948D9176
:1014D0006D2D0E946633943011F4F901C0822F5FA4
:1014E0003F4FA417B50799F76E01F6E0CF0ED11C58
:1014F000FE01319693015DE042E0B42ED901AD903A
:101500009D018C91652F0E94663341E0490F8A2D21
:101510000E9466339F5F491308C080818F3F09F4A2
:10152000B08281818F3F09F4B1823196EC15FD05BF
:1015300029F79E012F5F3F4F6901B12C9DE0A92E35
:1015400023E0922EB394D3018D913D016A2D0E9428
:1015500066339F5F292F30E02F5F3F4F8B2C482D44
:1015600050E0F701E40FF51F83A16A2D0E94663356
:101570009F5F892F90E02817390779F4F601808161
:101580008F3F09F49082E1E0F0E0EC0FFD1FE40FE3
:10159000F51F80818F3F09F490828394F6E08F12CB
:1015A000DECFBFEFCB1ADB0AE5E0BE12CBCF9E0148
:1015B000295F3F4FD701FE0131964DE058E086E0AC
:1015C000D82E80818F3FB9F493968C919397642F96
:1015D0000E94663381E0890F893038F4873050F4F7
:1015E000943048F49B5F908306C09950943018F46F
:1015F000508301C0D08231961196E217F30709F7A4
:101600008FEF97012B5F3F4FF701AE014F5F5F4FA9
:10161000DA019D91AD01981315C0D8015C969C919B
:101620005C979F3F21F493A15C969C930BC0981705
:1016300049F0D8015D969C915D979F3F19F493A165
:101640005D969C933196E217F30711F78150E1F60E
:10165000F801848D8F3F59F40E944F3226E030E02C
:1016600040E050E00E94CC32D8015C966C93F801C7
:10167000858D8F3FB1F4B6E0CB2ED12CE12CF12C2F
:10168000D8015C969C915C975D968C91981749F077
:101690000E944F32A70196010E94CC32F801658F5B
:1016A000EFCF82E071C0F801838D8F5F838F8D3320
:1016B000D0F48F3208F047C08E3230F54DE2BD01D4
:1016C000C8010E94022B6EE072E0CE0101960E94DA
:1016D000562021E042E0BE016F5F7F4FC8010E94AB
:1016E000FB2B0C946E148A3648F48E3308F045C0F8
:1016F000F801858DFD01B39660E027C08A3611F0B0
:101700000C94C91483E040C0848DF701B39660E067
:101710009191891721F06F5F6630D1F76FEFC601A5
:101720000E948816F701E759FF4F8081811103C09D
:10173000F801648D1DC0D8015C966C91C6010E94B1
:10174000A9160C94C9144CE319C09191891721F082
:101750006F5F6630D1F76FEFC6010E948816F70100
:10176000E759FF4F8081811105C0D8015D966C91CA
:10177000C501E5CFF801658DE1CF49E6B701C801A4
:101780000E94022B0C94C914D8011C968C931C97B0
:101790000C94C113F801838D8F5F838F893498F483
:1017A0008B3108F04EC08A3168F58031C0F48F303B
:1017B00011F00C94C914C4010E941A2BD8019796F9
:1017C0008C930C94C9148E3728F48E3408F041C0E1
:1017D0004DE7D4CF8E3709F45FC00C94C91461E093
:1017E000C5010E94B31562E0C6010E94B315F8015D
:1017F00087A16DE00E9466339A3011F40C94C914ED
:101800008DE4A4C2FD01E759FF4F808162E08111A0
:101810000BC0C5010E94B7166BEF71E0CE010196B7
:101820000E94562020E00AC0C6010E94B71668EE4A
:1018300071E0CE0101960E94562021E04EE40C9406
:1018400068144DE7BD01C8010E94022B81E0D80158
:101850008DC2BD01C8010E94691E4DE7B701C801D4
:101860000E94022BF701E759FF4F8081813051F42C
:1018700064ED71E0CE0101960E94562021E041E521
:101880000C94681462EC71E0CE0101960E9456201F
:1018900021E047E40C946814F801138EFD01E75928
:1018A000FF4F80818130E1F484E0D8011C968C9355
:1018B0000C94C914F801838D8F5F838F853308F4EE
:1018C0005BC0853311F00C94C914BD01C8010E949E
:1018D000691ED8015B961C92F70183A981115FC034
:1018E00087E00DC0B801625E7F4FC5010E94221ED5
:1018F000811140C081E0D70190968C9386E0F80179
:1019000084870C94C914D8015B968C918E3208F4AC
:1019100051C08E3211F00C94C914B701C8010E9455
:10192000691EC8010E94521EF801138E8F3109F4FE
:1019300020C287E08487F70180A181110C94C9142B
:1019400083A9882309F427C2B801625E7F4FC501CD
:101950000E94221E81110EC0B701C8010E94121EF2
:10196000D70191968C9191978111BACF1E968C9147
:101970008823F1F085E099CF873078F4863011F034
:101980000C94C914D3968C91D39781118CC79196DE
:101990008C91882309F487C793C744E31BC5B7011B
:1019A000C8010E94121ED7011E968C9181117CCF16
:1019B00088E0A5CF813008F0CBC175FE06C0F801E4
:1019C000828D882311F08150828F76FE0DC0D80160
:1019D0005A962C91422F50E0F701868590E00197AE
:1019E000481759070CF47FC773FED3C7C8010E947C
:1019F000521E282FD8015A964C91F701E40FF11D81
:101A000080896DE00E94663331E0390F3B3008F089
:101A10003AE0822F90E0830F911D80970CF0B9C7B8
:101A2000642FC5010E948816F801C6A0EC0DF11DB7
:101A3000868FC394D8019696CC9296975A968C919D
:101A40005A97F7019685891303C081505A968C9353
:101A5000C8010E94521E982EF1E0FC1508F047C7FD
:101A6000F801EC0DF11D848D3DE0632F0E9466337B
:101A700021E0290F858D0E94663331E0390F321342
:101A800003C0A2E0DA2E01C0D12C62E0C616E1F05C
:101A9000838D6DE00E94663341E0490F241304C03A
:101AA000321302C074E0D70E83E0C81669F0828D4D
:101AB0006DE00E9466339F5F491306C0241304C083
:101AC000321302C096E0D90E892D8F7E8F3011F42B
:101AD000D394D394A2E0AC1508F012C1F801EC0D38
:101AE000F11D838D3DE0632F0E94663341E0490F75
:101AF000848D0E94663351E0590F858D0E946633B4
:101B000021E0290F541701F12417F1F02517E1F016
:101B1000451718F4852F841B02C0842F851B833042
:101B200098F4421718F4822F841B02C0842F821B62
:101B3000833050F4521718F4822F851B02C0852F72
:101B4000821B833008F4D5C6B0E033E0C31609F435
:101B5000D7C0828D6DE00E94663331E0390F4317A4
:101B600009F442C0531709F43FC02317E9F1541791
:101B7000D9F12417C9F12517B9F1341718F4842FB6
:101B8000831B02C0832F841B843070F5351718F433
:101B9000852F831B02C0832F851B843028F53217C5
:101BA00018F4822F831B02C0832F821B8430E0F441
:101BB000451718F4852F841B02C0842F851B8430A1
:101BC00098F4421718F4822F841B02C0842F821BC2
:101BD000843050F4521718F4822F851B02C0852FD1
:101BE000821B843008F489C6A0E064E0C61609F4BC
:101BF00087C0818D6DE00E94663381E0890F3817C0
:101C000009F47EC0481709F47BC0581709F478C05E
:101C1000281709F475C0431709F472C0531709F463
:101C20006FC0231709F46CC0541709F469C0241756
:101C300009F466C0251709F463C0831718F4932FBD
:101C4000981B02C0982F931B953008F059C0841739
:101C500018F4942F981B02C0982F941B953008F00D
:101C60004FC0851718F4952F981B02C0982F951B0D
:101C7000953008F045C0821720F4722F781B872F0B
:101C800001C0821B8530E0F5341718F4842F831BC4
:101C900002C0832F841B853098F5351718F4852FE3
:101CA000831B02C0832F851B853050F5321720F42B
:101CB000822F831B382F01C0321B353008F54517A2
:101CC00018F4852F841B02C0842F851B8530C0F437
:101CD000421720F4922F941B492F01C0421B45301C
:101CE00078F4521710F4251B02C0521B252F253003
:101CF00038F4BB2309F40DC6AA2309F407C6D3940C
:101D0000BFE19B16B1F0F70181A1882319F083A9E7
:101D1000882379F0D7011E968C91882309F4FEC59B
:101D2000B801625E7F4FC5010E94221E882309F41C
:101D3000F5C56D2DC5010E94B71620E04D2D692D0A
:101D4000C8010E94342CF801838D8F5F838F21C6D8
:101D50004DE2B701C8010E94022BD8015B968C911D
:101D60005B978F5F5B968C935B9781E059968C9322
:101D700010C6D70191968C91882319F087E084874B
:101D800005C0F7018685882309F412CEB701C80182
:101D90000E94121EFEC581A1882309F4D5CDF9C584
:101DA000F801838D8F5F838F8D3330F4813108F09C
:101DB00010C3803129F0EDC58D3309F413C3E9C593
:101DC0001E968C911E97823030F090969C9181E007
:101DD000292E282601C0212C5801BEE1AB0EB11CD2
:101DE00086E0E6E1F1E09E012F5F3F4F4901D90116
:101DF00001900D928A95E1F7F501A8014A5D5F4FC8
:101E000030E0712C2DE081918F3F49F07394622F67
:101E10000E9466339F5F9B3008F09AE0390F4E179F
:101E20005F0789F7D70191962C91A7014D5D5F4F10
:101E3000B2E0B71508F044C02501470C511CD2018F
:101E400012978C91BDE06B2F0E946633A1E0A90F21
:101E5000C2010397FC0180810E9466339F5FA91332
:101E600032C0329680810E946633B1E0B90FBA1356
:101E70002AC08B2FBB3008F08AE0682E630EFFE18A
:101E8000F61508F1FA01A0E07DE0572E2A17D9F0E7
:101E90008191652D0E9466339F5FB9130FC06A2F31
:101EA000C6010E948816382F2FE0621629F06FE1D4
:101EB0008CE06612FEC041C08EE0FBC0AF5FE6CF93
:101EC00072E07712F8C0F501E70DF11DDF011297FE
:101ED0008C916DE0662E662D0E94663355245394D6
:101EE000590ECF010197DC018C910E946633662464
:101EF0006394690E651027C0862DBAE0B61508F404
:101F00008AE0482E430E6FE16415E8F0DA01312CC7
:101F10002315C9F08D916DE00E9466339F5F6912B1
:101F200010C0632DC6010E948816382F7FE0471627
:101F300031F08FE1481280C086E092E0F5C088E081
:101F4000B8C03394E5CF92E0971508F077C0339787
:101F500080816DE00E946633A1E0A90FA51518F4F9
:101F6000452C4A1A02C04A2E4518A61520F4B62D53
:101F7000BA1BB98703C0EA2FE619E987561418F48B
:101F8000362C351802C0352C3618FA01B0E02B1764
:101F900009F457C081916DE00E9466339F5F892FDD
:101FA0009B3008F08AE0830F8F83803208F0B8C43A
:101FB0005A1609F4B5C46A1609F4B2C4A91709F48B
:101FC000AFC4651409F4ACC4591609F4A9C4691660
:101FD00009F4A6C463E0641508F4A2C479857430DA
:101FE00008F09EC4A91718F4892F8A1B02C08A2FF3
:101FF000891B843008F094C483E0831508F490C4EE
:10200000591618F4892F851902C0852D891B843033
:1020100008F086C4691610F4961903C0662D691B72
:10202000962F943008F07CC46B2FC6010E9488164E
:10203000382F6F816F30C1F586E03BC082E07812A7
:102040003AC0561418F4B62DB51902C0B52DB619FC
:10205000FA01A0E09DE0392E2A1769F18191632DE4
:102060000E9466339F5F892F9B3008F08AE0482EDC
:10207000430E6FE1641508F455C4651409F452C4A5
:10208000591609F44FC4691609F44CC4B33008F06A
:1020900049C4591610F4951903C0752D791B972F53
:1020A000933008F03FC440C47F8184E07F3109F45D
:1020B00044CF90E039C0211002C0711005C02A0140
:1020C000FA01A0E0BDE036C0F501E70DF11D319742
:1020D00080816DE00E946633B1E0B90FFA01A0E0A3
:1020E0008DE0582E2A1759F38191652D0E94663391
:1020F0009F5F892F9B3008F08AE0682E630E6FE1A6
:102100006615A8F0B91313C06A2FC6010E9488167D
:10211000382F7FE0671631F08FE192E0681203C03C
:1021200082E002C094E080E0792E780E00C1AF5FBB
:10213000D9CFAF5F2A17A1F081916B2F0E94663330
:102140009F5F9B3008F09AE0930F9F7E9F3089F746
:102150006A2FC6010E948816382F72E0772EE7C0DA
:10216000DA01612C6DE0262EE32FF0E0F887EF8393
:10217000261509F18D91622D0E9466339F5F9B3079
:1021800008F09AE0EF81F885E90FF11D3B9789F49B
:10219000F701312C631449F083A1622D0E9466334C
:1021A0009F5F9A3010F0662D17C03394319623113B
:1021B000F1CF6394DDCFD8015E968C918F3FA1F46F
:1021C000FA01A0E0BDE02A1779F081916B2F0E94FF
:1021D0006633933039F46A2FC6010E948816382F6F
:1021E000712CA5C0AF5FEFCF272C312CB1E02B1A9B
:1021F00031082A0C3B1CF10180816DE00E9466339E
:102200009F5F9F83FA0150E040E0BDE0251759F041
:1022100081916B2F0E9466339F5FAF81A91301C02C
:102220004F5F5F5FF3CF4130A9F4F4014DE0642EBE
:10223000432F50E00BC0D2018D912D01662D0E94DD
:1022400066339F5FBF81B91761F031968E2F881971
:10225000821788F3F401D7019DE0692E432F50E0E7
:1022600011C08B2FBB3008F08AE0BA01680F711DD6
:10227000603271050CF469C3E8CF80818F3F39F07B
:10228000119631968E2F88198217B8F313C0939642
:102290008C919397662D0E94663381E0890F8B3075
:1022A00008F08AE0BA01680F711D603271050CF404
:1022B0004FC3E6CF66246A948DE0582E432F50E03A
:1022C000D401F70130E0231799F08D91681245C3CE
:1022D00083A1652D0E9466339F5F9B3008F09AE0D2
:1022E000BA01690F711D603271050CF036C307C069
:1022F0006A946110E5CF81E0F70183AB4CC0632F96
:10230000C6010E948816382F772009F424C3D10112
:102310008C914DE0642F0E94663321E0290F832FBA
:102320000E9466339F5F81E0291315C3782E3F3FDB
:1023300091F1D80196968C91F801E80FF11D368F36
:102340008F5FF80186A3C8010E94521E982EFFE1FC
:102350008F17B1F0D7011E968C911E97882321F01C
:1023600090968C91882361F0F70181A1882309F46C
:10237000F7C2B501C6010E94221E882309F4F0C2EB
:10238000672DC6010E94B71621E0472D692DC801AF
:102390000E94342CFEC2D70190968C91882361F064
:1023A00061E0C6010E94B71662EA71E0C4010E94B2
:1023B000562021E04DE207C06AE971E0C4010E94A5
:1023C000562021E042E2B401C8010E94751EC401FA
:1023D00087C24CE3B701C8010E94022B81E0F801DB
:1023E000818FD7C2BD01C8010E94691ED8015B96CA
:1023F0001C92C8010E94521EF70196858F3169F424
:10240000992311F084E005C0F70181A1882351F0E0
:1024100087E0D8011C968C9311C0911107C081A14F
:10242000811111C088E0F80184872BC084E0F80195
:102430008487D70190968C91882319F1B701C80140
:102440000E94121E1EC084E0F8018487D701909676
:102450008C919097811104C01E969C91911111C08E
:10246000F70193A99111E8CFB801625E7F4FC601D1
:102470000E94221E882309F475C287E0D8011C96A9
:102480008C9361E0C5010E94B31562E0C6010E9411
:10249000B3157FC2FD01868197818F709927892BA3
:1024A00009F046C0D8015B968C91482F50E0493026
:1024B0005105F0F5FA01ED59FF4F0C947233F70115
:1024C000878DD80199969C919997981710F49996B1
:1024D0008C93F70182A9D8019A969C919A979817A4
:1024E00010F49A968C93F80191A5D7015E962C91E1
:1024F0005E9782A5921728F0D1969C91891720F0BB
:102500003AC29F5FF80191A7D701D1969C91891794
:1025100078F48F5FF80182A70BC0D80198961C92BF
:1025200098978F5F2AC291E0F80190A78F5F838F01
:1025300073FE2FC289E0D8011C968C931C975B9682
:102540001C925B9781E098968C9398979B961C922F
:10255000F701868D878F81A982AB1BC2D8015B965C
:102560008C918E36D8F48F3508F0DFC0823309F4B1
:1025700069C050F4813308F05AC021E0280F86303A
:10258000E8F4F801238FD5C0803508F0C5C0813448
:1025900008F0CBC0833309F48BC0CBC08B3938F43F
:1025A0008C3808F0B9C08D3708F0BFC0B5C08A3A82
:1025B00008F4BBC0893B08F0BCC0AEC0D8015B9634
:1025C0002C93F701E759FF4F80819A30D1F09B306F
:1025D00001F1811103C060E971E002C064E871E0BB
:1025E000CE0101960E94562020E044E3BE016F5FB9
:1025F0007F4FC8010E94751ECE0101960E94121FD6
:1026000098C0813019F469E771E007C06DE671E0A8
:10261000E7CF813049F462E671E0CE0101960E9475
:10262000562020E042E3E2CF66E571E0D9CF82E3B5
:10263000F801838FB701C8010E94B91DD8019C968B
:102640008C9377C0F701E559FF4F970121543F4F15
:1026500080E090819F3F09F08F5F37962E173F07EC
:10266000C1F773FE0AC0F80194A5911102C0138E40
:1026700004C093E3938F712C08C077FE06C0F80165
:1026800093A5992311F0915093A774FE52C0D801DD
:102690009B962C919B97422F50E04B5F5F4F90E0B1
:1026A000481759070CF045C02F5F9B962C9341C0EB
:1026B000F701878DD80199969C919997981710F4F6
:1026C00099968C93F70182A9D8019A969C919A9732
:1026D000981710F49A968C93F701868197818F70E2
:1026E0009927892B31F5D80199969C919997268D38
:1026F0009A968C91921720F091A9891720F040C1E9
:102700009F5FF80191A7D701D1969C91891788F412
:102710008F5FF80182A70DC08F5FD8015B968C9305
:102720005B9781E098968C9304C08F5FF801838F4C
:1027300010A673FE2EC1D8015B968C91823330F4C3
:10274000B701C8010E94B91DF80184A7D8011C96E1
:102750008C911C978A3041F08B3051F0893059F4BC
:102760008AE01C968C9307C08BE0F801848703C035
:10277000D8011C961C92F701868D878F81A982ABA8
:10278000D8015B961C9205C1F801838D823410F547
:102790005E968C91893748F062E371E0CE01019634
:1027A0000E9456202CE442E008C064E071E0CE01B3
:1027B00001960E94562023E443E0BE016F5F7F4FE5
:1027C000C8010E94602ECE0101960E94121FF801DE
:1027D000838D4CC016962D913C9117972F703327FF
:1027E000232B09F045C0482F50E0FA01E254F109CB
:1027F000E930F105E8F5E459FF4F0C947233FD011F
:10280000878DD80199969C919997981710F499966D
:102810008C93F70182A9D8019A969C919A97981760
:1028200010F49A968C93F80191A5D7015E962C919D
:102830005E9782A5921728F0D1969C91891720F077
:10284000A3C09F5FF80191A7D701D1969C918917EA
:1028500078F48F5FF80182A70BC0D80198961C927C
:1028600098978F5F93C091E0F80190A78F5F838F57
:1028700073FE8FC0F701E054FF4F83E0808389C06F
:10288000BD01C8010E94472BF701E759FF4F81E0C6
:102890009081913009F480E080830C94D1092F5FFE
:1028A000228F0C94230A61E0C5010E94B71666EBE3
:1028B00071E0CE0101960E94562020E04DE208C052
:1028C0006EEA71E0CE0101960E94562020E042E2BD
:1028D000BE016F5F7F4FC8010E94751ECE01019639
:1028E0000E94121F56C02F5FF801228F7DC8D12C85
:1028F000EBC833E0D30EB1E028C9BB2329F081E057
:10290000D80EA1E0B1E071C984E0FACFD394D3949A
:10291000F7C9A111F5C9A5E0DA0EF2C9D39409CA25
:10292000BF5F35CBAF5F98CB6A2FC6010E94881678
:10293000382F7FE0471639F08FE1481202C083E05C
:10294000FCCA83E0B6CB85E0B4CB81E080837DCC4C
:102950009B5E908395CC80E0E9CC3F5F3196B3CC11
:1029600073940ECDD7011E968C91811167CD87E0AF
:10297000F801848763CD81E0D8015B968C93D8CD34
:1029800081E4F801838FD5CE83E4D8015B968C93E4
:102990006FCF29960FB6F894DEBF0FBECDBFDF9183
:1029A000CF911F910F91FF90EF90DF90CF90BF904C
:1029B000AF909F908F907F906F905F904F903F90DF
:1029C0002F900895DC01FB01218520959085292316
:1029D000868197818F709927892B59F450969C9105
:1029E00050979F5F9C3119F050969C9302C050966F
:1029F0001C9223FF0FC083E884BD8FEF87BD81EF5A
:102A0000809380001092880010928A00E054FF4F5B
:102A100081E080830895089580E090E0089508950E
:102A20000F931F93CF93DF938C014CEA53E064E143
:102A300070E080E090E00E945024CAE9D0E0F80104
:102A4000808920E046E553E06FEF7FEFFE01E80F5D
:102A5000F11DCF010E948D296C97CA3BFFEFDF0764
:102A600071F7CCEEDFEFF801808920E040E053E021
:102A70006DE270E0FE01E81BF109CF010E948D2993
:102A80006C96C03BD10579F7DF91CF911F910F91E3
:102A90000895CF93DF93FC016A3039F485818483F4
:102AA00096818185890F868351C08481603219F4B3
:102AB0008E5F84834BC06E37D9F3262FEF0166817A
:102AC0006F5F2A3331F178F42D32C9F130F42132BD
:102AD00011F12B3271F521E41FC02E32A1F0203309
:102AE00040F12C5F19C02B3540F4213470F42F33A2
:102AF00071F02034F1F424E40FC09FE9920F9A3171
:102B0000C0F4275409C02FE307C0215405C022E4B4
:102B100003C023E401C02EE33F81062E000C770B97
:102B2000082E000C990B313061F44FE252E00E9404
:102B30008D2988858D5F9C81890F8C8307C020E457
:102B4000EBCF4FE252E00E949D29F3CF81E090E06D
:102B5000DF91CF9108950C9410340C9410340C94A0
:102B600010340C941034CF92DF92FF920F931F9386
:102B7000CF93DF938C01C62F69EC71E08CE396E074
:102B80000E948E236C2F8CE396E00E94C02564E0A7
:102B900072E08CE396E00E948E23C0E08DE0F82E78
:102BA000F8018081C81708F062C061ED71E08CE324
:102BB00096E00E948E236801CC0ED11CF601628142
:102BC0008CE396E00E94C02563ED71E08CE396E013
:102BD0000E948E23F601D281DF3F19F466ED71E089
:102BE0003AC08D2F6F2D0E94663361E0690F6B3004
:102BF00081F018F4623040F404C06C3069F06D303C
:102C000071F069ED71E00DC08CE396E00E94C02583
:102C10000CC06BED71E005C06DED71E002C06FEDB1
:102C200071E08CE396E00E948E238D2F6F2D0E9421
:102C30006633813059F068F0823029F0833079F4BE
:102C400063EE71E008C061EE71E005C065EE71E011
:102C500002C067EE71E08CE396E00E948E236DE285
:102C600072E08CE396E00E948E23CF5F99CF6BEEEB
:102C700071E08CE396E00E94792369EE71E08CE3C9
:102C800096E0DF91CF911F910F91FF90DF90CF9051
:102C90000C947923CF93DF93FC0110821182DC0125
:102CA000129686E0ED0119928A95E9F71A9684E06A
:102CB000ED0119928A95E9F7128A662311F0108ABC
:102CC000118ADF91CF9108950F931F93CF93DF93D4
:102CD0008C01EB0161E0CE010E960E944A1661E084
:102CE000CE0181960E944A16BE01C8010E94472B60
:102CF000F8011686148615A6FE01E759FF4F1082CB
:102D0000C659DF4F1882DF91CF911F910F9108951F
:102D1000FC01DC01A60FB11D12968C91663050F4B7
:102D2000DF01A60FB11D13969C91139712969C93E9
:102D30006F5FF4CF9FEF9783908191509083943091
:102D400039F4DF011896329601900D929A95E1F7C9
:102D50000895FC019181DF01A90FB11D1C966C93B0
:102D600061E0690F6183CF010C960C949B2AFC01F2
:102D70009089690F6A3710F4608B089589E7808B1A
:102D8000089508950895089508952F923F924F92BF
:102D90005F926F927F928F929F92AF92BF92CF92EB
:102DA000DF92EF92FF920F931F93CF93DF93CDB7F4
:102DB000DEB760970FB6F894DEBF0FBECDBF5C01E3
:102DC0004B01DB011696ED90FC901797FC01848572
:102DD0008850853008F4BFC040E858E062E170E0F8
:102DE00087E590E00E945024D4011E968C91880FB4
:102DF000982F990F990F890F845F869594E3D92EA8
:102E0000D81AC12C6DE0762EF4018685C81608F01C
:102E100059C02C2D30E090E00197E20FF31F0D2DEB
:102E200010E060882817390724F520E04AE755E0CC
:102E300069E270E0C8010E948D290D5F1F4F862D49
:102E4000672D0E946633692E282F43EB51E164E31E
:102E500070E0C8010E949D29E62DF0E0EE0FFF1FF3
:102E6000E155FE4F4081518120E06DE270E0C801E4
:102E700023C020E046EA55E069E270E0C8010E9404
:102E80008D29862D672D0E946633692E282F43EBEE
:102E900051E164E370E0C80108960E949D29E62D87
:102EA000F0E0EE0FFF1FE155FE4F4081518120E021
:102EB0006DE270E0C80103960E949D29C394FAE078
:102EC000DF0EA2CF11A1110F812F880F880F180FCD
:102ED000145F16951A5C00E0F40181A10817F0F464
:102EE000202F30E090E00197281739074CF4812F0C
:102EF00090E020E04CE555E068EF7FEF0A9709C0CD
:102F000082E0810F90E020E04EE255E068EF7FEF35
:102F100046970E948D290F5F1A50DECF21E040E8CE
:102F20006DE370E080E090E00E94CA2920E040E874
:102F30006CE370E080E090E00E94CA2900E010E0BD
:102F400041E06FE370E0C8010E940A2A0E5F1F4F44
:102F500000381105A9F7D5011C96EC918E2F90E051
:102F60008D30910508F082C2FC01EB58FF4F0C94A4
:102F70007233D5015A966C91C4010E94F42DF5016B
:102F80006685C4010E94152E71C2D5011E966C91F2
:102F9000F8CFF50187A18F3F09F0B5C221E04CEFD2
:102FA00051E16CE070E080E090E00E948D2920E02B
:102FB0004AE851E160E170E085E090E00E948D29EF
:102FC00055C2C5010E94E42DD5015B968C915B979B
:102FD000811109C05A966C91C4010E94F42D03C05E
:102FE000C5010E94E42DC5010E94AD2D3FC240E8FD
:102FF00058E066E170E080E090E00E94502420E01C
:1030000046E658E060E070E08BE290E00E948D2997
:1030100020E047E556E064E070E083E390E00E9442
:103020008D29F401968D878D981721F0D5019896FA
:103030001C9101C010E0F40182A991A9981721F018
:10304000D50198964C9101C040E0F50162A50E941F
:10305000A826412FD50199966C91F401878D0E9485
:10306000642621E041E0B401C5010E94682DFEC143
:1030700040E858E066E170E080E090E00E94502473
:1030800020E046E658E060E070E08BE290E00E94CD
:103090008D29D50159968C9181112EC097012F71E0
:1030A000332781E0213108F480E0F5012485938DF8
:1030B0002A3059F02B3049F02930F1F4F401E75966
:1030C000FF4F2081211107C00DC0F401E759FF4FC8
:1030D0002081211107C041E0993B08F440E0482BD2
:1030E00021E006C021E0993B08F420E0282B41E0D4
:1030F000B401C5010E94682DD5015B968C915B9748
:10310000823309F085C116968C93169717968C9387
:10311000179718961C9218971C968C918A3091F0EC
:103120008B30F1F0893059F5F401E759FF4F2081D8
:10313000C5010296211103C06EE476E01EC063E46F
:1031400076E01BC0F401E759FF4F2081C5010296CC
:10315000211103C068E376E010C06FE276E00DC095
:10316000F401E759FF4F2081C5010296211103C0E8
:1031700064E276E002C06BE176E00E94EC26240176
:10318000BBE64B0E511CF20180818F3F91F488E425
:10319000D50116968C93169717968C9317978CE1FA
:1031A00018968C9361E176E0C50102960E94EC26A8
:1031B0005DC11201F401E154FF4FFD87EC87F2017C
:1031C000E12C80818F3F09F0E39437962C853D8573
:1031D0002E173F07B1F735E03E1570F421E0D50119
:1031E0009B968C91811120E041E056E061E070E017
:1031F00088E790E00E948D295B864A8618861F82A8
:10320000F12CF5013296F88BEF879F81D5019B96C3
:103210008C919E1508F095C0981708F487C090E02F
:103220000596EF81F8858E179F070CF47FC0F8E0B4
:10323000FF9EC00111246C012AE0C20ED11C6A84D9
:103240007B8402E310E01986D3018C918F3F49F112
:10325000B985BF5FB9876DE00E9466339F5FE92F34
:10326000F0E0EE0FFF1FE355FE4F40815181E1E09A
:10327000F0E09A3011F0E0E0F0E020E0B601C801A3
:103280008E1B9F0B0E948D29F30180816DE00E94AF
:103290006633282F43EB51E1B601C80105960E9421
:1032A0008D29FFEF6F1A7F0A025F1F4F0837110544
:1032B00059F62F2D220F220F220F2E8739853530F8
:1032C000A0F0AA85BB8515961C9128E7F5012683F9
:1032D00027838E85875F80871A3010F56CE272E055
:1032E0008F8598890E948E231BC039858EE0389F78
:1032F000002D11240E5C22E7722E701A612CCE84F0
:103300009FE0C90ED12C10E041E0B601C801860D46
:10331000911D0E940A2A639463947614A8F7D1CF72
:10332000612F8F8598890E94C025F394AF81B8855D
:103330001196B887AF83EA85FB853796FB87EA87C6
:1033400064CF0E2D10E0F5E0FE1578F490E00596C0
:1033500021E0801791070CF420E041EF55E06CE389
:1033600070E088E790E00E948D29D5019B968C91B2
:103370009B9790E00596801791070CF477C081E049
:1033800019968C9319978F2D880F880F880F9AE0C4
:10339000F92EF80E8DE516968C93169717968C934A
:1033A00017971896FC9285010E5F1F4F6AEE75E025
:1033B000C8010E94EC2688E7F50186838783F086A2
:1033C000F20180E090819F3F11F09581890F37963F
:1033D0002C853D852E173F07A9F78A3028F46CE22B
:1033E00072E0C8010E948E2360E0D1018C918F3F72
:1033F00019F015968C91680FB7E02B0E311CEC85F7
:10340000FD85E215F30589F7C8010E94C0252EC08D
:1034100020E047E556E064E070E083E390E00E943E
:103420008D29D4015E969C915E975F968C9198173A
:1034300019F0F50110A501C010E0D401D2968C91CD
:10344000D297D1969C91981719F0F50140A501C02B
:1034500040E0D5019A966C910E94A826412FF50173
:1034600061A5D4015F968C910E946426F501848544
:1034700088508530D8F0818D882319F0808D811196
:103480000BC0EE24E394D401D1960C912FEF42E7C8
:10349000B401C5010E940426EE24E394F401068DD4
:1034A00024E342E7B401C5010E940426D5015996E0
:1034B0008C915997882359F15896CC9058975796E4
:1034C000EC90579756960C91569755961C911A82E8
:1034D00019821C821B821E821D82B501615F7F4F93
:1034E000CE0101960E94E81E212FAE014F5F5F4F73
:1034F000B401C5010E949C24CE0101960E94121FB6
:10350000F501118E04C0C5010E94E42DAFCF609675
:103510000FB6F894DEBF0FBECDBFDF91CF911F91E4
:103520000F91FF90EF90DF90CF90BF90AF909F9062
:103530008F907F906F905F904F903F902F90089565
:1035400021E531E0FC01318320830F960C94121F9A
:10355000CF93DF93EC010E94A01ACE01DF91CF91AF
:103560000C9410342BEA31E0FC0131832083845227
:103570009F4F0C94A01ACF93DF93EC010E94B21AD4
:10358000CE01DF91CF910C9410342F923F924F9245
:103590005F926F927F928F929F92AF92BF92CF92E3
:1035A000DF92EF92FF920F931F93CF93DF93CDB7EC
:1035B000DEB72C970FB6F894DEBF0FBECDBF8C01DF
:1035C0007A876987D42E1C0144E5240E311C7C01C6
:1035D00045E050E06FEF70E0C7010E946D35D70104
:1035E00015961C92B7E0EB0EF11CE214F30481F780
:1035F0008D2D6DE00E946633C82E49855A854B5F3C
:103600005F4FA985BA8520E09DE0B92E37E0F32E03
:10361000EE24E3943D913D1549F0832F6B2D0E94DC
:1036200066339A3019F4C81609F43EC2A417B507D8
:1036300089F78FE1482E512CFE0131967F013DE044
:103640005E01F6E0AF0EB11C60901C0170901D0190
:1036500080901E0185E0EFE1F1E0D70101900D922D
:103660008A95E1F7E985FA8580E090E0D12CA20106
:10367000082E02C0559547950A94E2F740FF06C010
:103680004081D701AD0DB11D4C93D3940196319675
:103690008530910561F742E0D41287C049815A8193
:1036A000852F632F0E946633CC24C394C90E842FC8
:1036B0000E9466339F5FC91278C0F801FC87EB87D0
:1036C0008681813009F054C08081632F0E94663367
:1036D0009F5FC9124DC0BF01C12C90E080E0DB01AB
:1036E0009D90BD01491102C0CC24C394BFEF9B1231
:1036F00003C0911101C0982F8F5F853081F7C110F1
:1037000005C0BF01690F711DDB014C93BF0140E093
:1037100080E090E0DB01CD90BD015C1101C041E093
:10372000BFEFCB1203C0811101C0892F9F5F95307D
:1037300089F7411106C08F5FBF01680F711DDB0162
:103740005C9390E080E041914F3F09F0982F8F5FAC
:103750008530C9F76E827F828886E5E0F0E0EC0F65
:10376000FD1FE90FF11D8081EB85FC8585831DC060
:1037700037962E163F0609F0A1CFB80187E0289FA3
:10378000600D711D1124D701CB014D91FC014193B6
:10379000CF01AA15BB05C9F7E2E0DB011596EC9352
:1037A0001597F1E01696FC932F5FF701D70140E0E3
:1037B0008A2F8E198D1550F48D91632F0E946633D8
:1037C0009F5F9B3008F09AE0490FF2CF4F30E1F451
:1037D000B80187E0289F600D711D11247C876B87DD
:1037E000AB01C701DC016D91CD01DA016D93AD0133
:1037F000A816B906B9F742E0AB85BC8515964C937F
:10380000159716961C922F5F63E0D61266C0D9807A
:103810008D2D632F0E9466339F5F492F50E0CA8031
:10382000DA0111968C2D0E9466339F5F892F90E0FC
:10383000A817B90709F01AC19B804E5F5F4F892D09
:103840000E9466339F5F892F90E04817590709F05F
:103850000DC1D80140E016965C9116975450523035
:1038600018F57C9111966C91119712965C911297B4
:10387000D71204C0C61202C09516A9F0D61207C00E
:10388000C51205C013966C911397961661F0D51268
:103890000BC013965C911397C51206C014965C91E9
:1038A0001497951201C041E017962A163B0699F627
:1038B0004111DCC0B80187E0289F600D711D112403
:1038C000CB014191DC014D93CD01EA15FB05C9F710
:1038D00043E0FB01458386E0C7C094E0D91278C07D
:1038E000D9808D2D632F0E9466339F5F492F50E052
:1038F000CA80DA0111968C2D0E9466339F5F892F52
:1039000090E0A817B90709F0B1C09B80892D0E94EB
:1039100066339F5F892F90E0BA016E5F7F4F681713
:10392000790709F0A3C0AC81AB874D5F5F4F8A2F49
:10393000632F0E9466339F5F892F90E048175907D5
:1039400009F094C0C80140E0DC0116965C9116971E
:10395000543029F56C9111965C911197D6120CC0D8
:10396000C5120AC012966C911297961205C0139652
:103970006C91BB85B61791F0D51211C0DC0112967F
:103980005C911297C5120BC013965C911397951218
:1039900006C014965C91BB85B51301C041E0079643
:1039A0002816390689F6411161C0B80147E0249F05
:1039B000600D711D1124CB014191DC014D93CD01AE
:1039C000EA15FB05C9F744E0FB01458385E04CC0DF
:1039D00095E0D9124BC08981632F0E9466339F5FA7
:1039E000492F50E0DA0111968A810E9466339F5F69
:1039F000892F90E0A817B907C9F58B810E9466331B
:103A00009F5F892F90E0BA016E5F7F4F681779073B
:103A100069F58C81632F0E9466339F5F892F90E048
:103A2000BA016D5F7F4F6817790701F54C5F5F4FF3
:103A30008D81632F0E9466339F5F892F90E0481726
:103A40005907A1F4B801A7E02A9F600D711D112448
:103A5000CB014191DC014D93CD01AE16BF06C9F7F4
:103A600045E0FB01458384E086832F5F91E0491A9E
:103A7000510809F0EFCD2C960FB6F894DEBF0FBEBB
:103A8000CDBFDF91CF911F910F91FF90EF90DF900D
:103A9000CF90BF90AF909F908F907F906F905F90EE
:103AA0004F903F902F900895F80167E0269FE00D1A
:103AB000F11D11243083E582F6822F5FB7CDEF929E
:103AC000FF921F93CF93DF9300D000D01F92CDB70A
:103AD000DEB77B01142FFC013C9694E0DE011196C9
:103AE00001900D929A95E1F74D8365E0CE01019624
:103AF0000E949B2A412FBE016F5F7F4FC7010E942A
:103B0000C51A0F900F900F900F900F90DF91CF91EB
:103B10001F91FF90EF900895EF92FF921F93CF9324
:103B2000DF9300D000D01F92CDB7DEB77B01142FFA
:103B3000FC01389694E0DE01119601900D929A9561
:103B4000E1F74D8365E0CE0101960E949B2A412F4B
:103B5000BE016F5F7F4FC7010E94C51A0F900F9083
:103B60000F900F900F90DF91CF911F91FF90EF90EA
:103B70000895EF92FF920F931F93CF93DF93FC0171
:103B8000EB017B018EE0E80EF11C8B010F5D1F4FF6
:103B900084858A3071F08B30E9F08930D1F5DB0112
:103BA000A759BF4F8C9165597F4F47A181110AC01A
:103BB0000DC0DB01A759BF4F8C9165597F4F47A1BD
:103BC000811104C0C7010E948C1D10C0C8010E9451
:103BD0008C1D16C0DB01A759BF4F8C9165597F4FD3
:103BE00047A181110AC0C7010E945F1DCE010E943A
:103BF000762EC82F682FC70109C0C8010E945F1D1B
:103C0000CE010E94762EC82F682FC8010E94B716D9
:103C100001C0C0E08C2FDF91CF911F910F91FF90D9
:103C2000EF900895FC017E969C012A5D3F4F4FEF77
:103C30004193E217F307E1F7FC0116A2FB0110A282
:103C400013AA0895FC01DB01AB01485F5F4F20E040
:103C50003DE08D918F3F41F0632F0E9466339F5F5F
:103C60009B3008F09AE0290FA417B50791F750810F
:103C7000329640E0ADE030E0541781F081916A2F38
:103C80000E9466339F5F9B3008F09AE0B901690F8C
:103C9000711D6032710524F04F5FEECF80E0089512
:103CA00081E00895FC017E969C012A5D3F4F40E033
:103CB0005DE081918F3F41F0652F0E9466339F5FE9
:103CC0009B3008F09AE0490FE217F30791F7842F31
:103CD0000895FB01268D293718F421A9293720F0F2
:103CE000FC01138E21E025A70895EF92FF920F9318
:103CF0001F93CF93DF9300D000D000D0CDB7DEB7B5
:103D00008C01E42EF22E1A8219821C821B821E82E2
:103D10001D82CE0101960E94E81EBE016F5F7F4F9B
:103D2000C8010F960E94E81E81E0F801858BE68AA3
:103D30009FEF978BF08E818FCE0101960E94121F0C
:103D400026960FB6F894DEBF0FBECDBFDF91CF91A0
:103D50001F910F91FF90EF9008950E945F350F9390
:103D60001F93CF93DF93EC0188819981009729F00D
:103D70002A813B812617370788F48B016F5F7F4FBD
:103D80000E949934009761F0998388831B830A838A
:103D90002C813D81232B11F4FC01108281E001C0B4
:103DA00080E0DF91CF911F910F910895CF93DF9322
:103DB000EC0188819981009711F00E9410341982DA
:103DC00018821D821C821B821A82DF91CF91089576
:103DD000EF92FF920F931F93CF93DF93EC0186171F
:103DE0009707C1F0FB01008111810115110539F020
:103DF000E480F580B7010E94AF1E811104C0CE019E
:103E00000E94D61E07C0FD82EC82B801888199818C
:103E10000E947435CE01DF91CF911F910F91FF90D9
:103E2000EF900895FC01808191810C9410344091B1
:103E300038065091390620913606309137064217E0
:103E40005307B4F49091E8009570E1F39091E80085
:103E500092FD19C08093F100809138069091390647
:103E600001968F739927892B19F48EEF8093E800C0
:103E70008091380690913906019690933906809387
:103E8000380681E0089580E00895DF92EF92FF9276
:103E90000F931F93CF93DF93D82E8A017B01E40EFB
:103EA000F51EEB01CE15DF0571F0D7FE03C0FE0154
:103EB000849101C088810E94171F21968111F2CF41
:103EC0008FEF9FEF01C0C801DF91CF911F910F913C
:103ED000FF90EF90DF900895615030F02091F10055
:103EE000FC0120830196F8CF289884E68093AC07E4
:103EF0000895CF92DF92EF92FF920F931F93CF938B
:103F0000DF936C017A018B01C0E0D0E0CE15DF05B4
:103F100081F0D8016D918D01D601ED91FC91019058
:103F2000F081E02DC6010995892B11F02196EECF85
:103F30007E01C701DF91CF911F910F91FF90EF900C
:103F4000DF90CF900895CF93DF931F92CDB7DEB768
:103F50006983DC01ED91FC910280F381E02D41E069
:103F600050E0BE016F5F7F4F09950F90DF91CF91B9
:103F7000089583E08093E9008091F200882319F08E
:103F80008AE38093E8000895FC018485958597FD78
:103F90000BC09FB7F89482E08093E9008091F20013
:103FA0009FBF90E0019608959FB7F89482E08093B8
:103FB000E9008091F2009FBF90E008950F931F9356
:103FC000CF93DF931F92CDB7DEB782E0898342E4BF
:103FD00050E06FEA79E080E80E94451F0E94E72BDD
:103FE000DC0112960D911C9113970115110589F0B2
:103FF000D801ED91FC910280F381E02DBE016F5F4D
:104000007F4FC801099597FD04C0F801008511850F
:10401000ECCF89810F90DF91CF911F910F9108957F
:104020000E94D62B90E008950F931F93CF93DF93B8
:104030001F92CDB7DEB78C01FC018485958597FF73
:104040000EC0CE0101960E94A82B019719F4898118
:1040500090E002C08FEF9FEFF80195878487F80109
:10406000848595850F90DF91CF911F910F910895D1
:10407000CF93DF931F92CDB7DEB7FC018485958582
:1040800097FD05C02FEF3FEF358724870BC0CE018A
:1040900001960E94A82B019719F4898190E002C033
:1040A0008FEF9FEF0F90DF91CF910895EF92FF92E6
:1040B0000F931F93CF93DF93EC01198218821B8219
:1040C0001A821D821C826115710509F18B01CB01D9
:1040D0000E94AD327C01BC01CE010E94AF1E811155
:1040E00009C0CE01DF91CF911F910F91FF90EF900A
:1040F0000C94D61EFD82EC82B80188819981DF91F3
:10410000CF911F910F91FF90EF900C94A632DF9109
:10411000CF911F910F91FF90EF900895EF92FF9232
:104120000F931F93CF93DF93EC01198218821B82A8
:104130001A821D821C826115710521F18B01FB0120
:1041400001900020E9F731977F01E61AF70AB701DD
:104150000E94AF1E811109C0CE01DF91CF911F9146
:104160000F91FF90EF900C94D61EFD82EC82B80167
:1041700088819981DF91CF911F910F91FF90EF90EE
:104180000C947435DF91CF911F910F91FF90EF90B8
:1041900008951F920F920FB60F9211248F939F9341
:1041A0008091E1009091E100937F9093E10083FF83
:1041B0000FC01092E90091E09093EB001092EC0098
:1041C00092E39093ED001092AD0798E09093F00089
:1041D00082FF20C093E09093E9009091F200992330
:1041E00019F09AE39093E80090913B06992339F0F7
:1041F00090913B06915090933B06992389F19091C1
:10420000AC07992339F09091AC0791509093AC078B
:10421000992341F184FF10C08091E2008E7E81607D
:104220008093E2008091E1008F7E8093E100809195
:1042300030028E7E806111C080FF16C08091E20046
:104240008E7E80618093E2008091E1008E7E80937B
:10425000E100809130028E7E81608093300204C044
:104260005D9ACDCF289AD6CF9F918F910F900FBE98
:104270000F901F9018951F920F920FB60F92112456
:10428000CF92DF92EF92FF920F931F932F933F9362
:104290004F935F936F937F938F939F93AF93BF934E
:1042A000EF93FF93CF93DF93CDB7DEB76C97DEBF6D
:1042B000CDBF1092E9008091E80083FFFBC168E068
:1042C000CE0145960E946C1F82EF8093E8008D8995
:1042D00087FF05C09091E80090FFFCCF03C09EEFE0
:1042E0009093E800982F907609F0C6C09E894F8978
:1042F000588D2F89F88C91110CC0803829F4809149
:1043000031028093F10002C01092F1001092F1008E
:1043100045C1913051F4811141C14130510509F03D
:104320003DC1809131028D7F0BC0933061F48111CA
:1043300035C14130510509F031C1809131028260AF
:10434000809331022BC1953049F48091E80080FFC1
:10435000FCCF822F80688093E30020C1963009F063
:104360005EC00B8D1C8D22E01092E9001092390680
:1043700010923806F21232C01092370610923606AA
:104380000E94DE1F99E0BE016F5F7F4FDB01E92FC6
:104390001D92EA95E9F79983FA8291E09E8390EA6B
:1043A00098879AEF99872091380630913906275FD0
:1043B0003F4F3C832B838D831092E9001092390686
:1043C00010923806109337060093360649E050E005
:1043D00080E00E94451F0E94DE1FE0C01093370658
:1043E000009336060E94E72BDC0112960D911C917A
:1043F00013970115110509F4BBC0D801ED91FC918B
:104400000480F581E02DBE016B5E7F4FC8010995E8
:10441000009709F0C7C0F80100851185EACF9730F1
:1044200009F445C1983021F481E08093F100B6C0D1
:10443000993009F0B3C0837009F039C1E5E2F1E0C9
:1044400081E031E096E32081211109C08EE780935D
:10445000EA001092EA008F898093AD079FC0809395
:10446000E9003093EB0021912093EC009093ED0054
:104470008F5F873041F7EACF8B8D9C8D1092E900DA
:1044800010923906109238069093370680933606BC
:10449000898D811153C08E899D89913A49F4813269
:1044A00009F005C147E050E064E071E080E0BBC086
:1044B000913209F0FCC0833269F48F89988DA0E0B5
:1044C000B0E08093000190930101A0930201B093AA
:1044D000030164C0803269F48091E80082FFFCCF60
:1044E00067E084E091E00E946C1F8BEF8093E8000E
:1044F00055C0823209F052C08F8980930B01EEEFD4
:10450000FFE7859194918B3F9C4D19F0E0E0F8E036
:1045100002C0EEEFFAE08091040190910501A091B4
:104520000601B0910701803B9440A105B10509F057
:104530009EC080910B0180FF79C099C00E94E72B3B
:10454000FC01028113810115110509F4B0C0D801E5
:10455000ED91FC910190F081E02DBE016B5E7F4FEB
:10456000C801099581111AC0F80100851185EBCFAA
:10457000F1E0FF1609F44EC0F3E0FF1298C08F89F6
:10458000882309F44AC0823089F440E860E183E17D
:104590009AE00E94F430882309F489C08EEF80935A
:1045A000E80088C018161906CCF381C0813029F4C0
:1045B00040E86BE087E09AE0ECCF833009F077C009
:1045C0000E94E72BDC011296ED90FC9013978E0170
:1045D0000F5F1F4F6801E114F10479F0D701ED91ED
:1045E000FC910680F781E02DB801C7010995080FFD
:1045F000111DF701E084F184EECFD8011C92F60181
:1046000001900020E9F73197BF016C197D0940E066
:10461000C601BFCF65EF79E002C061EF79E0FB0131
:10462000449150E080E80E94451FB8CFEE3F2AE059
:10463000F20751F0808191818737A7E79A0721F02F
:104640009093FF0A8093FE0A87E797E79183808320
:104650008091600080933A069BE088E10FB6F89461
:10466000A895809360000FBE9093600097CF8081E3
:1046700091818737974709F091CFA8958091600085
:1046800088618093600080913A0680936000EE3FDD
:10469000BAE0FB0739F08091FE0A9091FF0A9183FE
:1046A00080837CCF1092FF0A1092FE0A77CF81E2BE
:1046B0008093EB006C960FB6F894DEBF0FBECDBFB3
:1046C000DF91CF91FF91EF91BF91AF919F918F912A
:1046D0007F916F915F914F913F912F911F910F911A
:1046E000FF90EF90DF90CF900F900FBE0F901F9034
:1046F00018956115710579F0FB0101900020E9F72B
:104700003197AF01461B570BDC01ED91FC91028004
:10471000F381E02D099480E090E008950C947923D2
:104720008F929F92AF92BF92CF92DF92EF92FF92C1
:104730006B017C010E94AD274B015C01C114D104C7
:10474000E104F104F1F00E94AD27DC01CB018819EE
:104750009909AA09BB09883E9340A105B10570F3E8
:1047600021E0C21AD108E108F10888EE880E83E042
:10477000981EA11CB11CC114D104E104F10419F765
:10478000DDCFFF90EF90DF90CF90BF90AF909F90E4
:104790008F9008958F929F92AF92BF92CF92DF92A7
:1047A000EF92FF920F931F93CF93DF936C017B01E6
:1047B0008A0180910B01882309F45CC08091AD07C8
:1047C000882309F457C08091300280FF05C0809192
:1047D000E00082608093E000E801B12C8AEFA82E0F
:1047E00093E0892E2AE3922E209711F4BB20D9F171
:1047F0000E94D62B81110AC0AA94AA20D9F161E0A7
:1048000070E080E090E00E949023EECF282F30E00F
:10481000C217D3070CF48C2F9FB7F8948092E9004D
:104820002091E80025FF1DC0282F30E0C21BD30BCC
:10483000F701815020F041914093F100FACFE20E50
:10484000F31EBB2019F09092E8000AC08091E800A6
:1048500085FD07C09092E800BB24B394209709F02F
:10486000B12C9FBFC1CF5D9884E680933B061016A4
:10487000110644F081E090E0F6019383828380E0AA
:1048800090E001C0C801DF91CF911F910F91FF907F
:10489000EF90DF90CF90BF90AF909F908F90089552
:1048A000CF92EF920F931F9322E0C22EE12C00E0F3
:1048B00010E020E00E941C281F910F91EF90CF90F4
:1048C00008958F929F92AF92BF92CF92DF92EF9214
:1048D0000F931F93CF93DF936A01EB014B01820E7D
:1048E000911C5A01A00EB11CC815D905CCF4860143
:1048F000D7FE02C000E010E0C50121E4A216B10419
:1049000014F080E490E00817190744F44E2DB80124
:10491000CE010E940A2A0F5F1F4FEECF2196E4CFEF
:10492000DF91CF911F910F91EF90DF90CF90BF90CB
:10493000AF909F908F9008952F923F924F925F92E9
:104940006F927F928F929F92AF92BF92CF92DF929F
:10495000EF92FF920F931F93CF93DF9300D01F929C
:10496000CDB7DEB75C012A01702E3C2CCC2021F0A3
:1049700080E8282E201A01C0212C8FEFE8122E2C5F
:10498000122F110F110F110F93E0910F9983C22C69
:10499000D12CFB013396FB83EA8304E0010FE12C69
:1049A000272D43E050E0B601CF010E94612446016B
:1049B000F4E08F0E911C0CE0010F28EFF22EF70CA3
:1049C0002F2D4FEF5FEFB4018A819B810E946124FC
:1049D00005E0010FB6016F5F7F4FEE24E3942EEFE9
:1049E000270D43E050E08A819B810E9461240AE008
:1049F000010F2F2D40E050E0B4018A819B810E947D
:104A0000612438E0F32EF10E4CEF642E670CC601E2
:104A100002969B838A8320E0462D61E070E00E942D
:104A2000CA290F2D10E09FE39F1538F020E0462D96
:104A3000B8018A819B810E94CA290F5F1F4F882479
:104A40008394912C7801013411051CF080E4E82E48
:104A5000F12C8E149F0454F440E0B4018A819B81B0
:104A60000E940A2AEFEF8E1A9E0AECCF8A819B8160
:104A7000860D911D01979B838A8301E010E00E153E
:104A80001F0549F040E0B8018A819B810E940A2AF3
:104A90000F5F1F4FF4CFE12C00E02CE23DE044E338
:104AA0005DE06FEF7FEFC6010E94AD294601870CE4
:104AB000911C340198E0691A71082AE13DE042E254
:104AC0005DE06FEF7FEFC3010E94AD29F981EF2F09
:104AD000F0E0FB83EA83311012C0BF01615071091D
:104AE00020EB3CE044EE5CE0C6010E94AD292EE9DB
:104AF0003CE046EA5CE06A817B81C30115C0E12CA1
:104B000000E02CE83CE044E95CE06A817B81C6017E
:104B10000E94AD296A817B816150710922E23CE0EB
:104B200046E55CE0C4014A970E94AD2986E0820D0B
:104B3000F5018683878385E080871186F2014481B1
:104B4000558160817181C50102960E94791F81E0C3
:104B5000F50181870F900F900F90DF91CF911F91FA
:104B60000F91FF90EF90DF90CF90BF90AF909F900C
:104B70008F907F906F905F904F903F902F9008950F
:104B80008F929F92AF92BF92EF92FF920F931F93DB
:104B9000CF93DF93CDB7DEB7A1970FB6F894DEBF02
:104BA0000FBECDBF7C01262F30E040E050E019A2BF
:104BB0008E010F5D1F4F8AE0882E912CA12CB12C05
:104BC000CA01B901A50194010E943533605DF80165
:104BD00062938F01211531054105510589F7BF0108
:104BE000C7010E947923A1960FB6F894DEBF0FBECD
:104BF000CDBFDF91CF911F910F91FF90EF90BF90AC
:104C0000AF909F908F9008956F927F928F929F9216
:104C1000AF92BF92CF92DF92EF92FF920F931F93CA
:104C2000CF93DF936C01122F702E6E2C89E08017CA
:104C300018F026E0F22E08C0E3E6E01718F094E042
:104C4000F92E02C082E0F82EF40EF6011186812EB4
:104C5000012E000C9908C42FD0E05B01F3E0AF0EE9
:104C6000B11CE12C08E02EE0A401BE01C5010E94A8
:104C70006124A4014F5F5F4FBE016F5F7F4FEE2441
:104C8000E39407E02DE0C5010E946124F601F6825D
:104C9000F7821F5F1087662029F0672DC6010296F4
:104CA0000E94C02581E0F6018187DF91CF911F919D
:104CB0000F91FF90EF90DF90CF90BF90AF909F90BB
:104CC0008F907F906F900895EF92FF920F931F93B4
:104CD000CF93DF93D42FE82FF0E0EE0FFF1FE25DBC
:104CE000F44F849131969491E62FF0E0EE0FFF1F80
:104CF000E25DF44FF4903196C49197FF04C09F7722
:104D0000EE24E39401C0E12CC7FF03C0CF7711E08C
:104D100001C010E0692F70E001E028E13BE042E2D1
:104D20005BE090E00E94AD29DD2359F06C2F70E02C
:104D3000E12E28E13BE042E25BE08F2D90E00E9413
:104D4000AD29DF91CF911F910F91FF90EF900895C2
:104D5000EF92FF920F931F93CF93DF93D42FE82FFF
:104D6000F0E0EE0FFF1FEC5DF54F849131969491CA
:104D7000E62FF0E0EE0FFF1FEC5DF54FF49031965B
:104D8000C49197FF04C09F77EE24E39401C0E12C07
:104D9000C7FF03C0CF7711E001C010E0692F70E0BA
:104DA00000E028E13BE042E25BE090E00E94AD29B8
:104DB000DD2359F06C2F70E0E12E28E13BE042E268
:104DC0005BE08F2D90E00E94AD29DF91CF911F9184
:104DD0000F91FF90EF900895EF92FF920F931F9322
:104DE000CF93DF938C017B01C0E0D0E0F701EC0FA3
:104DF000FD1F6491662339F0C8010E944915892B73
:104E000011F02196F3CFCE01DF91CF911F910F9139
:104E1000FF90EF9008950895DC01FB019085818556
:104E20008095892394FF18C01C969C911C97903103
:104E300028F49F5F1C969C931C9711C0F89487E7F9
:104E40008093000880930108A89588E18093600012
:104E500088E080936000FFCF1C961C921C972681EF
:104E600037812F703327232B59F41D969C911D9762
:104E70009F5F9C3119F01D969C9302C01D961C9259
:104E800083FF04C0E054FF4F82E0808308950895BB
:104E9000FC01DB0119968C911997809518969C91CD
:104EA000892399F08485882311F08CE78487948581
:104EB00091110EC081E0848780E48093900081E4AA
:104EC0009FE0909399008093980094859923C1F076
:104ED0009F5F9487953059F09D3761F0923081F44F
:104EE00080E596E49093990080939800089510923D
:104EF00090000895FB01E054FF4F81E08083089506
:104F000008950F931F93CF93DF938C0143E350E1F8
:104F100060E070E08BE490E00E94502449E65EE09F
:104F200060E170E087E090E00E945024CCEEDFEF7B
:104F3000F801858543E15EE06CE270E09E01281B8C
:104F40003109C9010E9450246C96C03BD10581F7FC
:104F5000DF91CF911F910F9108953FB7F894809101
:104F6000A8079091A907A091AA07B091AB0726B511
:104F7000A89B05C02F3F19F00196A11DB11D3FBF91
:104F8000BA2FA92F982F8827820F911DA11DB11D1F
:104F9000BC01CD0142E0660F771F881F991F4A951B
:104FA000D1F708951F920F920FB60F9211242F93ED
:104FB0003F938F939F93AF93BF93809132069091CD
:104FC0003306A0913406B09135063091A70723E04F
:104FD000230F2D3720F40196A11DB11D05C026E831
:104FE000230F0296A11DB11D2093A70780933206BF
:104FF00090933306A0933406B09335068091A807AA
:105000009091A907A091AA07B091AB070196A11DA5
:10501000B11D8093A8079093A907A093AA07B09306
:10502000AB07BF91AF919F918F913F912F910F90BF
:105030000FBE0F901F9018952F923F924F925F9244
:105040006F927F928F929F92AF92BF92CF92DF9298
:10505000EF92FF920F931F93CF93DF9300D000D076
:1050600000D0CDB7DEB74115510509F43DC1FA01B5
:10507000B4903196E4914E5F5F4F6B2C712C2111EF
:1050800002C0EE2061F1A1E0B0E03E2F377011F4D4
:10509000A0E0B0E03E2F3695369536954D01830E53
:1050A000911C869CD001879CB00D969CB00D11245C
:1050B000F3E0CF1203C0AA0FBB1F0AC001151105F0
:1050C00039F0EA9E4001EB9E900C1124080D191D49
:1050D0002A9F70012B9FF00C11244E0D5F1D2FEFA6
:1050E000C21208C00115110519F0CC24C39402C0E6
:1050F00032E0C32E7301E80EF91E1E141F040CF0DB
:10510000F3C0803891050CF0EFC09B012E0F311DCC
:10511000121613060CF0E8C0603471050CF0E4C000
:105120004115510509F4E0C0362F37703D83DB018E
:1051300077FD179623E0B595A7952A95E1F73A2FC5
:1051400077FF05C06D81662311F03FEF3A0F97FF9F
:1051500005C0AA27BB27A81BB90B02C0A0E0B0E07E
:10516000F0E8EF16F10424F020E8D22ED81A01C09E
:10517000DB2CDA1A632F032E000C770B3F3F1CF455
:10518000A62EA09401C0A12CF1E02E2F277009F4C7
:10519000F0E0E695E695E695FE0F6F0F711D69301C
:1051A000710514F0F8E0F31B7A2C730E272D60E8DC
:1051B0002603800D911D11244C018A0E9B1E61E077
:1051C00070E00D8002C0660F771F0A94E2F783E05B
:1051D000C81611F0E1E001C0E2E02B2D2D192E9F41
:1051E000202D1124EE2EF12CBA9CA00DB11D1124FE
:1051F000AE9DC001AF9D900DBE9D900D11245A0132
:10520000A80EB91E0115110509F0A801D7011197C3
:105210008A0F9B1F480F591FAFEFA69FC001A79F82
:10522000900D11242C0140945094C4018E5C9D4F2C
:10523000F30FFE8330E0ED9D200D311D1124EE8132
:105240007E1609F451C0DC014A018501612CD61497
:1052500009F442C0F8013490369EF001379EF00DFB
:105260001124FA83E983E095F095FC83EB83F2E067
:10527000CF1203C05C824B8211C0EBEFCE1203C091
:105280001A8219820BC0F4013490369EF001379EC9
:10529000F00D1124E095F095FC83EB8377FC06C0BC
:1052A000FB81EC91EF23F981EF2BEC93FD81FF2340
:1052B00061F0E6E0E7154CF0FD01E058FF4F20807B
:1052C0003C8032202A80322830828E0C9F1C0E0DAA
:1052D0001F1D63941196BBCF7394A20EB31E420F91
:1052E000531F80589F4FABCF26960FB6F894DEBF62
:1052F0000FBECDBFDF91CF911F910F91FF90EF9027
:10530000DF90CF90BF90AF909F908F907F906F90E5
:105310005F904F903F902F900895CF92EF920F9310
:105320001F933AEFC32EE12C00E010E00E941C28EE
:105330001F910F91EF90CF900895CF92EF920F931E
:105340001F933BEFC32EE12C00E010E00E941C28CD
:105350001F910F91EF90CF900895CF92EF920F93FE
:105360001F93F901202FCC24C3948F010E941C2885
:105370001F910F91EF90CF900895BC0180E090E0D5
:105380000C9490238FB18095807F669B88601C9BD6
:1053900084600895FC01E40FF11DAF011E161F0685
:1053A000C4F580389105ACF597FF02C080E090E02D
:1053B0004138510514F040E850E0481BFB0177FDEF
:1053C000379633E0F595E7953A95E1F7F695FE2F98
:1053D000EE27F795E795E80FF91FEE5CFD4F677034
:1053E000772781E090E001C0880F6A95EAF7382FAF
:1053F000222341F0213069F4415058F08081832B01
:105400008193FACF8095415020F090819823919319
:10541000FACF089580389105B8F460347105A0F48E
:1054200090E121E061FD24E060FD220F62FD229504
:10543000687F969FD0011124A80FAE5CBD4F8C9160
:10544000822B40FF82278C9308950F931F93CF9355
:10545000DF93EC014DEE5DE061E170E08FE290E002
:105460000E9450244FEC5DE06AE170E08BE290E036
:105470000E9450244FEC5DE06AE170E089E490E026
:105480000E9450248C85811114C04FEC5DE06AE1CC
:1054900070E08AE390E00E9450244FE75DE06EE206
:1054A00070E08AE190E0DF91CF911F910F910C9411
:1054B000502441E65DE06AE170E08AE390E00E94FA
:1054C00050244EE35DE06EE270E08CE290E00E94DA
:1054D00050248C856FE00E946633082F0370CFE460
:1054E000D0E010E0011749F041E061E370E0CE0147
:1054F0000E940A2A1F5F2296F5CFDF91CF911F915C
:105500000F910895FF920F931F93CF93DF93EC01B8
:10551000F62E08811981C8010E94B632F81621F0D2
:105520006F2DC8010E94BE32CE01DF91CF911F9135
:105530000F91FF9008954F925F927F928F929F926A
:10554000AF92BF92CF92DF92EF92FF920F931F9391
:10555000CF93DF938C01A0E0462F50E06A0131E049
:10556000C31AD1088DE0B82E8A2F90E08C159D05C6
:10557000CCF5B0E0EA01C81BD90B2E0161E0461A58
:1055800051082B2F30E02415350554F57801E20E33
:10559000F31EE701A8808A2D6B2D0E946633782EBA
:1055A000892E2F5F3F4FF801E20FF31F9080892D66
:1055B0000E946633292F90E0DAE02D9F800D911D27
:1055C0001124272D30E06AE0869E200D311D112424
:1055D0008217930718F4E7019882A082BF5FD1CFAA
:1055E000AF5FC2CFDF91CF911F910F91FF90EF90EE
:1055F000DF90CF90BF90AF909F908F907F905F9003
:105600004F900895DC01FB01818580959085892369
:1056100083FF0FC0868D893718F481A9893738F048
:105620005B961C925B978CE01C968C9308955B961E
:105630004C930895CF93DF93EC016CEE71E08CE313
:1056400096E00E948E2368818CE396E00E94C0253C
:105650006EEF71E08CE396E00E948E238881FE015C
:10566000E80FF11D61818CE396E00E94C02569EE90
:1056700071E08CE396E00E947923888191E0980F95
:105680009883C80FD11D8981DF91CF910895AF9282
:10569000BF92CF92DF92EF92FF920F931F93CF931F
:1056A000DF93EC018B0160E0C8010E960E944A1660
:1056B00060E0C80181960E944A16F801F59680E0E4
:1056C00081938F5F8433E1F7580189E6A80EB11CFE
:1056D00084E3C82ED12CE12CF12C0E944F32A7017B
:1056E00096010E94CC32F801E60FF11D85A9D50183
:1056F0009E915D0195AB8C93B1E0CB1AD108E10886
:10570000F108E1E0CE16D104E104F10431F7D8014B
:10571000D4961C92FE017E96CE0186962FEF2193A1
:105720008E179F07E1F71E861A8E1B8E1C8E1D8E0C
:105730001EA28FEF8FA381E088A7DF91CF911F91E9
:105740000F91FF90EF90DF90CF90BF90AF900895B2
:105750002091AD07211103C08FEF9FEF08955FB730
:10576000F89422E02093E9002091F20030E0121634
:10577000130614F421E030E0422FFC0184E641508E
:1057800038F028988093AC079091F1009193F7CF6F
:105790002115310521F08091F200882319F05FBFB7
:1057A000C90108958BE68093E800F9CF2FB7F894EC
:1057B00083E08093E9009091E800892F807295FF43
:1057C00004C09091F20080E4891B2FBF089580915E
:1057D000B20781110DC082E08093AE0784E0809310
:1057E000AF071092B1071092B00781E08093B20723
:1057F0008EEA97E00895EF92FF920F931F93CF9355
:10580000DF9300D000D000D0CDB7DEB78C01E42EFE
:10581000F22E1A8219821C821B821E821D82CE01E8
:1058200001960E94E81EBE016F5F7F4FC8010F9670
:105830000E94E81EF801E58A88E4868B8FEF878B4B
:10584000F08E81E0818FCE0101960E94121F269674
:105850000FB6F894DEBF0FBECDBFDF91CF911F9181
:105860000F91FF90EF900895FF920F931F93CF93A6
:10587000DF93CDB7DEB7AE970FB6F894DEBF0FBE9D
:10588000CDBF8C01362FF22E442309F48AC086E066
:10589000E7E0F2E0DE01999601900D928A95E1F73A
:1058A00088E0EDE0F2E0DE015B9601900D928A95D2
:1058B000E1F789E0E5E1F2E0DE01529601900D9218
:1058C0008A95E1F781E1EEE1F2E0DE0111960190C7
:1058D0000D928A95E1F76A3040F0862F6AE00E94C7
:1058E0006633805D898321E001C020E0E1E0F0E0E3
:1058F000EC0FFD1FE20FF11D5AE0832F652F0E9470
:105900006633905D908381E0820FA1E0B0E0AC0F40
:10591000BD1FA80FB11D85E0FE01B99601900D9243
:105920008A95E1F786E0820F90E0295FE1E0F0E000
:10593000EC0FFD1FE80FF91F4A3078F0842F0E940A
:105940006633805D8083A1E0B0E0AC0FBD1FA20F85
:10595000B11D88E0FE0172960EC030E3340F308333
:10596000413089F7A1E0B0E0AC0FBD1FA20FB11D1F
:1059700087E0FE017B9601900D928A95E1F7BE01CA
:105980006F5F7F4FCE0183960E948E202F2D41E0C6
:10599000BE016D5D7F4FC8010E94FB2BCE01839637
:1059A0003AC087E0E8E2F2E0DE01119601900D9244
:1059B0008A95E1F76A3040F0862F6AE00E946633EC
:1059C000805D8C8324E001C023E0E1E0F0E0EC0F97
:1059D000FD1FE20FF11D832F6AE00E946633905D88
:1059E00090832F5FE1E0F0E0EC0FFD1FE20FF11D6F
:1059F0008EE28083BE016F5F7F4FCE0142960E9490
:105A00008E202F2D42E2BE016E5E7F4FC8010E94A4
:105A1000751ECE0142960E94121FAE960FB6F894E4
:105A2000DEBF0FBECDBFDF91CF911F910F91FF90D1
:105A30000895BF92CF92DF92EF92FF920F931F9340
:105A4000CF93DF93C82FC62E842F6DE00E9466335C
:105A5000B82E11E0190F211103C026E0F22E02C06A
:105A600094E0F92ED12CD0E0E12C02E029EC31E1D8
:105A70004CEF51E1B601CE010E94AD29CF0DD11DF1
:105A8000B601645F7F4F2B2D43EB51E1CE010E94A5
:105A90009D29E12FF0E0EE0FFF1FE355FE4F4081FF
:105AA0005181B6016B5F7F4F81E090E01A3011F4B5
:105AB00080E090E020E08C0F9D1FDF91CF911F913F
:105AC0000F91FF90EF90DF90CF90BF900C949D29A5
:105AD000CF92DF92EF920F931F93CF93DF936C01DE
