:100000000C94FE090C94260A0C94260A0C94260AD9
:100010000C94260A0C94260A0C94260A0C94260AA0
:100020000C94260A0C94260A0C9464210C94D62174
:100030000C94260A0C94260A0C94260A0C94260A80
:100040000C94260A0C94260A0C94260A0C94260A70
:100050000C94260A0C94260A0C94260A0C948C28DC
:100060000C94260A0C94260A0C94260A0C94260A50
:100070000C94260A0C94260A0C94260A0C94260A40
:100080000C94260A0C94260A0C94260A0C94260A30
:100090000C94260A0C94260A0C94260A0C94260A20
:1000A0000C94260A0C94260A0C94260A6A0AB20AB0
:1000B000100C880C3D0D4E0D220D970F8712E91282
:1000C000E912E91203149C12C912CE12C912CE12FF
:1000D000C912CE12C912CE1241146F1475146F14C6
:1000E00075146F1475146F1475148E1889188E1882
:1000F0009418AC18AC18AC18B818BF180319031929
:100100000319BF184920616D20736F727279402006
:10011000796F750A206C6F7374207468652067614D
:100120006D652E0A202020202020204920776F6E28
:100130002100436F6E67726174756C6174696F6ED4
:1001400073210A20202020202020202020596F7594
:1001500020576F6E210020596F757220637269629B
:10016000400020204D792063726962400020596F61
:1001700075722068616E64400020204D79206861AE
:100180006E64400020596F75722068616E64400093
:10019000204D792068616E6440002020476F212047
:1001A000200020476F20666F7220312E2000202013
:1001B000476F2120200020476F20666F7220312E6C
:1001C00020004D79207475726E20746F20737461F5
:1001D00072744000596F7572207475726E20746F5E
:1001E000207374617274400054776F20666F7220C0
:1001F000686973206865656C73210054776F2066A9
:100200006F7220686973206865656C732100202017
:1002100020492077696C6C207468726F770A746863
:100220006573652074776F2063617264732E005468
:1002300068726F772074776F2063617264730A6FDE
:10024000757420746F2074686520637269622E0073
:1002500003081F051F1F151B1F11111F110E1F154E
:10026000111F05011F111D1F041F001F0010101F6B
:100270001F041B1F10101F061F1F011F1F111F1F10
:1002800005071F311F1F051B17151D011F011F101B
:100290001F0F100F1F0C1F1B041B071C0719151322
:1002A0000C121E1F120C1E12120C121F0C1A140418
:1002B0001F052E2A1E1F021C001D00201D001F04EA
:1002C0001A011F001E041E1E021E1E121E3E120CCC
:1002D0000C123E1E020614120A020F121E101E0EEF
:1002E000100E1E081E1A041A2E281E1A12161F118E
:1002F0001F121F101D151711151F07041F17151D9D
:100300001F151D01011F1F151F17151F00170000C6
:100310001000040404040E040229060A0000100060
:10032000101C14FD1D1D5D9ABABAFAF4F4F474A8F9
:10033000A8485050505040404040C0E018E4FA1BDC
:100340003377F7F0F8FFFFFF07F807F8FE06FF071F
:10035000F707FFFFFFFF0FF1FE7F3F080C0E0F0FA7
:100360000F0F0F0F000F000F0F0E0702060E0F0FDB
:1003700007080F0F0F0E0C1C14C3E7FFFF0FF1FE51
:10038000FFFF07F604FE07FFFF00FF00FFFFFFFF70
:10039000FFFFE7C381FF7F87783F2F2F2F2FAEAE60
:1003A000AEAF265751EEF1FEFFFFDFD190AE8E8C3F
:1003B000FD05020100000000000000000000010136
:1003C0000102020202050505050B0B0B0B8018004C
:1003D000000000000000000000000000000000001D
:1003E000000000C030180C040404040404040C08C9
:1003F00008000000000000C0C080000000000000F5
:10040000808000008080000000C04040404000002C
:1004100000000000E010080C0404040C0818306010
:10042000C00080000000000080800000008080800C
:1004300080800000000080808080000000000000BC
:1004400000000000000000000000000000000000AC
:10045000000000000000000000000000000000009C
:1004600000001F60408080808080808080804040CD
:10047000E030000000F02E2320213618E08000FF3D
:1004800000010F0701011FF000001F704CC48480A1
:10049000000000001F30C08080808080C040603835
:1004A0000F0001070C70C07C03000E3B6949C8882F
:1004B0008485878000000FF000010100000000002B
:1004C000000000000000000000000000000000002C
:1004D000000000000000000000000000000000001C
:1004E000000000000000000000000000000000000C
:1004F00007000000030100000000000000030000EE
:1005000000000000000000070400000000000000E0
:1005100000000000000000000000000000000000DB
:1005200000000000000000000000000000000000CB
:1005300000000000000000010000000000000000BA
:100540000000000000000000000000000000001695
:1005500010FF00FF55AA55AA55AA55AA55AA55AA93
:1005600055AA55AAFF00FF1F205FB5AAB5AAB5AAD4
:10057000B5AAB5AAB5AAB5AAB5BA5F201F0E1000D4
:100580000000FFAA55AA55AA55AAFF00FF0008A01F
:10059000BFAAB5AAB5AAB5BA5F201F0E15F804FA0E
:1005A000FDFDFDFDFDFDFDFD050000FF00FFFFFF62
:1005B000FFFFFFFFFFFF0000001F001F1F1F1F1F87
:1005C0001F1F1F1F0000001615F804FAFDFDFDFD9A
:1005D000FDFDFDFDFDFDFDFDFDFDFDFDFA04F8FF4A
:1005E00000FFFFFFFFFFFFFFFFFFFFFFFFFFFFFF1A
:1005F000FFFFFF00FF1F001F1F1F1F1F1F1F1F1FC9
:100600001F1F1F1F1F1F1F1F1F001F546F74616CB0
:100610003A0007040103070F07030101020408045D
:1006200002010704080C0E0F0E0C08080402010258
:1006300004084E6F7468696E672021004D7920436D
:100640007269624000596F7572204372696240009E
:100650004D792048616E644000596F757220486181
:100660006E644000596F75722048616E6440004DA1
:10067000792048616E6440004B3800FF010105019C
:1006800001FF005155515551555155515551555135
:10069000555155515551555155515551555155512A
:1006A000555155515551555155515551555155511A
:1006B000555155515551555155515551A1A1428250
:1006C00024081020C00077747475B45427301C1DA2
:1006D0001C5D1C5D1C5D1C5D1C5D1C5D1C5D1C5D52
:1006E0001C5D1C5D1C5D1C5D1C5D1C5D1C5D1C5D42
:1006F0001C5D1C5D1C5D1C5D1C5D1C5D1C5D1C5D32
:100700001C5D1C5D1C4900AA807F807F000800FFE3
:100710000000FC028100F208F40AA90595C5D5C5C0
:10072000D5C5D5C5D5C5D5C5D5C5D5C5D5C5D5C5F9
:10073000D5C5D5C5D5C5D5C5D5C5D5C5D5C5D5C5E9
:10074000D5C5D5C5D5C5D5C5D5C5D5C5D5C5D5C5D9
:10075000D5C5C4C2E1E0F2783C1E0700007FE0C0CE
:1007600080270817282A5054515551555155515535
:100770005155515551555155515551555155515549
:100780005155515551555155515551555155515539
:1007900051555155515551555155515551A1A1439F
:1007A0008224081020C00000808183476F1E5E1CD9
:1007B0005C1C5D1C5D1C5D1C5D1C5D1C5D1C5D1C72
:1007C0005D1C5D1C5D1C5D1C5D1C5D1C5D1C5D1C61
:1007D0005D1C5D1C5D1C5D1C5D1C5D1C5D1C5D1C51
:1007E0005D1C5D1C5D1C4900AA807F807F000800A5
:1007F000FF1837686A68F7E0C5D5C5D5C5D5C5D532
:10080000C5D5C5D5C5D5C5D5C5D5C5D5C5D5C5D518
:10081000C5D5C5D5C5D5C5D5C5D5C5D5C5D5C5D508
:10082000C5D5C5D5C5D5C5D5C5D5C5D5C5D5C5D5F8
:1008300045D5C5C4C2E1E0F2783C1E0700000000C7
:10084000000001010101010101010101010101019A
:100850000101010101010101010101010101010188
:100860000101010101010101010101010101010178
:100870000101010101010101010101010101010168
:10088000010000000000000340FFFF55FFFF55FF7F
:10089000FF55FFFF55FFFF55FFFF55FFFF55CF3FAA
:1008A00055D5F08D14A1C881CFD9F1AF2000080B28
:1008B000000202020100090400000102020000051A
:1008C0002400100105240101010424020605240668
:1008D00000010705810310004009040100020A001D
:1008E00000000705020240000007058302400000E7
:1008F0000403090412010002EF0201404123368083
:1009000000010102030141726475696E6F204C4C55
:10091000430041726475696E6F204C656F6E617241
:10092000646F0035053B053D053F05410543054521
:1009300005470549054B054D054F0551055305551F
:1009400005570559055B055D055F0561056305658F
:1009500005670569056B056D056F05710577887974
:100960008E779471176F176D176B17691767176577
:1009700017631761175F175D175B175917571755DF
:1009800017531751174F174D174B1749174717454F
:1009900017431741173F173D173B183B1A3B1C3DA8
:1009A0001D3F1D411D431D451D471D491D4B1D4D2F
:1009B0001D4F1D511D531D551D571D591D5B1D5D9F
:1009C0001D5F1D611D631D651D671D691D6B1D6D0F
:1009D0001D6F1D711D77A079A677AC712F6F2F6DDC
:1009E0002F6B2F692F672F652F632F612F5F2F5D6F
:1009F0002F5B2F592F572F552F532F512F4F2F4DDF
:100A00002F4B2F492F472F452F432F412F3F2F3D4E
:100A10002F3B2F392F34AC020207020200020702DB
:100A200000050300020502000002070200350B3B2F
:100A30000B3D0B3F0B410B430B450B470B490B4B3E
:100A40000B4D0B4F0B510B530B550B570B590B5BAE
:100A50000B5D0B5F0B610B630B650B670B690B6B1E
:100A60000B6D0B6F0B710B738C738E739071116F19
:100A7000116D116B11691167116511631161115FBE
:100A8000115D115B11591157115511531151114F2E
:100A9000114D114B11491147114511431141113F9E
:100AA000113D113714351A37203D233F234123438D
:100AB000234523472349234B234D234F23512353BE
:100AC000235523572359235B235D235F236123632E
:100AD000236523672369236B236D236F237123739E
:100AE000A473A673A871296F296D296B29692967D9
:100AF000296529632961295F295D295B29592957BE
:100B0000295529532951294F294D294B294929472D
:100B1000294529432941293F293D293B29392934A0
:100B2000ACFFFFFFFFFFFFFFFFFFFFFFFFFFFFFF28
:100B3000FFFFFFFFFFFFFFFF7F3F1F010103070FC5
:100B40000F0F0F0F1F3F7FFFFF7F3D1901010101B5
:100B500001000000001A10BFBFBF1FEFEFEFEFEF63
:100B60001FBFBFBFBFBFBFBFBFBFBFBFBF5F201FD4
:100B7000000000010205050505050219245A5A2442
:100B800018000000000000000000000F1F3F7FFF62
:100B9000FFFFFF0808000F102F5F5F5F5FFFFFFF81
:100BA000FF7F3F1F0F08085F5F5F5F2F100F001F61
:100BB0003F7FFFFFFFFFFFFFFFFFFFFFFFFFFFFF85
:100BC000FFFFFFFFFFFFFFFFFF000000000101012B
:100BD0000101193D7FFFFF7F3F1F0F0F0F0F0F0711
:100BE0000301011A10001F205FBFBFBFBFBFBFBFFF
:100BF000BFBFBFBFBF1FEFEFEFEFEF1FBFBFBF0014
:100C000000000000000000000018245A5A241902B5
:100C1000050505050502010000FFFFFFFFFEFCF8CA
:100C2000F00808FAFAFAFAF408F000F0F8FCFEFF0F
:100C3000FFFFFF080800F008F4FAFAFAFA21080F9B
:100C40000F08080006090B06000E03030E000F092B
:100C50000F06000F0F000F02030F000E0F090D000B
:100C60000E10BEBDBEBDBEBDBEBDBEBDBEBDBE00C6
:100C700000040004000400040004000400004E0806
:100C80000F0D0702000F050F0A000F0D0900020BE0
:100C90000D00020B0D00000000000F0D0702000FF9
:100CA0000F0808000E03030E00030E0E03000000E1
:100CB00006090B06000F02030F00000000010F0FD2
:100CC000010E03030E000F0D0702000F0D090E1099
:100CD000A7C7A7C7A7C7A7C7A7C7A7C7A7000707CB
:100CE00007070707070707070707070024080E1F5E
:100CF0001F1F0E00000000000000000000001F0E7B
:100D000004000000000000000000040E1F00040E9C
:100D10001F001C14FD1D1D5D9ABABAFAF4F4F47498
:100D2000A8A8485050505040404040C0E018E4FA55
:100D30001B3377F7F0F8FFFFFF07F807F8FE06FF11
:100D400007F707FFFFFFFF0FF1FE7F3F080C0E0FB5
:100D50000F0F0F0F0F000F000F0F0E0702060E0FE1
:100D60000F07080F0F0F0E0C721900C0F0F81C0CC3
:100D7000040682C2C2C2060CFCF8F8F87800000033
:100D8000000080800000808080000000AAABABAB38
:100D9000ABAA000004FCFEFEFE0000808080800004
:100DA00000000004FCFEFEFE000080808080000049
:100DB0000000000000808080808080000000000033
:100DC00000000000008080808080008080000000A3
:100DD0000000808080808080000000003EFFFFFFD8
:100DE000F0C080000107050C0C0E0F070303008004
:100DF0000001FFFFFFFF0E07070707070000001FA6
:100E0000FFFF1F00000000FFFFFFFF0301010103C0
:100E1000FFFFFFFC0000FFFFFFFF0301010103FFD5
:100E2000FFFFFC0080C6E3F131190F3FFFFFFE809A
:100E3000000000F0FCFEFF03000000FFFFFFFF00CA
:100E400000F8FEFFE1202020233F3F3E3800000055
:100E50000307070F0F1F1E1E1C1C1C1C0C0C0E066C
:100E6000030100101F1F1F1F1000000000000000E2
:100E700000001F1F00000000100F0F0F1F181010A0
:100E8000181E0F07030000100F0F0F1F1810101867
:100E90001E0F07030000070F1F1F181010101F1F41
:100EA0001F1F10000081C78F9F1E1C1C0E9FFFFF7D
:100EB000FF70000103070F0F1E1E1C1C1C0C0400FA
:100EC0000000000000000000000000000000000022
:100ED0000000000000000000000000000000000012
:100EE0000000000000000000000000000000000002
:100EF00000000000000000000000000000000000F2
:100F000000000000000000000000000000000000E1
:100F100000000000000000000001010101010101CA
:100F200001000000000000000000000000000000C0
:100F300000003510BF7FE0840A44A04F1024AA248B
:100F40002049554941495549414955494149554922
:100F500041495549414955494149554941495549F1
:100F6000414955494149554941000102050B0A16BD
:100F70002C2C595A5958B2B5B2B0B2B5B2B0B2B5BC
:100F8000B2B0B2B5B2B0B2B5B2B0B2B5B2B0B2B53D
:100F9000B2B0B2B5B2B0B2B5B2B0B2B5B2B003058C
:100FA0001F041B03050F190F030508100F05051F6C
:100FB000001F111F030507051F03051F151F03054C
:100FC00019050303051F151D030517151D03050747
:100FD000041F030511151F03051D151703051F0524
:100FE0001F0B0F00000000000000000000FF404049
:100FF00040404040404040201F0D11FC0251A95587
:10100000A955A955A95102FC7F80152A552A552AB0
:10101000552A15807F000001010101010101010134
:1010200000000D11A80200010001000100010002F2
:10103000A82A80000000000000000000802A0000B4
:1010400000010001000100010000000080F8FCFE2A
:10105000FFFEFCF8F8F8F8F0E0C0070F1F3F7FFF35
:10106000FFFFFFFF7F3F1F0F070F10000080780476
:10107000FA04D810D010D020C000000708172C5F49
:101080005F5B5F5B2F170807000D14000000000076
:1010900000000000000000FF000000000000000051
:1010A00000000000FF0808080808080808080804ED
:1010B000020105060E1F3E1F0E0C1E3F1E0C0C2EBD
:1010C0003F2E0C0C2F372F0CFCFEFFFFFFFFFFFF06
:1010D000FFFFFFFFFFFFFFFEFCFFFFFFFFFFFFFF24
:1010E000FFFFFFFFFFFFFFFFFFFF1F3F7F7F7F7FB0
:1010F0007F7F7F7F7F7F7F7F7F3F1F11170050049F
:10110000000200020002000200020004500000552C
:10111000000000000000000000000000005500007A
:1011200005100020002000200020002000100500F5
:1011300000F80452AA52AA52AA52AA52AA5204F879
:101140000000FF0055AA55AA55AA55AA55AA550050
:10115000FF00000F10252A252A252A252A252A25C1
:10116000100F0000F804F2FAFAFAFAFAFAFAFAFAA8
:10117000F204F80000FF00FFFFFFFFFFFFFFFFFF8B
:10118000FFFF00FF00000F10272F2F2F2F2F2F2FD3
:101190002F2F27100F00120AFFFFFFFFD7D3535244
:1011A00052525353D3D7FFFFFF7F000101010101CA
:1011B000030302020303010101010100FFFFFFFF1E
:1011C000D7B3B3B2B2B2B3B3B3D7FFFFFF7F00015F
:1011D00001010101030202020203010101010100F8
:1011E000FFFFFFFFB7D3535252525353D3B7FFFF02
:1011F000FF7F00010101010103030202030301015A
:1012000001010100FFFFFFFFD7D353D292929393C6
:1012100093D7FFFFFF7F00010101010103020202DA
:101220000203010101010100FFFFFFFFD793939229
:101230009292D353D3D7FFFFFF7F00010101010139
:101240000302020202030101010101001409FFFF70
:10125000FFF77E7E7676F6F6F6F6F676767E7EFEFC
:10126000F6FC010101000000000000010101000086
:10127000000000000101FFFFFF3B3E7E7A7AFAFA90
:10128000F6F6F676767E7EFEF6FC010101010000A0
:101290000000000101010000000000000101150430
:1012A000000606040604040604000B0004060404F9
:1012B0000604060600000606040404040404000BE9
:1012C000000404040404040606003030000000009A
:1012D000000000C0201008040202420202020202C2
:1012E0000A0A0A0A0A0A0A0A0A0A0A0A0A0A12A4BC
:1012F0000850A0C000000000000000000000000036
:10130000000000FF00800000FE0000000000000060
:1013100000000000000000000000000000FC003F92
:1013200080552AFF000000000000000000000000BF
:1013300000FE0101F95A81FCFDA1A1E1E1E1E1E139
:10134000E121E1F7E1E1E1E1E1E1E1E1A1A1FCFD80
:101350008259F80101FE00000000000000000000BA
:1013600000010202050990A7DF3F7F000000000096
:10137000000000000000000000000000003FDFA7A8
:101380009089050404030000000000000000C02054
:10139000D0E8F4FA79B95204022C5ABC78F878B83B
:1013A0001840B07070B04018B878F878BC5A2C4A21
:1013B000A47AF1FAF4E8D020C00000000003000392
:1013C000030301020100000000000000010201000F
:1013D0000000000303000000000102010000000003
:1013E00000010201030303030003000005030002E0
:1013F00005020000020702002B32892F11241FBEB4
:10140000CFEFDAE0DEBFCDBF12E0A0E0B1E0E0E474
:10141000FDE602C005900D92A831B107D9F727E08B
:10142000A8E1B2E001C01D92A73AB207E1F719E0C6
:10143000CDEFD9E004C02197FE010E948A34CC3F51
:10144000D107C9F70E948D2F0C9493360C9400009D
:101450002F923F924F925F926F927F928F929F92C4
:10146000AF92BF92CF92DF92EF92FF920F931F93B2
:10147000CF93DF93CDB7DEB729970FB6F894DEBFD1
:101480000FBECDBFDC01FB013B012EE0620E711CE3
:101490004B0131E2830E911C118510958085182334
:1014A0009E968C919E97882321F08CE01C968C93BD
:1014B0001C971C969C911C97492F50E04D3051056C
:1014C00010F00C949E155F016D01FA01EA5AFF4F6E
:1014D0000C948A34D50116968D919C9117978F7034
:1014E0009927892B31F41E968C91882311F40C9442
:1014F0008214F5016685663098F5868197818F7034
:101500009927892B11F00C949E1584A991E0980FCE
:1015100094ABE60FF11DD501A80FB11DD5968C91A6
:10152000808B6F5FD5011E966C93C50140960E941B
:10153000552BF50184A991E0980F94AB61A1E60FBA
:10154000F11DD501A80FB11DD5968C9183A36F5FB6
:10155000D50191966C93C50183960E94552BCEC7F9
:1015600081E06CC25C968C915C978F5F5C968C93EB
:101570005C97F5019685953008F457C08D32A8F434
:101580006FE272E0CE0101960E94F120EE24E39416
:1015900000E026E442E0BE016F5F7F4FC6010E947B
:1015A0000B1FCE0101960E94AD1F15FF09C0D60189
:1015B0005B968C915B97882319F081505B968C9396
:1015C00016FF0EC0F601238D422F50E0D5011E9666
:1015D0008C9190E001974817590714F40C949114DA
:1015E00013FD02C00C949E1581E0F6018687638D81
:1015F000C3010E945D17682FF501E759FF4F8081F5
:10160000811102C0C30101C0C4010E947E17D6012E
:101610005B968C915B97F501968589130C949E15CA
:1016200081505B968C930C949E158FEF5D968C93F6
:101630005D975E968C9386E0E6E1F1E0DE0111961F
:1016400001900D928A95E1F785010D5D1F4F95017F
:10165000275D3F4FDE011196F8014DE051E0819189
:10166000642F0E946A34943009F45C931196E21757
:10167000F307A9F7AE014A5F5F4FFE013196D8012B
:101680003DE082E0F82EED908C91632F0E946A3449
:1016900021E0290F8E2D0E946A349F5F291308C014
:1016A00080818F3F09F4F08281818F3F09F4F182BC
:1016B00031964E175F0739F7DE011196F12CEDE0F8
:1016C000EE2EF3E09F2EF394F80181918F016E2DA1
:1016D0000E946A349F5F292F30E02F5F3F4F8F2C8D
:1016E000482D50E0F501E40FF51F83A16E2D0E94F7
:1016F0006A349F5F892F90E02817390771F48C9125
:101700008F3F09F49C92E1E0F0E0EC0FFD1FE40F45
:10171000F51F80818F3F09F490828394F6E08F1249
:10172000DFCF1196E5E0FE12CECF9E01295F3F4F3D
:10173000D501FE0131964DE058E016E080818F3FE3
:10174000B9F493968C919397642F0E946A3481E048
:10175000890F893038F4873050F4943048F49B5F17
:10176000908306C09950943018F4508301C01083C0
:1017700031961196E217F30709F78FEF95012B5F6A
:101780003F4FF501AE014F5F5F4FDA019D91AD0113
:10179000981315C0D6015D969C915D979F3F21F4EB
:1017A00093A15D969C930BC0981749F0D6015E9665
:1017B0009C915E979F3F19F493A15E969C933196FE
:1017C000E217F30711F78150E1F6F601858D8F3F9F
:1017D00059F40E94533326E030E040E050E00E948C
:1017E000D033D6015D966C93F601868D8F3FB1F4B0
:1017F00076E0872E912CA12CB12CD6015D969C9180
:101800005D975E968C91981749F00E945333A5011D
:1018100094010E94D033F601668FEFCF82E073C04F
:10182000FD01848D8F5F848F8D33D8F48F3208F063
:1018300049C08E3238F54DE2B501CD010E94942D9C
:101840006EE072E0CE0101960E94F12001E020E0FE
:1018500042E0BE016F5F7F4FC6010E94622E0C9472
:10186000B3148A3648F48E3308F046C0FD01868DE5
:10187000F501B39660E028C08A3611F00C949E15ED
:1018800083E041C05D968C91F501B39660E0919143
:10189000891721F06F5F6630D1F76FEFC4010E94A6
:1018A0005D17F501E759FF4F8081811103C0F601F3
:1018B000658D1DC0D6015D966C91C4010E947E1796
:1018C0000C949E154CE319C09191891721F06F5F1C
:1018D0006630D1F76FEFC4010E945D17F501E7593B
:1018E000FF4F8081811105C0D6015E966C91C301C6
:1018F000E5CFF601668DE1CF49E6B501C6010E944C
:10190000942D0C949E15D6011C968C931C9778C729
:10191000FD01848D8F5F848F8934D8F48B3108F07A
:101920005DC08A31D0F5803100F58F3011F00C9414
:101930009E15D501D4968C91D49791E0980FD496AA
:101940009C93F501E80FF11D85A9F60180A70C9481
:101950009E158E3728F48E3408F042C04DE7CDCF67
:101960008E3709F462C00C949E1561E0C3010E9499
:10197000881662E0C4010E948816D60198968C9160
:1019800098976DE00E946A349A3011F40C949E1579
:101990008DE45C968C930C949E15F501E759FF4FEE
:1019A000808162E081110CC0C3010E948C176BEF33
:1019B00071E0CE0101960E94F120E12C02E00CC002
:1019C000C4010E948C1768EE71E0CE0101960E945E
:1019D000F120EE24E39401E02EE4BEC74DE737C5C5
:1019E000B501CD010E94A81E4DE7B501C6010E94B8
:1019F000942DF501E759FF4F8081813059F464ED52
:101A000071E0CE0101960E94F120EE24E39400E003
:101A100021E5A2C762EC71E0CE0101960E94F1209F
:101A2000EE24E39400E027E497C75C961C92F5014E
:101A3000E759FF4F80818130F1F484E0F60184871B
:101A40000C949E155C968C915C978F5F5C968C9342
:101A50005C97853308F45AC0853311F00C949E15B9
:101A6000B501CD010E94A81EF601148ED501D396B2
:101A70008C91811162C087E00CC0BD01615E7F4F17
:101A8000C3010E94C41E81113FC081E0F50180A303
:101A900086E0D6011C968C930C949E15FD01848DD6
:101AA0008E3208F454C08E3211F00C949E15B5019C
:101AB000CD010E94A81EC6010E94F41EF601148EDC
:101AC0008F3109F41DC287E08487F50180A181115F
:101AD0000C949E1583A9882309F424C2B601615E83
:101AE0007F4FC3010E94C41E81110EC0B501C60103
:101AF0000E94B41ED50191968C9191978111BBCF14
:101B00001E968C91882309F185E098CF873068F480
:101B1000863011F00C949E15F50183A9811105C73B
:101B200081A1882309F401C70EC744E3B501CD01A3
:101B30000E94942D81E0D601E0C1B501C6010E944A
:101B4000B41EF50181A1811178CF88E0A2CF813048
:101B500008F0C5C115FF08C05B968C915B97882380
:101B600019F081505B968C9316FF0DC0F601238D02
:101B7000422F50E0D5011E968C9190E001974817B6
:101B800059070CF4F5C613FFD9C7C6010E94F41E0D
:101B9000282FF601438DF501E40FF11D80896DE0DA
:101BA0000E946A3431E0390F3B3008F03AE0822F6E
:101BB00090E0830F911D80970CF0C0C7642FC30184
:101BC0000E945D17D60197960C91F601E00FF11D6A
:101BD000878F0F5FF60107A3838DD5011E969C9119
:101BE000891302C08150838FC6010E94F41EF82E13
:101BF000F50153A9511104C051E081A1811150E0B8
:101C0000023008F4B9C6F601E00FF11D858D3DE004
:101C1000632F0E946A3421E0290F868D0E946A3466
:101C200031E0390F321302C012E001C010E002307F
:101C3000C9F0848D6DE00E946A3441E0490F24139D
:101C400003C0321301C01C5F033061F0838D6DE06F
:101C50000E946A349F5F491305C0241303C03213E6
:101C600001C01A5F8F2D8F7E8F3009F41E5F033005
:101C700008F411C1F601E00FF11D848D3DE0632FE2
:101C80000E946A34B1E0B90F858D0E946A34EE2457
:101C9000E394E90E868D0E946A3421E0290FEB1649
:101CA00001F12B17F1F02E15E1F0BE1518F48E2D71
:101CB0008B1B02C08B2F8E19833098F4B21718F447
:101CC000822F8B1B02C08B2F821B833050F4E216B5
:101CD00018F4822F8E1902C08E2D821B833008F4D7
:101CE0004DC6A0E0033009F4D6C0838D6DE00E949C
:101CF0006A3431E0390FB31709F442C0E31609F42E
:101D00003FC02317E9F1EB16D9F12B17C9F12E15B6
:101D1000B9F13B1718F48B2F831B02C0832F8B1B49
:101D2000843070F53E1518F48E2D831B02C0832F6E
:101D30008E19843028F5321718F4822F831B02C0C5
:101D4000832F821B8430E0F4BE1518F48E2D8B1B7C
:101D500002C08B2F8E19843098F4B21718F4822F9A
:101D60008B1B02C08B2F821B843050F4E21618F4B8
:101D7000822F8E1902C08E2D821B843008F401C67A
:101D800040E0043009F487C0828D6DE00E946A341F
:101D900081E0890F381709F47EC0B81709F47BC0B9
:101DA000E81609F478C0281709F475C0B31709F4C8
:101DB00072C0E31609F46FC0231709F46CC0EB1668
:101DC00009F469C02B1709F466C02E1509F463C025
:101DD000831718F4932F981B02C0982F931B9530EC
:101DE00008F059C08B1718F49B2F981B02C0982F2E
:101DF0009B1B953008F04FC08E1518F49E2D981B34
:101E000002C0982F9E19953008F045C0821720F423
:101E1000F22FF81B8F2F01C0821B8530E0F53B1796
:101E200018F48B2F831B02C0832F8B1B853098F5F2
:101E30003E1518F48E2D831B02C0832F8E1985301A
:101E400050F5321720F4622F631B362F01C0321B6E
:101E5000353008F5BE1518F48E2D8B1B02C08B2F64
:101E60008E198530C0F4B21720F4722F7B1BB72F68
:101E700001C0B21BB53078F4E21610F42E1902C07E
:101E8000E21A2E2D253038F4AA2309F485C54423FF
:101E900009F480C51F5F8FE1F81689F0552379F0AA
:101EA000D5011E968C91882309F47AC5B601615E2E
:101EB0007F4FC3010E94C41E882309F471C5612F9E
:101EC000C3010E948C1700E022E0412F6F2DC60154
:101ED0000E949E2EF601848D8F5F848F2FC64DE267
:101EE000B501CD010E94942DD6015C968C915C9732
:101EF0008F5F5C968C935C9781E05A968C931EC69C
:101F0000D50191968C91882319F087E0848705C0CC
:101F1000F5018685882309F418CEB501C6010E9413
:101F2000B41E0CC681A1882309F4D8CD07C6FD01D3
:101F3000848D8F5F848F8D3330F4813108F086C2B9
:101F4000803129F0FBC58D3309F489C2F7C5D5016D
:101F50001E968C911E97823030F090969C9181E075
:101F60009827998701C019867601BFE1EB0EF11C15
:101F700086E0E6E1F1E09E012F5F3F4F3901D90194
:101F800001900D928A95E1F7F7019601295D3F4F87
:101F9000412C512C4DE081918F3F49F05394642F97
:101FA0000E946A349F5F9B3008F09AE0490E2E171A
:101FB0003F0789F785010D5D1F4F32E0351508F0A9
:101FC00044C0F701E50DF11DDF0112978C912DE062
:101FD000622F0E946A3431E0390F11978C910E9470
:101FE0006A349F5F391334C0319780810E946A340C
:101FF00021E0290F23132CC0822F2B3008F08AE018
:10200000382E340C6FE1631518F1D50191964C917F
:10201000F80130E05DE04317D9F08191652F0E940F
:102020006A349F5F29130FC0632FC4010E945D179C
:10203000382FBFE03B1629F0EFE11CE03E12FCC058
:10204000F8C01EE0F9C03F5FE6CFF2E05F12F6C0D5
:10205000A701450D511DFA01329780812DE0622FB5
:102060000E946A3431E0390F319680810E946A34CF
:1020700021E0290F231329C0822F2B3008F08AE09A
:10208000382E340C6FE1631500F1D50191962C9038
:10209000F801A0E0BDE02A16C1F081916B2F0E94EB
:1020A0006A349F5F29130FC06A2FC4010E945D1715
:1020B000382FBFE03B1629F0EFE186E03E1209C160
:1020C00003C188E006C1AF5FE6CFF2E0F51508F086
:1020D0006EC0FA01339780816DE00E946A3441E05E
:1020E000490FD50191963C90431718F4232E241ADA
:1020F00002C0242E231A421718F4A22FA41B02C0D8
:10210000A42FA21B321718F4B22FB31B02C0B32F97
:10211000B21BF80150E0351609F44CC081916DE016
:102120000E946A349F5F892F9B3008F08AE0840DFB
:102130008F83803208F046C4341709F443C424174F
:1021400009F440C4491709F43DC4231709F43AC4FB
:10215000391709F437C4291709F434C463E0621548
:1021600008F430C4A43008F02DC4491718F4892F9E
:10217000841B02C0842F891B843008F023C4B43030
:1021800008F020C4391718F4892F831B02C0832F4D
:10219000891B843008F016C4291710F4921B03C061
:1021A000722F791B972F943008F00CC4FBC392E078
:1021B000591244C0F501A1A1321718F4522F531B34
:1021C00002C0532F521BF80140E0BDE0A417B1F14B
:1021D00081916B2F0E946A349F5F892F9B3008F09A
:1021E0008AE0382E340C6FE1631508F4EDC3231731
:1021F00009F4EAC3391709F4E7C3291709F4E4C35A
:10220000533008F0E1C3391710F4931B03C0732F48
:10221000791B972F933008F0D7C3642FC4010E9415
:102220005D17382F2FE0321631F08FE113E03812AE
:1022300003C082E04FC015E080E04CC02985211129
:1022400014C0552009F4C2C3F701E50DF11D319703
:1022500080816DE00E946A3431E0390FD50191969A
:102260005C91F80120E04DE01EC00E94533323E052
:1022700030E040E050E00E94D033613071058105CC
:10228000910509F0A3C3DDCF8191642F0E946A34C8
:102290009F5F892F9B3008F08AE0382E340C6FE165
:1022A000631520F42F5F5213EFCF90C33913FACF89
:1022B000622FC4010E945D17382F7FE0371631F07E
:1022C0008FE1381205C082E012E004C084E001C052
:1022D00082E010E0180F16C02F5F421709F448C0C3
:1022E0008191632F0E946A349F5F9B3008F09AE0CF
:1022F000940D9F7E9F3081F7622FC4010E945D176D
:10230000382F12E03F3F09F47EC0D60197968C919A
:10231000F601E80FF11D378F8F5FF60187A3C60125
:102320000E94F41E782EFFE18F17B1F0D5011E96A2
:102330008C911E97882321F090968C91882361F0D0
:10234000F50181A1882309F4E0C3B701C4010E940B
:10235000C41E882309F4D9C3612FC4010E948C17BD
:1023600001E021E0412F672DC6010E949E2EE6C3A9
:10237000980150E06DE0262EE42DF0E0F887EF8321
:1023800045132BC3F601878D8F3F29F4F80120E018
:102390003DE0421345C3252C312CF1E02F1A3108C2
:1023A0002E0C3F1CF10180816DE00E946A3451E0E7
:1023B000590FF80130E020E01DE043133FC3213006
:1023C00051F4F3010DE0242D30E011E08E2F861939
:1023D000841708F43DC3F301D5015DE0242D30E0FE
:1023E0008E2F8619841708F446C35FEF1DE0242D55
:1023F00030E0D301F50100E0401354C35150C9F758
:1024000081E0F50183ABD50190968C91882371F022
:1024100061E0C4010E948C1762EA71E0C3010E946E
:10242000F120EE24E39401E02DE209C06AE971E0B5
:10243000C3010E94F120EE24E39400E022E241E097
:10244000B301C6010E940B1FC3018FC24CE3B5014B
:10245000C6010E94942D81E0F601828F6FC3B50101
:10246000CD010E94A81ED6015C961C92C6010E9456
:10247000F41EF50196858F3169F4992311F084E0FB
:1024800005C0F50181A1882351F087E0D6011C9693
:102490008C9311C0911107C081A1811111C088E0F6
:1024A000F60184872BC084E0F6018487D5019096DD
:1024B0008C91882319F1B501C6010E94B41E1EC07B
:1024C00084E0F6018487D50190968C9190978111D4
:1024D00004C01E969C91911111C0F50193A9911110
:1024E000E8CFB601615E7F4FC4010E94C41E8823FD
:1024F00009F40DC387E0D6011C968C9361E0C301FB
:102500000E94881662E0C4010E94881617C3F50174
:10251000868197818F709927892B09F044C05C963A
:102520008C915C97482F50E049305105E0F5FA0155
:10253000ED59FF4F0C948A34F501878D9A969C9142
:102540009A97981710F49A968C93F50182A9D60160
:102550009B969C919B97981710F49B968C93F601F1
:1025600092A5D5015E962C915E9783A5921728F0CF
:10257000D1969C91891720F0D3C29F5FF60192A754
:10258000D501D1969C91891770F48F5FF60183A7CE
:102590000AC099961C9299978F5FC4C291E0FD0181
:1025A00091A78F5F848F13FFC9C289E0D6011C9663
:1025B0008C931C975C961C925C9781E099968C9307
:1025C00099979C961C92F501868D878F81A982AB85
:1025D000B5C25C968C915C978E36D8F48F3508F036
:1025E000DEC0823309F474C050F4813308F065C052
:1025F00021E0280F8630E8F4FD01248FD9C0803512
:1026000008F0C4C0813408F0CAC0833309F48BC019
:10261000CBC08B3938F48C3808F0B8C08D3708F04F
:10262000BEC0B4C08A3A08F4BAC0893B08F0BCC046
:10263000ADC05C962C93F501E759FF4F80819A302D
:1026400021F19B3051F181110AC060E971E0CE01A6
:1026500001960E94F12023E0E22E01E009C064E827
:1026600071E0CE0101960E94F12093E0E92E02E094
:1026700024E341E0BE016F5F7F4FC6010E940B1F44
:10268000CE0101960E94AD1F93C0813019F469E715
:1026900071E007C06DE671E0E4CF813059F462E685
:1026A00071E0CE0101960E94F12083E0E82E01E066
:1026B00022E3DFCF66E571E0D4CF82E3FD01848FB2
:1026C000B501CD010E944F1ED6019D968C9370C01E
:1026D000C3010E94B52713FF0AC0F60195A5911109
:1026E00002C0148E04C093E3948F10E008C017FF5B
:1026F00006C0F60194A5992311F0915094A714FFF8
:1027000057C0D6019C969C919C97492F50E04B5FF7
:102710005F4F282F30E0421753070CF049C09F5FEE
:102720009C969C9345C0F501878D9A969C919A97AB
:10273000981710F49A968C93F50182A9D6019B966E
:102740009C919B97981710F49B968C93F50186812A
:1027500097818F709927892B59F5D6019A969C916C
:102760009A97268D9B968C91921720F091A98917A4
:1027700020F0DBC19F5FF60192A7D501D1969C9115
:102780008917B0F48F5FF60183A712C08F5FD6015F
:102790005C968C935C9781E099968C9309C08F5FCF
:1027A000F601848F11A604C0B501C6010E94A81EBF
:1027B00013FFC4C1D6015C968C91823330F4B5010D
:1027C000C6010E944F1EF60185A7D6011C968C916A
:1027D0001C978A3041F08B3051F0893059F48AE0EF
:1027E0001C968C9307C08BE0F601848703C0D6014A
:1027F0001C961C92F501868D878F81A982ABD6012C
:102800005C961C929BC1FD01848DD501823420F51C
:102810005E968C91893750F062E371E0CE010196AB
:102820000E94F12002E02CE442E009C064E071E083
:10283000CE0101960E94F12001E023E443E0BE01B5
:102840006F5F7F4FC6010E94692DCE0101960E94E5
:10285000AD1FF601848D4CC016962D913C911797B3
:102860002F703327232B09F045C0482F50E0FA0181
:10287000E254F109E930F105E8F5E459FF4F0C9411
:102880008A34F501878DD6019A969C919A9798176C
:1028900010F49A968C93F50182A9D6019B969C918F
:1028A0009B97981710F49B968C93F60192A5D501EF
:1028B0005E962C915E9783A5921728F0D1969C91F5
:1028C000891720F036C19F5FF60192A7D501D196F6
:1028D0009C91891778F48F5FF60183A70BC0D6010E
:1028E00099961C9299978F5F26C191E0F60191A766
:1028F0008F5F848F13FF22C1F501E054FF4F83E007
:1029000080831CC1B501C6010E94AC2DF501E759B9
:10291000FF4F81E09081913009F480E080830C9436
:10292000790A2F5F238F0C94F00A61E0C3010E94A3
:102930008C1766EB71E0CE0101960E94F120E12C2C
:1029400002E02DE209C06EEA71E0CE0101960E941C
:10295000F120E12C00E022E241E0BE016F5F7F4FF9
:10296000C6010E940B1FCE0101960E94AD1FE6C05A
:102970002F5FF601238F07C910E074C91D5FA1E026
:10298000B1C9AA2329F081E0180F41E0A1E0F9C9FB
:1029900084E0FACF1E5F7FCA41117DCA1B5F7BCAEC
:1029A0001F5F8DCA652FC4010E945D17382FFF81FC
:1029B000FF3031F08F818F3109F088CC84E084CCF6
:1029C00086E087CC5F5FA7CB4F5F00CCF50141A1CC
:1029D000D801F80120E03DE080CCF90181919F0110
:1029E000622D0E946A349F5F9B3008F09AE0EF816D
:1029F000F885E90FF11D3B9789F4F501312C351667
:102A000049F083A1622D0E946A349F5F9A3010F0D2
:102A1000652F0DC0339431964311F1CF5F5FB0CC79
:102A20008191632F0E946A34933031F4622FC40184
:102A30000E945D17382F67C02F5FABCC8191612F4B
:102A40000E946A349F5F591301C02F5F3F5FB5CC6E
:102A50008D91602F0E946A349F5F59130AC0852FA1
:102A60005B3008F08AE0B901680F711D60327105B2
:102A70005CF13196ABCC80818F3F89F493968C9139
:102A80009397652F0E946A3481E0890F8B3008F09C
:102A90008AE0B901680F711D60327105BCF01196B2
:102AA00031969ECC8D91581314C083A1612F0E9442
:102AB0006A349F5F9B3008F09AE0B901690F711D7D
:102AC0006032710534F408C01083D3CF9B5E9083CD
:102AD000E6CF0F5F319690CC602FC4010E945D1746
:102AE000382F552081F0D1018C914DE0642F0E9448
:102AF0006A3421E0290F832F0E946A349F5F11E01E
:102B0000291709F4FFCB10E0FDCB1F5F25CCD501C1
:102B10001E968C918111CFCC87E0F6018487CBCCB7
:102B200081E0D6015C968C933ECD81E4F601848FE2
:102B30003FCE83E4D6015C968C93DCCE29960FB60B
:102B4000F894DEBF0FBECDBFDF91CF911F910F91E3
:102B5000FF90EF90DF90CF90BF90AF909F908F90BD
:102B60007F906F905F904F903F902F900895DC0181
:102B7000FB012185209590852923868197818F707F
:102B80009927892B59F450969C9150979F5F9C31BF
:102B900019F050969C9302C050961C9223FF0FC0D0
:102BA00083E884BD8FEF87BD81EF80938000109212
:102BB000880010928A00E054FF4F81E080830895DE
:102BC000089580E090E008950895CF93DF93FC018D
:102BD0006A3039F48581848396818185890F868363
:102BE00051C08481603219F48E5F84834BC06E378C
:102BF000D9F3262FEF0166816F5F2A3331F178F424
:102C00002D32C9F130F4213211F12B3271F521E46A
:102C10001FC02E32A1F0203340F12C5F19C02B359C
:102C200040F4213470F42F3371F02034F1F424E4B3
:102C30000FC09FE9920F9A31C0F4275409C02FE3C7
:102C400007C0215405C022E403C023E401C02EE3E1
:102C50003F81062E000C770B082E000C990B3130AB
:102C600061F440E552E00E94472A88858D5F9C818F
:102C7000890F8C8307C020E4EBCF40E552E00E942F
:102C8000572AF3CF81E090E0DF91CF9108950F9321
:102C90001F93CF93DF938C014DEC53E064E170E020
:102CA00080E090E00E94EB24CAE9D0E0F80180893E
:102CB00020E047E753E06FEF7FEFFE01E80FF11DE3
:102CC000CF010E94472A6C97CA3BFFEFDF0771F7DD
:102CD000CCEEDFEFF801808920E041E253E06DE2C5
:102CE00070E0FE01E81BF109CF010E94472A6C96B3
:102CF000C03BD10579F7DF91CF911F910F910895D6
:102D00000C9428350C9428350C9428350C942835CF
:102D1000CF92DF92FF920F931F93CF93DF938C019B
:102D2000C62F69EC71E084E296E00E9429246C2FA2
:102D300084E296E00E94642661ED71E084E296E010
:102D40000E942924C0E08DE0F82EF8018081C81788
:102D500008F062C064ED71E084E296E00E942924EC
:102D60006801CC0ED11CF601628184E296E00E94DB
:102D7000642666ED71E084E296E00E942924F60163
:102D8000D281DF3F19F469ED71E03AC08D2F6F2DCC
:102D90000E946A3461E0690F6B3081F018F4623090
:102DA00040F404C06C3069F06D3071F06CED71E08E
:102DB0000DC084E296E00E9464260CC06EED71E0C6
:102DC00005C060EE71E002C062EE71E084E296E060
:102DD0000E9429248D2F6F2D0E946A34813059F072
:102DE00068F0823029F0833079F466EE71E008C033
:102DF00064EE71E005C068EE71E002C06AEE71E059
:102E000084E296E00E94292465E172E084E296E083
:102E10000E942924CF5F99CF6EEE71E084E296E0A4
:102E20000E9414246CEE71E084E296E0DF91CF9171
:102E30001F910F91FF90DF90CF900C941424CF93AB
:102E4000DF93FC0110821182DC01129686E0ED0115
:102E500019928A95E9F71A9684E0ED0119928A95FC
:102E6000E9F7128A662311F0108A118ADF91CF9157
:102E700008950F931F93CF93DF938C01EB010E9472
:102E8000AC2D61E0CE010E960E941F1761E0CE01CD
:102E900081960E941F17F8011686148616A612A6A0
:102EA00013A6FE01E759FF4F1082C659DF4F188263
:102EB000DF91CF911F910F910895FC01DC01A60FC6
:102EC000B11D12968C91663050F4DF01A60FB11D32
:102ED00013969C91139712969C936F5FF4CF9FEF7C
:102EE0009783908191509083943039F4DF01189644
:102EF000329601900D929A95E1F70895FC01918127
:102F0000DF01A90FB11D1C966C9361E0690F61830D
:102F1000CF010C960C94552BFC019089690F6A37F0
:102F200010F4608B089589E7808B089508950895C3
:102F3000089508952F923F924F925F926F927F92E1
:102F40008F929F92AF92BF92CF92DF92EF92FF92B9
:102F50000F931F93CF93DF93CDB7DEB72C970FB6A8
:102F6000F894DEBF0FBECDBF5C014B01FB01668054
:102F70007780FC0184858850853008F4BDC0008DC1
:102F800022E147E5C5010E94502CF4018685880F97
:102F9000982F990F990F890F845F869594E3F92EE6
:102FA000F81AE12C5DE0D52EF4018685E81608F0CC
:102FB00059C02E2D30E090E00197E20FF31F0F2D46
:102FC00010E0C0882817390724F520E04BE955E0C8
:102FD00069E270E0C8010E94472A0D5F1F4F8C2DE7
:102FE0006D2D0E946A34C92E282F42EB50E164E314
:102FF00070E0C8010E94572AEC2DF0E0EE0FFF1F91
:10300000E155FE4F4081518120E06DE270E0C80142
:1030100023C020E047EC55E069E270E0C8010E945F
:10302000472A8C2D6D2D0E946A34C92E282F42EB21
:1030300050E164E370E0C80108960E94572AEC2D25
:10304000F0E0EE0FFF1FE155FE4F4081518120E07F
:103050006DE270E0C80103960E94572AE394FAE0FB
:10306000FF0EA2CFF40111A1110F812F880F880F3D
:10307000180F145F16951A5C00E0F40181A108177F
:10308000F0F4202F30E090E00197281739074CF436
:10309000812F90E020E04DE755E068EF7FEF0A9741
:1030A00009C082E0810F90E020E04FE455E068EF36
:1030B0007FEF46970E94472A0F5F1A50DECF21E02C
:1030C00040E86DE370E080E090E00E94842A20E018
:1030D00040E86CE370E080E090E00E94842A00E029
:1030E00010E041E06FE370E0C8010E94C42A0E5F67
:1030F0001F4F00381105A9F7F5012485822F90E0B4
:103100008D30910508F050C2FC01EB58FF4F0C9434
:103110008A34F501638DC4010E94FD2CF50166859A
:10312000C4010E941E2D40C2F50180A58F3F09F009
:1031300080C221E04BEF50E16CE070E080E090E075
:103140000E94472A20E049E850E160E170E085E014
:1031500090E00E94472A28C2C5010E94ED2CF5018B
:10316000848D811108C0638DC4010E94FD2C03C0B1
:10317000C5010E94ED2CC5010E94B62C15C2F401B8
:1031800091A9868D891710F002E001C001E026E1C7
:1031900040E0B401C5010E94502C20E047E858E00F
:1031A00060E070E08BE290E00E94472A20E048E770
:1031B00056E067E070E083E390E00E94472AF40164
:1031C000968D878D981719F0F50111A501C010E0B3
:1031D000F40182A991A9981719F0F50141A501C040
:1031E00040E0F50163A50E944F27412FF50162A53C
:1031F000F401878D0E94082721E041E0B401C50158
:103200000E940B2CD1C16401FEE0CF0ED11CC40181
:1032100087599F4F7C01FC018081293019F4882354
:1032200019F009C0813039F4C6010E94B5278823FE
:1032300011F001E001C002E026E140E0B401C50167
:103240000E94502C20E047E858E060E070E08BE2FC
:1032500090E00E94472AF501828D81112AC09301D6
:103260002F71332781E0213108F480E0F5012485B6
:10327000948D2A3049F02B3039F02930D1F4F70100
:103280002081211105C00BC0F7012081211107C049
:1032900041E0993B08F440E0482B21E006C021E0E2
:1032A000993B08F420E0282B41E0B401C5010E94BD
:1032B0000B2CF501848D823309F050C186838783FE
:1032C000108684858A3081F08B30D1F0893029F5E1
:1032D000F7012081C5010296211103C06FE676E057
:1032E0001AC064E676E017C0F7012081C501029696
:1032F000211103C069E576E00EC060E576E00BC001
:10330000F7012081C5010296211103C065E476E032
:1033100002C06CE376E00E949627C6010E94B527A2
:10332000E82E81110DC088E4F501868387838CE146
:10333000808762E376E0C50102960E94962734C139
:10334000F5E0F81768F421E0F50184A5811120E08B
:1033500042E256E061E070E088E790E00E94472A90
:103360003401FBE66F0E711C230119861886F12CBF
:1033700095012E5F3F4F3C872B879885F50184A5EB
:103380009E1508F090C0981708F484C090E0059648
:1033900028853985821793070CF47CC038E0F39EAA
:1033A000C00111246C01EAE0CE0ED11C120102E32F
:1033B00010E01F82F10180818F3F49F1FF81FF5FA3
:1033C000FF836DE00E946A349F5FE92FF0E0EE0F0B
:1033D000FF1FE355FE4F40815181E1E0F0E09A305C
:1033E00011F0E0E0F0E020E0B601C8018E1B9F0B79
:1033F0000E94472AF10180816DE00E946A34282FE3
:1034000042EB50E1B601C80105960E94472AFFEF42
:103410002F1A3F0A025F1F4F0837110559F62F2D4B
:10342000220F220F220F2A873F81353090F0F201C0
:10343000158128E7F501268327838A85875F8087A2
:103440001A3010F564E172E08B859C850E94292476
:103450001BC03F818EE0389F002D11240E5C82E757
:10346000282E201A312CCA849FE0C90ED12C10E0DE
:1034700041E0B601C801830D911D0E94C42A339416
:1034800033942314A8F7D3CF612F8B859C850E949A
:103490006426F394E885F9853196F987E887F7E0A3
:1034A0004F0E511C6ACF0E2D10E025E02E1578F43A
:1034B00090E0059621E0801791070CF420E042E1AE
:1034C00056E06CE370E088E790E00E94472AF5013F
:1034D00084A590E00596801791070CF465C081E003
:1034E00081871F2D110F110F110F165F8DE5868338
:1034F000878310877501F2E0EF0EF11C6BE076E038
:10350000C7010E94962788E7F50186838783108785
:10351000840101541F4FF30180E090819F3F11F01F
:103520009581890F37960E171F07B9F78A3028F44F
:1035300064E172E0C7010E94292460E0F301808108
:103540008F3F11F08581680FF7E06F0E711C061533
:103550001705A1F7C7010E94642626C020E048E7AE
:1035600056E067E070E083E390E00E94472AF401B0
:10357000968D878D981719F0F50111A501C010E0FF
:10358000F40182A991A9981719F0F50141A501C08C
:1035900040E0F50163A50E944F27412FF50162A588
:1035A000F401878D0E940827F501848588508530B5
:1035B000E0F0828D882329F0818D882311F08330FB
:1035C00051F4EE24E394F40101A92FEF42E7B40192
:1035D000C5010E94A826EE24E394F401068D24E39D
:1035E00042E7B401C5010E94A826F501828D882317
:1035F00021F1C18CE788068915891A8219821C82FB
:103600001B821E821D82B501615F7F4FCE01019634
:103610000E94831F212FAE014F5F5F4FB401C50190
:103620000E943725CE0101960E94AD1FF501128E32
:1036300004C0C5010E94ED2CB7CF2C960FB6F894AC
:10364000DEBF0FBECDBFDF91CF911F910F91FF90D5
:10365000EF90DF90CF90BF90AF909F908F907F9032
:103660006F905F904F903F902F90089521E531E04B
:10367000FC01318320830F960C94AD1FCF93DF9311
:10368000EC010E94361BCE01DF91CF910C942835BE
:103690002BEA31E0FC013183208384529F4F0C944C
:1036A000361BCF93DF93EC010E94481BCE01DF91C4
:1036B000CF910C9428352F923F924F925F926F9248
:1036C0007F928F929F92AF92BF92CF92DF92EF92B2
:1036D000FF920F931F93CF93DF93CDB7DEB72C9755
:1036E0000FB6F894DEBF0FBECDBF8C017A87698715
:1036F000D42E1C0144E5240E311C7C0145E050E031
:103700006FEF70E0C7010E948536D70115961C92B5
:10371000B7E0EB0EF11CE214F30481F78D2D6DE0A0
:103720000E946A34C82E49855A854B5F5F4FA98530
:10373000BA8520E09DE0B92E37E0F32EEE24E39425
:103740003D913D1549F0832F6B2D0E946A349A30CC
:1037500019F4C81609F43EC2A417B50789F78FE11A
:10376000482E512CFE0131967F013DE05E01F6E0CE
:10377000AF0EB11C60901C0170901D0180901E0165
:1037800085E0EFE1F1E0D70101900D928A95E1F734
:10379000E985FA8580E090E0D12CA201082E02C0D4
:1037A000559547950A94E2F740FF06C04081D7013E
:1037B000AD0DB11D4C93D394019631968530910592
:1037C00061F742E0D41287C049815A81852F632F67
:1037D0000E946A34CC24C394C90E842F0E946A3498
:1037E0009F5FC91278C0F801FC87EB878681813022
:1037F00009F054C08081632F0E946A349F5FC91210
:103800004DC0BF01C12C90E080E0DB019D90BD0167
:10381000491102C0CC24C394BFEF9B1203C0911185
:1038200001C0982F8F5F853081F7C11005C0BF019F
:10383000690F711DDB014C93BF0140E080E090E017
:10384000DB01CD90BD015C1101C041E0BFEFCB12A7
:1038500003C0811101C0892F9F5F953089F7411105
:1038600006C08F5FBF01680F711DDB015C9390E0A4
:1038700080E041914F3F09F0982F8F5F8530C9F765
:103880006E827F828886E5E0F0E0EC0FFD1FE90F95
:10389000F11D8081EB85FC8585831DC037962E1632
:1038A0003F0609F0A1CFB80187E0289F600D711D88
:1038B0001124D701CB014D91FC014193CF01AA15F1
:1038C000BB05C9F7E2E0DB011596EC931597F1E033
:1038D0001696FC932F5FF701D70140E08A2F8E19CF
:1038E0008D1550F48D91632F0E946A349F5F9B3039
:1038F00008F09AE0490FF2CF4F30E1F4B80187E0C9
:10390000289F600D711D11247C876B87AB01C70157
:10391000DC016D91CD01DA016D93AD01A816B906F8
:10392000B9F742E0AB85BC8515964C931597169672
:103930001C922F5F63E0D61266C0D9808D2D632F55
:103940000E946A349F5F492F50E0CA80DA011196C5
:103950008C2D0E946A349F5F892F90E0A817B907C9
:1039600009F01AC19B804E5F5F4F892D0E946A3417
:103970009F5F892F90E04817590709F00DC1D801C2
:1039800040E016965C9116975450523018F57C9191
:1039900011966C91119712965C911297D71204C0F0
:1039A000C61202C09516A9F0D61207C0C51205C0EE
:1039B00013966C911397961661F0D5120BC013965F
:1039C0005C911397C51206C014965C9114979512DA
:1039D00001C041E017962A163B0699F64111DCC05A
:1039E000B80187E0289F600D711D1124CB01419122
:1039F000DC014D93CD01EA15FB05C9F743E0FB015E
:103A0000458386E0C7C094E0D91278C0D9808D2D57
:103A1000632F0E946A349F5F492F50E0CA80DA0109
:103A200011968C2D0E946A349F5F892F90E0A81711
:103A3000B90709F0B1C09B80892D0E946A349F5F4D
:103A4000892F90E0BA016E5F7F4F6817790709F000
:103A5000A3C0AC81AB874D5F5F4F8A2F632F0E945D
:103A60006A349F5F892F90E04817590709F094C086
:103A7000C80140E0DC0116965C911697543029F598
:103A80006C9111965C911197D6120CC0C5120AC0A8
:103A900012966C911297961205C013966C91BB8585
:103AA000B61791F0D51211C0DC0112965C911297F5
:103AB000C5120BC013965C911397951206C014960D
:103AC0005C91BB85B51301C041E007962816390605
:103AD00089F6411161C0B80147E0249F600D711D56
:103AE0001124CB014191DC014D93CD01EA15FB0579
:103AF000C9F744E0FB01458385E04CC095E0D9124D
:103B00004BC08981632F0E946A349F5F492F50E028
:103B1000DA0111968A810E946A349F5F892F90E0B2
:103B2000A817B907C9F58B810E946A349F5F892F56
:103B300090E0BA016E5F7F4F6817790769F58C8155
:103B4000632F0E946A349F5F892F90E0BA016D5FF6
:103B50007F4F6817790701F54C5F5F4F8D81632FA9
:103B60000E946A349F5F892F90E048175907A1F49B
:103B7000B801A7E02A9F600D711D1124CB0141916E
:103B8000DC014D93CD01AE16BF06C9F745E0FB0140
:103B9000458384E086832F5F91E0491A510809F03C
:103BA000EFCD2C960FB6F894DEBF0FBECDBFDF91E0
:103BB000CF911F910F91FF90EF90DF90CF90BF902A
:103BC000AF909F908F907F906F905F904F903F90BD
:103BD0002F900895F80167E0269FE00DF11D112454
:103BE0003083E582F6822F5FB7CDEF92FF921F936D
:103BF000CF93DF9300D000D01F92CDB7DEB77B010B
:103C0000142FFC013C9694E0DE01119601900D9278
:103C10009A95E1F74D8365E0CE0101960E94552B00
:103C2000412FBE016F5F7F4FC7010E945B1B0F904A
:103C30000F900F900F900F90DF91CF911F91FF90F9
:103C4000EF900895EF92FF921F93CF93DF9300D0F0
:103C500000D01F92CDB7DEB77B01142FFC01389640
:103C600094E0DE01119601900D929A95E1F74D8353
:103C700065E0CE0101960E94552B412FBE016F5F7A
:103C80007F4FC7010E945B1B0F900F900F900F900A
:103C90000F90DF91CF911F91FF90EF900895EF92D9
:103CA000FF920F931F93CF93DF93FC01EB017B01F6
:103CB0008EE0E80EF11C8B010F5D1F4F84858A306A
:103CC00071F08B30E9F08930D1F5DB01A759BF4F96
:103CD0008C9165597F4F40A581110AC00DC0DB0151
:103CE000A759BF4F8C9165597F4F40A5811104C0E2
:103CF000C7010E94221E10C0C8010E94221E16C0C9
:103D0000DB01A759BF4F8C9165597F4F40A58111A9
:103D10000AC0C7010E94F51DCE010E94832DC82F45
:103D2000682FC70109C0C8010E94F51DCE010E947D
:103D3000832DC82F682FC8010E948C1701C0C0E0D6
:103D40008C2FDF91CF911F910F91FF90EF900895ED
:103D5000FB01268D293718F421A9293720F0FC0111
:103D6000148E21E026A70895FC017F969C01295D11
:103D70003F4F4FEF4193E217F307E1F7FC0117A222
:103D8000FB0110A213AA0895FC01DB01AB01485FFF
:103D90005F4F20E03DE08D918F3F41F0632F0E9407
:103DA0006A349F5F9B3008F09AE0290FA417B5078B
:103DB00091F75081329640E0ADE030E0541781F049
:103DC00081916A2F0E946A349F5F9B3008F09AE0CD
:103DD000B901690F711D6032710524F04F5FEECF9C
:103DE00080E0089581E00895FC017F969C01295DA3
:103DF0003F4F40E05DE081918F3F41F0652F0E9491
:103E00006A349F5F9B3008F09AE0490FE217F3078E
:103E100091F7842F0895CF92DF92EF92FF920F9344
:103E20001F93CF93DF9300D000D000D0CDB7DEB783
:103E30006C01F42E122F1A8219821C821B821E82A0
:103E40001D82CE0101960E94831FBE016F5F7F4FCE
:103E5000C6010F960E94831FF601F58A168B8FEF1D
:103E6000878B008FE18E81E0828FCE0101960E94C8
:103E7000AD1F26960FB6F894DEBF0FBECDBFDF9103
:103E8000CF911F910F91FF90EF90DF90CF90089509
:103E90000E9477360F931F93CF93DF93EC018881B5
:103EA0009981009729F02A813B812617370788F4EA
:103EB0008B016F5F7F4F0E94B135009761F099834E
:103EC00088831B830A832C813D81232B11F4FC0101
:103ED000108281E001C080E0DF91CF911F910F91AE
:103EE0000895CF93DF93EC0188819981009711F0B9
:103EF0000E942835198218821D821C821B821A8218
:103F0000DF91CF910895EF92FF920F931F93CF937C
:103F1000DF93EC0186179707C1F0FB010081118147
:103F20000115110539F0E480F580B7010E944A1FA0
:103F3000811104C0CE010E94711F07C0FD82EC8276
:103F4000B801888199810E948C36CE01DF91CF9192
:103F50001F910F91FF90EF900895FC018081918156
:103F60000C942835409120065091210620911E0680
:103F700030911F0642175307B4F49091E8009570F2
:103F8000E1F39091E80092FD19C08093F1008091D7
:103F900020069091210601968F739927892B19F499
:103FA0008EEF8093E8008091200690912106019683
:103FB000909321068093200681E0089580E0089583
:103FC000DF92EF92FF920F931F93CF93DF93D82E40
:103FD0008A017B01E40EF51EEB01CE15DF0571F0C1
:103FE000D7FE03C0FE01849101C088810E94B21FE8
:103FF00021968111F2CF8FEF9FEF01C0C801DF91B1
:10400000CF911F910F91FF90EF90DF900895615035
:1040100030F02091F100FC0120830196F8CF289820
:1040200084E6809395070895CF92DF92EF92FF92F6
:104030000F931F93CF93DF936C017A018B01C0E044
:10404000D0E0CE15DF0581F0D8016D918D01D6014C
:10405000ED91FC910190F081E02DC6010995892B2D
:1040600011F02196EECF7E01C701DF91CF911F9114
:104070000F91FF90EF90DF90CF900895CF93DF9353
:104080001F92CDB7DEB76983DC01ED91FC91028010
:10409000F381E02D41E050E0BE016F5F7F4F099555
:1040A0000F90DF91CF91089583E08093E900809194
:1040B000F200882319F08AE38093E8000895FC0158
:1040C0008485958597FD0BC09FB7F89482E0809317
:1040D000E9008091F2009FBF90E0019608959FB79C
:1040E000F89482E08093E9008091F2009FBF90E015
:1040F00008950F931F93CF93DF931F92CDB7DEB731
:1041000082E0898342E450E06EEA78E080E80E9431
:10411000E01F0E944E2EDC0112960D911C91139708
:104120000115110589F0D801ED91FC910280F38110
:10413000E02DBE016F5F7F4FC801099597FD04C058
:10414000F80100851185ECCF89810F90DF91CF9127
:104150001F910F9108950E943D2E90E008950F93B6
:104160001F93CF93DF931F92CDB7DEB78C01FC0175
:104170008485958597FF0EC0CE0101960E940F2E73
:10418000019719F4898190E002C08FEF9FEFF80149
:1041900095878487F801848595850F90DF91CF916D
:1041A0001F910F910895CF93DF931F92CDB7DEB784
:1041B000FC018485958597FD05C02FEF3FEF35877E
:1041C00024870BC0CE0101960E940F2E019719F48F
:1041D000898190E002C08FEF9FEF0F90DF91CF9128
:1041E0000895EF92FF920F931F93CF93DF93EC010B
:1041F000198218821B821A821D821C826115710528
:1042000009F18B01CB010E94B1337C01BC01CE01CD
:104210000E944A1F811109C0CE01DF91CF911F91E9
:104220000F91FF90EF900C94711FFD82EC82B8010A
:1042300088819981DF91CF911F910F91FF90EF902D
:104240000C94AA33DF91CF911F910F91FF90EF90C3
:104250000895EF92FF920F931F93CF93DF93EC019A
:10426000198218821B821A821D821C8261157105B7
:1042700021F18B01FB0101900020E9F731977F01CB
:10428000E61AF70AB7010E944A1F811109C0CE0140
:10429000DF91CF911F910F91FF90EF900C94711FC0
:1042A000FD82EC82B80188819981DF91CF911F91C5
:1042B0000F91FF90EF900C948C36DF91CF911F916E
:1042C0000F91FF90EF9008951F920F920FB60F92EB
:1042D00011248F939F938091E1009091E100937F4F
:1042E0009093E10083FF0FC01092E90091E090935A
:1042F000EB001092EC0092E39093ED001092960781
:1043000098E09093F00082FF20C093E09093E90042
:104310009091F200992319F09AE39093E80090911C
:104320002306992339F09091230691509093230608
:10433000992389F190919507992339F090919507E8
:10434000915090939507992341F184FF10C080917B
:10435000E2008E7E81608093E2008091E1008F7E9A
:104360008093E100809118028E7E806111C080FFF1
:1043700016C08091E2008E7E80618093E200809181
:10438000E1008E7E8093E100809118028E7E816034
:104390008093180204C05D9ACDCF289AD6CF9F9102
:1043A0008F910F900FBE0F901F9018951F920F9234
:1043B0000FB60F921124CF92DF92EF92FF920F93DC
:1043C0001F932F933F934F935F936F937F938F939D
:1043D0009F93AF93BF93EF93FF93CF93DF93CDB7AB
:1043E000DEB76C97DEBFCDBF1092E9008091E80088
:1043F00083FFFBC168E0CE0145960E94072082EF53
:104400008093E8008D8987FF05C09091E80090FFB8
:10441000FCCF03C09EEF9093E800982F907609F0B0
:10442000C6C09E894F89588D2F89F88C91110CC078
:10443000803829F4809119028093F10002C0109213
:10444000F1001092F10045C1913051F4811141C148
:104450004130510509F03DC1809119028D7F0BC09B
:10446000933061F4811135C14130510509F031C1FA
:10447000809119028260809319022BC1953049F412
:104480008091E80080FFFCCF822F80688093E3005A
:1044900020C1963009F05EC00B8D1C8D22E0109279
:1044A000E9001092210610922006F21232C01092FA
:1044B0001F0610921E060E94792099E0BE016F5FD0
:1044C0007F4FDB01E92F1D92EA95E9F79983FA8284
:1044D00091E09E8390EA98879AEF99872091200631
:1044E00030912106275F3F4F3C832B838D831092B1
:1044F000E900109221061092200610931F060093E7
:104500001E0649E050E080E00E94E01F0E947920F2
:10451000E0C010931F0600931E060E944E2EDC0181
:1045200012960D911C9113970115110509F4BBC04A
:10453000D801ED91FC910480F581E02DBE016B5E08
:104540007F4FC8010995009709F0C7C0F8010085A1
:104550001185EACF973009F445C1983021F481E004
:104560008093F100B6C0993009F0B3C0837009F0B0
:1045700039C1E5E2F1E081E031E096E320812111EB
:1045800009C08EE78093EA001092EA008F89809339
:1045900096079FC08093E9003093EB002191209310
:1045A000EC009093ED008F5F873041F7EACF8B8D61
:1045B0009C8D1092E9001092210610922006909393
:1045C0001F0680931E06898D811153C08E899D8997
:1045D000913A49F4813209F005C147E050E064E0C6
:1045E00071E080E0BBC0913209F0FCC0833269F415
:1045F0008F89988DA0E0B0E0809300019093010135
:10460000A0930201B093030164C0803269F48091E9
:10461000E80082FFFCCF67E084E091E00E94072081
:104620008BEF8093E80055C0823209F052C08F8929
:1046300080930B01EEEFFFE7859194918B3F9C4DAA
:1046400019F0E0E0F8E002C0EEEFFAE0809104013A
:1046500090910501A0910601B0910701803B944023
:10466000A105B10509F09EC080910B0180FF79C0C2
:1046700099C00E944E2EFC01028113810115110583
:1046800009F4B0C0D801ED91FC910190F081E02DCA
:10469000BE016B5E7F4FC801099581111AC0F801F8
:1046A00000851185EBCFF1E0FF1609F44EC0F3E071
:1046B000FF1298C08F89882309F44AC0823089F498
:1046C00040E860E182E199E00E94F631882309F434
:1046D00089C08EEF8093E80088C018161906CCF3C5
:1046E00081C0813029F440E86BE086E099E0ECCFAE
:1046F000833009F077C00E944E2EDC011296ED90B7
:10470000FC9013978E010F5F1F4F6801E114F104B5
:1047100079F0D701ED91FC910680F781E02DB80189
:10472000C7010995080F111DF701E084F184EECF50
:10473000D8011C92F60101900020E9F73197BF01E2
:104740006C197D0940E0C601BFCF64EF78E002C07C
:1047500060EF78E0FB01449150E080E80E94E01FA8
:10476000B8CFEE3F2AE0F20751F080819181873780
:10477000A7E79A0721F09093FF0A8093FE0A87E744
:1047800097E79183808380916000809322069BE06D
:1047900088E10FB6F894A895809360000FBE9093BF
:1047A000600097CF808191818737974709F091CF3B
:1047B000A8958091600088618093600080912206B6
:1047C00080936000EE3FBAE0FB0739F08091FE0A6B
:1047D0009091FF0A918380837CCF1092FF0A109200
:1047E000FE0A77CF81E28093EB006C960FB6F894C7
:1047F000DEBF0FBECDBFDF91CF91FF91EF91BF9193
:10480000AF919F918F917F916F915F914F913F9168
:104810002F911F910F91FF90EF90DF90CF900F900D
:104820000FBE0F901F9018956115710579F0FB016F
:1048300001900020E9F73197AF01461B570BDC01CF
:10484000ED91FC910280F381E02D099480E090E0ED
:1048500008950C9414248F929F92AF92BF92CF929E
:10486000DF92EF92FF926B017C010E9467284B015F
:104870005C01C114D104E104F104F1F00E94672845
:10488000DC01CB0188199909AA09BB09883E93402C
:10489000A105B10570F321E0C21AD108E108F108C1
:1048A00088EE880E83E0981EA11CB11CC114D104AF
:1048B000E104F10419F7DDCFFF90EF90DF90CF9086
:1048C000BF90AF909F908F9008958F929F92AF92DC
:1048D000BF92CF92DF92EF92FF920F931F93CF93ED
:1048E000DF936C017B018A0180910B01882309F41D
:1048F0005CC080919607882309F457C08091180204
:1049000080FF05C08091E00082608093E000E801B4
:10491000B12C8AEFA82E93E0892E2AE3922E2097BD
:1049200011F4BB20D9F10E943D2E81110AC0AA9436
:10493000AA20D9F161E070E080E090E00E942B2491
:10494000EECF282F30E0C217D3070CF48C2F9FB77F
:10495000F8948092E9002091E80025FF1DC0282FDF
:1049600030E0C21BD30BF701815020F041914093FE
:10497000F100FACFE20EF31EBB2019F09092E8008E
:104980000AC08091E80085FD07C09092E800BB2432
:10499000B394209709F0B12C9FBFC1CF5D9884E6F6
:1049A000809323061016110644F081E090E0F60192
:1049B0009383828380E090E001C0C801DF91CF91B2
:1049C0001F910F91FF90EF90DF90CF90BF90AF902D
:1049D0009F908F900895CF92EF920F931F9322E0B4
:1049E000C22EE12C00E010E020E00E94D6281F91AA
:1049F0000F91EF90CF9008958F929F92AF92BF92B8
:104A0000CF92DF92EF920F931F93CF93DF936A01C0
:104A1000EB014B01820E911C5A01A00EB11CC8156E
:104A2000D905CCF48601D7FE02C000E010E0C50134
:104A300021E4A216B10414F080E490E008171907ED
:104A400044F44E2DB801CE010E94C42A0F5F1F4FBF
:104A5000EECF2196E4CFDF91CF911F910F91EF9090
:104A6000DF90CF90BF90AF909F908F9008952F923E
:104A70003F924F925F926F927F928F929F92AF92EE
:104A8000BF92CF92DF92EF92FF920F931F93CF933B
:104A9000DF9300D01F92CDB7DEB75C011A01702EF4
:104AA0004C2CCC2039F083E0C81621F080E8582E39
:104AB000501A01C0512C9FEFE9125E2C122F110FDA
:104AC000110F110FE3E0E10FE983C52CD12CCB01CD
:104AD00003969B838A8304E0010FE12C272D43E09A
:104AE00050E0B6010E94FC24460194E0890E911C1E
:104AF0000CE0010F28EFF22EF70C2F2D4FEF5FEF98
:104B0000B4018A819B810E94FC2405E0010FB6015B
:104B10006F5F7F4FEE24E3942EEF270D43E050E0CC
:104B20008A819B810E94FC240AE0010F2F2D40E026
:104B300050E0B4018A819B810E94FC2438E0F32E6E
:104B4000F10E4CEF642E670CF6013296FB83EA837C
:104B500020E0462D61E070E0CF010E94842A0F2DF5
:104B600010E0FFE3FF1538F020E0462DB8018A8100
:104B70009B810E94842A0F5F1F4FEE24E394F12C47
:104B80004801013411051CF080E4882E912CE814B2
:104B9000F90454F440E0B7018A819B810E94C42A41
:104BA0008FEFE81AF80AECCFEA81FB81E60DF11DE0
:104BB0003197FB83EA8301E010E00815190549F0FD
:104BC00040E0B8018A819B810E94C42A0F5F1F4F79
:104BD000F4CFE12C00E02BE23CE043E35CE06FEF3C
:104BE0007FEFC6010E94672A4601870C911C3401A1
:104BF000F8E06F1A710829E13CE041E25CE06FEFF8
:104C00007FEFC3010E94672A9981892F90E09B83DF
:104C10008A83442019F0E3E04E1215C06A817B813B
:104C200061507109E12C00E02FEA3BE043EE5BE0CC
:104C3000C6010E94672A2DE93BE045EA5BE06A81F4
:104C40007B81C30115C0E12C00E02BE83BE043E988
:104C50005BE06A817B81C6010E94672A6A817B8151
:104C60006150710921E23BE045E55BE0C4014A97F0
:104C70000E94672A86E0850DF5018683878385E09B
:104C800080871186F1014481558160817181C50160
:104C900002960E94142081E0F50181870F900F9009
:104CA0000F90DF91CF911F910F91FF90EF90DF90C8
:104CB000CF90BF90AF909F908F907F906F905F90BC
:104CC0004F903F902F9008958F929F92AF92BF92F6
:104CD000EF92FF920F931F93CF93DF93CDB7DEB781
:104CE000A1970FB6F894DEBF0FBECDBF7C01262F73
:104CF00030E040E050E019A28E010F5D1F4F8AE0C6
:104D0000882E912CA12CB12CCA01B901A5019401C6
:104D10000E943934605DF80162938F0121153105DD
:104D20004105510589F7BF01C7010E941424A196CE
:104D30000FB6F894DEBF0FBECDBFDF91CF911F91AC
:104D40000F91FF90EF90BF90AF909F908F9008953C
:104D50006F927F928F929F92AF92BF92CF92DF928B
:104D6000EF92FF920F931F93CF93DF936C01122F5B
:104D7000702E6E2C89E0801718F026E0F22E08C005
:104D8000E3E6E01718F094E0F92E02C082E0F82E76
:104D9000F40EF6011186812E012E000C9908C42F05
:104DA000D0E05B01F3E0AF0EB11CE12C08E02EE097
:104DB000A401BE01C5010E94FC24A4014F5F5F4F06
:104DC000BE016F5F7F4FEE24E39407E02DE0C50145
:104DD0000E94FC24F601F682F7821F5F108766208E
:104DE00029F0672DC60102960E94642681E0F60133
:104DF0008187DF91CF911F910F91FF90EF90DF900E
:104E0000CF90BF90AF909F908F907F906F900895BC
:104E1000EF92FF920F931F93CF93DF93D42FE82F3E
:104E2000F0E0EE0FFF1FE35DF54F84913196949112
:104E30009D5FE62FF0E0EE0FFF1FE35DF54FF4906E
:104E400031966491C3E0C60F97FF04C09F77EE24AC
:104E5000E39401C0E12CC7FF03C0CF7711E001C08C
:104E600010E0692F70E001E027E13AE041E25AE00A
:104E700090E00E94672ADD2359F06C2F70E0E12E4C
:104E800027E13AE041E25AE08F2D90E00E94672A44
:104E9000DF91CF911F910F91FF90EF900895EF92C6
:104EA000FF920F931F93CF93DF93D42FE82FF0E05F
:104EB000EE0FFF1FED5DF64F8491319694919D5F4B
:104EC000E62FF0E0EE0FFF1FED5DF64FF490319608
:104ED0006491C3E0C60F97FF04C09F77EE24E3946C
:104EE00001C0E12CC7FF03C0CF7711E001C010E083
:104EF000692F70E000E027E13AE041E25AE090E0FB
:104F00000E94672ADD2359F06C2F70E0E12E27E123
:104F10003AE041E25AE08F2D90E00E94672ADF914B
:104F2000CF911F910F91FF90EF900895EF92FF9214
:104F30000F931F93CF93DF938C017B01C0E0D0E0F0
:104F4000F701EC0FFD1F6491662339F0C8010E9440
:104F5000E515892B11F02196F3CFCE01DF91CF918A
:104F60001F910F91FF90EF900895FC01E35AFF4FBE
:104F70009C012F543F4F80E090819F3F09F08F5F4D
:104F80003796E217F307C1F708950895DC01FB0196
:104F9000908581858095892394FF18C01C969C91EB
:104FA0001C97903128F49F5F1C969C931C9711C00E
:104FB000F89487E78093000880930108A89588E11A
:104FC0008093600088E080936000FFCF1C961C9265
:104FD0001C97268137812F703327232B59F41D9678
:104FE0009C911D979F5F9C3119F01D969C9302C068
:104FF0001D961C9283FF04C0E054FF4F82E0808323
:1050000008950895FC01DB0119968C9119978095FC
:1050100018969C91892399F08485882311F08CE758
:105020008487948591110EC081E0848780E4809309
:10503000900081E49FE0909399008093980094857C
:105040009923C1F09F5F9487953059F09D3761F0A7
:10505000923081F480E596E49093990080939800D3
:105060000895109290000895FB01E054FF4F81E0F5
:105070008083089508950F931F93CF93DF938C013E
:1050800042E35FE060E070E08BE490E00E94EB249C
:1050900048E65DE060E170E087E090E00E94EB248C
:1050A000CCEEDFEFF801858542E15DE06CE270E077
:1050B0009E01281B3109C9010E94EB246C96C03B5C
:1050C000D10581F7DF91CF911F910F9108953FB7DF
:1050D000F8948091910790919207A0919307B091D5
:1050E000940726B5A89B05C02F3F19F00196A11D76
:1050F000B11D3FBFBA2FA92F982F8827820F911D6E
:10510000A11DB11DBC01CD0142E0660F771F881FB4
:10511000991F4A95D1F708951F920F920FB60F92DB
:1051200011242F933F938F939F93AF93BF938091BD
:105130001A0690911B06A0911C06B0911D06309195
:10514000900723E0230F2D3720F40196A11DB11DF8
:1051500005C026E8230F0296A11DB11D20939007DC
:1051600080931A0690931B06A0931C06B0931D060D
:105170008091910790919207A0919307B091940725
:105180000196A11DB11D8093910790939207A09362
:105190009307B0939407BF91AF919F918F913F91E7
:1051A0002F910F900FBE0F901F9018952F923F9246
:1051B0004F925F926F927F928F929F92AF92BF9227
:1051C000CF92DF92EF92FF920F931F93CF93DF93D3
:1051D00000D000D000D0CDB7DEB74115510509F49D
:1051E0003DC1FA01B4903196E4914E5F5F4F6B2C54
:1051F000712C211102C0EE2061F1A1E0B0E03E2F40
:10520000377011F4A0E0B0E03E2F36953695369514
:105210004D01830E911C869CD001879CB00D969CFD
:10522000B00D1124F3E0CF1203C0AA0FBB1F0AC0B8
:105230000115110539F0EA9E4001EB9E900C1124F6
:10524000080D191D2A9F70012B9FF00C11244E0D83
:105250005F1D2FEFC21208C00115110519F0CC24F3
:10526000C39402C032E0C32E7301E80EF91E1E146F
:105270001F040CF0F3C0803891050CF0EFC09B01C7
:105280002E0F311D121613060CF0E8C060347105A4
:105290000CF0E4C04115510509F4E0C0362F377019
:1052A0003D83DB0177FD179623E0B595A7952A95F9
:1052B000E1F73A2F77FF05C06D81662311F03FEFCC
:1052C0003A0F97FF05C0AA27BB27A81BB90B02C03E
:1052D000A0E0B0E0F0E8EF16F10424F020E8D22ED0
:1052E000D81A01C0DB2CDA1A632F032E000C770BBF
:1052F0003F3F1CF4A62EA09401C0A12CF1E02E2F5C
:10530000277009F4F0E0E695E695E695FE0F6F0F3D
:10531000711D6930710514F0F8E0F31B7A2C730EDF
:10532000272D60E82603800D911D11244C018A0E63
:105330009B1E61E070E00D8002C0660F771F0A942B
:10534000E2F783E0C81611F0E1E001C0E2E02B2DA6
:105350002D192E9F202D1124EE2EF12CBA9CA00D7C
:10536000B11D1124AE9DC001AF9D900DBE9D900D4D
:1053700011245A01A80EB91E0115110509F0A80142
:10538000D70111978A0F9B1F480F591FAFEFA69F98
:10539000C001A79F900D11242C0140945094C4018A
:1053A000865E9D4FF30FFE8330E0ED9D200D311D95
:1053B0001124EE817E1609F451C0DC014A018501F9
:1053C000612CD61409F442C0F8013490369EF001E5
:1053D000379EF00D1124FA83E983E095F095FC8364
:1053E000EB83F2E0CF1203C05C824B8211C0EBEF83
:1053F000CE1203C01A8219820BC0F4013490369E7B
:10540000F001379EF00D1124E095F095FC83EB83BD
:1054100077FC06C0FB81EC91EF23F981EF2BEC9335
:10542000FD81FF2361F0E6E0E7154CF0FD01E05857
:10543000FF4F20803C8032202A80322830828E0C20
:105440009F1C0E0D1F1D63941196BBCF7394A20E6B
:10545000B31E420F531F80589F4FABCF26960FB6F7
:10546000F894DEBF0FBECDBFDF91CF911F910F919A
:10547000FF90EF90DF90CF90BF90AF909F908F9074
:105480007F906F905F904F903F902F900895CF92B4
:10549000EF920F931F933AEFC32EE12C00E010E040
:1054A0000E94D6281F910F91EF90CF900895CF9230
:1054B000EF920F931F933BEFC32EE12C00E010E01F
:1054C0000E94D6281F910F91EF90CF900895CF9210
:1054D000EF920F931F93F901202FCC24C3948F01D7
:1054E0000E94D6281F910F91EF90CF900895BC0194
:1054F00080E090E00C942B248FB18095807F669B98
:1055000088601C9B84600895FC01E40FF11DAF01CD
:105510001E161F06C4F580389105ACF597FF02C032
:1055200080E090E04138510514F040E850E0481B1D
:10553000FB0177FD379633E0F595E7953A95E1F76E
:10554000F695FE2FEE27F795E795E80FF91FE65E33
:10555000FD4F6770772781E090E001C0880F6A9562
:10556000EAF7382F222341F0213069F4415058F0F6
:105570008081832B8193FACF8095415020F09081D8
:1055800098239193FACF089580389105B8F4603448
:105590007105A0F490E121E061FD24E060FD220F9F
:1055A00062FD2295687F969FD0011124A80FA65E08
:1055B000BD4F8C91822B40FF82278C9308950F93CF
:1055C0001F93CF93DF93EC014CEE5CE061E170E060
:1055D0008FE290E00E94EB244EEC5CE06AE170E028
:1055E0008BE290E00E94EB244EEC5CE06AE170E01C
:1055F00089E490E00E94EB248C85811114C04EEC6C
:105600005CE06AE170E08AE390E00E94EB244EE700
:105610005CE06EE270E08AE190E0DF91CF911F9153
:105620000F910C94EB2440E65CE06AE170E08AE3C1
:1056300090E00E94EB244DE35CE06EE270E08CE2CF
:1056400090E00E94EB248C856FE00E946A34082F62
:105650000370CFE4D0E010E0011749F041E061E3CE
:1056600070E0CE010E94C42A1F5F2296F5CFDF9121
:10567000CF911F910F910895FF920F931F93CF9396
:10568000DF93EC01F62E08811981C8010E94BA331C
:10569000F81621F06F2DC8010E94C233CE01DF91B0
:1056A000CF911F910F91FF9008954F925F927F923B
:1056B0008F929F92AF92BF92CF92DF92EF92FF9222
:1056C0000F931F93CF93DF938C01A0E0462F50E000
:1056D0006A0131E0C31AD1088DE0B82E8A2F90E01C
:1056E0008C159D05CCF5B0E0EA01C81BD90B2E0145
:1056F00061E0461A51082B2F30E02415350554F58A
:105700007801E20EF31EE701A8808A2D6B2D0E941E
:105710006A34782E892E2F5F3F4FF801E20FF31F76
:105720009080892D0E946A34292F90E0DAE02D9F25
:10573000800D911D1124272D30E06AE0869E200DFA
:10574000311D11248217930718F4E7019882A08273
:10575000BF5FD1CFAF5FC2CFDF91CF911F910F91CC
:10576000FF90EF90DF90CF90BF90AF909F908F9081
:105770007F905F904F900895BF92CF92DF92EF920B
:10578000FF920F931F93CF93DF93C82FC62E842FC2
:105790006DE00E946A34B82E11E0190F211103C088
:1057A00026E0F22E02C094E0F92ED12CD0E0E12CBC
:1057B00002E028EC30E14BEF50E1B601CE010E944F
:1057C000672ACF0DD11DB601645F7F4F2B2D42EBB1
:1057D00050E1CE010E94572AE12FF0E0EE0FFF1FAB
:1057E000E355FE4F40815181B6016B5F7F4F81E0F1
:1057F00090E01A3011F480E090E020E08C0F9D1FC3
:10580000DF91CF911F910F91FF90EF90DF90CF909C
:10581000BF900C94572ACF92DF92EF920F931F9371
:10582000CF93DF936C01EB01142FE22E09A92FEF28
:1058300045E00E94A826E12E0E8D2FEF4AE1BE0121
:10584000C6010E94A8262396EE24E39407E025E0F3
:1058500040E050E061E070E0CE010E94FC2425E0D1
:1058600040E050E066E170E0CE010E94FC2420E0C0
:105870004CEE53E162E070E081E090E00E94572A34
:1058800021E04CEE53E162E070E086E190E0DF91D0
:10589000CF911F910F91EF90DF90CF900C94572AEA
:1058A0008F929F92AF92BF92CF92DF92EF92FF9230
:1058B0000F93CF93DF936C01DB011696ED90FC9074
:1058C0001797C22FD0E0A42EB12C4AEC52E1BE01B2
:1058D000C5010E94EB244501BDE08B0E911CC70160
:1058E0008F77992721E0843008F020E04EE952E1DB
:1058F000BE016F5E7F4FC4010E94472A21E0013044
:1059000009F020E0BE01695F7F4F4CE452E1C40121
:105910000E94472AF601828D6896F5013F968823FA
:1059200099F0D60159969C919D7F913069F4C701F9
:1059300064E270E00E9476346CE00E946A34282FA2
:10594000882319F02E5F01C0202F46E951E1BE01E6
:10595000CF01DF91CF910F91FF90EF90DF90CF902B
:10596000BF90AF909F908F900C94472ACF92DF9278
:10597000EF92FF920F931F93CF938C01FC0187A1AD
:10598000CBEF8C9FC02D11247801FFE1EF0EF11CAD
:10599000CA5CC12CD12CF70141917F014F3F69F0C6
:1059A000F80187A190E0019721E08C159D0509F48D
:1059B00020E06DE08C2F0E94BC2BFFEFCF1ADF0A96
:1059C000C65F88E0C816D10431F7CF911F910F91BF
:1059D000FF90EF90DF90CF90089520E0FC0140A56C
:1059E0006CE080E00E94BC2B20E049E850E160E1DF
:1059F00070E085E090E00C94472AEF920F93FC0151
:105A00009685990F292F220F220F920F945F96955A
:105A100024E3291BFAE06F9FC0011124820F911D1E
:105A2000E12C00E02BE430E149E650E163E370E073
:105A300001960E94672A0F91EF900895EF92FF92CE
:105A40000F931F93CF93DF93FC01E759FF4F208102
:105A5000FC01211103C0E784C5E202C0E2A0C0E05E
:105A6000662319F0613081F02DC06C2F70E020E0CA
:105A700042E250E180E090E0DF91CF911F910F91E1
:105A8000FF90EF900C94472AEE20E1F0D0E020E068
:105A900049EF5FE0BE0180E090E00E94472A04E009
:105AA00010E0FF24F394FE1469F0BE01600F711F33
:105AB00020E041EE5FE0C8010E94472AF3940E5FA8
:105AC0001F4FF1CFDF91CF911F910F91FF90EF907A
:105AD0000895FF920F931F93CF93DF93EC01F42E61
