:100000000C9409080C9431080C9431080C943108B4
:100010000C9431080C9431080C9431080C9431087C
:100020000C9431080C9431080C94921E0C94041F0B
:100030000C9431080C9431080C9431080C9431085C
:100040000C9431080C9431080C9431080C9431084C
:100050000C9431080C9431080C9431080C948725C9
:100060000C9431080C9431080C9431080C9431082C
:100070000C9431080C9431080C9431080C9431081C
:100080000C9431080C9431080C9431080C9431080C
:100090000C9431080C9431080C9431080C943108FC
:1000A0000C9431080C9431080C9431086D08E70861
:1000B000390A9B0A320B7C0B400B900D051169111C
:1000C000691169111A1148114E1148114E11481148
:1000D0004E1148114E11CB15C515D115D515ED157D
:1000E000ED15ED15FC15031644164416441620595B
:1000F0006F75722063726962400020204D79206321
:10010000726962400020596F75722068616E6440A8
:100110000020204D792068616E64400020596F7581
:10012000722068616E644000204D792068616E64C1
:1001300040002020476F2120200020476F20666F5D
:100140007220312E20002020476F212020002047E0
:100150006F20666F7220312E20004D7920747572E9
:100160006E20746F2073746172744000596F7572E1
:10017000207475726E20746F207374617274400005
:1001800054776F20666F7220686973206865656CAC
:1001900073210054776F20666F722068697320683E
:1001A00065656C732100202020492077696C6C20E4
:1001B0007468726F770A74686573652074776F204E
:1001C00063617264732E0003081F051F1F151B1F38
:1001D00011111F110E1F15111F05011F111D1F04E5
:1001E0001F001F0010101F1F041B1F10101F061FD1
:1001F0001F011F1F111F1F05071F311F1F051B1781
:10020000151D011F011F101F0F100F1F0C1F1B04B6
:100210001B071C071915130C121E1F120C1E12129D
:100220000C121F0C1A14041F052E2A1E1F021C007C
:100230001D00201D001F041A011F001E041E1E02A7
:100240001E1E121E3E120C0C123E1E020614120A34
:10025000020F121E101E0E100E1E081E1A041A2E59
:10026000281E1A12161F111F121F101D1517111507
:100270001F07041F17151D1F151D01011F1F151F27
:1002800017151F001700001000040404040E0402D8
:1002900029060A00001000101610FF00FF55AA558D
:1002A000AA55AA55AA55AA55AA55AA55AAFF00FFAC
:1002B0001F205FB5AAB5AAB5AAB5AAB5AAB5AAB5B1
:1002C000AAB5BA5F201F0E10000000FFAA55AA555C
:1002D000AA55AAFF00FF0008A0BFAAB5AAB5AAB5F3
:1002E000BA5F201F0E15F804FAFDFDFDFDFDFDFDB2
:1002F000FD050000FF00FFFFFFFFFFFFFFFFFF0006
:1003000000001F001F1F1F1F1F1F1F1F1F000000B7
:100310001615F804FAFDFDFDFDFDFDFDFDFDFDFDDD
:10032000FDFDFDFDFDFA04F8FF00FFFFFFFFFFFFED
:10033000FFFFFFFFFFFFFFFFFFFFFFFF00FF1F00AB
:100340001F1F1F1F1F1F1F1F1F1F1F1F1F1F1F1FBD
:100350001F1F001F546F74616C3A000704010307EC
:100360000F070301010204080402010704080C0E30
:100370000F0E0C08080402010204084E6F7468692D
:100380006E672021004D7920437269624000596FE9
:100390007572204372696240004D792048616E6435
:1003A0004000596F75722048616E644000596F7546
:1003B000722048616E6440004D792048616E64404F
:1003C000004B3800FF0101050101FF005155515557
:1003D00051555155515551555155515551555155ED
:1003E00051555155515551555155515551555155DD
:1003F00051555155515551555155515551555155CD
:100400005155515551A1A1428224081020C00077B6
:10041000747475B45427301C1D1C5D1C5D1C5D1C60
:100420005D1C5D1C5D1C5D1C5D1C5D1C5D1C5D1C04
:100430005D1C5D1C5D1C5D1C5D1C5D1C5D1C5D1CF4
:100440005D1C5D1C5D1C5D1C5D1C5D1C5D1C490014
:10045000AA807F807F000800FF0000FC028100F27C
:1004600008F40AA90595C5D5C5D5C5D5C5D5C5D541
:10047000C5D5C5D5C5D5C5D5C5D5C5D5C5D5C5D5AC
:10048000C5D5C5D5C5D5C5D5C5D5C5D5C5D5C5D59C
:10049000C5D5C5D5C5D5C5D5C5D5C5C4C2E1E0F25C
:1004A000783C1E0700007FE0C080270817282A50EC
:1004B000545155515551555155515551555155510D
:1004C00055515551555155515551555155515551FC
:1004D00055515551555155515551555155515551EC
:1004E000555155515551A1A1438224081020C000F7
:1004F00000808183476F1E5E1C5C1C5D1C5D1C5D63
:100500001C5D1C5D1C5D1C5D1C5D1C5D1C5D1C5D23
:100510001C5D1C5D1C5D1C5D1C5D1C5D1C5D1C5D13
:100520001C5D1C5D1C5D1C5D1C5D1C5D1C5D1C4917
:1005300000AA807F807F000800FF1837686A68F78C
:10054000E0C5D5C5D5C5D5C5D5C5D5C5D5C5D5C5D0
:10055000D5C5D5C5D5C5D5C5D5C5D5C5D5C5D5C5CB
:10056000D5C5D5C5D5C5D5C5D5C5D5C5D5C5D5C5BB
:10057000D5C5D5C5D5C5D5C5D545D5C5C4C2E1E018
:10058000F2783C1E0700000000000001010101019B
:10059000010101010101010101010101010101014B
:1005A000010101010101010101010101010101013B
:1005B000010101010101010101010101010101012B
:1005C0000101010101010101010100000000000021
:1005D0000340FFFF55FFFF55FFFF55FFFF55FFFF8E
:1005E00055FFFF55FFFF55CF3F553030000000004D
:1005F000000000C0201008040282C28282020202AF
:100600000A0A0A0A0A0A0A0A0A0A0A0A0A0A12A4A8
:10061000081020C0000000000000000000000000E2
:10062000000000FF00800000FEFFFFFF7B3F3F3B1C
:100630003B7BFBFBFB7B3B3B3F3F7FFBFEFC003FF1
:10064000800000FF0000000000000000000000002B
:1006500000FE0101F95A81FCFDA1ADEDE9E5E1E102
:10066000E529E1F7E1E9E5E1E1E5E9EDADA1FCFD31
:100670008259F80101FE00000000000000000000A7
:1006800000010202050990A7DF3F7FFFFFFFFFB7D0
:10069000D3535252525353D3B7FFFFFF7F3FDFA7CD
:1006A0009089050404030000000000000000C02041
:1006B000D0E8F4FA79B95204022C5ABC79F979B924
:1006C0001943B37272B34319B979F979BC5A2C4AF8
:1006D000A47AF1FAF4E8D020C0000000000300037F
:1006E00003030102010000000000000001020100FC
:1006F00000000003030000000001020100000000F0
:10070000000102010303030300030000D5F08D1470
:10071000A1C881CFD9F1AF2000080B00020202016D
:100720000009040000010202000005240010010578
:1007300024010101042402060524060001070581A5
:100740000310004009040100020A0000000705022E
:100750000240000007058302400000040309041260
:10076000010002EF02014041233680000101020333
:100770000141726475696E6F204C4C430041726494
:1007800075696E6F204C656F6E6172646F00350520
:100790003B053D053F054105430545054705490521
:1007A0004B054D054F055105530555055705590591
:1007B0005B055D055F056105630565056705690501
:1007C0006B056D056F0571057788798E77947117C4
:1007D0006F176D176B176917671765176317611721
:1007E0005F175D175B175917571755175317511791
:1007F0004F174D174B174917471745174317411701
:100800003F173D173B183B1A3B1C3D1D3F1D411D2B
:10081000431D451D471D491D4B1D4D1D4F1D511DA0
:10082000531D551D571D591D5B1D5D1D5F1D611D10
:10083000631D651D671D691D6B1D6D1D6F1D711D80
:1008400077A079A677AC712F6F2F6D2F6B2F692F43
:10085000672F652F632F612F5F2F5D2F5B2F592F20
:10086000572F552F532F512F4F2F4D2F4B2F492F90
:10087000472F452F432F412F3F2F3D2F3B2F392F00
:1008800034AC020207020200020702000503000264
:100890000502000002070200350B3B0B3D0B3F0B2E
:1008A000410B430B450B470B490B4B0B4D0B4F0BB0
:1008B000510B530B550B570B590B5B0B5D0B5F0B20
:1008C000610B630B650B670B690B6B0B6D0B6F0B90
:1008D000710B738C738E739071116F116D116B119D
:1008E000691167116511631161115F115D115B1170
:1008F000591157115511531151114F114D114B11E0
:10090000491147114511431141113F113D11371450
:10091000351A37203D233F234123432345234723D3
:1009200049234B234D234F2351235323552357232F
:1009300059235B235D235F2361236323652367239F
:1009400069236B236D236F23712373A473A673A88C
:1009500071296F296D296B296929672965296329FF
:1009600061295F295D295B2959295729552953296F
:1009700051294F294D294B294929472945294329DF
:1009800041293F293D293B29392934ACFFFFFFFF8D
:10099000FFFFFFFFFFFFFFFFFFFFFFFFFFFFFFFF67
:1009A000FFFFFF7F3F1F010103070F0F0F0F0F1FF7
:1009B0003F7FFFFF7F3D19010101010100000000A1
:1009C0001A10BFBFBF1FEFEFEFEFEF1FBFBFBFBFDB
:1009D000BFBFBFBFBFBFBFBF5F201F00000001027E
:1009E00005050505050219245A5A241800000000BF
:1009F0000000000000000F1F3F7FFFFFFFFF0808FF
:100A0000000F102F5F5F5F5FFFFFFFFF7F3F1F0F34
:100A100008085F5F5F5F2F100F001F3F7FFFFFFF22
:100A2000FFFFFFFFFFFFFFFFFFFFFFFFFFFFFFFFD6
:100A3000FFFFFFFF000000000101010101193D7FE0
:100A4000FFFF7F3F1F0F0F0F0F0F070301011A104A
:100A5000001F205FBFBFBFBFBFBFBFBFBFBFBFBF04
:100A60001FEFEFEFEFEF1FBFBFBF00000000000060
:100A70000000000018245A5A24190205050505052E
:100A800002010000FFFFFFFFFEFCF8F00808FAFA81
:100A9000FAFAF408F000F0F8FCFEFFFFFFFF080888
:100AA00000F008F4FAFAFAFA21080F0F0808000615
:100AB000090B06000E03030E000F090F06000F0FAF
:100AC000000F02030F000E0F090D000E10BEBDBE79
:100AD000BDBEBDBEBDBEBDBEBDBE000004000400A7
:100AE0000400040004000400004E080F0D0702007B
:100AF0000F050F0A000F0D0900020B0D00020B0D70
:100B000000000000000F0D0702000F0F0808000E84
:100B100003030E00030E0E0300000006090B06007F
:100B20000F02030F00000000010F0F010E03030E60
:100B3000000F0D0702000F0D090E10A7C7A7C7A7CA
:100B4000C7A7C7A7C7A7C7A70007070707070707BC
:100B50000707070707070024080E1F1F1F0E0000C6
:100B60000000000000000000001F0E040000000054
:100B70000000000000040E1F00040E1F001C14FDE6
:100B80001D1D5D9ABABAFAF4F4F474A8A84850503E
:100B9000505040404040C0E018E4FA1B3377F7F073
:100BA000F8FFFFFF07F807F8FE06FF07F707FFFF4C
:100BB000FFFF0FF1FE7F3F080C0E0F0F0F0F0F0FFF
:100BC000000F000F0F0E0702060E0F0F07080F0F82
:100BD0000F0E0C721900C0F0F81C0C040682C2C281
:100BE000C2060CFCF8F8F8780000000000808000D5
:100BF00000808080000000AAABABABABAA00000471
:100C0000FCFEFEFE0000808080800000000004FCEE
:100C1000FEFEFE00008080808000000000000000DA
:100C200080808080808000000000000000000000C4
:100C300080808080800080800000000000808080B4
:100C4000808080000000003EFFFFFFF0C0800001B8
:100C500007050C0C0E0F07030300800001FFFFFFC8
:100C6000FF0E07070707070000001FFFFF1F000018
:100C70000000FFFFFFFF0301010103FFFFFFFC0076
:100C800000FFFFFFFF0301010103FFFFFFFC0080E6
:100C9000C6E3F131190F3FFFFFFE80000000F0FCBA
:100CA000FEFF03000000FFFFFFFF0000F8FEFFE172
:100CB000202020233F3F3E380000000307070F0F8E
:100CC0001F1E1E1C1C1C1C0C0C0E06030100101FFA
:100CD0001F1F1F100000000000000000001F1F0069
:100CE000000000100F0F0F1F181010181E0F070321
:100CF0000000100F0F0F1F181010181E0F07030011
:100D000000070F1F1F181010101F1F1F1F100000BB
:100D100081C78F9F1E1C1C0E9FFFFFFF70000103E9
:100D2000070F0F1E1E1C1C1C0C04000000000000FE
:100D300000000000000000000000000000000000B3
:100D400000000000000000000000000000000000A3
:100D50000000000000000000000000000000000093
:100D60000000000000000000000000000000000083
:100D70000000000000000000000000000000000073
:100D8000000000000101010101010101000000005B
:100D9000000000000000000000000000003510BF4F
:100DA0007FE0840A44A04F1024AA242049554941D9
:100DB0004955494149554941495549414955494193
:100DC0004955494149554941495549414955494183
:100DD00049554941000102050B0A162C2C595A5954
:100DE00058B2B5B2B0B2B5B2B0B2B5B2B0B2B5B237
:100DF000B0B2B5B2B0B2B5B2B0B2B5B2B0B2B5B2CF
:100E0000B0B2B5B2B0B2B5B2B003051F041B030552
:100E10000F190F030508100F05051F001F111F03F1
:100E20000507051F03051F151F0305190503030506
:100E30001F151D030517151D030507041F030511C5
:100E4000151F03051D151703051F051F0B0F0000B8
:100E50000000000000000000FF40404040404040D3
:100E60004040201F0D11FC0251A955A955A955A9B3
:100E70005102FC7F80152A552A552A552A15807F54
:100E8000000001010101010101010100000D11A893
:100E90000200010001000100010002A82A800000F8
:100EA00000000000000000802A0000000100010096
:100EB0000100010000000080F8FCFEFFFEFCF8F8D5
:100EC000F8F8F0E0C0070F1F3F7FFFFFFFFFFF7F35
:100ED0003F1F0F070F100000807804FA04D810D0CD
:100EE00010D020C000000708172C5F5F5B5F5B2FEE
:100EF000170807000D1400000000000000000000AB
:100F00000000FF000000000000000000000000FFE3
:100F10000808080808080808080804020105060E61
:100F20001F3E1F0E0C1E3F1E0C0C2E3F2E0C0C2FB6
:100F3000372F0CFCFEFFFFFFFFFFFFFFFFFFFFFF50
:100F4000FFFFFEFCFFFFFFFFFFFFFFFFFFFFFFFFB5
:100F5000FFFFFFFFFF1F3F7F7F7F7F7F7F7F7F7FC1
:100F60007F7F7F7F3F1F11170050040002000200A7
:100F700002000200020004500000550000000000C2
:100F800000000000000000005500000510002000D7
:100F9000200020002000200010050000F80452AAC4
:100FA00052AA52AA52AA52AA5204F80000FF0055AF
:100FB000AA55AA55AA55AA55AA5500FF00000F1018
:100FC000252A252A252A252A252A25100F0000F85A
:100FD00004F2FAFAFAFAFAFAFAFAFAF204F8000063
:100FE000FF00FFFFFFFFFFFFFFFFFFFFFF00FF000E
:100FF000000F10272F2F2F2F2F2F2F2F2F27100FBE
:101000000005030002050200000207020000312E65
:10101000952B11241FBECFEFDAE0DEBFCDBF12E06B
:10102000A0E0B1E0E8E1F5E602C005900D92A8313C
:10103000B107D9F727E0A8E1B2E001C01D92A33AB9
:10104000B207E1F718E0C8E0D8E004C02197FE013C
:101050000E947630C730D107C9F70E94992B0C94B3
:101060007F320C9400002F923F924F925F926F92CA
:101070007F928F929F92AF92BF92CF92DF92EF9228
:10108000FF920F931F93CF93DF93CDB7DEB72A97CD
:101090000FB6F894DEBF0FBECDBF8C017B014B01B4
:1010A0002EE0820E911C6B0131E2C30ED11CDB01DC
:1010B0001996BC901997B09418968C91B822F801A3
:1010C0002485822F90E08C30910510F00C947D12D5
:1010D000FC01EA5AFF4F0C947630DB0116968D9195
:1010E0009C9117978F709927892BB9F51E968C9133
:1010F000811133C0C4010E942414C6010E9424142B
:10110000D8011E961C921E9759961C9259975A9672
:101110001C925A975B961C925B975C961C925C970C
:1011200095961C9295978FEF96968C93969781E063
:1011300097968C93F8017D9698012B5D3F4F8FEF2A
:1011400081932E173F07E1F7F701E759FF4F81E041
:101150009081913009F480E08083F70166856630E4
:10116000A0F5868197818F709927892B11F00C94B7
:101170007D1284A991E0980F94ABE60FF11DD70181
:10118000A80FB11DD5968C91808B6F5FD7011E96ED
:101190006C93C70140960E945028F70184A991E002
:1011A000980F94AB61A1E60FF11DD701A80FB11DF7
:1011B000D5968C9183A36F5FD70191966C93C701ED
:1011C00083960E9450280C94FC1081E0A6C4DB0199
:1011D0001E968C91853008F43EC0B5FE06C0F8011D
:1011E000818D882311F08150818FB6FE0EC0D80109
:1011F00059962C91422F50E0F701868590E0019797
:101200004817590714F40C948A12B3FC02C00C94CA
:101210007D1281E0D8011E968C931E9759966C9191
:10122000C4010E949E14682FF701E759FF4F808187
:10123000811102C0C40101C0C6010E94BF14F8019F
:10124000818DD7011E969C9189130C947D1281503B
:10125000818F0C947D128FEFF801838F848F86E04D
:10126000E6E1F1E0DE01119601900D928A95E1F739
:101270002B01F3E24F0E511CAB01475D5F4F9E0106
:101280002F5F3F4FD2018DE0D82ECC24C3948D9197
:101290006D2D0E946A30943011F4F901C0822F5FE5
:1012A0003F4FA417B50799F7AE014A5F5F4FFE01A4
:1012B00031969201ADE0CA2EB2E0AB2ED9019D90DD
:1012C0009D018C916C2D0E946A30DD24D394D90E3F
:1012D000892D0E946A309F5FD91208C080818F3F9C
:1012E00009F4A08281818F3F09F4A1823196E4172D
:1012F000F50721F79E012F5F3F4F6901A12C7DE08B
:10130000972EE3E08E2EA394D2018D912D01692DAD
:101310000E946A309F5F292F30E02F5F3F4F7A2C69
:10132000472D50E0F701E40FF51F83A1692D0E94BE
:101330006A309F5F892F90E02817390779F4F6010A
:1013400080818F3F09F48082E1E0F0E0EC0FFD1F27
:10135000E40FF51F80818F3F09F480827394F6E0DB
:101360007F12DECFBFEFCB1ADB0AE5E0AE12CBCFA8
:101370009E01295F3F4FD701FE0131964DE058E0B5
:1013800066E0D62E80818F3FB9F493968C91939727
:10139000642F0E946A3081E0890F893038F48730E9
:1013A00050F4943048F49B5F908306C09950943079
:1013B00018F4508301C0D082319611962E173F0742
:1013C00009F78FEF97012B5F3F4FF701AE014F5F9A
:1013D0005F4FDA019D91AD01981315C0D8015B965E
:1013E0009C915B979F3F21F493A15B969C930BC0CC
:1013F000981749F0D8015C969C915C979F3F19F42F
:1014000093A15C969C933196E217F30711F78150F4
:10141000E1F6F801838D8F3F59F40E94532F26E0A7
:1014200030E040E050E00E94D02FD8015B966C93F2
:10143000F801848D8F3FB1F456E0C52ED12CE12CFC
:10144000F12CD8015B969C915B975C968C919817D8
:1014500049F00E94532FA70196010E94D02FF80156
:10146000648FEFCF82E0D8011C968C931C970C946C
:101470007B12F801828D8F5F828F8E3201F160F0D6
:101480008D33E9F18A3611F00C947D1283E0F80176
:101490008487128E0C947D12B3FE02C08DE2828F7F
:1014A00066EA71E0CE0101960E941F1E21E042E033
:1014B000BE016F5F7F4FC8010E94732A93C0F8017D
:1014C000838DFB01B39660E09191891721F06F5FE6
:1014D0006630D1F76FEFC6010E949E14F701E759FD
:1014E000FF4F8081811104C0D8015B966C911DC0B3
:1014F000F801638DC6010E94BF140C947D12848D87
:10150000FB01B39660E09191891721F06F5F66301F
:10151000D1F76FEFC6010E949E14F701E759FF4F04
:101520008081811104C0F801648DC401E4CFD80129
:101530005C966C91DFCFD8015A968C915A978F5F49
:101540005A968C938934B0F48B3108F05CC08A31A0
:1015500070F58031C8F48F3009F0CFC7FB0184A942
:1015600091E0980F94ABE80FF11D85A9D8019696EC
:101570008C93C3C78E3408F4C0C78E3708F448C0B4
:101580008E3709F462C0B9C761E0C4010E948D13AF
:1015900062E0C6010E948D13F80186A16DE00E94F1
:1015A0006A309A3009F4A9C78DE4828FA6C7FB017F
:1015B000E759FF4F808181111AC0DB015E968C9143
:1015C0005E978E5F5E968C9363E971E0CE01019623
:1015D0000E941F1E20E04EE4BE016F5F7F4FC801D6
:1015E0000E940B1CCE0101960E94DB1C86C7FB01EA
:1015F00081A98E5F81AB60E871E0CE0101960E9407
:101600001F1E21E0E8CF81E0D80158968C9375C762
:10161000B3FE03C08EE7F801828FF701E759FF4F51
:101620008081813049F46CE671E0CE0101960E9420
:101630001F1E21E041E5D0CF6AE571E0CE010196A1
:101640000E941F1E21E047E4C7CFD8015A961C9282
:101650005A97FB01E759FF4F8081813009F04AC05A
:1016600084E045C0B801635E7F4FC4010E942F1C17
:10167000811147C281E0D70190968C9386E04DC2DC
:10168000F801828D8F5F828F853330F4873008F0C8
:1016900064C5863021F031C78533F9F02EC7DB01F0
:1016A000D3968C91D397882379F05E968C915E9730
:1016B0008F5F5E968C936EE471E0CE0101960E947E
:1016C0001F1E20E04DE288CF66E471E0CE01019656
:1016D0000E941F1E20E042E27FCF128EFB0183A9F1
:1016E000882341F0C8010E941F1C87E0D8011C9686
:1016F0008C9303C787E011C2D8015A968C918E3221
:1017000018F4813028F0D0C18E3209F4D2C1F5C668
:10171000B5FE06C0F801818D882311F08150818FBC
:10172000B6FE0DC0D80159962C91422F50E0F7011A
:10173000868590E00197481759070CF4F0C6B3FE70
:10174000DCC6C8010E945F1C282FD80159964C9115
:10175000F701E40FF11D80896DE00E946A3031E0ED
:10176000390F3B3008F03AE0822F90E0830F911D53
:1017700080970CF0C2C6642FC4010E949E14F80129
:10178000C5A0EC0DF11D858FC394D8019596CC9220
:10179000959759968C915997F7019685891303C0AF
:1017A000815059968C93C8010E945F1CA82EF701A6
:1017B000A3A9F1E0FC1508F0B7C6F801EC0DF11D86
:1017C000838D3DE0632F0E946A3021E0290F848DD4
:1017D0000E946A3031E0390F321303C042E0D42E48
:1017E00001C0D12C62E0C616E1F0828D6DE00E944E
:1017F0006A3041E0490F241304C0321302C074E080
:10180000D70E83E0C81669F0818D6DE00E946A30C2
:101810009F5F491306C0241304C0321302C096E030
:10182000D90E8A2D8F7E8F3011F4D394D394B2E0E9
:10183000BC1508F013C1F801EC0DF11D828D3DE0DF
:10184000632F0E946A30B1E0B90F838D0E946A3025
:1018500077247394790E848D0E946A3021E0290FD9
:101860007B1601F12B17F1F02715E1F0B71518F4ED
:10187000872D8B1B02C08B2F8719833098F4B217EA
:1018800018F4822F8B1B02C08B2F821B833050F4E5
:10189000721618F4822F871902C0872D821B83309D
:1018A00008F444C650E033E0C31609F4D7C0818D74
:1018B0006DE00E946A3031E0390FB31709F442C07D
:1018C000731609F43FC02317E9F17B16D9F12B17E2
:1018D000C9F12715B9F13B1718F48B2F831B02C0F0
:1018E000832F8B1B843070F5371518F4872D831BDD
:1018F00002C0832F8719843028F5321718F4822FFD
:10190000831B02C0832F821B8430E0F4B71518F4C8
:10191000872D8B1B02C08B2F8719843098F4B21748
:1019200018F4822F8B1B02C08B2F821B843050F443
:10193000721618F4822F871902C0872D821B8430FB
:1019400008F4F8C540E064E0C61609F487C0808D4D
:101950006DE00E946A3081E0890F381709F47EC07B
:10196000B81709F47BC0781609F478C0281709F471
:1019700075C0B31709F472C0731609F46FC023174A
:1019800009F46CC07B1609F469C02B1709F466C012
:10199000271509F463C0831718F4932F981B02C00E
:1019A000982F931B953008F059C08B1718F49B2F74
:1019B000981B02C0982F9B1B953008F04FC08715CD
:1019C00018F4972D981B02C0982F9719953008F09E
:1019D00045C0821720F4722F781B872F01C0821B0D
:1019E0008530E0F53B1718F48B2F831B02C0832F43
:1019F0008B1B853098F5371518F4872D831B02C093
:101A0000832F8719853050F5321720F4822F831BDE
:101A1000382F01C0321B353008F5B71518F4872D63
:101A20008B1B02C08B2F87198530C0F4B21720F4AE
:101A3000922F9B1BB92F01C0B21BB53078F47216E0
:101A400010F4271902C0721A272D253038F45523B7
:101A500009F47CC5442309F476C5D394EFE1AE16AE
:101A600089F0AA2379F0D7011E968C91882309F476
:101A700072C5B801635E7F4FC4010E942F1C88238A
:101A800009F469C5F701868D8D0D868F20E04D2DF7
:101A90006A2DC8010E94AA2AD8015A968C915A9799
:101AA0008F5F5A968C9329C58F5FF801828F81E0F2
:101AB00056C3C8010E945F1CD8015A961C925A97BF
:101AC0008F3191F4F70181A1882321F087E01C96E2
:101AD0008C9303C08685882329F0B701C8010E9432
:101AE0001F1C0BC588E019C097E0D92ED8011C96A1
:101AF000DC92F70180A1811100C583A9811103C087
:101B0000FCC485E0F3CDB801635E7F4FC4010E9441
:101B10002F1C882309F421C585E0F8018487EDC4D2
:101B2000D8015A968C915A978F5F5A968C938D3321
:101B300030F4813108F00BC3803129F0DEC48D33DD
:101B400009F40FC3DAC4FB018685823028F090A126
:101B500081E09827998701C019864801FDE18F0E21
:101B6000911C86E0E6E1F1E09E012F5F3F4F3901D5
:101B7000D90101900D928A95E1F7F401A8014B5D1E
:101B80005F4F30E0A12C2DE081918F3F49F0A3946D
:101B9000622F0E946A309F5F9B3008F09AE0390FF5
:101BA000E417F50789F7D70191962C91A7014D5DB0
:101BB0005F4FB2E0BA1508F044C024014A0C511C32
:101BC000D20112978C91ADE06A2F0E946A30B1E089
:101BD000B90FC2010397FC0180810E946A309F5FA8
:101BE000B91332C0329680810E946A30A1E0A90FF9
:101BF000AB132AC08A2FAB3008F08AE0582E530E60
:101C0000FFE1F51508F1FA01B0E08DE0482E2B1741
:101C1000D9F08191642D0E946A309F5FA9130FC093
:101C20006B2FC6010E949E14282F3FE0531629F007
:101C30006FE18CE05612FDC0F9C08EE0FAC0BF5FC4
:101C4000E6CF72E0A712F7C0F401EA0DF11DDF0143
:101C500012978C91ADE05A2E652D0E946A30442473
:101C60004394490ECF010197DC018C910E946A30A8
:101C700055245394590E541026C0852DBAE0B5153D
:101C800008F48AE0382E330E6FE16315E0F0DA01D4
:101C9000212C2215C1F08D916DE00E946A309F5F6A
:101CA00059120FC0622DC6010E949E14282F7FE09A
:101CB000371629F08FE196E03812F6C0F2C098E0AE
:101CC000F3C02394E6CF92E09A1508F06DC03397E5
:101CD00080816DE00E946A30A1E0A90FA41518F47C
:101CE000342C3A1A02C03A2E3418A51518F4252CB3
:101CF0002A1A02C02A2E2518451420F4B52DB4192D
:101D0000BA8703C0E42DE519EA87FA01B0E02B1782
:101D100009F44DC081916DE00E946A309F5F892F68
:101D20009B3008F08AE0830F8F83803208F022C452
:101D30004A1609F41FC45A1609F41CC4A91709F459
:101D400019C4541409F416C4491609F413C45916D5
:101D500009F410C463E0631508F40CC4621508F4B8
:101D600009C4A91718F4892F8A1B02C08A2F891B5E
:101D7000843008F0FFC37A85743008F0FBC349163D
:101D800018F4892F841902C0842D891B843008F02F
:101D9000F1C3591610F4951903C0852D891B982F8E
:101DA000943008F0E7C336C0A2E0AA1244C045143C
:101DB00018F4B52DB41902C0B42DB519FA01A0E07C
:101DC0007DE0272E2A17B9F18191622D0E946A3099
:101DD0009F5F892F9B3008F08AE0382E330E6FE129
:101DE000631508F4DAC3541409F4D7C3491609F487
:101DF000D4C3591609F4D1C3B33008F0CEC3491681
:101E000010F4941903C0742D791B972F933008F0A8
:101E1000C4C3B2C36B2FC6010E949E14282F6F81CA
:101E20006F3031F09F8184E09F3119F492E03DC022
:101E300086E090E03AC09985911102C0A11005C0DA
:101E40002A01FA01A0E0BDE036C0F401EA0DF11D5F
:101E5000319780816DE00E946A30B1E0B90FFA01DC
:101E6000A0E06DE0462E2A1759F38191642D0E945F
:101E70006A309F5F892F9B3008F08AE0582E530EFE
:101E80006FE16515A8F0B91313C06A2FC6010E944F
:101E90009E14282F7FE0571631F08FE192E0581200
:101EA00003C082E002C094E080E0A92EA80EFCC02E
:101EB000AF5FD9CFAF5F2A17A1F081916B2F0E943E
:101EC0006A309F5F9B3008F09AE0930F9F7E9F30AF
:101ED00089F76A2FC6010E949E14282F32E0A32E94
:101EE000E3C0DA01312CE32FF0E0F887EF8323150C
:101EF00009F18D916DE00E946A309F5F9B3008F080
:101F00009AE0EF81F885E90FF11D3B9789F4F7011D
:101F1000212C231449F083A16DE00E946A309F5F59
:101F20009A3010F0632D17C0239431962211F1CF0F
:101F30003394DDCFD8015D968C918F3FA1F4FA01E7
:101F4000A0E0BDE02A1779F081916B2F0E946A30E2
:101F5000933039F46A2FC6010E949E14282FA12CB9
:101F6000A3C0AF5FEFCF2A2C312CB1E02B1A310880
:101F7000280C391CF10180816DE00E946A309F5F5E
:101F80009F83FA0150E040E0BDE0251759F08191B0
:101F90006B2F0E946A309F5FAF81A91301C04F5F12
:101FA0005F5FF3CF413099F4F301432F50E00BC052
:101FB000D2018D912D016DE00E946A309F5FBF813B
:101FC000B91761F031968E2F8619821788F3F301C5
:101FD000D7019DE0592E432F50E011C08B2FBB300D
:101FE00008F08AE0BA01680F711D603271050CF4C7
:101FF000D6C2E8CF80818F3F39F0119631968E2F6F
:1020000086198217B8F313C093968C919397652D18
:102010000E946A3081E0890F8B3008F08AE0BA01B3
:10202000680F711D603271050CF4BCC2E6CF5524F7
:102030005A948DE0482E432F50E0D301F70130E051
:10204000231799F08D915812B0C283A1642D0E947C
:102050006A309F5F9B3008F09AE0BA01690F711DEA
:10206000603271050CF0A1C207C05A945110E5CF3F
:1020700081E0F70183AB4FC0632FC6010E949E141D
:10208000282FAA2009F494C2D1018C914DE0642F2D
:102090000E946A3031E0390F822F0E946A309F5FC0
:1020A00081E0391385C2A82E2F3FA9F1D80195965A
:1020B0008C91F801E80FF11D258F8F5FF80185A342
:1020C000C8010E945F1C782EFFE18F17B1F0D70185
:1020D0001E968C911E97882321F090968C918823D0
:1020E00061F0F70181A1882309F464C2B401C6013B
:1020F0000E942F1C882309F45DC2D701D1968C91D0
:10210000D1978A0DD1968C9321E04A2D672DC80175
:102110000E94AA2AF2C1F70180A1882359F081A95F
:102120008F5F81AB6AE371E0C3010E941F1E21E053
:102130004DE207C062E371E0C3010E941F1E21E06F
:1021400042E2B301C8010E940B1CC3014DCAB3FE99
:1021500004C08CE3D8015A968C9381E0F801808FFB
:10216000CCC1D8015A961C92C8010E945F1CF7018D
:1021700096858F3169F4992311F084E005C0F70149
:1021800081A1882351F087E0D8011C968C9311C05F
:10219000911107C081A1811111C088E0F8018487E5
:1021A0002BC084E0F8018487D70190968C91882316
:1021B00019F1B701C8010E941F1C1EC084E0F8017C
:1021C0008487D70190968C919097811104C01E96B8
:1021D0009C91911111C0F70193A99111E8CFB80119
:1021E000635E7F4FC6010E942F1C882309F4E4C15F
:1021F00087E0D8011C968C9361E0C4010E948D1386
:1022000062E0C6010E948D1378C1FB01868197812F
:102210008F709927892B09F046C0D8015A968C9166
:10222000482F50E049305105F0F5FA01EE59FF4FC3
:102230000C947630FB01878DD80198969C919897E5
:10224000981710F498968C93F70182A9D801999663
:102250009C919997981710F499968C93F80190A5F2
:10226000D7015E962C915E9781A5921728F0D196A2
:102270009C91891720F0A9C19F5FF80190A7D70111
:10228000D1969C91891778F48F5FF80181A70BC0D4
:10229000D80197961C9297978F5F99C191E0F801AA
:1022A00097A38F5F828FB3FE28C189E0D8011C9667
:1022B0008C931C975A961C925A9781E097968C9310
:1022C00097979A961C92F701868D878F81A982AB8A
:1022D00014C1D8015A968C918E36D8F48F3508F0F7
:1022E000DEC0823309F468C050F4813308F05AC06C
:1022F00091E0980F8630E8F4F801928FD4C08035D1
:1023000008F0C4C0813408F0CAC0833309F48AC01D
:10231000CAC08B3938F48C3808F0B8C08D3708F053
:10232000BEC0B4C08A3A08F4BAC0893B08F0BBC04A
:10233000ADC0D8015A969C93FB01E759FF4F8081AD
:102340002A30D1F02B3001F1811103C068E271E035
:1023500002C06CE171E0CE0101960E941F1E20E0D8
:1023600044E3BE016F5F7F4FC8010E940B1CCE018A
:1023700001960E94DB1C97C0813019F461E171E085
:1023800007C065E071E0E7CF813049F46AEF70E0A3
:10239000CE0101960E941F1E20E042E3E2CF6EEEC6
:1023A00070E0D9CF82E3F801828FC8010E94C01B80
:1023B000D8019B968C9377C0FB01E559FF4F9B0199
:1023C00021543F4F80E090819F3F09F08F5F379607
:1023D000E217F307C1F7B3FE0AC0F80193A5911104
:1023E00002C0128E04C093E3928FB12C08C0B7FED6
:1023F00006C0F80192A5992311F0915092A7B4FE5E
:1024000052C0D8019A962C919A97422F50E04B5F78
:102410005F4F90E0481759070CF045C02F5F9A9620
:102420002C9341C0FB01878DD80198969C91989779
:10243000981710F498968C93F70182A9D801999671
:102440009C919997981710F499968C93F70186812F
:1024500097818F709927892B31F5D80198969C9197
:102460009897268D99968C91921720F091A98917AB
:1024700020F0B0C09F5FF80190A7D701D1969C9142
:10248000891788F48F5FF80181A70DC08F5FD8018D
:102490005A968C935A9781E097968C9304C08F5FDD
:1024A000F801828F17A2B3FE28C0D8015A968C91EA
:1024B000823330F4B701C8010E94C01BF80183A722
:1024C000D8011C968C911C978A3041F08B3051F0CA
:1024D000893059F48AE01C968C9307C08BE0F80190
:1024E000848703C0D8011C961C92F701868D878FC4
:1024F00081A982ABD8015A961C92B2FE6FC0F80136
:1025000010A611A6128E81E087A38485858788E0B6
:10251000848764C02F5FF801218F0C9405092F5F19
:10252000D80159962C930BC9D12C7BC933E0D30E1B
:1025300051E0B9C9552329F081E0D80E41E051E0BE
:1025400002CA84E0FACFD394D39488CA411186CAD0
:10255000B5E0DB0E83CAD39495CAB701C8010E94C7
:102560001F1CD70191968C91882309F4CACAF801DF
:10257000D486C3CFBF5FCBCB6A2FC6010E949E1407
:10258000282F7FE0371639F08FE1381202C083E040
:102590004DCC83E04ECC85E04CCCAF5F13CC81E0DA
:1025A000808310CD9B5E908328CD3F5F319648CDD0
:1025B00080E079CDA394A1CDD7011E968C91811195
:1025C000F8CD87E0F8018487F4CD81E0D8015A96F0
:1025D0008C9369CE81E4F801828F65CF2A960FB67D
:1025E000F894DEBF0FBECDBFDF91CF911F910F9149
:1025F000FF90EF90DF90CF90BF90AF909F908F9023
:102600007F906F905F904F903F902F900895FB01C7
:10261000818580959085892383FF0FC083E884BDE1
:102620008FEF87BD81EF8093800010928800109219
:102630008A00E054FF4F81E080830895089580E090
:1026400090E008950895CF93DF93FC016A3039F448
:102650008581848396818185890F868351C0848199
:10266000603219F48E5F84834BC06E37D9F3262F06
:10267000EF0166816F5F2A3331F178F42D32C9F1B1
:1026800030F4213211F12B3271F521E41FC02E32CA
:10269000A1F0203340F12C5F19C02B3540F42134D8
:1026A00070F42F3371F02034F1F424E40FC09FE96B
:1026B000920F9A31C0F4275409C02FE307C0215468
:1026C00005C022E403C023E401C02EE33F81062EAF
:1026D000000C770B082E000C990B313061F447EC9D
:1026E00051E00E94422788858D5F9C81890F8C83F1
:1026F00007C020E4EBCF47EC51E00E945227F3CF14
:1027000081E090E0DF91CF9108950C9414310C9406
:1027100014310C9414310C941431CF92DF92FF9247
:102720000F931F93CF93DF938C01C62F69EC71E059
:1027300084E296E00E9457216C2F84E296E00E948A
:10274000752361ED71E084E296E00E945721C0E0BC
:102750008DE0F82EF8018081C81708F062C064EDA2
:1027600071E084E296E00E9457216801CC0ED11CF2
:10277000F601628184E296E00E94752366ED71E0C5
:1027800084E296E00E945721F601D281DF3F19F4DE
:1027900069ED71E03AC08D2F6F2D0E946A3061E0C3
:1027A000690F6B3081F018F4623040F404C06C3073
:1027B00069F06D3071F06CED71E00DC084E296E06F
:1027C0000E9475230CC06EED71E005C060EE71E0F3
:1027D00002C062EE71E084E296E00E9457218D2FE4
:1027E0006F2D0E946A30813059F068F0823029F0F4
:1027F000833079F466EE71E008C064EE71E005C0E4
:1028000068EE71E002C06AEE71E084E296E00E9438
:10281000572165E172E084E296E00E945721CF5F84
:1028200099CF6EEE71E084E296E00E9442216CEE58
:1028300071E084E296E0DF91CF911F910F91FF90BC
:10284000DF90CF900C944221CF93DF93FC01108254
:102850001182DC01129686E0ED0119928A95E9F762
:102860001A9684E0ED0119928A95E9F7128ADF91B0
:10287000CF9108958F929F92AF92BF92CF92DF92A5
:10288000EF92FF920F931F93CF93DF938C01EB0195
:10289000CB010E960E942414CE0181960E9424142E
:1028A000FE01F59680E081938F5F8433E1F77E012E
:1028B00089E6E80EF11C84E3882E912CA12CB12C22
:1028C00067010E94532FA50194010E94D02FFE01A1
:1028D000E60FF11D85A9D7019E917D0195AB8C93E3
:1028E000B1E08B1A9108A108B108E1E08E169104BD
:1028F000A104B10431F71CAAF8017D96C8018596A0
:102900002FEF21938E179F07E1F78FEFD80196964F
:102910008C9396971E961C92F6011082C659DF4F33
:102920001882DF91CF911F910F91FF90EF90DF9070
:10293000CF90BF90AF909F908F900895FC01DC01E5
:10294000A60FB11D12968C91663050F4DF01A60FD0
:10295000B11D13969C91139712969C936F5FF4CFC1
:102960009FEF9783908191509083943039F4DF01E9
:102970001896329601900D929A95E1F70895FC0110
:102980009181DF01A90FB11D1C966C9361E0690F65
:102990006183CF010C960C945028089508950895F2
:1029A00008952F923F924F925F926F927F928F92F3
:1029B0009F92AF92BF92CF92DF92EF92FF920F93CE
:1029C0001F93CF93DF93CDB7DEB760970FB6F89420
:1029D000DEBF0FBECDBF6C015B01DB011696ED9033
:1029E000FC901797FC0184858850843008F4BFC0A0
:1029F0004AEE55E062E170E087E590E00E944B29E5
:102A0000D5011E968C91880F982F990F990F890FD9
:102A1000845F869594E3992E981A812C7DE0772E19
:102A2000F5018685881608F059C0282D30E090E021
:102A30000197E20FF31F092D10E06088281739076E
:102A400024F520E044EE52E069E270E0C8010E9403
:102A500042270D5F1F4F862D672D0E946A30692E19
:102A6000282F4DE15FE064E370E0C8010E94522727
:102A7000E62DF0E0EE0FFF1FE155FE4F4081518142
:102A800020E06DE270E0C80123C020E040E153E0A7
:102A900069E270E0C8010E944227862D672D0E94DE
:102AA0006A30692E282F4DE15FE064E370E0C801D1
:102AB00008960E945227E62DF0E0EE0FFF1FE15529
:102AC000FE4F4081518120E06DE270E0C801039625
:102AD0000E9452278394FAE09F0EA2CF11A1110FFA
:102AE000812F880F880F180F145F16951A5C00E06D
:102AF000F50181A10817F0F4202F30E090E0019754
:102B0000281739074CF4812F90E020E046EC52E082
:102B100068EF7FEF0A9709C082E0810F90E020E024
:102B200048E952E068EF7FEF46970E9442270F5F27
:102B30001A50DECF21E040E86DE370E080E090E0E5
:102B40000E947F2720E040E86CE370E080E090E0A6
:102B50000E947F2700E010E041E06FE370E0C801D1
:102B60000E94BF270E5F1F4F00381105A9F7D6013D
:102B70001C96EC918E2F90E08C30910508F080C26D
:102B8000FC01E559FF4F0C947630D60159966C91B3
:102B9000C5010E94A329F6016685C5010E94C429CA
:102BA0006FC2D6011E966C91F8CFF60186A18F3FB9
:102BB00009F0B0C221E046E65FE06CE070E080E042
:102BC00090E00E94422720E044EF5EE060E170E088
:102BD00085E090E00E94422753C2C6010E949329DB
:102BE000D6015A968C915A97811109C059966C91C9
:102BF000C5010E94A32903C0C6010E949329C601F2
:102C00000E945C293DC24AEE55E066E170E080E03A
:102C100090E00E944B2920E040ED55E060E070E03C
:102C20008BE290E00E94422720E041EC53E064E018
:102C300070E083E390E00E944227F501968D878D36
:102C4000981721F0D60197961C9101C010E0F5016C
:102C500082A991A9981721F0D60197964C9101C0AD
:102C600040E0F60161A50E945D24412FD6019896AF
:102C70006C91F501878D0E94192421E041E0B50196
:102C8000C6010E940629FCC14AEE55E066E170E0EB
:102C900080E090E00E944B2920E040ED55E060E0AC
:102CA00070E08BE290E00E944227D60158968C910A
:102CB00081112EC097012F71332781E0213108F453
:102CC00080E0F6012485928D2A3059F02B3049F0AE
:102CD0002930F1F4F501E759FF4F2081211107C098
:102CE0000DC0F501E759FF4F2081211107C041E0D8
:102CF000993B08F440E0482B21E006C021E0993BD5
:102D000008F420E0282B41E0B501C6010E94062905
:102D1000D6015A968C915A97823309F083C1169640
:102D20008C93169717968C93179718961C92189752
:102D30001C968C918A3091F08B30F1F0893059F5E6
:102D4000F501E759FF4F2081C6010296211103C00A
:102D500068EB73E01EC06DEA73E01BC0F501E75934
:102D6000FF4F2081C6010296211103C062EA73E081
:102D700010C069E973E00DC0F501E759FF4F2081EC
:102D8000C6010296211103C06EE873E002C065E837
:102D900073E00E94A1242501BBE64B0E511CF201F9
:102DA00080818F3F91F488E4D60116968C93169714
:102DB00017968C9317978CE118968C936BE773E0BA
:102DC000C60102960E94A1245BC11201F501E154E3
:102DD000FF4FFC87EB87F20100E080818F3F09F015
:102DE0000F5F37962B853C852E173F07B1F70530CF
:102DF00070F021E0D6019A968C91811120E04BE68B
:102E000053E061E070E088E790E00E9442275A8634
:102E1000498618861F8210E0F6013296F88BEF87FC
:102E20009F81D6019A968C91901708F09AC09817B6
:102E300008F48CC090E00596EF81F8858E179F0707
:102E40000CF484C0F8E01F9FC00111247C012AE02B
:102E5000E20EF11C69847A8442E3842E912C1D8653
:102E6000D3018C918F3F49F1BD85BF5FBD876DE078
:102E70000E946A309F5FE92FF0E0EE0FFF1FE355DD
:102E8000FE4F40815181E1E0F0E09A3011F0E0E046
:102E9000F0E020E0B701C4018E1B9F0B0E94422787
:102EA000F30180816DE00E946A30282F4DE15FE0E0
:102EB000B701C40105960E944227FFEF6F1A7F0AEF
:102EC0002EE0820E911C38E78316910449F6812F7B
:102ED000880F880F880F8E87982F915FAD85BEE091
:102EE000AB9F802D11248E5C22E7722E781A612C04
:102EF000892E912CE82EF12C41E0B401C701860DFA
:102F0000911D0E94BF27639463947614A8F7E98506
:102F1000FA85F580E8E7D6011696EC931697F8E760
:102F20001796FC9317978E85875F18968C9329E0E8
:102F30002F1530F064E172E08F8598890E94572147
:102F40006F2D8F8598890E9475231F5F8F819885CB
:102F5000019698878F83A985BA851796BA87A9871E
:102F60005FCFE02EF12C053078F090E0059621E05F
:102F70008E159F050CF420E04BE553E06CE370E008
:102F800088E790E00E944227F60182A590E005962E
:102F90008E159F050CF474C081E08187110F110F0D
:102FA000110F8AE0F82EF10E8DE586838783F08677
:102FB00086010E5F1F4F64E573E0C8010E94A124E3
:102FC00088E7D60116968C93169717968C931797C9
:102FD0001896FC92F20180E090819F3F11F095815C
:102FE000890F37962B853C852E173F07A9F78A3026
:102FF00028F464E172E0C8010E94572160E0D10129
:103000008C918F3F19F015968C91680FB7E02B0EBD
:10301000311CEB85FC85E215F30589F7C8010E9498
:1030200075232EC020E041EC53E064E070E083E3C0
:1030300090E00E944227D5015E969C915E975F9634
:103040008C91981719F0F60117A101C010E0D50175
:10305000D2968C91D297D1969C91981719F0F6013F
:1030600047A101C040E0D60199966C910E945D2471
:10307000412FF60160A5D5015F968C910E9419241D
:10308000F601848588508430D8F0808D882319F02B
:10309000878981110BC0EE24E394D501D1960C9160
:1030A0002FEF42E7B501C6010E94B923EE24E39455
:1030B000F501068D24E342E7B501C6010E94B9235C
:1030C000D60158968C915897882341F15796EC90E9
:1030D000579756960C91569755961C911A821982BD
:1030E0001C821B821E821D82B601615F7F4FCE0152
:1030F00001960E94B11C212FAE014F5F5F4FB501B9
:10310000C6010E945422CE0101960E94DB1CF601EA
:10311000108E04C0C6010E949329B2CF60960FB6EC
:10312000F894DEBF0FBECDBFDF91CF911F910F91FD
:10313000FF90EF90DF90CF90BF90AF909F908F90D7
:103140007F906F905F904F903F902F90089521E572
:1031500031E0FC01318320830F960C94DB1CCF936C
:10316000DF93EC010E94A718CE01DF91CF910C9460
:1031700014312BEA31E0FC013183208384529F4FCC
:103180000C94A718CF93DF93EC010E94B918CE01DD
:10319000DF91CF910C9414312F923F924F925F9216
:1031A0006F927F928F929F92AF92BF92CF92DF9257
:1031B000EF92FF920F931F93CF93DF93CDB7DEB7BC
:1031C0002C970FB6F894DEBF0FBECDBF8C017A8767
:1031D0006987D42E1C0144E5240E311C7C0145E096
:1031E00050E06FEF70E0C7010E947132D701159671
:1031F0001C92B7E0EB0EF11CE214F30481F78D2D65
:103200006DE00E946A30C82E49855A854B5F5F4F3A
:10321000A985BA8520E09DE0B92E37E0F32EEE2493
:10322000E3943D913D1549F0832F6B2D0E946A3048
:103230009A3019F4C81609F43EC2A417B50789F7E5
:103240008FE1482E512CFE0131967F013DE05E0159
:10325000F6E0AF0EB11C60901C0170901D018090D3
:103260001E0185E0EFE1F1E0D70101900D928A9512
:10327000E1F7E985FA8580E090E0D12CA201082EE3
:1032800002C0559547950A94E2F740FF06C0408179
:10329000D701AD0DB11D4C93D39401963196853075
:1032A000910561F742E0D41287C049815A81852F88
:1032B000632F0E946A30CC24C394C90E842F0E94CD
:1032C0006A309F5FC91278C0F801FC87EB8786815E
:1032D000813009F054C08081632F0E946A309F5F63
:1032E000C9124DC0BF01C12C90E080E0DB019D9070
:1032F000BD01491102C0CC24C394BFEF9B1203C08F
:10330000911101C0982F8F5F853081F7C11005C0E2
:10331000BF01690F711DDB014C93BF0140E080E0EC
:1033200090E0DB01CD90BD015C1101C041E0BFEF39
:10333000CB1203C0811101C0892F9F5F953089F79F
:10334000411106C08F5FBF01680F711DDB015C93E7
:1033500090E080E041914F3F09F0982F8F5F8530DA
:10336000C9F76E827F828886E5E0F0E0EC0FFD1FF2
:10337000E90FF11D8081EB85FC8585831DC03796A3
:103380002E163F0609F0A1CFB80187E0289F600DF7
:10339000711D1124D701CB014D91FC014193CF0147
:1033A000AA15BB05C9F7E2E0DB011596EC9315976A
:1033B000F1E01696FC932F5FF701D70140E08A2FCA
:1033C0008E198D1550F48D91632F0E946A309F5F86
:1033D0009B3008F09AE0490FF2CF4F30E1F4B8018A
:1033E00087E0289F600D711D11247C876B87AB01DE
:1033F000C701DC016D91CD01DA016D93AD01A81615
:10340000B906B9F742E0AB85BC8515964C93159784
:1034100016961C922F5F63E0D61266C0D9808D2D60
:10342000632F0E946A309F5F492F50E0CA80DA0103
:1034300011968C2D0E946A309F5F892F90E0A8170B
:10344000B90709F01AC19B804E5F5F4F892D0E941A
:103450006A309F5F892F90E04817590709F00DC126
:10346000D80140E016965C9116975450523018F5EA
:103470007C9111966C91119712965C911297D712CC
:1034800004C0C61202C09516A9F0D61207C0C51214
:1034900005C013966C911397961661F0D5120BC068
:1034A00013965C911397C51206C014965C911497FD
:1034B000951201C041E017962A163B0699F6411174
:1034C000DCC0B80187E0289F600D711D1124CB017D
:1034D0004191DC014D93CD01EA15FB05C9F743E0AD
:1034E000FB01458386E0C7C094E0D91278C0D9803B
:1034F0008D2D632F0E946A309F5F492F50E0CA8054
:10350000DA0111968C2D0E946A309F5F892F90E01E
:10351000A817B90709F0B1C09B80892D0E946A30B5
:103520009F5F892F90E0BA016E5F7F4F6817790720
:1035300009F0A3C0AC81AB874D5F5F4F8A2F632F2B
:103540000E946A309F5F892F90E04817590709F061
:1035500094C0C80140E0DC0116965C911697543087
:1035600029F56C9111965C911197D6120CC0C51279
:103570000AC012966C911297961205C013966C9120
:10358000BB85B61791F0D51211C0DC0112965C9183
:103590001297C5120BC013965C911397951206C033
:1035A00014965C91BB85B51301C041E007962816BF
:1035B000390689F6411161C0B80147E0249F600DCA
:1035C000711D1124CB014191DC014D93CD01EA1510
:1035D000FB05C9F744E0FB01458385E04CC095E05D
:1035E000D9124BC08981632F0E946A309F5F492F97
:1035F00050E0DA0111968A810E946A309F5F892F1C
:1036000090E0A817B907C9F58B810E946A309F5FC7
:10361000892F90E0BA016E5F7F4F6817790769F5CF
:103620008C81632F0E946A309F5F892F90E0BA01DE
:103630006D5F7F4F6817790701F54C5F5F4F8D8194
:10364000632F0E946A309F5F892F90E048175907C7
:10365000A1F4B801A7E02A9F600D711D1124CB01D0
:103660004191DC014D93CD01AE16BF06C9F745E08F
:10367000FB01458384E086832F5F91E0491A51085E
:1036800009F0EFCD2C960FB6F894DEBF0FBECDBF7C
:10369000DF91CF911F910F91FF90EF90DF90CF902E
:1036A000BF90AF909F908F907F906F905F904F9062
:1036B0003F902F900895F80167E0269FE00DF11DDF
:1036C00011243083E582F6822F5FB7CDEF92FF920F
:1036D0001F93CF93DF9300D000D01F92CDB7DEB7FA
:1036E0007B01142FFC013C9694E0DE0111960190C1
:1036F0000D929A95E1F74D8365E0CE0101960E9407
:103700005028412FBE016F5F7F4FC7010E94CC1828
:103710000F900F900F900F900F90DF91CF911F910E
:10372000FF90EF900895EF92FF921F93CF93DF9356
:1037300000D000D01F92CDB7DEB77B01142FFC0163
:10374000389694E0DE01119601900D929A95E1F77A
:103750004D8365E0CE0101960E945028412FBE01A5
:103760006F5F7F4FC7010E94CC180F900F900F9092
:103770000F900F90DF91CF911F91FF90EF900895E0
:10378000CF93DF93FC01EB019B01225F3F4FCB0105
:10379000819644854A3069F04B30E1F04930B9F503
:1037A000DB01A759BF4F4C9165597F4F411109C0AB
:1037B0000DC0DB01A759BF4F4C9165597F4F411197
:1037C00005C046A1C9010E94931B10C046A10E94DA
:1037D000931B16C0DB01A759BF4F4C9165597F4F12
:1037E00041110BC046A1C9010E94661BCE010E9477
:1037F0000F2A9E8D980F9E8F0BC046A10E94661BBC
:10380000CE010E940F2A99A9980F99AB01C080E0C0
:10381000DF91CF9108950F931F93CF93DF93EC0126
:10382000042F122F0F960E94B11C81E08D8B0E8BFE
:103830001F8B888FDF91CF911F910F910895FC010D
:103840007D969C012B5D3F4F4FEF4193E217F307AD
:10385000E1F7FC0115A2FB0110A213AA0895FC01D7
:10386000DB01AB01485F5F4F20E03DE08D918F3F72
:1038700041F0632F0E946A309F5F9B3008F09AE00E
:10388000290FA417B50791F75081329640E0ADE0BB
:1038900030E0541781F081916A2F0E946A309F5F57
:1038A0009B3008F09AE0B901690F711D6032710513
:1038B00024F04F5FEECF80E0089581E00895FC0191
:1038C0007D969C012B5D3F4F40E05DE081918F3FF5
:1038D00041F0652F0E946A309F5F9B3008F09AE0AC
:1038E000490FE217F30791F7842F08950E9463327E
:1038F0000F931F93CF93DF93EC01888199810097F9
:1039000029F02A813B812617370788F48B016F5FE6
:103910007F4F0E949D31009761F0998388831B83BC
:103920000A832C813D81232B11F4FC01108281E05C
:1039300001C080E0DF91CF911F910F910895CF9347
:10394000DF93EC0188819981009711F00E94143176
:10395000198218821D821C821B821A82DF91CF91EC
:103960000895EF92FF920F931F93CF93DF93EC0193
:1039700086179707C1F0FB01008111810115110520
:1039800039F0E480F580B7010E94781C811104C0F1
:10399000CE010E949F1C07C0FD82EC82B801888185
:1039A00099810E947832CE01DF91CF911F910F91C2
:1039B000FF90EF900895FC01808191810C94143167
:1039C000409120065091210620911E0630911F063D
:1039D00042175307B4F49091E8009570E1F3909189
:1039E000E80092FD19C08093F1008091200690912B
:1039F000210601968F739927892B19F48EEF8093F6
:103A0000E80080912006909121060196909321066E
:103A10008093200681E0089580E00895DF92EF9280
:103A2000FF920F931F93CF93DF93D82E8A017B01D0
:103A3000E40EF51EEB01CE15DF0571F0D7FE03C0D5
:103A4000FE01849101C088810E94E01C21968111B1
:103A5000F2CF8FEF9FEF01C0C801DF91CF911F918F
:103A60000F91FF90EF90DF900895615030F020911A
:103A7000F100FC0120830196F8CF289884E680931A
:103A800091070895CF92DF92EF92FF920F931F93C9
:103A9000CF93DF936C017A018B01C0E0D0E0CE15AB
:103AA000DF0581F0D8016D918D01D601ED91FC917A
:103AB0000190F081E02DC6010995892B11F0219626
:103AC000EECF7E01C701DF91CF911F910F91FF9043
:103AD000EF90DF90CF900895CF93DF931F92CDB7F3
:103AE000DEB76983DC01ED91FC910280F381E02D6A
:103AF00041E050E0BE016F5F7F4F09950F90DF916D
:103B0000CF91089583E08093E9008091F2008823AB
:103B100019F08AE38093E8000895FC018485958577
:103B200097FD0BC09FB7F89482E08093E9008091E5
:103B3000F2009FBF90E0019608959FB7F89482E04D
:103B40008093E9008091F2009FBF90E008950F9369
:103B50001F93CF93DF931F92CDB7DEB782E08983A7
:103B600042E450E069E177E080E80E940E1D0E9487
:103B70005F2ADC0112960D911C9113970115110516
:103B800089F0D801ED91FC910280F381E02DBE0116
:103B90006F5F7F4FC801099597FD04C0F80100854C
:103BA0001185ECCF89810F90DF91CF911F910F91FB
:103BB00008950E944E2A90E008950F931F93CF938B
:103BC000DF931F92CDB7DEB78C01FC01848595850C
:103BD00097FF0EC0CE0101960E94202A019719F48A
:103BE000898190E002C08FEF9FEFF801958784876D
:103BF000F801848595850F90DF91CF911F910F91EA
:103C00000895CF93DF931F92CDB7DEB7FC01848573
:103C1000958597FD05C02FEF3FEF358724870BC0B3
:103C2000CE0101960E94202A019719F4898190E023
:103C300002C08FEF9FEF0F90DF91CF910895EF9229
:103C4000FF920F931F93CF93DF93EC011982188299
:103C50001B821A821D821C826115710509F18B017C
:103C6000CB010E94B12F7C01BC01CE010E94781CC7
:103C7000811109C0CE01DF91CF911F910F91FF906B
:103C8000EF900C949F1CFD82EC82B8018881998191
:103C9000DF91CF911F910F91FF90EF900C94AA2F7D
:103CA000DF91CF911F910F91FF90EF900895EF92C8
:103CB000FF920F931F93CF93DF93EC011982188229
:103CC0001B821A821D821C826115710521F18B01F4
:103CD000FB0101900020E9F731977F01E61AF70A0E
:103CE000B7010E94781C811109C0CE01DF91CF91EC
:103CF0001F910F91FF90EF900C949F1CFD82EC821E
:103D0000B80188819981DF91CF911F910F91FF9028
:103D1000EF900C947832DF91CF911F910F91FF902B
:103D2000EF9008951F920F920FB60F9211248F9368
:103D30009F938091E1009091E100937F9093E10047
:103D400083FF0FC01092E90091E09093EB00109276
:103D5000EC0092E39093ED001092920798E090931C
:103D6000F00082FF20C093E09093E9009091F20070
:103D7000992319F09AE39093E800909123069923F0
:103D800039F090912306915090932306992389F15D
:103D900090919107992339F09091910791509093C8
:103DA0009107992341F184FF10C08091E2008E7E3B
:103DB00081608093E2008091E1008F7E8093E1003A
:103DC000809118028E7E806111C080FF16C08091A4
:103DD000E2008E7E80618093E2008091E1008E7E21
:103DE0008093E100809118028E7E8160809318029A
:103DF00004C05D9ACDCF289AD6CF9F918F910F9016
:103E00000FBE0F901F9018951F920F920FB60F9232
:103E10001124CF92DF92EF92FF920F931F932F9373
:103E20003F934F935F936F937F938F939F93AF9342
:103E3000BF93EF93FF93CF93DF93CDB7DEB76C972C
:103E4000DEBFCDBF1092E9008091E80083FFFBC187
:103E500068E0CE0145960E94351D82EF8093E80010
:103E60008D8987FF05C09091E80090FFFCCF03C0CB
:103E70009EEF9093E800982F907609F0C6C09E8937
:103E80004F89588D2F89F88C91110CC0803829F4F6
:103E9000809119028093F10002C01092F1001092FB
:103EA000F10045C1913051F4811141C141305105BA
:103EB00009F03DC1809119028D7F0BC0933061F4F0
:103EC000811135C14130510509F031C1809119028C
:103ED0008260809319022BC1953049F48091E800EB
:103EE00080FFFCCF822F80688093E30020C1963052
:103EF00009F05EC00B8D1C8D22E01092E90010923B
:103F0000210610922006F21232C010921F06109263
:103F10001E060E94A71D99E0BE016F5F7F4FDB0167
:103F2000E92F1D92EA95E9F79983FA8291E09E8341
:103F300090EA98879AEF9987209120063091210680
:103F4000275F3F4F3C832B838D831092E9001092B3
:103F500021061092200610931F0600931E0649E0CA
:103F600050E080E00E940E1D0E94A71DE0C010934B
:103F70001F0600931E060E945F2ADC0112960D9117
:103F80001C9113970115110509F4BBC0D801ED91DF
:103F9000FC910480F581E02DBE016B5E7F4FC8016E
:103FA0000995009709F0C7C0F80100851185EACF8F
:103FB000973009F445C1983021F481E08093F100F5
:103FC000B6C0993009F0B3C0837009F039C1E5E299
:103FD000F1E081E031E096E32081211109C08EE714
:103FE0008093EA001092EA008F89809392079FC025
:103FF0008093E9003093EB0021912093EC009093A3
:10400000ED008F5F873041F7EACF8B8D9C8D10924A
:10401000E900109221061092200690931F068093CB
:104020001E06898D811153C08E899D89913A49F46C
:10403000813209F005C147E050E064E071E080E0C2
:10404000BBC0913209F0FCC0833269F48F89988D2E
:10405000A0E0B0E08093000190930101A0930201E1
:10406000B093030164C0803269F48091E80082FF5C
:10407000FCCF67E084E091E00E94351D8BEF8093D8
:10408000E80055C0823209F052C08F8980930B013D
:10409000EEEFFFE7859194918B3F9C4D19F0E0E0A6
:1040A000F8E002C0EEEFFAE0809104019091050182
:1040B000A0910601B0910701803B9440A105B10594
:1040C00009F09EC080910B0180FF79C099C00E94C9
:1040D0005F2AFC01028113810115110509F4B0C0AA
:1040E000D801ED91FC910190F081E02DBE016B5E55
:1040F0007F4FC801099581111AC0F801008511850B
:10410000EBCFF1E0FF1609F44EC0F3E0FF1298C0C8
:104110008F89882309F44AC0823089F440E860E13D
:104120008DE797E00E94FC2D882309F489C08EEF6B
:104130008093E80088C018161906CCF381C081303E
:1041400029F440E86BE081E797E0ECCF833009F099
:1041500077C00E945F2ADC011296ED90FC901397C5
:104160008E010F5F1F4F6801E114F10479F0D70150
:10417000ED91FC910680F781E02DB801C70109950A
:10418000080F111DF701E084F184EECFD8011C92D5
:10419000F60101900020E9F73197BF016C197D0904
:1041A00040E0C601BFCF6FE577E002C06BE577E086
:1041B000FB01449150E080E80E940E1DB8CFEE3F15
:1041C0002AE0F20751F0808191818737A7E79A07AB
:1041D00021F09093FF0A8093FE0A87E797E7918387
:1041E000808380916000809322069BE088E10FB677
:1041F000F894A895809360000FBE9093600097CFCD
:10420000808191818737974709F091CFA895809158
:104210006000886180936000809122068093600036
:10422000EE3FBAE0FB0739F08091FE0A9091FF0A59
:10423000918380837CCF1092FF0A1092FE0A77CF81
:1042400081E28093EB006C960FB6F894DEBF0FBE50
:10425000CDBFDF91CF91FF91EF91BF91AF919F9132
:104260008F917F916F915F914F913F912F911F910E
:104270000F91FF90EF90DF90CF900F900FBE0F90B7
:104280001F9018956115710579F0FB0101900020D0
:10429000E9F73197AF01461B570BDC01ED91FC911B
:1042A0000280F381E02D099480E090E008950C9461
:1042B00042218F929F92AF92BF92CF92DF92EF9264
:1042C000FF926B017C010E9462254B015C01C114CD
:1042D000D104E104F104F1F00E946225DC01CB017C
:1042E00088199909AA09BB09883E9340A105B1051F
:1042F00070F321E0C21AD108E108F10888EE880EB7
:1043000083E0981EA11CB11CC114D104E104F10486
:1043100019F7DDCFFF90EF90DF90CF90BF90AF9077
:104320009F908F9008958F929F92AF92BF92CF925D
:10433000DF92EF92FF920F931F93CF93DF936C0165
:104340007B018A0180910B01882309F45CC0809174
:104350009207882309F457C08091180280FF05C096
:104360008091E00082608093E000E801B12C8AEF48
:10437000A82E93E0892E2AE3922E209711F4BB20D9
:10438000D9F10E944E2A81110AC0AA94AA20D9F11B
:1043900061E070E080E090E00E945921EECF282F8C
:1043A00030E0C217D3070CF48C2F9FB7F89480929B
:1043B000E9002091E80025FF1DC0282F30E0C21B36
:1043C000D30BF701815020F041914093F100FACFD7
:1043D000E20EF31EBB2019F09092E8000AC0809113
:1043E000E80085FD07C09092E800BB24B3942097B5
:1043F00009F0B12C9FBFC1CF5D9884E6809323065E
:104400001016110644F081E090E0F6019383828358
:1044100080E090E001C0C801DF91CF911F910F9122
:10442000FF90EF90DF90CF90BF90AF909F908F90D4
:1044300008958F929F92AF92BF92CF92DF92EF92A8
:104440000F931F93CF93DF936A01EB014B01820E11
:10445000911C5A01A00EB11CC815D905CCF48601D7
:10446000D7FE02C000E010E0C50121E4A216B104AD
:1044700014F080E490E00817190744F44E2DB801B9
:10448000CE010E94BF270F5F1F4FEECF2196E4CFD2
:10449000DF91CF911F910F91EF90DF90CF90BF9060
:1044A000AF909F908F9008952F923F924F925F927E
:1044B0006F927F928F929F92AF92BF92CF92DF9234
:1044C000EF92FF920F931F93CF93DF9300D01F9231
:1044D000CDB7DEB75C012A01702E3E2CEE2021F014
:1044E00080E8282E201A01C0212C122F110F110F45
:1044F000110F83E0810F8983C22CD12CFB013396ED
:10450000FB83EA8304E0010FE12C272D43E050E018
:10451000B601CF010E9419224601F4E08F0E911CD2
:104520000CE0010F28EFF22EF70C2F2D4FEF5FEF6D
:10453000B4018A819B810E94192205E0010FB60116
:104540006F5F7F4FEE24E3942EEF270D43E050E0A2
:104550008A819B810E9419220AE0010F2F2D40E0E1
:1045600050E0B4018A819B810E94192238E0F32E29
:10457000F10E4CEF642E670CC60102969B838A8372
:1045800020E0462D61E070E00E947F270F2D10E0B3
:104590009FE39F1538F020E0462DB8018A819B816A
:1045A0000E947F270F5F1F4F88248394912C7801EE
:1045B000013411051CF080E4E82EF12C8E149F04C8
:1045C00054F440E0B4018A819B810E94BF27EFEF41
:1045D0008E1A9E0AECCF8A819B81860D911D0197D0
:1045E0009B838A8301E010E00E151F0549F040E02F
:1045F000B8018A819B810E94BF270F5F1F4FF4CFB4
:10460000E12C00E026E93AE04EE95AE06FEF7FEF57
:10461000C6010E9462274601870C911C340198E074
:10462000691A710824E83AE04CE85AE06FEF7FEF2E
:10463000C3010E946227F981EF2FF0E0FB83EA8338
:10464000311012C0BF01615071092AE13AE04EE415
:104650005AE0C6010E94622728E03AE040E15AE0B1
:104660006A817B81C30115C0E12C00E026EF39E0AF
:104670004EEF59E06A817B81C6010E9462276A8100
:104680007B81615071092CE839E040EC59E0C401AC
:104690004A970E94622786E0820DF5018683878310
:1046A00085E080871186F2014481558160817181A6
:1046B000C50102960E94421D81E0F50181870F909D
:1046C0000F900F90DF91CF911F910F91FF90EF907E
:1046D000DF90CF90BF90AF909F908F907F906F9022
:1046E0005F904F903F902F9008958F929F92AF923E
:1046F000BF92EF92FF920F931F93CF93DF93CDB7AB
:10470000DEB7A1970FB6F894DEBF0FBECDBF7C0118
:10471000262F30E040E050E019A28E010F5D1F4FC0
:104720008AE0882E912CA12CB12CCA01B901A501D7
:1047300094010E943930605DF80162938F01211568
:1047400031054105510589F7BF01C7010E9442218A
:10475000A1960FB6F894DEBF0FBECDBFDF91CF910B
:104760001F910F91FF90EF90BF90AF909F908F900F
:1047700008956F927F928F929F92AF92BF92CF9245
:10478000DF92EF92FF920F931F93CF93DF936C0111
:10479000122F702E6E2C89E0801718F026E0F22E72
:1047A00008C0E3E6E01718F094E0F92E02C082E0BA
:1047B000F82EF40EF6011186812E012E000C9908B8
:1047C000C42FD0E05B01F3E0AF0EB11CE12C08E098
:1047D0002EE0A401BE01C5010E941922A4014F5F71
:1047E0005F4FBE016F5F7F4FEE24E39407E02DE043
:1047F000C5010E941922F601F682F7821F5F108719
:10480000662029F0672DC60102960E94752381E07B
:10481000F6018187DF91CF911F910F91FF90EF906B
:10482000DF90CF90BF90AF909F908F907F906F90D0
:104830000895EF92FF920F931F93CF93DF93D42F9E
:10484000E82FF0E0EE0FFF1FE856F74F8491319606
:104850009491E62FF0E0EE0FFF1FE856F74FF4902B
:104860003196C49197FF04C09F77EE24E39401C072
:10487000E12CC7FF03C0CF7711E001C010E0692F22
:1048800070E001E022E838E04CE858E090E00E9457
:104890006227DD2359F06C2F70E0E12E22E838E02A
:1048A0004CE858E08F2D90E00E946227DF91CF9175
:1048B0001F910F91FF90EF900895EF92FF920F9349
:1048C0001F93CF93DF93D42FE82FF0E0EE0FFF1F5D
:1048D000E257F84F849131969491E62FF0E0EE0F75
:1048E000FF1FE257F84FF4903196C49197FF04C030
:1048F0009F77EE24E39401C0E12CC7FF03C0CF777C
:1049000011E001C010E0692F70E000E022E838E01B
:104910004CE858E090E00E946227DD2359F06C2FAC
:1049200070E0E12E22E838E04CE858E08F2D90E06E
:104930000E946227DF91CF911F910F91FF90EF901E
:104940000895EF92FF920F931F93CF93DF938C0103
:104950007B01C0E0D0E0F701EC0FFD1F64916623FE
:1049600039F0C8010E942313892B11F02196F3CF4F
:10497000CE01DF91CF911F910F91FF90EF9008959D
:104980000895DC01FB01908581858095892394FF42
:1049900018C01C969C911C97903128F49F5F1C9620
:1049A0009C931C9711C0F89487E78093000880932C
:1049B0000108A89588E18093600088E080936000FA
:1049C000FFCF1C961C921C97268137812F703327AE
:1049D000232B59F41D969C911D979F5F9C3119F0D4
:1049E0001D969C9302C01D961C9283FF04C0E05448
:1049F000FF4F82E0808308950895FC01DB01199642
:104A00008C911997809518969C91892399F08485AB
:104A1000882311F08CE78487948591110EC081E082
:104A2000848780E48093900081E49FE090939900D4
:104A30008093980094859923C1F09F5F9487953067
:104A400059F09D3761F0923081F480E596E49093BF
:104A50009900809398000895109290000895FB01AA
:104A6000E054FF4F81E08083089508950F931F93D2
:104A7000CF93DF938C014DE95DE060E070E08BE463
:104A800090E00E944B2943ED5BE060E170E087E03D
:104A900090E00E944B29CCEEDFEFF80185854DE7D1
:104AA0005BE06CE270E09E01281B3109C9010E94A5
:104AB0004B296C96C03BD10581F7DF91CF911F91B7
:104AC0000F9108953FB7F89480918D0790918E07CC
:104AD000A0918F07B091900726B5A89B05C02F3FE6
:104AE00019F00196A11DB11D3FBFBA2FA92F982F14
:104AF0008827820F911DA11DB11DBC01CD0142E08F
:104B0000660F771F881F991F4A95D1F708951F9246
:104B10000F920FB60F9211242F933F938F939F9371
:104B2000AF93BF9380911A0690911B06A0911C062B
:104B3000B0911D0630918C0723E0230F2D3720F410
:104B40000196A11DB11D05C026E8230F0296A11DE7
:104B5000B11D20938C0780931A0690931B06A09397
:104B60001C06B0931D0680918D0790918E07A09131
:104B70008F07B09190070196A11DB11D80938D07FD
:104B800090938E07A0938F07B0939007BF91AF913A
:104B90009F918F913F912F910F900FBE0F901F907B
:104BA00018952F923F924F925F926F927F928F92C1
:104BB0009F92AF92BF92CF92DF92EF92FF920F93AC
:104BC0001F93CF93DF9300D000D000D0CDB7DEB7D6
:104BD0004115510509F43DC1FA01B4903196E491B3
:104BE0004E5F5F4F6B2C712C211102C0EE2061F1E2
:104BF000A1E0B0E03E2F377011F4A0E0B0E03E2F0E
:104C00003695369536954D01830E911C869CD001C4
:104C1000879CB00D969CB00D1124F3E0CF1203C019
:104C2000AA0FBB1F0AC00115110539F0EA9E400109
:104C3000EB9E900C1124080D191D2A9F70012B9FCB
:104C4000F00C11244E0D5F1D2FEFC21208C001158C
:104C5000110519F0CC24C39402C032E0C32E7301B5
:104C6000E80EF91E1E141F040CF0F3C080389105E5
:104C70000CF0EFC09B012E0F311D121613060CF025
:104C8000E8C0603471050CF0E4C04115510509F429
:104C9000E0C0362F37703D83DB0177FD179623E0A8
:104CA000B595A7952A95E1F73A2F77FF05C06D8155
:104CB000662311F03FEF3A0F97FF05C0AA27BB27E5
:104CC000A81BB90B02C0A0E0B0E0F0E8EF16F104B9
:104CD00024F020E8D22ED81A01C0DB2CDA1A632F78
:104CE000032E000C770B3F3F1CF4A62EA09401C0AE
:104CF000A12CF1E02E2F277009F4F0E0E695E6955F
:104D0000E695FE0F6F0F711D6930710514F0F8E024
:104D1000F31B7A2C730E272D60E82603800D911D5E
:104D200011244C018A0E9B1E61E070E00D8002C0D0
:104D3000660F771F0A94E2F783E0C81611F0E1E0EE
:104D400001C0E2E02B2D2D192E9F202D1124EE2ED7
:104D5000F12CBA9CA00DB11D1124AE9DC001AF9DD8
:104D6000900DBE9D900D11245A01A80EB91E01157B
:104D7000110509F0A801D70111978A0F9B1F480F51
:104D8000591FAFEFA69FC001A79F900D11242C01C2
:104D900040945094C401865E9D4FF30FFE8330E033
:104DA000ED9D200D311D1124EE817E1609F451C0B8
:104DB000DC014A018501612CD61409F442C0F801D6
:104DC0003490369EF001379EF00D1124FA83E9836A
:104DD000E095F095FC83EB83F2E0CF1203C05C8298
:104DE0004B8211C0EBEFCE1203C01A8219820BC0A6
:104DF000F4013490369EF001379EF00D1124E095B9
:104E0000F095FC83EB8377FC06C0FB81EC91EF23EC
:104E1000F981EF2BEC93FD81FF2361F0E6E0E715CC
:104E20004CF0FD01E058FF4F20803C8032202A806A
:104E3000322830828E0C9F1C0E0D1F1D639411961C
:104E4000BBCF7394A20EB31E420F531F80589F4FC7
:104E5000ABCF26960FB6F894DEBF0FBECDBFDF9165
:104E6000CF911F910F91FF90EF90DF90CF90BF9067
:104E7000AF909F908F907F906F905F904F903F90FA
:104E80002F900895CF92EF920F931F933AEFC32E76
:104E9000E12C00E010E00E94D1251F910F91EF90CE
:104EA000CF900895CF92EF920F931F933BEFC32EB5
:104EB000E12C00E010E00E94D1251F910F91EF90AE
:104EC000CF900895CF92EF920F931F93F901202F67
:104ED000CC24C3948F010E94D1251F910F91EF9094
:104EE000CF900895BC0180E090E00C9459218FB1DF
:104EF0008095807F669B88601C9B84600895FC0180
:104F0000E40FF11DAF011E161F06C4F58038910590
:104F1000ACF597FF02C080E090E04138510514F0F5
:104F200040E850E0481BFB0177FD379633E0F595EC
:104F3000E7953A95E1F7F695FE2FEE27F795E79579
:104F4000E80FF91FE65EFD4F6770772781E090E07C
:104F500001C0880F6A95EAF7382F222341F02130EB
:104F600069F4415058F08081832B8193FACF80956A
:104F7000415020F0908198239193FACF0895803882
:104F80009105B8F460347105A0F490E121E061FD71
:104F900024E060FD220F62FD2295687F969FD0017C
:104FA0001124A80FA65EBD4F8C91822B40FF822753
:104FB0008C9308950F931F93CF93DF93EC0147E5F4
:104FC0005BE061E170E08FE290E00E944B2949E3F1
:104FD0005BE06AE170E08BE290E00E944B2949E3DC
:104FE0005BE06AE170E089E490E00E944B298C85E7
:104FF000811114C049E35BE06AE170E08AE390E06C
:105000000E944B2949EE5AE06EE270E08AE190E09E
:10501000DF91CF911F910F910C944B294BEC5AE0EB
:105020006AE170E08AE390E00E944B2948EA5AE086
:105030006EE270E08CE290E00E944B298C856FE07C
:105040000E946A30082F0370CFE4D0E010E001170F
:1050500049F041E061E370E0CE010E94BF271F5F8D
:105060002296F5CFDF91CF911F910F910895FF9276
:105070000F931F93CF93DF93EC01F62E08811981D4
:10508000C8010E94BA2FF81621F06F2DC8010E94A6
:10509000C22FCE01DF91CF911F910F91FF90089504
:1050A0004F925F927F928F929F92AF92BF92CF92D8
:1050B000DF92EF92FF920F931F93CF93DF938C01B8
:1050C000A0E0462F50E06A0131E0C31AD1088DE01C
:1050D000B82E8A2F90E08C159D05CCF5B0E0EA0142
:1050E000C81BD90B2E0161E0461A51082B2F30E066
:1050F0002415350554F57801E20EF31EE701A8806A
:105100008A2D6B2D0E946A30782E892E2F5F3F4F9B
:10511000F801E20FF31F9080892D0E946A30292F39
:1051200090E0DAE02D9F800D911D1124272D30E0B5
:105130006AE0869E200D311D11248217930718F412
:10514000E7019882A082BF5FD1CFAF5FC2CFDF916E
:10515000CF911F910F91FF90EF90DF90CF90BF9074
:10516000AF909F908F907F905F904F900895BF92E7
:10517000CF92DF92EF92FF920F931F93CF93DF9323
:10518000C82FC62E842F6DE00E946A30B82E11E021
:10519000190F211103C026E0F22E02C094E0F92E6F
:1051A000D12CD0E0E12C02E023E33FE046E65FE0D3
:1051B000B601CE010E946227CF0DD11DB601645FFA
:1051C0007F4F2B2D4DE15FE0CE010E945227E12F52
:1051D000F0E0EE0FFF1FE355FE4F40815181B60115
:1051E0006B5F7F4F81E090E01A3011F480E090E037
:1051F00020E08C0F9D1FDF91CF911F910F91FF90A9
:10520000EF90DF90CF90BF900C945227CF92DF9217
:10521000EF920F931F93CF93DF936C01EB01142F49
:10522000E22E09A92FEF45E00E94B923E12E0E8D51
:105230002FEF4AE1BE01C6010E94B9232396EE2456
:10524000E39407E025E040E050E061E070E0CE014B
:105250000E94192225E040E050E066E170E0CE01B6
:105260000E94192220E041E050E162E070E081E01C
:1052700090E00E94522721E041E050E162E070E0BE
:1052800086E190E0DF91CF911F910F91EF90DF9039
:10529000CF900C945227CF92EF920F931F9322E05E
:1052A000C22EE12C00E010E020E00E94D1251F91E9
:1052B0000F91EF90CF900895CF92DF92EF92FF92EF
:1052C0000F931F93CF938C01FC0185A1CBEF8C9F93
:1052D000C02D11247801FDE1EF0EF11CCA5CC12C38
:1052E000D12CF70141917F014F3F69F0F80185A171
:1052F00090E0019721E08C159D0509F420E06DE018
:105300008C2F0E94B728FFEFCF1ADF0AC65F88E014
:10531000C816D10431F7CF911F910F91FF90EF90F4
:10532000DF90CF90089520E0FC0146A16CE080E082
:105330000E94B72820E044EF5EE060E170E085E085
:1053400090E00C944227EF920F93FC019685990F01
:10535000292F220F220F920F945F969524E3291B89
:10536000FAE06F9FC0011124820F911DE12C00E033
:1053700026EB3EE044ED5EE063E370E001960E94C0
:1053800062270F91EF900895EF92FF920F931F9372
:10539000CF93DF93FC01E759FF4F2081FC012111DE
:1053A00003C0E784C5E202C0E2A0C0E0662319F0B2
:1053B000613081F02DC06C2F70E020E04DE85EE0A0
:1053C00080E090E0DF91CF911F910F91FF90EF90DF
:1053D0000C944227EE20E1F0D0E020E044E65EE0CD
:1053E000BE0180E090E00E94422704E010E0FF242C
:1053F000F394FE1469F0BE01600F711F20E04CE4CD
:105400005EE0C8010E944227F3940E5F1F4FF1CF68
:10541000DF91CF911F910F91FF90EF900895FC01C4
:10542000E559FF4F9C0121543F4F80E090819F3F01
:1054300031F09581890F3796E217F307B9F7089590
:1054400020919207211103C08FEF9FEF08955FB75E
:10545000F89422E02093E9002091F20030E0121647
:10546000130614F421E030E0422FFC0184E64150A1
:1054700038F02898809391079091F1009193F7CF9D
:105480002115310521F08091F200882319F05FBFCA
:10549000C90108958BE68093E800F9CF2FB7F894FF
:1054A00083E08093E9009091E800892F807295FF56
:1054B00004C09091F20080E4891B2FBF0895809171
:1054C000970781110DC082E08093930784E0809359
:1054D0009407109296071092950781E080939707A2
:1054E00083E997E00895EF92FF920F931F93CF9374
:1054F000DF9300D000D000D0CDB7DEB78C01E42E12
:10550000F22E1A8219821C821B821E821D82CE01FB
:1055100001960E94B11CBE016F5F7F4FC8010F96BC
:105520000E94B11CF801E58A88E4868BF78A81E045
:10553000808FCE0101960E94DB1C26960FB6F89450
:10554000DEBF0FBECDBFDF91CF911F910F91FF90B6
:10555000EF900895FF920F931F93CF93DF93CDB7F2
:10556000DEB7AE970FB6F894DEBF0FBECDBF8C018D
:10557000362FF22E442309F48AC086E0EFEEF1E0E4
:10558000DE01999601900D928A95E1F788E0E5EFAA
:10559000F1E0DE015B9601900D928A95E1F789E0DA
:1055A000EDEFF1E0DE01529601900D928A95E1F760
:1055B00081E1E6E0F2E0DE01119601900D928A951C
:1055C000E1F76A3040F0862F6AE00E946A30805D21
:1055D000898321E001C020E0E1E0F0E0EC0FFD1F55
:1055E000E20FF11D5AE0832F652F0E946A30905D13
:1055F000908381E0820FA1E0B0E0AC0FBD1FA80F47
:10560000B11D85E0FE01B99601900D928A95E1F7F2
:1056100086E0820F90E0295FE1E0F0E0EC0FFD1FF3
:10562000E80FF91F4A3078F0842F0E946A30805DBD
:105630008083A1E0B0E0AC0FBD1FA20FB11D88E0D8
:10564000FE0172960EC030E3340F3083413089F78B
:10565000A1E0B0E0AC0FBD1FA20FB11D87E0FE01BD
:105660007B9601900D928A95E1F7BE016F5F7F4FA7
:10567000CE0183960E94571E2F2D41E0BE016D5D25
:105680007F4FC8010E94732ACE01839640C087E0F5
:10569000E0E1F2E0DE01119601900D928A95E1F7CA
:1056A0006A3040F0862F6AE00E946A30805D8C8309
:1056B00024E001C023E0E1E0F0E0EC0FFD1FE20F89
:1056C000F11D832F6AE00E946A30905D90832F5F06
:1056D000E1E0F0E0EC0FFD1FE20FF11D8EE28083B0
:1056E000BE016F5F7F4FCE0142960E94571EBE01E2
:1056F0006E5E7F4FC8010F960E94B11C81E0F801D9
:10570000858B92E2968BF78A808FCE0142960E941B
:10571000DB1CAE960FB6F894DEBF0FBECDBFDF9197
:10572000CF911F910F91FF90089584E796E00C941C
:10573000B918CF93DF9300D0CDB7DEB7789484B596
:10574000826084BD84B5816084BD85B5826085BD7D
:1057500085B5816085BD80916E00816080936E000B
:1057600010928100809181008260809381008091FD
:1057700081008160809381008091800081608093AE
:1057800080008091910082608093910080919100CF
:10579000816080939100809190008160809390005F
:1057A0008091C10084608093C1008091C1008260BB
:1057B0008093C1008091C10081608093C10080917D
:1057C000C30081608093C3008091C0008260809399
:1057D000C0008091C20081608093C20080917A00F5
:1057E000846080937A0080917A00826080937A004E
:1057F00080917A00816080937A0080917A0080683D
:1058000080937A0010929207109219021092180257
:105810008091D70081608093D70080EA8093D80080
:1058200089B5806189BD89B5826089BD09B400FEF2
:10583000FDCF61E070E080E090E00E94592180910E
:10584000D8008F7C80618093D8008091E000807FB9
:105850008093E0008091E1008E7E8093E1008DE0F6
:105860008093E200559A209A81EC80937C0085B168
:10587000806F85B984B1877E84B984B1876E84B91D
:105880005E9A5F988AB1806D8AB9769A6E9881B374
:10589000806F81BB899880B38D7080BB80E58CBDA3
:1058A00081E08DBD85E090E00E9472275F9A85E0DF
:1058B00090E00E9472275E985C98ECE0F7E084919B
:1058C0008EBD00000DB407FEFDCF319687E0E931B3
:1058D000F807A9F75C9A81E88093640080916500DD
:1058E0008160809365000E94772787FF15C05C98D0
:1058F00085EA8EBD00000DB407FEFDCF5C9A2E98A0
:105900002F982D988091640080628093640081E0DC
:1059100083BF889513BEFCCF02E010E00E9477277A
:1059200082FF40C02D980E9477278478843831F018
:105930000E9477278471843181F518C02D9A88ECF4
:1059400090E00E9472272F981A8309836FEFCE018F
:1059500001960E94372884EF91E00E9472272F9AC7
:105960000E94772784788438D9F3E2CF2D9A88EC87
:1059700090E00E9472272E981A83098360E0CE017E
:1059800001960E94372884EF91E00E9472272E9A98
:105990000E94772784718431D9F388EC90E00E94CB
:1059A0007227BCCF2D9A82E090E00E94BA2F882304
:1059B00019F03E9A3F9A02C03E983F9880E180934A
:1059C0007E06809164008E7F8093640080917A00CF
:1059D000806480937A0080917A0086FDFCCF0091EC
:1059E0007800109179000E94622520E030E0980153
:1059F00011270027600F711F821F931F20916400E1
:105A0000216020936400611571058105910511F0F5
:105A10000E94A12F83E884BD8FEF87BD81EF809323
:105A200080001092880010928A0085E690E00E9423
:105A3000BA2F182F86E690E00E94BA2F163411F480
:105A4000813491F085E690E09A83898366E4CE0103
:105A500001960E94372886E690E09A83898361E464
:105A6000CE0101960E94372810923407BB24B394CC
:105A70008AE1E82E82E0F82E00E090E0C92E90E066
:105A8000D92EAA24A3948FB7F89440911A06509166
:105A90001B0660911C0670911D068FBF80917F06CA
:105AA000942F981B892F10918006112329F0909331
:105AB00081061092800699C090917E06891740F465
:105AC0008F5F891708F091C0B3BE889513BE8DC053
:105AD000A092800640937F0680917A0690917B0683
