:100000000C94F9090C94210A0C94210A0C94210AED
:100010000C94210A0C94210A0C94210A0C94210AB4
:100020000C94210A0C94210A0C94E1200C94532185
:100030000C94210A0C94210A0C94210A0C94210A94
:100040000C94210A0C94210A0C94210A0C94210A84
:100050000C94210A0C94210A0C94210A0C94222855
:100060000C94210A0C94210A0C94210A0C94210A64
:100070000C94210A0C94210A0C94210A0C94210A54
:100080000C94210A0C94210A0C94210A0C94210A44
:100090000C94210A0C94210A0C94210A0C94210A34
:1000A0000C94210A0C94210A0C94210A630AAC0ACC
:1000B0000B0C5A0C190D2A0DF80C6D0F4212AA12D6
:1000C000AA12AA12CC13571281128612811286121A
:1000D0008112861281128612091437143D143714C6
:1000E0003D1437143D1437143D14DC17D717DC17B3
:1000F000E217FA17FA17FA1706180D1851185118BF
:1001000051180D184920616D20736F72727940206B
:10011000796F750A206C6F7374207468652067614D
:100120006D652E0A202020202020204920776F6E28
:100130002100436F6E67726174756C6174696F6ED4
:1001400073210A20202020202020202020596F7594
:1001500020576F6E210020596F757220637269629B
:10016000400020204D792063726962400020596F61
:1001700075722068616E64400020204D79206861AE
:100180006E64400020596F75722068616E64400093
:10019000204D792068616E6440002020476F212047
:1001A000200020476F20666F7220312E2000202013
:1001B000476F2120200020476F20666F7220312E6C
:1001C00020004D79207475726E20746F20737461F5
:1001D00072744000596F7572207475726E20746F5E
:1001E000207374617274400054776F20666F7220C0
:1001F000686973206865656C73210054776F2066A9
:100200006F7220686973206865656C732100202017
:1002100020492077696C6C207468726F770A746863
:100220006573652074776F2063617264732E005468
:1002300068726F772074776F2063617264730A6FDE
:10024000757420746F2074686520637269622E0073
:1002500003081F051F1F151B1F11111F110E1F154E
:10026000111F05011F111D1F041F001F0010101F6B
:100270001F041B1F10101F061F1F011F1F111F1F10
:1002800005071F311F1F051B17151D011F011F101B
:100290001F0F100F1F0C1F1B041B071C0719151322
:1002A0000C121E1F120C1E12120C121F0C1A140418
:1002B0001F052E2A1E1F021C001D00201D001F04EA
:1002C0001A011F001E041E1E021E1E121E3E120CCC
:1002D0000C123E1E020614120A020F121E101E0EEF
:1002E000100E1E081E1A041A2E281E1A12161F118E
:1002F0001F121F101D151711151F07041F17151D9D
:100300001F151D01011F1F151F17151F00170000C6
:100310001000040404040E040229060A0000100060
:10032000101C14FD1D1D5D9ABABAFAF4F4F474A8F9
:10033000A8485050505040404040C0E018E4FA1BDC
:100340003377F7F0F8FFFFFF07F807F8FE06FF071F
:10035000F707FFFFFFFF0FF1FE7F3F080C0E0F0FA7
:100360000F0F0F0F000F000F0F0E0702060E0F0FDB
:1003700007080F0F0F0E0C1C14C3E7FFFF0FF1FE51
:10038000FFFF07F604FE07FFFF00FF00FFFFFFFF70
:10039000FFFFE7C381FF7F87783F2F2F2F2FAEAE60
:1003A000AEAF265751EEF1FEFFFFDFD190AE8E8C3F
:1003B000FD05020100000000000000000000010136
:1003C0000102020202050505050B0B0B0B8018004C
:1003D000000000000000000000000000000000001D
:1003E000000000C030180C040404040404040C08C9
:1003F00008000000000000C0C080000000000000F5
:10040000808000008080000000C04040404000002C
:1004100000000000E010080C0404040C0818306010
:10042000C00080000000000080800000008080800C
:1004300080800000000080808080000000000000BC
:1004400000000000000000000000000000000000AC
:10045000000000000000000000000000000000009C
:1004600000001F60408080808080808080804040CD
:10047000E030000000F02E2320213618E08000FF3D
:1004800000010F0701011FF000001F704CC48480A1
:10049000000000001F30C08080808080C040603835
:1004A0000F0001070C70C07C03000E3B6949C8882F
:1004B0008485878000000FF000010100000000002B
:1004C000000000000000000000000000000000002C
:1004D000000000000000000000000000000000001C
:1004E000000000000000000000000000000000000C
:1004F00007000000030100000000000000030000EE
:1005000000000000000000070400000000000000E0
:1005100000000000000000000000000000000000DB
:1005200000000000000000000000000000000000CB
:1005300000000000000000010000000000000000BA
:100540000000000000000000000000000000001695
:1005500010FF00FF55AA55AA55AA55AA55AA55AA93
:1005600055AA55AAFF00FF1F205FB5AAB5AAB5AAD4
:10057000B5AAB5AAB5AAB5AAB5BA5F201F0E1000D4
:100580000000FFAA55AA55AA55AAFF00FF0008A01F
:10059000BFAAB5AAB5AAB5BA5F201F0E15F804FA0E
:1005A000FDFDFDFDFDFDFDFD050000FF00FFFFFF62
:1005B000FFFFFFFFFFFF0000001F001F1F1F1F1F87
:1005C0001F1F1F1F0000001615F804FAFDFDFDFD9A
:1005D000FDFDFDFDFDFDFDFDFDFDFDFDFA04F8FF4A
:1005E00000FFFFFFFFFFFFFFFFFFFFFFFFFFFFFF1A
:1005F000FFFFFF00FF1F001F1F1F1F1F1F1F1F1FC9
:100600001F1F1F1F1F1F1F1F1F001F546F74616CB0
:100610003A0007040103070F07030101020408045D
:1006200002010704080C0E0F0E0C08080402010258
:1006300004084E6F7468696E672021004D7920436D
:100640007269624000596F7572204372696240009E
:10065000596F75722048616E6440004D7920486181
:100660006E6440002053636F72653A20004B38007F
:10067000FF0101050101FF005155515551555155DB
:10068000515551555155515551555155515551553A
:10069000515551555155515551555155515551552A
:1006A000515551555155515551555155515551551A
:1006B00051A1A1428224081020C00077747475B43F
:1006C0005427301C1D1C5D1C5D1C5D1C5D1C5D1CCD
:1006D0005D1C5D1C5D1C5D1C5D1C5D1C5D1C5D1C52
:1006E0005D1C5D1C5D1C5D1C5D1C5D1C5D1C5D1C42
:1006F0005D1C5D1C5D1C5D1C5D1C4900AA807F802B
:100700007F000800FF0000FC028100F208F40AA943
:100710000595C5D5C5D5C5D5C5D5C5D5C5D5C5D509
:10072000C5D5C5D5C5D5C5D5C5D5C5D5C5D5C5D5F9
:10073000C5D5C5D5C5D5C5D5C5D5C5D5C5D5C5D5E9
:10074000C5D5C5D5C5D5C5C4C2E1E0F2783C1E0704
:1007500000007FE0C080270817282A5054515551C7
:100760005551555155515551555155515551555159
:100770005551555155515551555155515551555149
:100780005551555155515551555155515551555139
:100790005551A1A1438224081020C000008081830C
:1007A000476F1E5E1C5C1C5D1C5D1C5D1C5D1C5D42
:1007B0001C5D1C5D1C5D1C5D1C5D1C5D1C5D1C5D71
:1007C0001C5D1C5D1C5D1C5D1C5D1C5D1C5D1C5D61
:1007D0001C5D1C5D1C5D1C5D1C5D1C4900AA807FAE
:1007E000807F000800FF1837686A68F7E0C5D5C544
:1007F000D5C5D5C5D5C5D5C5D5C5D5C5D5C5D5C529
:10080000D5C5D5C5D5C5D5C5D5C5D5C5D5C5D5C518
:10081000D5C5D5C5D5C5D5C5D5C5D5C5D5C5D5C508
:10082000D5C5D5C5D545D5C5C4C2E1E0F2783C1ED5
:1008300007000000000000010101010101010101A8
:100840000101010101010101010101010101010198
:100850000101010101010101010101010101010188
:100860000101010101010101010101010101010178
:100870000101010101010000000000000340FFFF31
:1008800055FFFF55FFFF55FFFF55FFFF55FFFF5574
:10089000FFFF55CF3F55D5F08D14A1C881CFD9F1B9
:1008A000AF2000080B000202020100090400000151
:1008B00002020000052400100105240101010424A6
:1008C0000206052406000107058103100040090403
:1008D0000100020A000000070502024000000705AF
:1008E00083024000000403090412010002EF020128
:1008F00040412336800001010203014172647569A1
:100900006E6F204C4C430041726475696E6F204CD1
:10091000656F6E6172646F0035053B053D053F05EF
:10092000410543054505470549054B054D054F055F
:10093000510553055505570559055B055D055F05CF
:10094000610563056505670569056B056D056F053F
:1009500071057788798E779471176F176D176B17FC
:10096000691767176517631761175F175D175B17BF
:10097000591757175517531751174F174D174B172F
:10098000491747174517431741173F173D173B189E
:100990003B1A3B1C3D1D3F1D411D431D451D471D71
:1009A000491D4B1D4D1D4F1D511D531D551D571DDF
:1009B000591D5B1D5D1D5F1D611D631D651D671D4F
:1009C000691D6B1D6D1D6F1D711D77A079A677AC1C
:1009D000712F6F2F6D2F6B2F692F672F652F632F4F
:1009E000612F5F2F5D2F5B2F592F572F552F532FBF
:1009F000512F4F2F4D2F4B2F492F472F452F432F2F
:100A0000412F3F2F3D2F3B2F392F34AC02020702DD
:100A100002000207020005030002050200000207AF
:100A20000200350B3B0B3D0B3F0B410B430B450BC2
:100A3000470B490B4B0B4D0B4F0B510B530B550BEE
:100A4000570B590B5B0B5D0B5F0B610B630B650B5E
:100A5000670B690B6B0B6D0B6F0B710B738C738ECC
:100A6000739071116F116D116B116911671165111F
:100A7000631161115F115D115B115911571155110E
:100A8000531151114F114D114B114911471145117E
:100A9000431141113F113D113714351A37203D23C1
:100AA0003F23412343234523472349234B234D23FE
:100AB0004F23512353235523572359235B235D236E
:100AC0005F23612363236523672369236B236D23DE
:100AD0006F23712373A473A673A871296F296D29DD
:100AE0006B29692967296529632961295F295D299E
:100AF0005B29592957295529532951294F294D290E
:100B00004B29492947294529432941293F293D297D
:100B10003B29392934ACFFFFFFFFFFFFFFFFFFFF39
:100B2000FFFFFFFFFFFFFFFFFFFFFFFFFF7F3F1FF5
:100B3000010103070F0F0F0F0F1F3F7FFFFF7F3DC7
:100B4000190101010101000000001A10BFBFBF1F01
:100B5000EFEFEFEFEF1FBFBFBFBFBFBFBFBFBFBF55
:100B6000BFBF5F201F00000001020505050505024B
:100B700019245A5A24180000000000000000000048
:100B80000F1F3F7FFFFFFFFF0808000F102F5F5F61
:100B90005F5FFFFFFFFF7F3F1F0F08085F5F5F5F23
:100BA0002F100F001F3F7FFFFFFFFFFFFFFFFFFF23
:100BB000FFFFFFFFFFFFFFFFFFFFFFFFFFFF000043
:100BC00000000101010101193D7FFFFF7F3F1F0F61
:100BD0000F0F0F0F070301011A10001F205FBFBF87
:100BE000BFBFBFBFBFBFBFBFBFBF1FEFEFEFEFEFC5
:100BF0001FBFBFBF0000000000000000000018245D
:100C00005A5A241902050505050502010000FFFFD7
:100C1000FFFFFEFCF8F00808FAFAFAFAF408F00010
:100C2000F0F8FCFEFFFFFFFF080800F008F4FAFAF6
:100C3000FAFA21080F0F08080006090B06000E0338
:100C4000030E000F090F06000F0F000F02030F0025
:100C50000E0F090D000E10BEBDBEBDBEBDBEBDBE99
:100C6000BDBEBDBE0000040004000400040004007A
:100C70000400004E080F0D0702000F050F0A000FB9
:100C80000D0900020B0D00020B0D00000000000F0B
:100C90000D0702000F0F0808000E03030E00030EDD
:100CA0000E0300000006090B06000F02030F0000F0
:100CB0000000010F0F010E03030E000F0D070200CD
:100CC0000F0D090E10A7C7A7C7A7C7A7C7A7C7A714
:100CD000C7A700070707070707070707070707074B
:100CE0000024080E1F1F1F0E00000000000000005F
:100CF0000000001F0E0400000000000000000004BF
:100D00000E1F00040E1F001C14FD1D1D5D9ABABAB3
:100D1000FAF4F4F474A8A8485050505040404040B1
:100D2000C0E018E4FA1B3377F7F0F8FFFFFF07F88D
:100D300007F8FE06FF07F707FFFFFFFF0FF1FE7F33
:100D40003F080C0E0F0F0F0F0F0F000F000F0F0EAD
:100D50000702060E0F0F07080F0F0F0E0C72190077
:100D6000C0F0F81C0C040682C2C2C2060CFCF8F8E3
:100D7000F878000000000080800000808080000083
:100D800000AAABABABABAA000004FCFEFEFE000069
:100D9000808080800000000004FCFEFEFE000080D9
:100DA00080808000000000000000808080808080C3
:100DB00000000000000000000000808080808000B3
:100DC0008080000000000080808080808000000023
:100DD000003EFFFFFFF0C080000107050C0C0E0F66
:100DE00007030300800001FFFFFFFF0E070707074F
:100DF000070000001FFFFF1F00000000FFFFFFFFB4
:100E00000301010103FFFFFFFC0000FFFFFFFF03E1
:100E100001010103FFFFFFFC0080C6E3F131190F60
:100E20003FFFFFFE80000000F0FCFEFF030000001B
:100E3000FFFFFFFF0000F8FEFFE1202020233F3FDF
:100E40003E380000000307070F0F1F1E1E1C1C1C4E
:100E50001C0C0C0E06030100101F1F1F1F100000AA
:100E6000000000000000001F1F00000000100F0F16
:100E70000F1F181010181E0F07030000100F0F0F80
:100E80001F181010181E0F07030000070F1F1F1850
:100E90001010101F1F1F1F10000081C78F9F1E1CE6
:100EA0001C0E9FFFFFFF70000103070F0F1E1E1C8B
:100EB0001C1C0C04000000000000000000000000EA
:100EC0000000000000000000000000000000000022
:100ED0000000000000000000000000000000000012
:100EE0000000000000000000000000000000000002
:100EF00000000000000000000000000000000000F2
:100F000000000000000000000000000000000101DF
:100F100001010101010100000000000000000000CB
:100F2000000000000000003510BF7FE0840A44A0EC
:100F30004F1024AA24204955494149554941495552
:100F40004941495549414955494149554941495501
:100F5000494149554941495549414955494100018E
:100F600002050B0A162C2C595A5958B2B5B2B0B218
:100F7000B5B2B0B2B5B2B0B2B5B2B0B2B5B2B0B24D
:100F8000B5B2B0B2B5B2B0B2B5B2B0B2B5B2B0B23D
:100F9000B5B2B003051F041B03050F190F030508A5
:100FA000100F05051F001F111F030507051F03056F
:100FB0001F151F030519050303051F151D0305173D
:100FC000151D030507041F030511151F03051D1536
:100FD0001703051F051F0B0F000000000000000095
:100FE0000000FF404040404040404040201F0D1165
:100FF000FC0251A955A955A955A95102FC7F80159C
:101000002A552A552A552A15807F00000101010121
:10101000010101010100000D11A802000100010001
:101020000100010002A82A8000000000000000006A
:1010300000802A0000000100010001000100000002
:101040000080F8FCFEFFFEFCF8F8F8F8F0E0C007BE
:101050000F1F3F7FFFFFFFFFFF7F3F1F0F070F1097
:101060000000807804FA04D810D010D020C000000E
:101070000708172C5F5F5B5F5B2F170807000D14D5
:10108000000000000000000000000000FF00000061
:10109000000000000000000000FF08080808080821
:1010A0000808080804020105060E1F3E1F0E0C1E4C
:1010B0003F1E0C0C2E3F2E0C0C2F372F0CFCFEFF6E
:1010C000FFFFFFFFFFFFFFFFFFFFFFFFFEFCFFFF34
:1010D000FFFFFFFFFFFFFFFFFFFFFFFFFFFFFF1F00
:1010E0003F7F7F7F7F7F7F7F7F7F7F7F7F7F3F1FF0
:1010F000111700500400020002000200020002006A
:101100000450000055000000000000000000000036
:1011100000005500000510002000200020002000E5
:10112000200010050000F80452AA52AA52AA52AA9E
:1011300052AA5204F80000FF0055AA55AA55AA5514
:10114000AA55AA5500FF00000F10252A252A252A96
:10115000252A252A25100F0000F804F2FAFAFAFAD7
:10116000FAFAFAFAFAF204F80000FF00FFFFFFFFB4
:10117000FFFFFFFFFFFFFF00FF00000F10272F2FD3
:101180002F2F2F2F2F2F2F27100F00120AFFFFFFB7
:10119000FFD7D3535252525353D3D7FFFFFF7F0091
:1011A0000101010101030302020303010101010125
:1011B00000FFFFFFFFD7B3B3B2B2B2B3B3B3D7FFF1
:1011C000FFFF7F000101010101030202020203018E
:1011D0000101010100FFFFFFFFB7D35352525253E9
:1011E00053D3B7FFFFFF7F00010101010103030299
:1011F000020303010101010100FFFFFFFFD7D353E9
:10120000D29292939393D7FFFFFF7F0001010101D8
:1012100001030202020203010101010100FFFFFFBD
:10122000FFD79393929292D353D3D7FFFFFF7F00C0
:101230000101010101030202020203010101010196
:10124000001409FFFFFFF77E7E7676F6F6F6F6F6D7
:1012500076767E7EFEF6FC010101000000000000B3
:101260000101010000000000000101FFFFFF3B3E03
:101270007E7A7AFAFAF6F6F676767E7EFEF6FC014D
:101280000101010000000000010101000000000058
:101290000001011504000606040604040604000B00
:1012A00000040604040604060600000606040404FE
:1012B000040404000B0004040404040406060030C3
:1012C0003000000000000000C020100804020242AC
:1012D00002020202020A0A0A0A0A0A0A0A0A0A0A96
:1012E0000A0A0A12A40850A0C00000000000000072
:1012F0000000000000000000FF00800000FE000071
:1013000000000000000000000000000000000000DD
:101310000000FC003F80552AFF0000000000000094
:10132000000000000000FE0101F95A81FCFDA1A1AE
:10133000E1E1E1E1E1E121E1F7E1E1E1E1E1E1E147
:10134000E1A1A1FCFD8259F80101FE0000000000AE
:10135000000000000000010202050990A7DF3F7FA6
:10136000000000000000000000000000000000007D
:1013700000003FDFA790890504040300000000007F
:10138000000000C020D0E8F4FA79B95204022C5AC7
:10139000BC78F878B81840B07070B04018B878F8D9
:1013A00078BC5A2C4AA47AF1FAF4E8D020C00000A4
:1013B000000003000303030102010000000000001D
:1013C0000001020100000000030300000000010210
:1013D00001000000000001020103030303000300F9
:1013E0000005030002050200000207020000EA31C6
:1013F000482F11241FBECFEFDAE0DEBFCDBF11E0D2
:10140000A0E0B1E0E2ECFCE602C005900D92A43F42
:10141000B107D9F727E0A4EFB1E001C01D92A438CD
:10142000B207E1F719E0C8EFD9E004C02197FE0147
:101430000E944B34C73FD107C9F70E944C2F0C9430
:1014400054360C9400002F923F924F925F926F920D
:101450007F928F929F92AF92BF92CF92DF92EF9244
:10146000FF920F931F93CF93DF93CDB7DEB72997EA
:101470000FB6F894DEBF0FBECDBFFC01DB013B0110
:101480002EE0620E711C4B0131E2830E911C189606
:101490003C91189719961C9119971095132386A5BE
:1014A000882311F08CE084879485492F50E04D30DB
:1014B000510510F00C9473155D016F01FA01EA5AA1
:1014C000FF4F0C944B3416968D919C9117978F700B
:1014D0009927892B39F41E968C911E97882311F435
:1014E0000C944A14F50166856630A0F586819781D3
:1014F0008F709927892B11F00C94731584A991E0B2
:10150000980F94ABE60FF11DD501A80FB11DD5962C
:101510008C91808B6F5FD5011E966C93C5014096B0
:101520000E94EB2AF50184A991E0980F94AB61A188
:10153000E60FF11DD501A80FB11DD5968C9183A39F
:101540006F5FD50191966C93C50183960E94EB2A3B
:101550000C94731581E048C2D6015C968C915C971F
:10156000873418F48F5F5C968C93F50186858530FF
:1015700008F458C0D6015C968C918634A8F46FE2CA
:1015800072E0CE0101960E946E20EE24E39400E00A
:1015900026E442E0BE016F5F7F4FC6010E94881EB5
:1015A000CE0101960E942A1F15FF06C0F601838D09
:1015B000882311F08150838F16FF0EC0D6015B96F1
:1015C0002C91422F50E0F501868590E00197481755
:1015D000590714F40C94591413FD02C00C9473159C
:1015E00081E0D6011E968C931E975B966C91C30189
:1015F0000E94A016682FF501E759FF4F80818111E5
:1016000002C0C30101C0C4010E94C116F601838D4E
:10161000D5011E969C9189130C9473158150838F6C
:101620000C9473158FEFF601858F868F86E0E6E1C7
:10163000F1E0DE01119601900D928A95E1F78501A6
:101640000D5D1F4F9501275D3F4FDE011196F8019B
:101650004DE051E08191642F0E942B34943009F4C5
:101660005C931196E217F307A9F7AE014A5F5F4F4B
:10167000FE013196D8013DE082E0F82EED908C918C
:10168000632F0E942B3421E0290F8E2D0E942B34D2
:101690009F5F291308C080818F3F09F4F082818108
:1016A0008F3F09F4F1823196E417F50739F7DE012F
:1016B0001196F12CEDE0EE2EF3E09F2EF394F8015D
:1016C00081918F016E2D0E942B349F5F292F30E076
:1016D0002F5F3F4F8F2C482D50E0F501E40FF51F91
:1016E00083A16E2D0E942B349F5F892F90E02817D5
:1016F000390771F48C918F3F09F49C92E1E0F0E09E
:10170000EC0FFD1FE40FF51F80818F3F09F49082DD
:101710008394F6E08F12DFCF1196F5E0FF12CECF63
:101720009E01295F3F4FD501FE0131964DE058E003
:1017300016E080818F3FB9F493968C919397642F34
:101740000E942B3481E0890F893038F4873050F4BF
:10175000943048F49B5F908306C09950943018F4FD
:10176000508301C0108331961196E217F30709F7F1
:101770008FEF95012B5F3F4FF501AE014F5F5F4F3C
:10178000DA019D91AD01981315C0D6015D969C912B
:101790005D979F3F21F493A15D969C930BC0981792
:1017A00049F0D6015E969C915E979F3F19F493A1F4
:1017B0005E969C9331962E173F0711F78150E1F604
:1017C000F601858D8F3F59F40E94143326E030E0F6
:1017D00040E050E00E949133D6015D966C93F60193
:1017E000868D8F3FB1F476E0872E912CA12CB12C01
:1017F000D6015D969C915D975E968C91981749F005
:101800000E941433A50194010E949133F601668F62
:10181000EFCF82E04AC0F601848D8F5F848F8634DB
:1018200078F546E4BD01C6010E942A2D6EE072E003
:10183000CE0101960E946E2001E020E042E0BE0150
:101840006F5F7F4FC6010E94212ECE0101960E943C
:101850002A1FD6015C968C915C97893129F45D969C
:101860006C91C5010E94422DF601848D823311F0E6
:101870000C947315668DC5010E94422D0C9473154E
:1018800091968C919197863028F0F601668DCD0166
:101890000E94422DD50191968C91853028F0F60159
:1018A000658DC5010E94422D83E0D6011C968C9364
:1018B0001C976FC7F601848D8F5F848F8D35D8F4A8
:1018C0008B3108F062C08A3198F5803128F58F306D
:1018D00011F00C947315D4968C91D49791E0980FD5
:1018E000D4969C93D497FD01E80FF11D85A9F601CC
:1018F00080A70C9473158C3E50F4883A08F047C0CA
:101900004BEEBD01C6010E942A2D0C9473158C3E2E
:1019100009F462C00C94731580A56DE00E942B340D
:101920009A3011F40C94731587EA848F0C94731514
:10193000FD01E759FF4F808162E081110CC0C301B6
:101940000E94CF166BEF71E0CE0101960E946E20CF
:10195000E12C02E00CC0C4010E94CF1668EE71E0D9
:10196000CE0101960E946E20EE24E39401E02EE465
:1019700041E0BE016F5F7F4FC6010E94881ECE010D
:1019800001960E942A1F0C9473154BEE24C5BD01CD
:10199000C6010E94361E4BEEB501C6010E942A2DDB
:1019A000F501E759FF4F8081813059F464ED71E012
:1019B000CE0101960E946E20EE24E39400E021E522
:1019C000D7CF62EC71E0CE0101960E946E20EE242A
:1019D000E39400E027E4CCCF148EF501E759FF4FE4
:1019E0008081813021F584E0F60184870C947315A1
:1019F000D6015C968C915C978F5F5C968C93893452
:101A000008F463C0893411F00C947315B501C60154
:101A10000E94361EF601148ED501D3968C91D39771
:101A2000811165C791968C91882309F460C787E07E
:101A30000CC0B601615E7F4FC3010E94581E811128
:101A400042C081E0F50180A386E0D6011C968C930C
:101A50000C947315F601848D8C3408F44DC08C34CD
:101A600011F00C947315BD01C6010E94361EC6010B
:101A70000E94BB24F601148E8F3109F41CC287E04A
:101A8000F6018487D50190968C91909781110C94E2
:101A90007315D3968C91D397882309F418C2B60195
:101AA000615E7F4FC3010E94581E81110CC0B501B9
:101AB000C6010E94421EF50181A18111B8CF868521
:101AC000882309F402C285E08FCF873068F486301E
:101AD00011F00C947315F50183A98111F0C681A151
:101AE000882309F4ECC6F9C648E4B501C6010E9492
:101AF0002A2D81E0D601DCC1813008F0CBC115FF71
:101B000005C0838D882311F08150838F16FF0DC08F
:101B1000F601238D422F50E0D5011E968C9190E066
:101B20000197481759070CF4EFC632FF04C081E053
:101B3000F60187A703C0D6019F961C9213FFD3C757
:101B4000C6010E94BB24282FF601438DF501E40F46
:101B5000F11D80896DE00E942B3431E0390F3B305C
:101B600008F03AE0822F90E0830F911D80970CF0EF
:101B7000BAC7642FC3010E94A016D60197960C9194
:101B8000F601E00FF11D878F0F5FF60107A3838D2C
:101B9000D5011E969C91891302C08150838FC60186
:101BA0000E94BB24F82EF50153A9511104C051E045
:101BB00081A1811150E0023008F4A9C6F601E00FBE
:101BC000F11D858D3DE0632F0E942B3421E0290F0C
:101BD000868D0E942B3431E0390F321302C012E09F
:101BE00001C010E00230C9F0848D6DE00E942B34FA
:101BF00041E0490F241303C0321301C01C5F0330BE
:101C000061F0838D6DE00E942B349F5F491305C006
:101C1000241303C0321301C01A5F8F2D8F7E8F30C3
:101C200009F41E5F033008F411C1F601E00FF11D45
:101C3000848D3DE0632F0E942B34B1E0B90F858D78
:101C40000E942B34EE24E394E90E868D0E942B34FF
:101C500021E0290FEB1601F12B17F1F02E15E1F021
:101C6000BE1518F48E2D8B1B02C08B2F8E1983305E
:101C700098F4B21718F4822F8B1B02C08B2F821B93
:101C8000833050F4E21618F4822F8E1902C08E2D84
:101C9000821B833008F43DC6A0E0033009F4D6C0AF
:101CA000838D6DE00E942B3431E0390FB31709F4B6
:101CB00042C0E31609F43FC02317E9F1EB16D9F14E
:101CC0002B17C9F12E15B9F13B1718F48B2F831B75
:101CD00002C0832F8B1B843070F53E1518F48E2DB7
:101CE000831B02C0832F8E19843028F5321718F415
:101CF000822F831B02C0832F821B8430E0F4BE1529
:101D000018F48E2D8B1B02C08B2F8E19843098F403
:101D1000B21718F4822F8B1B02C08B2F821B8430CA
:101D200050F4E21618F4822F8E1902C08E2D821BF9
:101D3000843008F4F1C540E0043009F487C0828D96
:101D40006DE00E942B3481E0890F381709F47EC0C2
:101D5000B81709F47BC0E81609F478C0281709F40D
:101D600075C0B31709F472C0E31609F46FC02317E6
:101D700009F46CC0EB1609F469C02B1709F466C0AE
:101D80002E1509F463C0831718F4932F981B02C013
:101D9000982F931B953008F059C08B1718F49B2F80
:101DA000981B02C0982F9B1B953008F04FC08E15D2
:101DB00018F49E2D981B02C0982F9E19953008F09C
:101DC00045C0821720F4F22FF81B8F2F01C0821B11
:101DD0008530E0F53B1718F48B2F831B02C0832F4F
:101DE0008B1B853098F53E1518F48E2D831B02C091
:101DF000832F8E19853050F5321720F4622F631B24
:101E0000362F01C0321B353008F5BE1518F48E2D63
:101E10008B1B02C08B2F8E198530C0F4B21720F4B3
:101E2000722F7B1BB72F01C0B21BB53078F4E216BE
:101E300010F42E1902C0E21A2E2D253038F4AA23F0
:101E400009F475C5442309F470C51F5F8FE1F816C6
:101E500089F0552379F0D5011E968C91882309F4D9
:101E60006AC5B601615E7F4FC3010E94581E882378
:101E700009F461C5612FC3010E94CF1600E022E082
:101E8000412F6F2DC6010E945D2EF601848D8F5F5C
:101E9000848F29C64BE4BD01C6010E942A2DD601BC
:101EA0005C968C915C978F5F5C968C935C9781E0DD
:101EB0005A968C9318C6D50191968C918111DEC2E9
:101EC000D5011E968C918111A2C288E0BECD91965B
:101ED0008C91882309F4E3CD06C6D6015C968C91DB
:101EE0005C978F5F5C968C938B3530F4813108F072
:101EF00071C2803129F0F7C58B3509F474C2F3C57E
:101F0000F5018685823028F090A181E09827998795
:101F100001C019867601FFE1EF0EF11C86E0E6E1D3
:101F2000F1E09E012F5F3F4F3901D90101900D92E1
:101F30008A95E1F7F7019601295D3F4F412C512C1D
:101F40004DE081918F3F49F05394642F0E942B34D0
:101F50009F5F9B3008F09AE0490E2E173F0789F7E4
:101F600085010D5D1F4F32E0351508F042C0F701C5
:101F7000E50DF11DDF0112978C912DE0622F0E947B
:101F80002B3431E0390F11978C910E942B349F5FD5
:101F9000391332C0319780810E942B3421E0290F00
:101FA00023132AC0822F2B3008F08AE0382E340CFD
:101FB0006FE1631508F1D50191964C91F80130E07D
:101FC0005DE04317C9F08191652F0E942B349F5F1C
:101FD00029130DC0632FC4010E94A016382FBFE043
:101FE0003B1619F0EFE18CE03DC08EE036C13F5F5B
:101FF000E8CFF2E05F12E6C0A701450D511DFA01DE
:10200000329780812DE0622F0E942B3431E0390F0E
:10201000319680810E942B3421E0290F231329C09F
:10202000822F2B3008F08AE0382E340C6FE16315D4
:1020300000F1D50191962C90F801A0E0BDE02A16A0
:10204000C1F081916B2F0E942B349F5F29130FC029
:102050006A2FC4010E94A016382FBFE03B1629F05A
:10206000EFE186E03E12F9C0F3C088E0F6C0AF5F52
:10207000E6CFF2E0F51508F06EC0FA0133978081E3
:102080006DE00E942B3441E0490FD50191963C90C0
:10209000431718F4232E241A02C0242E231A4217A1
:1020A00018F4A22FA41B02C0A42FA21B321718F4ED
:1020B000B22FB31B02C0B32FB21BF80150E035168C
:1020C00009F44CC081916DE00E942B349F5F892FF1
:1020D0009B3008F08AE0840D8F83803208F03DC485
:1020E000341709F43AC4241709F437C4491709F41A
:1020F00034C4231709F431C4391709F42EC429173D
:1021000009F42BC463E0621508F427C4A43008F076
:1021100024C4491718F4892F841B02C0842F891BFB
:10212000843008F01AC4B43008F017C4391718F412
:10213000892F831B02C0832F891B843008F00DC4B4
:10214000291710F4921B03C0722F791B972F94301C
:1021500008F003C4F2C392E0591234C0F501A1A102
:10216000321718F4522F531B02C0532F521BF80181
:1021700040E0BDE0A41731F181916B2F0E942B3418
:102180009F5F892F9B3008F08AE0382E340C6FE176
:10219000631508F4E4C3231709F4E1C3391709F4FC
:1021A000DEC3291709F4DBC3533008F0D8C339174D
:1021B00010F4931B03C0732F791B972F933008F0F3
:1021C000CEC3CFC32985211114C0552009F4DAC329
:1021D000F701E50DF11D319780816DE00E942B34F0
:1021E00031E0390FD50191965C91F80120E04DE086
:1021F0001EC00E94143323E030E040E050E00E9413
:102200009133613071058105910509F0BBC3DDCFC4
:102210008191642F0E942B349F5F892F9B3008F09F
:102220008AE0382E340C6FE1631520F42F5F5213CF
:10223000EFCFA8C33913FACF622FC4010E94A016B2
:10224000382F7FE0371631F08FE1381205C082E079
:1022500012E004C084E001C082E010E0180F16C054
:102260002F5F421709F448C08191632F0E942B34DD
:102270009F5F9B3008F09AE0940D9F7E9F3081F71E
:10228000622FC4010E94A016382F12E03F3F09F4CC
:102290007EC0D60197968C91F601E80FF11D378F1D
:1022A0008F5FF60187A3C6010E94BB24782EFFE151
:1022B0008F17B1F0D5011E968C911E97882321F0BF
:1022C00090968C91882361F0F50181A1882309F40F
:1022D000F8C3B701C4010E94581E882309F4F1C352
:1022E000612FC4010E94CF1601E021E0412F672D2C
:1022F000C6010E945D2EF7C3980150E06DE0262EC6
:10230000E42DF0E0F887EF83451343C3F601878D92
:102310008F3F29F4F80120E03DE042135DC3252CF6
:10232000312CF1E02F1A31082E0C3F1CF101808175
:102330006DE00E942B3451E0590FF80130E020E0AD
:102340001DE0431357C3213051F4F3010DE0242D58
:1023500030E011E08E2F8619841708F455C3F3017D
:10236000D5015DE0242D30E08E2F8619841708F406
:102370005EC35FEF1DE0242D30E0D301F50100E0E6
:1023800040136CC35150C9F781E0F50183ABD5010F
:1023900090968C91882371F061E0C4010E94CF1661
:1023A00062EA71E0C3010E946E20EE24E39401E032
:1023B0002DE209C06AE971E0C3010E946E20EE249B
:1023C000E39400E022E241E0B301C6010E94881ECE
:1023D000C301D7CA4AE5B501C6010E942A2D81E092
:1023E000F601828F80C3B501C6010E94361ED60158
:1023F0005C961C92C6010E94BB24F50196858F3124
:1024000089F4992349F084E0D6011C968C93B50198
:10241000C6010E94421E67C3F50181A1882309F409
:1024200054CD2CC0911105C081A1882309F44DCD54
:1024300007C084E0F6018487D50190968C9151C342
:1024400084E0F6018487D50190968C919097811154
:1024500004C01E969C91911146C3F50193A9911158
:1024600040C3B601615E7F4FC4010E94581E8111B6
:10247000DECAD5011E968C918111C9CF87E0F60185
:102480008487C5CF16968D919C9117978F70992749
:10249000892B09F049C0F601848D482F50E049305E
:1024A0005105D8F5FA01ED59FF4F0C944B345F9666
:1024B0008C91F60192A5981708F482A7D501D296BF
:1024C0008C91F60193A5981708F483A7D6019A96E4
:1024D0009C919A97F501268D9B968C91921720F0EE
:1024E00091A9891728F0EFC29F5FD6019A969C9315
:1024F000F50191A98917C0F48F5FD6019B968C9343
:1025000013C0F60111A68F5F848F0EC091E0D60133
:1025100099969C9399978F5FD8C281E0F60181A725
:10252000BD01C6010E94361E13FFDDC289E0D6013F
:102530001C968C931C975C961C925C9781E09996F4
:102540008C9399979C961C92F501868D878F81A913
:1025500082ABC9C2D6015C968C918D37C0F48E36A1
:1025600008F0D4C08E3409F472C050F48D3408F0F1
:1025700063C021E0280F8630D0F4F601248FDCC040
:102580008F3508F0CCC0803508F48CC0BFC08A3AC3
:1025900038F48B3908F0C3C08C3808F0B7C0BFC01E
:1025A000893B08F4B3C0883C08F0BEC0B8C0D6016F
:1025B0005C962C93F501E759FF4F80819A3021F109
:1025C0009B3051F181110AC060E971E0CE010196A2
:1025D0000E946E2023E0E22E01E009C064E871E071
:1025E000CE0101960E946E2093E0E92E02E024E3E2
:1025F00041E0BE016F5F7F4FC6010E94881ECE0181
:1026000001960E942A1F98C0813019F469E771E091
:1026100007C06DE671E0E4CF813059F462E671E005
:10262000CE0101960E946E2083E0E82E01E022E3B5
:10263000DFCF66E571E0D4CF8EE4F601848FB5017B
:10264000C6010E94DD1DD6019D968C9375C0C30105
:102650000E944B2713FF0AC0F60195A5911102C0F5
:10266000148E04C09FE4948F10E008C017FF06C0CA
:10267000F60194A5992311F0915094A714FF5CC022
:10268000D6019C969C919C97492F50E04B5F5F4FE1
:10269000282F30E0421753070CF04EC09F5F9C96E6
:1026A0009C934AC0F501878DD6019A969C919A9782
:1026B000981710F49A968C93F50182A9D6019B96EF
:1026C0009C919B97981710F49B968C93F5018681AB
:1026D00097818F709927892B79F5D6019A969C91CD
:1026E0009A97268D9B968C91921720F091A9891725
:1026F00020F0EEC19F5FF60192A7D501D1969C9183
:102700008917D0F48F5FF60183A716C08F5FD601BB
:102710005C968C935C9781E099968C930DC08F5F4B
:10272000F601848F11A608C081E0D60199968C939A
:10273000B501C6010E94361E13FFD5C1F601848D76
:102740008E3438F4B501C6010E94DD1DD6019D9678
:102750008C93F501868D878F81A982ABD6011C965B
:102760008C911C978A3041F08B3051F0893059F4AC
:102770008AE01C968C9307C08BE0F601848703C027
:10278000D6011C961C92F501868D878F81A982AB9C
:10279000D6015C961C92A7C1F601848D8C3420F57D
:1027A0005E968C91893750F062E371E0CE0101961C
:1027B0000E946E2002E02CE442E009C064E071E077
:1027C000CE0101960E946E2001E023E443E0BE01A9
:1027D0006F5F7F4FC6010E94FF2CCE0101960E94C1
:1027E0002A1FF601848D4CC016962D913C911797A7
:1027F0002F703327232B09F045C0482F50E0FA01F2
:10280000EC54F109E930F105E8F5E459FF4F0C9477
:102810004B34FD01878DD6019A969C919A97981713
:1028200010F49A968C93F50182A9D6019B969C91FF
:102830009B97981710F49B968C93F60192A5D5015F
:102840005E962C915E9783A5921728F0D1969C9165
:10285000891720F041C19F5FF60192A7D501D1965B
:102860009C91891778F48F5FF60183A70BC0D6017E
:1028700099961C9299978F5F31C191E0F60191A7CB
:102880008F5F848F13FF2FC1F501E054FF4F83E06A
:10289000808329C1BD01C6010E946C2DF501E75955
:1028A000FF4F81E09081913009F480E080830C94A7
:1028B000720A2F5FD6015B962C930C94EC0A61E0B0
:1028C000C3010E94CF1666EB71E0CE0101960E9413
:1028D0006E20E12C02E02DE24BC86EEA71E0CE01E1
:1028E00001960E946E20E12C00E022E241C8B50171
:1028F000C6010E94421EF50181A1811198C8F5010F
:102900008685811170C8E1CA2F5F238F0EC910E040
:1029100084C91D5FA1E0C1C9AA2329F081E0180F75
:1029200041E0A1E009CA84E0FACF1E5F8FCA4111DD
:102930008DCA1B5F8BCA1F5F9DCA652FC4010E9491
:10294000A016382FBF81BF3031F08F818F3109F051
:1029500081CC84E07DCC86E080CC5F5FB0CB4F5FE4
:1029600009CC642FC4010E94A016382FEFE03E1658
:1029700031F08FE113E0381203C082E06FCC15E034
:1029800080E06CCCF50141A1D801F80120E03DE0E8
:1029900068CCF90181919F01622D0E942B349F5FC9
:1029A0009B3008F09AE0EF81F885E90FF11D3B9725
:1029B00089F4F501312C531549F083A1622D0E9451
:1029C0002B349F5F9A3010F0652F0DC033943196F1
:1029D0004311F1CF5F5F98CC8191632F0E942B341C
:1029E000933031F4622FC4010E94A016382F67C0C3
:1029F0002F5F93CC8191612F0E942B349F5F5913DD
:102A000001C02F5F3F5F9DCC8D91602F0E942B34C2
:102A10009F5F59130AC0852F5B3008F08AE0B90127
:102A2000680F711D603271055CF1319693CC808125
:102A30008F3F89F493968C919397652F0E942B3446
:102A400081E0890F8B3008F08AE0B901680F711DB1
:102A500060327105BCF01196319686CC8D91581379
:102A600014C083A1612F0E942B349F5F9B3008F01C
:102A70009AE0B901690F711D6032710534F408C024
:102A80001083D3CF9B5E9083E6CF0F5F319678CCD7
:102A9000602FC4010E94A016382F552081F0D1016B
:102AA0008C914DE0642F0E942B3421E0290F832F5D
:102AB0000E942B349F5F11E0291709F4E7CB10E047
:102AC000E5CB1F5F0DCC81E0D6015C968C932CCDBD
:102AD0008FE5F601848F30CE8DE4D6015C968C9321
:102AE000D1CE811194CC29960FB6F894DEBF0FBEDB
:102AF000CDBFDF91CF911F910F91FF90EF90DF90AD
:102B0000CF90BF90AF909F908F907F906F905F908D
:102B10004F903F902F900895DC01FB012185209577
:102B2000908529238681978187709927892B59F46D
:102B300050969C9150979F5F9C3119F050969C93B2
:102B400002C050961C9223FF0FC083E884BD8FEF14
:102B500087BD81EF809380001092880010928A00D8
:102B6000E054FF4F81E080830895089580E090E075
:102B700008950895CF93DF93FC016A3039F485817D
:102B8000848396818185890F868351C084816032D8
:102B900019F48E5F84834BC06E37D9F3262FEF0173
:102BA00066816F5F2A3331F178F42D32C9F130F448
:102BB000213211F12B3271F521E41FC02E32A1F028
:102BC000203340F12C5F19C02B3540F4213470F4D0
:102BD0002F3371F02034F1F424E40FC09FE9920FF9
:102BE0009A31C0F4275409C02FE307C0215405C00F
:102BF00022E403C023E401C02EE33F81062E000C33
:102C0000770B082E000C990B313061F440E552E04F
:102C10000E94DD2988858D5F9C81890F8C8307C088
:102C200020E4EBCF40E552E00E94ED29F3CF81E0B4
:102C300090E0DF91CF9108950F931F93CF93DF938F
:102C40008C014DEC53E064E170E080E090E00E9484
:102C50006624CAE9D0E0F801808920E047E753E024
:102C60006FEF7FEFFE01E80FF11DCF010E94DD291C
:102C70006C97CA3BFFEFDF0771F7CCEEDFEFF8018F
:102C8000808920E041E253E06DE270E0FE01E81B44
:102C9000F109CF010E94DD296C96C03BD10579F77F
:102CA000DF91CF911F910F9108950C94E9340C940A
:102CB000E9340C94E9340C94E9341F93CF93DF93F7
:102CC000EC01162F1882198246E050E06FEF70E099
:102CD00002960E94463644E050E06FEF70E0CE016D
:102CE0000C960E9446361A8A112311F0188A198A06
:102CF000DF91CF911F9108950F931F93CF93DF938F
:102D00008C01EB010E946C2D61E0CE010E960E94B9
:102D10005D1661E0CE0181960E945D16F80116866F
:102D2000148616A612A613A6FE01E759FF4F1082BD
:102D3000C659DF4F1882DF91CF911F910F910895EF
:102D4000FC01DC01A60FB11D12968C91663050F487
:102D5000DF01A60FB11D13969C91139712969C93B9
:102D60006F5FF4CF9FEF9783908191509083943061
:102D700039F4DF011896329601900D929A95E1F799
:102D80000895FC019181DF01A90FB11D1C966C9380
:102D900061E0690F6183CF010C960C94EB2AFC0172
:102DA0009089690F6A3710F4608B089589E7808BEA
:102DB000089508950895089508952F923F924F928F
:102DC0005F926F927F928F929F92AF92BF92CF92BB
:102DD000DF92EF92FF920F931F93CF93DF93CDB7C4
:102DE000DEB72C970FB6F894DEBF0FBECDBF5C01E7
:102DF0003B01FB0126803780FC01848588508530AB
:102E000008F4C8C0008D22E147E5C5010E94E62B09
:102E1000F3010685902F990F892F880F880F890F4E
:102E2000845F86959301205F3F4F38872F8314E39B
:102E3000181BC12CD12C802E912C31E0831A9108C3
:102E40005DE0452EC01608F058C0EF81F88551901E
:102E5000F887EF83E12EF12C20E0C814D90424F583
:102E60004BE955E069E270E0C7010E94DD29F3E01B
:102E7000EF0EF11C852D642D0E942B34592E282F26
:102E800047EA50E164E370E0C7010E94ED29E52DB7
:102E9000F0E0EE0FFF1FE155FE4F4081518120E031
:102EA0006DE270E0C70122C047EC55E069E270E0D6
:102EB000C7010E94DD29852D642D0E942B34592ED7
:102EC000282F47EA50E164E370E0C70108960E94AA
:102ED000ED29E52DF0E0EE0FFF1FE155FE4F40819B
:102EE000518120E06DE270E0C70103960E94ED2958
:102EF0002FEFC21AD20A165FA5CFF30101A1102F3E
:102F0000110F812F880F880F180F145F16951A5C08
:102F1000E12CF12CC02ED12CF1E0CF1AD108E01613
:102F2000E0F4EC14FD044CF4812F90E020E04DE738
:102F300055E068EF7FEF0A9709C082E0810F90E0CB
:102F400020E04FE455E068EF7FEF46970E94DD29CF
:102F50002FEFE21AF20A1A50E2CF21E040E86DE3C7
:102F600070E080E090E00E941A2A20E040E86CE3E4
:102F700070E080E090E00E941A2A00E010E041E05A
:102F80006FE370E0C8010E945A2A0E5F1F4F00389D
:102F90001105A9F7F5012485822F90E08D30910568
:102FA00008F050C2FC01EB58FF4F0C944B34F50174
:102FB000638DC3010E94932CF5016685C3010E94B5
:102FC000B42C40C2F50180A58F3F09F0C0C221E0BA
:102FD00040EF50E16CE070E080E090E00E94DD297D
:102FE00020E04EE750E160E170E085E090E00E9473
:102FF000DD2928C2C5010E94832CF501848D811131
:1030000008C0638DC3010E94932C03C0C5010E94B8
:10301000832CC5010E944C2C15C2F30191A9868D09
:10302000891710F002E001C001E026E140E0B301A1
:10303000C5010E94E62B20E04CE758E060E070E01C
:103040008BE290E00E94DD2920E04DE656E067E04B
:1030500070E083E390E00E94DD29F301968D878D77
:10306000981719F0F50111A501C010E0F30182A92C
:1030700091A9981719F0F50141A501C040E0F501AB
:1030800063A50E940427412FF50162A5F301878DF6
:103090000E94BD2621E041E0B301C5010E94A12BA1
:1030A000D1C16301FEE0CF0ED11CC30187599F4FF0
:1030B0007C01FC018081293019F4882319F009C0B2
:1030C000813039F4C6010E944B27882311F001E0BA
:1030D00001C002E026E140E0B301C5010E94E62BF9
:1030E00020E04CE758E060E070E08BE290E00E9466
:1030F000DD29F501828D81112AC091012F713327BD
:1031000081E0213108F480E0F5012485948D2A3096
:1031100049F02B3039F02930D1F4F7012081211109
:1031200005C00BC0F7012081211107C041E0993B88
:1031300008F440E0482B21E006C021E0993B08F468
:1031400020E0282B41E0B301C5010E94A12BF5012D
:10315000848D8E3409F050C182E386838783108684
:1031600081E081879485993038F19B3018F09B304D
:10317000B1F022C0F701808195012E5F3F4F811190
:1031800003C0993041F404C0813029F49A3019F415
:103190006BE576E002C060E576E0C9010BC0F7019F
:1031A0002081C5010296211103C065E476E002C0CA
:1031B0006CE376E00E94D224C6010E944B27E82EE1
:1031C00081110DC088E4F501868387838CE18087B7
:1031D00062E376E0C50102960E94D2240AC1F5E0BE
:1031E000F81768F421E0F50184A5811120E042E29E
:1031F00056E061E070E088E790E00E94DD2943013D
:10320000FBE68F0E911C140118861F82F12C95018C
:103210002E5F3F4F3C872B879F81F50184A59E152C
:1032200008F090C0981708F484C090E005962F81AC
:103230003885821793070CF47CC038E0F39EC001F8
:1032400011246C01EAE0CE0ED11C210102E310E052
:103250001986F20180818F3F49F1F985FF5FF98777
:103260006DE00E942B349F5FE92FF0E0EE0FFF1F0F
:10327000E355FE4F40815181E1E0F0E09A3011F0DA
:10328000E0E0F0E020E0B601C8018E1B9F0B0E9439
:10329000DD29F20180816DE00E942B34282F47EA5E
:1032A00050E1B601C80105960E94DD29FFEF4F1AD3
:1032B0005F0A025F1F4F0837110559F62F2D220FA5
:1032C000220F220F2A873985353090F0F1011581C0
:1032D00028E7F501268327838A85875F80871A3050
:1032E00010F560EF71E08B859C850E9491231BC0D7
:1032F00039858EE0389F002D11240E5C82E7482E20
:10330000401A512CCA849FE0C90ED12C10E041E034
:10331000B601C801850D911D0E945A2A53945394F9
:103320004514A8F7D3CF612F8B859C850E94772405
:10333000F394EF81F8853196F887EF83F7E02F0E4D
:10334000311C6ACF0E2D10E025E02E1578F490E0A8
:10335000059621E0801791070CF420E042E156E049
:103360006CE370E088E790E00E94DD29F50184A518
:1033700090E0059680179107E4F11F2D110F110FB2
:10338000110F165F8DE58683878310877501F2E044
:10339000EF0EF11C6BE076E0C7010E94D22488E7B3
:1033A000F501868387831087830101541F4FF40141
:1033B00080E090819F3F11F09581890F37960E171D
:1033C0001F07B9F78A3028F460EF71E0C7010E9447
:1033D000912360E0F40180818F3F11F08581680FB7
:1033E000F7E08F0E911C08151905A1F7C7010E947F
:1033F0007724F501118626C020E04DE656E067E00F
:1034000070E083E390E00E94DD29F301968D878DC3
:10341000981719F0F50111A501C010E0F30182A978
:1034200091A9981719F0F50141A501C040E0F501F7
:1034300063A50E940427412FF50162A5F301878D42
:103440000E94BD26F501848588508530E0F0828D8C
:10345000882329F0818D882311F0833051F4EE24E4
:10346000E394F30101A92FEF42E7B301C5010E94E4
:103470005426EE24E394F301068D24E342E7B301DE
:10348000C5010E945426F501828D8823F9F0C18C74
:10349000E788068915891A8219821C821B821E827E
:1034A0001D82B501615F7F4FCE0101960E94001F12
:1034B000212FAE014F5F5F4FB301C5010E942C2544
:1034C000CE0101960E942A1FF501128EF50187A5F3
:1034D000882309F440C06301F3E0CF0ED11CE12C36
:1034E0000BE02AE24AE150E06AE270E0C6010E9485
:1034F000F124EE24E39409E028E24BE150E06BE292
:1035000070E0C6010E94F1248DE2F5018683878375
:103510008CE1808785010E5F1F4F64E676E0C8016D
:103520000E94D224C5010E94BB248A3018F062EFA9
:1035300071E002C069EC71E0C8010E949123C501ED
:103540000E94BB24682FC8010E94772404C0C501D3
:103550000E94832C77CF2C960FB6F894DEBF0FBE57
:10356000CDBFDF91CF911F910F91FF90EF90DF9032
:10357000CF90BF90AF909F908F907F906F905F9013
:103580004F903F902F90089521E531E0FC01318369
:1035900020830F960C942A1FCF93DF93EC010E9497
:1035A000C41ACE01DF91CF910C94E9342BEA31E0BB
:1035B000FC013183208384529F4F0C94C41ACF9313
:1035C000DF93EC010E94D61ACE01DF91CF910C94CB
:1035D000E9342F923F924F925F926F927F928F9237
:1035E0009F92AF92BF92CF92DF92EF92FF920F9392
:1035F0001F93CF93DF93CDB7DEB72C970FB6F89418
:10360000DEBF0FBECDBF8C017A876987D42E1C0127
:1036100044E5240E311C7C0145E050E06FEF70E082
:10362000C7010E944636D70115961C92B7E0EB0EF3
:10363000F11CE214F30481F78D2D6DE00E942B3410
:10364000C82E49855A854B5F5F4FA985BA8520E012
:103650009DE0B92E37E0F32EEE24E3943D913D1525
:1036600049F0832F6B2D0E942B349A3019F4C81621
:1036700009F43EC2A417B50789F78FE1482E512CF3
:10368000FE0131967F013DE05E01F6E0AF0EB11C18
:1036900060901C0170901D0180901E0185E0EFE19B
:1036A000F1E0D70101900D928A95E1F7E985FA855D
:1036B00080E090E0D12CA201082E02C055954795DC
:1036C0000A94E2F740FF06C04081D701AD0DB11D5D
:1036D0004C93D394019631968530910561F742E081
:1036E000D41287C049815A81852F632F0E942B34C1
:1036F000CC24C394C90E842F0E942B349F5FC9121F
:1037000078C0F801FC87EB878681813009F054C0CE
:103710008081632F0E942B349F5FC9124DC0BF016F
:10372000C12C90E080E0DB019D90BD01491102C0F9
:10373000CC24C394BFEF9B1203C0911101C0982FFA
:103740008F5F853081F7C11005C0BF01690F711D02
:10375000DB014C93BF0140E080E090E0DB01CD90C5
:10376000BD015C1101C041E0BFEFCB1203C081116C
:1037700001C0892F9F5F953089F7411106C08F5F87
:10378000BF01680F711DDB015C9390E080E0419107
:103790004F3F09F0982F8F5F8530C9F76E827F8287
:1037A0008886E5E0F0E0EC0FFD1FE90FF11D808158
:1037B000EB85FC8585831DC037962E163F0609F0E4
:1037C000A1CFB80187E0289F600D711D1124D7019A
:1037D000CB014D91FC014193CF01AA15BB05C9F75F
:1037E000E2E0DB011596EC931597F1E01696FC9359
:1037F0002F5FF701D70140E08A2F8E198D1550F405
:103800008D91632F0E942B349F5F9B3008F09AE0CC
:10381000490FF2CF4F30E1F4B80187E0289F600DE7
:10382000711D11247C876B87AB01C701DC016D9191
:10383000CD01DA016D93AD01A816B906B9F742E0E2
:10384000AB85BC8515964C93159716961C922F5FE9
:1038500063E0D61266C0D9808D2D632F0E942B3471
:103860009F5F492F50E0CA80DA0111968C2D0E948B
:103870002B349F5F892F90E0A817B90709F01AC170
:103880009B804E5F5F4F892D0E942B349F5F892F55
:1038900090E04817590709F00DC1D80140E016968D
:1038A0005C9116975450523018F57C9111966C919A
:1038B000119712965C911297D71204C0C61202C0DB
:1038C0009516A9F0D61207C0C51205C013966C91C3
:1038D0001397961661F0D5120BC013965C9113974F
:1038E000C51206C014965C911497951201C041E070
:1038F00017962A163B0699F64111DCC0B80187E0FD
:10390000289F600D711D1124CB014191DC014D9365
:10391000CD01EA15FB05C9F743E0FB01458386E0CD
:10392000C7C094E0D91278C0D9808D2D632F0E9432
:103930002B349F5F492F50E0CA80DA0111968C2DFD
:103940000E942B349F5F892F90E0A817B90709F0D8
:10395000B1C09B80892D0E942B349F5F892F90E0FE
:10396000BA016E5F7F4F6817790709F0A3C0AC8179
:10397000AB874D5F5F4F8A2F632F0E942B349F5F71
:10398000892F90E04817590709F094C0C80140E01A
:10399000DC0116965C911697543029F56C911196BE
:1039A0005C911197D6120CC0C5120AC012966C9188
:1039B0001297961205C013966C91BB85B61791F0BD
:1039C000D51211C0DC0112965C911297C5120BC082
:1039D00013965C911397951206C014965C91BB8563
:1039E000B51301C041E007962816390689F6411142
:1039F00061C0B80147E0249F600D711D1124CB0107
:103A00004191DC014D93CD01EA15FB05C9F744E076
:103A1000FB01458385E04CC095E0D9124BC08981FC
:103A2000632F0E942B349F5F492F50E0DA011196DB
:103A30008A810E942B349F5F892F90E0A817B907D5
:103A4000C9F58B810E942B349F5F892F90E0BA01CA
:103A50006E5F7F4F6817790769F58C81632F0E942D
:103A60002B349F5F892F90E0BA016D5F7F4F6817FD
:103A7000790701F54C5F5F4F8D81632F0E942B34D6
:103A80009F5F892F90E048175907A1F4B801A7E07C
:103A90002A9F600D711D1124CB014191DC014D93D2
:103AA000CD01AE16BF06C9F745E0FB01458384E0B2
:103AB00086832F5F91E0491A510809F0EFCD2C96CB
:103AC0000FB6F894DEBF0FBECDBFDF91CF911F912F
:103AD0000F91FF90EF90DF90CF90BF90AF909F90AD
:103AE0008F907F906F905F904F903F902F900895B0
:103AF000F80167E0269FE00DF11D11243083E58277
:103B0000F6822F5FB7CDEF92FF921F93CF93DF9393
:103B100000D000D01F92CDB7DEB77B01142FFC017F
:103B20003C9694E0DE01119601900D929A95E1F792
:103B30004D8365E0CE0101960E94EB2A412FBE0124
:103B40006F5F7F4FC7010E94E91A0F900F900F908F
:103B50000F900F90DF91CF911F91FF90EF900895FC
:103B6000EF92FF921F93CF93DF9300D000D01F926C
:103B7000CDB7DEB77B01142FFC01389694E0DE014F
:103B8000119601900D929A95E1F74D8365E0CE0173
:103B900001960E94EB2A412FBE016F5F7F4FC70144
:103BA0000E94E91A0F900F900F900F900F90DF91E5
:103BB000CF911F91FF90EF900895EF92FF920F9396
:103BC0001F93CF93DF93FC01EB017B018EE0E80EA6
:103BD000F11C8B010F5D1F4F84858A3071F08B3093
:103BE000E9F08930D1F5DB01A759BF4F8C916559B8
:103BF0007F4F40A581110AC00DC0DB01A759BF4FFF
:103C00008C9165597F4F40A5811104C0C7010E9466
:103C1000B01D10C0C8010E94B01D16C0DB01A7591D
:103C2000BF4F8C9165597F4F40A581110AC0C701D4
:103C30000E94831DCE010E94192DC82F682FC70135
:103C400009C0C8010E94831DCE010E94192DC82FF2
:103C5000682FC8010E94CF1601C0C0E08C2FDF91F1
:103C6000CF911F910F91FF90EF900895FB01268D4A
:103C7000293718F421A9293720F0FC01148E21E0FE
:103C800026A708950F931F93CF93DF938C01EB0129
:103C900048E050E06FEF70E04F960E944636F80122
:103CA00017A218A21BAADF91CF911F910F9108951F
:103CB000FC01DB01AB01485F5F4F20E03DE08D91EF
:103CC0008F3F41F0632F0E942B349F5F9B3008F0A1
:103CD0009AE0290FA417B50791F75081329640E07A
:103CE000ADE030E0541781F081916A2F0E942B34AF
:103CF0009F5F9B3008F09AE0B901690F711D603237
:103D0000710524F04F5FEECF80E0089581E00895C3
:103D1000CF92DF92EF92FF920F931F93CF93DF9397
:103D200000D000D000D0CDB7DEB76C01F42E122F3A
:103D30001A8219821C821B821E821D82CE0101966C
:103D40000E94001FBE016F5F7F4FC6010F960E9449
:103D5000001FF601F58A168B8FEF878B008FE18E9F
:103D600081E0828FCE0101960E942A1F26960FB60F
:103D7000F894DEBF0FBECDBFDF91CF911F910F91A1
:103D8000FF90EF90DF90CF9008950E9438360F9308
:103D90001F93CF93DF93EC0188819981009729F0DD
:103DA0002A813B812617370788F48B016F5F7F4F8D
:103DB0000E947235009761F0998388831B830A8380
:103DC0002C813D81232B11F4FC01108281E001C084
:103DD00080E0DF91CF911F910F910895CF93DF93F2
:103DE000EC0188819981009711F00E94E9341982D1
:103DF00018821D821C821B821A82DF91CF91089546
:103E0000EF92FF920F931F93CF93DF93EC018617EE
:103E10009707C1F0FB01008111810115110539F0EF
:103E2000E480F580B7010E94C71E811104C0CE0155
:103E30000E94EE1E07C0FD82EC82B8018881998144
:103E40000E944D36CE01DF91CF911F910F91FF90CF
:103E5000EF900895FC01808191810C94E9344091A8
:103E6000FC055091FD052091FA053091FB054217A4
:103E70005307B4F49091E8009570E1F39091E80055
:103E800092FD19C08093F1008091FC059091FD0591
:103E900001968F739927892B19F48EEF8093E80090
:103EA0008091FC059091FD0501969093FD0580930E
:103EB000FC0581E0089580E00895DF92EF92FF9283
:103EC0000F931F93CF93DF93D82E8A017B01E40ECB
:103ED000F51EEB01CE15DF0571F0D7FE03C0FE0124
:103EE000849101C088810E942F1F21968111F2CFF9
:103EF0008FEF9FEF01C0C801DF91CF911F910F910C
:103F0000FF90EF90DF900895615030F02091F10024
:103F1000FC0120830196F8CF289884E680937207ED
:103F20000895CF92DF92EF92FF920F931F93CF935A
:103F3000DF936C017A018B01C0E0D0E0CE15DF0584
:103F400081F0D8016D918D01D601ED91FC91019028
:103F5000F081E02DC6010995892B11F02196EECF55
:103F60007E01C701DF91CF911F910F91FF90EF90DC
:103F7000DF90CF900895CF93DF931F92CDB7DEB738
:103F80006983DC01ED91FC910280F381E02D41E039
:103F900050E0BE016F5F7F4F09950F90DF91CF9189
:103FA000089583E08093E9008091F200882319F05E
:103FB0008AE38093E8000895FC018485958597FD48
:103FC0000BC09FB7F89482E08093E9008091F200E3
:103FD0009FBF90E0019608959FB7F89482E0809388
:103FE000E9008091F2009FBF90E008950F931F9326
:103FF000CF93DF931F92CDB7DEB782E0898342E48F
:1040000050E063EA78E080E80E945D1F0E940D2E78
:10401000DC0112960D911C9113970115110589F081
:10402000D801ED91FC910280F381E02DBE016F5F1C
:104030007F4FC801099597FD04C0F80100851185DF
:10404000ECCF89810F90DF91CF911F910F9108954F
:104050000E94FC2D90E008950F931F93CF93DF9360
:104060001F92CDB7DEB78C01FC018485958597FF43
:104070000EC0CE0101960E94CE2D019719F48981C0
:1040800090E002C08FEF9FEFF80195878487F801D9
:10409000848595850F90DF91CF911F910F910895A1
:1040A000CF93DF931F92CDB7DEB7FC018485958552
:1040B00097FD05C02FEF3FEF358724870BC0CE015A
:1040C00001960E94CE2D019719F4898190E002C0DB
:1040D0008FEF9FEF0F90DF91CF910895EF92FF92B6
:1040E0000F931F93CF93DF93EC01198218821B82E9
:1040F0001A821D821C826115710509F18B01CB01A9
:104100000E9472337C01BC01CE010E94C71E811146
:1041100009C0CE01DF91CF911F910F91FF90EF90D9
:104120000C94EE1EFD82EC82B80188819981DF91AA
:10413000CF911F910F91FF90EF900C946B33DF9113
:10414000CF911F910F91FF90EF900895EF92FF9202
:104150000F931F93CF93DF93EC01198218821B8278
:104160001A821D821C826115710521F18B01FB01F0
:1041700001900020E9F731977F01E61AF70AB701AD
:104180000E94C71E811109C0CE01DF91CF911F91FE
:104190000F91FF90EF900C94EE1EFD82EC82B8011F
:1041A00088819981DF91CF911F910F91FF90EF90BE
:1041B0000C944D36DF91CF911F910F91FF90EF90AE
:1041C00008951F920F920FB60F9211248F939F9311
:1041D0008091E1009091E100937F9093E10083FF53
:1041E0000FC01092E90091E09093EB001092EC0068
:1041F00092E39093ED001092730798E09093F00093
:1042000082FF20C093E09093E9009091F2009923FF
:1042100019F09AE39093E8009091FF05992339F003
:104220009091FF0591509093FF05992389F190910A
:104230007207992339F09091720791509093720709
:10424000992341F184FF10C08091E2008E7E81604D
:104250008093E2008091E1008F7E8093E100809165
:10426000F4018E7E806111C080FF16C08091E20053
:104270008E7E80618093E2008091E1008E7E80934B
:10428000E1008091F4018E7E81608093F40104C08E
:104290005D9ACDCF289AD6CF9F918F910F900FBE68
:1042A0000F901F9018951F920F920FB60F92112426
:1042B000CF92DF92EF92FF920F931F932F933F9332
:1042C0004F935F936F937F938F939F93AF93BF931E
:1042D000EF93FF93CF93DF93CDB7DEB76C97DEBF3D
:1042E000CDBF1092E9008091E80083FFFBC168E038
:1042F000CE0145960E94841F82EF8093E8008D894D
:1043000087FF05C09091E80090FFFCCF03C09EEFAF
:104310009093E800982F907609F0C6C09E894F8947
:10432000588D2F89F88C91110CC0803829F4809118
:10433000F5018093F10002C01092F1001092F1009B
:1043400045C1913051F4811141C14130510509F00D
:104350003DC18091F5018D7F0BC0933061F48111D7
:1043600035C14130510509F031C18091F5018260BC
:104370008093F5012BC1953049F48091E80080FFCE
:10438000FCCF822F80688093E30020C1963009F033
:104390005EC00B8D1C8D22E01092E9001092FD058D
:1043A0001092FC05F21232C01092FB051092FA0531
:1043B0000E94F61F99E0BE016F5F7F4FDB01E92F7E
:1043C0001D92EA95E9F79983FA8291E09E8390EA3B
:1043D00098879AEF99872091FC053091FD05275F1A
:1043E0003F4F3C832B838D831092E9001092FD0593
:1043F0001092FC051093FB050093FA0549E050E08C
:1044000080E00E945D1F0E94F61FE0C01093FB0534
:104410000093FA050E940D2EDC0112960D911C915D
:1044200013970115110509F4BBC0D801ED91FC915A
:104430000480F581E02DBE016B5E7F4FC8010995B8
:10444000009709F0C7C0F80100851185EACF9730C1
:1044500009F445C1983021F481E08093F100B6C0A1
:10446000993009F0B3C0837009F039C1E5E2F1E099
:1044700081E031E096E32081211109C08EE780932D
:10448000EA001092EA008F89809373079FC080939F
:10449000E9003093EB0021912093EC009093ED0024
:1044A0008F5F873041F7EACF8B8D9C8D1092E900AA
:1044B0001092FD051092FC059093FB058093FA0580
:1044C000898D811153C08E899D89913A49F4813239
:1044D00009F005C147E050E064E071E080E0BBC056
:1044E000913209F0FCC0833269F48F89988DA0E085
:1044F000B0E08093000190930101A0930201B0937A
:10450000030164C0803269F48091E80082FFFCCF2F
:1045100067E084E091E00E94841F8BEF8093E800C5
:1045200055C0823209F052C08F8980930B01EEEFA3
:10453000FFE7859194918B3F9C4D19F0E0E0F8E006
:1045400002C0EEEFFAE08091040190910501A09184
:104550000601B0910701803B9440A105B10509F027
:104560009EC080910B0180FF79C099C00E940D2EE2
:10457000FC01028113810115110509F4B0C0D801B5
:10458000ED91FC910190F081E02DBE016B5E7F4FBB
:10459000C801099581111AC0F80100851185EBCF7A
:1045A000F1E0FF1609F44EC0F3E0FF1298C08F89C6
:1045B000882309F44AC0823089F440E860E187E04A
:1045C00099E00E94B531882309F489C08EEF809369
:1045D000E80088C018161906CCF381C0813029F490
:1045E00040E86BE08BEF98E0ECCF833009F077C0C8
:1045F0000E940D2EDC011296ED90FC9013978E0117
:104600000F5F1F4F6801E114F10479F0D701ED91BC
:10461000FC910680F781E02DB801C7010995080FCC
:10462000111DF701E084F184EECFD8011C92F60150
:1046300001900020E9F73197BF016C197D0940E036
:10464000C601BFCF69EE78E002C065EE78E0FB01FD
:10465000449150E080E80E945D1FB8CFEE3F2AE011
:10466000F20751F0808191818737A7E79A0721F0FF
:104670009093FF0A8093FE0A87E797E791838083F0
:10468000809160008093FE059BE088E10FB6F8946E
:10469000A895809360000FBE9093600097CF8081B3
:1046A00091818737974709F091CFA8958091600055
:1046B0008861809360008091FE0580936000EE3FEA
:1046C000BAE0FB0739F08091FE0A9091FF0A9183CE
:1046D00080837CCF1092FF0A1092FE0A77CF81E28E
:1046E0008093EB006C960FB6F894DEBF0FBECDBF83
:1046F000DF91CF91FF91EF91BF91AF919F918F91FA
:104700007F916F915F914F913F912F911F910F91E9
:10471000FF90EF90DF90CF900F900FBE0F901F9003
:1047200018956115710579F0FB0101900020E9F7FA
:104730003197AF01461B570BDC01ED91FC910280D4
:10474000F381E02D099480E090E008958F929F928C
:10475000AF92BF92CF92DF92EF92FF926B017C01FA
:104760000E94FD274B015C01C114D104E104F10456
:10477000F1F00E94FD27DC01CB0188199909AA09F3
:10478000BB09883E9340A105B10570F321E0C21A30
:10479000D108E108F10888EE880E83E0981EA11C7C
:1047A000B11CC114D104E104F10419F7DDCFFF906D
:1047B000EF90DF90CF90BF90AF909F908F90089533
:1047C0008F929F92AF92BF92CF92DF92EF92FF9221
:1047D0000F931F93CF93DF936C017B018A0180912C
:1047E0000B01882309F45CC080917307882309F4C6
:1047F00057C08091F40180FF05C08091E000826085
:104800008093E000E801B12C8AEFA82E93E0892E76
:104810002AE3922E209711F4BB20D9F10E94FC2D9F
:1048200081110AC0AA94AA20D9F161E070E080E069
:1048300090E00E94A623EECF282F30E0C217D307C6
:104840000CF48C2F9FB7F8948092E9002091E80037
:1048500025FF1DC0282F30E0C21BD30BF70181506C
:1048600020F041914093F100FACFE20EF31EBB20FD
:1048700019F09092E8000AC08091E80085FD07C019
:104880009092E800BB24B394209709F0B12C9FBF0D
:10489000C1CF5D9884E68093FF051016110644F0A1
:1048A00081E090E0F6019383828380E090E001C094
:1048B000C801DF91CF911F910F91FF90EF90DF9092
:1048C000CF90BF90AF909F908F900895CF92EF922E
:1048D0000F931F9322E0C22EE12C00E010E020E0B5
:1048E0000E946C281F910F91EF90CF9008958F92A6
:1048F0009F92AF92BF92EF92FF920F931F93CF932D
:10490000DF93CDB7DEB7A1970FB6F894DEBF0FBE29
:10491000CDBF7C01262F30E040E050E019A28E018F
:104920000F5D1F4F8AE0882E912CA12CB12CCA015B
:10493000B901A50194010E94FA33605DF801629308
:104940008F01211531054105510589F7BF01C701C7
:104950000E949123A1960FB6F894DEBF0FBECDBF83
:10496000DF91CF911F910F91FF90EF90BF90AF908B
:104970009F908F900895FC017F969C01295D3F4F89
:1049800040E05DE081918F3F41F0652F0E942B3424
:104990009F5F9B3008F09AE0490FE217F30791F709
:1049A000842F0895EF92FF920F931F93CF93DF937D
:1049B0008C017B01C0E0D0E0F701EC0FFD1F64919A
:1049C000662339F0C8010E94BA15892B11F021968F
:1049D000F3CFCE01DF91CF911F910F91FF90EF9018
:1049E00008958F929F92AF92BF92CF92DF92EF92F3
:1049F0000F931F93CF93DF936A01EB014B01820E5C
:104A0000911C5A01A00EB11CC815D905CCF4860121
:104A1000D7FE02C000E010E0C50121E4A216B104F7
:104A200014F080E490E00817190744F44E2DB80103
:104A3000CE010E945A2A0F5F1F4FEECF2196E4CF7E
:104A4000DF91CF911F910F91EF90DF90CF90BF90AA
:104A5000AF909F908F9008952F923F924F925F92C8
:104A60006F927F928F929F92AF92BF92CF92DF927E
:104A7000EF92FF920F931F93CF93DF9300D01F927B
:104A8000CDB7DEB75C011A01702E4C2CCC2039F06A
:104A900083E0C81621F080E8582E501A01C0512C2E
:104AA0009FEFE9125E2C122F110F110F110FE3E08F
:104AB000E10FE983C52CD12CCB0103969B838A831C
:104AC00004E0010FE12C272D43E050E0B6010E94E5
:104AD000F124460194E0890E911C0CE0010F28EFAF
:104AE000F22EF70C2F2D4FEF5FEFB4018A819B81DF
:104AF0000E94F12405E0010FB6016F5F7F4FEE24A5
:104B0000E3942EEF270D43E050E08A819B810E94C1
:104B1000F1240AE0010F2F2D40E050E0B4018A811A
:104B20009B810E94F12438E0F32EF10E4CEF642EAD
:104B3000670CF6013296FB83EA8320E0462D61E0A4
:104B400070E0CF010E941A2A0F2D10E0FFE3FF153D
:104B500038F020E0462DB8018A819B810E941A2AF4
:104B60000F5F1F4FEE24E394F12C4801013411052F
:104B70001CF080E4882E912CE814F90454F440E0F1
:104B8000B7018A819B810E945A2A8FEFE81AF80A9E
:104B9000ECCFEA81FB81E60DF11D3197FB83EA83BF
:104BA00001E010E00815190549F040E0B8018A81DC
:104BB0009B810E945A2A0F5F1F4FF4CFE12C00E027
:104BC00020E23CE048E25CE06FEF7FEFC6010E942C
:104BD000FD294601870C911C3401F8E06F1A710819
:104BE0002EE03CE046E15CE06FEF7FEFC3010E9406
:104BF000FD299981892F90E09B838A83442019F0B5
:104C0000E3E04E1215C06A817B8161507109E12C8D
:104C100000E024EA3BE048ED5BE0C6010E94FD298C
:104C200022E93BE04AE95BE06A817B81C30115C070
:104C3000E12C00E020E83BE048E85BE06A817B8112
:104C4000C6010E94FD296A817B816150710926E1BC
:104C50003BE04AE45BE0C4014A970E94FD2986E0FC
:104C6000850DF5018683878385E08087F101448186
:104C7000558160817181C50102960F900F900F9050
:104C8000DF91CF911F910F91FF90EF90DF90CF9028
:104C9000BF90AF909F908F907F906F905F904F905C
:104CA0003F902F900C94911F6F927F928F929F92C2
:104CB000AF92BF92CF92DF92EF92FF920F931F932A
:104CC000CF93DF936C01122F702E6E2C89E080172A
:104CD00018F026E0F22E08C0E3E6E01718F094E0A2
:104CE000F92E02C082E0F82EF40E812E012E000C67
:104CF0009908C42FD0E05B01F3E0AF0EB11CE12CAA
:104D000008E02EE0A401BE01C5010E94F124A40127
:104D10004F5F5F4FBE016F5F7F4FEE24E39407E06C
:104D20002DE0C5010E94F124F601F682F7821F5F93
:104D30001087662099F0672DC6010296DF91CF910A
:104D40001F910F91FF90EF90DF90CF90BF90AF90A9
:104D50009F908F907F906F900C947724DF91CF91EC
:104D60001F910F91FF90EF90DF90CF90BF90AF9089
:104D70009F908F907F906F900895EF92FF920F9386
:104D80001F93CF93DF93D42FE82FF0E0EE0FFF1F98
:104D9000EE5DF54F8491319694919D5FE62FF0E0A2
:104DA000EE0FFF1FEE5DF54FF49031966491C3E076
:104DB000C60F97FF04C09F77EE24E39401C0E12C57
:104DC000C7FF03C0CF7711E001C010E0692F70E08A
:104DD00001E02CE03AE046E15AE090E00E94FD2933
:104DE000DD2359F06C2F70E0E12E2CE03AE046E133
:104DF0005AE08F2D90E00E94FD29DF91CF911F9105
:104E00000F91FF90EF900895EF92FF920F931F93F1
:104E1000CF93DF93D42FE82FF0E0EE0FFF1FE85E73
:104E2000F64F8491319694919D5FE62FF0E0EE0F5E
:104E3000FF1FE85EF64FF49031966491C3E0C60F11
:104E400097FF04C09F77EE24E39401C0E12CC7FFD5
:104E500003C0CF7711E001C010E0692F70E000E0DF
:104E60002CE03AE046E15AE090E00E94FD29DD2383
:104E700059F06C2F70E0E12E2CE03AE046E15AE068
:104E80008F2D90E00E94FD29DF91CF911F910F910E
:104E9000FF90EF900895FC01E35AFF4F9C012F54BF
:104EA0003F4F80E090819F3F09F08F5F3796E21778
:104EB000F307C1F708950895DC01FB019085818512
:104EC0008095892394FF18C01C969C911C97903163
:104ED00028F49F5F1C969C931C9711C0F89487E759
:104EE0008093000880930108A89588E18093600072
:104EF00088E080936000FFCF1C961C921C9726814F
:104F0000378127703327232B59F41D969C911D97C9
:104F10009F5F9C3119F01D969C9302C01D961C92B8
:104F200083FF04C0E054FF4F82E08083089508951A
:104F3000FC01DB0119968C911997809518969C912C
:104F4000892399F08485882311F08CE784879485E0
:104F500091110EC081E0848780E48093900081E409
:104F60009FE0909399008093980094859923C1F0D5
:104F70009F5F9487953059F09D3761F0923081F4AE
:104F800080E596E49093990080939800089510929C
:104F900090000895FB01E054FF4F81E08083089565
:104FA00008950F931F93CF93DF938C0147E25FE047
:104FB00060E070E08BE490E00E9466244DE55DE0E7
:104FC00060E170E087E090E00E946624CCEEDFEFC5
:104FD000F801858547E05DE06CE270E09E01281BEA
:104FE0003109C9010E9466246C96C03BD10581F746
:104FF000DF91CF911F910F9108953FB7F894809161
:105000006E0790916F07A0917007B091710726B558
:10501000A89B05C02F3F19F00196A11DB11D3FBFF0
:10502000BA2FA92F982F8827820F911DA11DB11D7E
:10503000BC01CD0142E0660F771F881F991F4A957A
:10504000D1F708951F920F920FB60F9211242F934C
:105050003F938F939F93AF93BF938091F605909169
:10506000F705A091F805B091F90530916D0723E09F
:10507000230F2D3720F40196A11DB11D05C026E890
:10508000230F0296A11DB11D20936D078093F60595
:105090009093F705A093F805B093F90580916E07FA
:1050A00090916F07A0917007B09171070196A11DB3
:1050B000B11D80936E0790936F07A0937007B09314
:1050C0007107BF91AF919F918F913F912F910F9059
:1050D0000FBE0F901F9018952F923F924F925F92A4
:1050E0006F927F928F929F92AF92BF92CF92DF92F8
:1050F000EF92FF920F931F93CF93DF9300D000D0D6
:1051000000D0CDB7DEB74115510509F43DC1FA0114
:10511000B4903196E4914E5F5F4F6B2C712C21114E
:1051200002C0EE2061F1A1E0B0E03E2F377011F433
:10513000A0E0B0E03E2F3695369536954D01830EB2
:10514000911C869CD001879CB00D969CB00D1124BB
:10515000F3E0CF1203C0AA0FBB1F0AC0011511054F
:1051600039F0EA9E4001EB9E900C1124080D191DA8
:105170002A9F70012B9FF00C11244E0D5F1D2FEF05
:10518000C21208C00115110519F0CC24C39402C045
:1051900032E0C32E7301E80EF91E1E141F040CF03A
:1051A000F3C0803891050CF0EFC09B012E0F311D2C
:1051B000121613060CF0E8C0603471050CF0E4C060
:1051C0004115510509F4E0C0362F37703D83DB01EE
:1051D00077FD179623E0B595A7952A95E1F73A2F25
:1051E00077FF05C06D81662311F03FEF3A0F97FFFF
:1051F00005C0AA27BB27A81BB90B02C0A0E0B0E0DE
:10520000F0E8EF16F10424F020E8D22ED81A01C0FD
:10521000DB2CDA1A632F032E000C770B3F3F1CF4B4
:10522000A62EA09401C0A12CF1E02E2F277009F426
:10523000F0E0E695E695E695FE0F6F0F711D69307B
:10524000710514F0F8E0F31B7A2C730E272D60E83B
:105250002603800D911D11244C018A0E9B1E61E0D6
:1052600070E00D8002C0660F771F0A94E2F783E0BA
:10527000C81611F0E1E001C0E2E02B2D2D192E9FA0
:10528000202D1124EE2EF12CBA9CA00DB11D11245D
:10529000AE9DC001AF9D900DBE9D900D11245A0191
:1052A000A80EB91E0115110509F0A801D701119723
:1052B0008A0F9B1F480F591FAFEFA69FC001A79FE2
:1052C000900D11242C0140945094C4018A509E4F9B
:1052D000F30FFE8330E0ED9D200D311D1124EE8192
:1052E0007E1609F451C0DC014A018501612CD614F7
:1052F00009F442C0F8013490369EF001379EF00D5B
:105300001124FA83E983E095F095FC83EB83F2E0C6
:10531000CF1203C05C824B8211C0EBEFCE1203C0F0
:105320001A8219820BC0F4013490369EF001379E28
:10533000F00D1124E095F095FC83EB8377FC06C01B
:10534000FB81EC91EF23F981EF2BEC93FD81FF239F
:1053500061F0E6E0E7154CF0FD01E058FF4F2080DA
:105360003C8032202A80322830828E0C9F1C0E0D09
:105370001F1D63941196BBCF7394A20EB31E420FF0
:10538000531F80589F4FABCF26960FB6F894DEBFC1
:105390000FBECDBFDF91CF911F910F91FF90EF9086
:1053A000DF90CF90BF90AF909F908F907F906F9045
:1053B0005F904F903F902F900895CF92EF920F9370
:1053C0001F933AEFC32EE12C00E010E00E946C28FE
:1053D0001F910F91EF90CF900895CF92EF920F937E
:1053E0001F933BEFC32EE12C00E010E00E946C28DD
:1053F0001F910F91EF90CF900895CF92EF920F935E
:105400001F93F901202FCC24C3948F010E946C2894
:105410001F910F91EF90CF900895BC0180E090E034
:105420000C94A6238FB18095807F669B88601C9B1F
:1054300084600895FC01E40FF11DAF011E161F06E4
:10544000C4F580389105ACF597FF02C080E090E08C
:105450004138510514F040E850E0481BFB0177FD4E
:10546000379633E0F595E7953A95E1F7F695FE2FF7
:10547000EE27F795E795E80FF91FEA50FE4F6770A2
:10548000772781E090E001C0880F6A95EAF7382F0E
:10549000222341F0213069F4415058F08081832B60
:1054A0008193FACF8095415020F090819823919379
:1054B000FACF089580389105B8F460347105A0F4EE
:1054C00090E121E061FD24E060FD220F62FD229564
:1054D000687F969FD0011124A80FAA50BE4F8C91CF
:1054E000822B40FF82278C9308950F931F93CF93B5
:1054F000DF93EC0141EE5CE061E170E08FE290E06F
:105500000E94662443EC5CE06AE170E08BE290E08C
:105510000E94662443EC5CE06AE170E089E490E07C
:105520000E9466248C85811114C043EC5CE06AE122
:1055300070E08AE390E00E94662443E75CE06EE25C
:1055400070E08AE190E0DF91CF911F910F910C9470
:10555000662445E55CE06AE170E08AE390E00E9441
:10556000662442E35CE06EE270E08CE290E00E9430
:1055700066248C856FE00E942B34082F0370CFE4E3
:10558000D0E010E0011749F041E061E370E0CE01A6
:105590000E945A2A1F5F2296F5CFDF91CF911F916B
:1055A0000F910895FF920F931F93CF93DF93EC0118
:1055B000F62E08811981C8010E947B33F81621F06C
:1055C0006F2DC8010E948333CE01DF91CF911F91CF
:1055D0000F91FF9008954F925F927F928F929F92CA
:1055E000AF92BF92CF92DF92EF92FF920F931F93F1
:1055F000CF93DF938C01A0E0462F50E06A0131E0A9
:10560000C31AD1088DE0B82E8A2F90E08C159D0525
:10561000CCF5B0E0EA01C81BD90B2E0161E0461AB7
:1056200051082B2F30E02415350554F57801E20E92
:10563000F31EE701A8808A2D6B2D0E942B34782E53
:10564000892E2F5F3F4FF801E20FF31F9080892DC5
:105650000E942B34292F90E0DAE02D9F800D911DC0
:105660001124272D30E06AE0869E200D311D112483
:105670008217930718F4E7019882A082BF5FD1CF09
:10568000AF5FC2CFDF91CF911F910F91FF90EF904D
:10569000DF90CF90BF90AF909F908F907F905F9062
:1056A0004F900895BF92CF92DF92EF92FF920F93A7
:1056B0001F93CF93DF93C82FC62E842F6DE00E94D7
:1056C0002B34B82E11E0190F211103C026E0F22E61
:1056D00002C094E0F92ED12CD0E0E12C02E02DEBB9
:1056E00030E140EF50E1B601CE010E94FD29CF0D1F
:1056F000D11DB601645F7F4F2B2D47EA50E1CE01EB
:105700000E94ED29E12FF0E0EE0FFF1FE355FE4F61
:1057100040815181B6016B5F7F4F81E090E01A308C
:1057200011F480E090E020E08C0F9D1FDF91CF917D
:105730001F910F91FF90EF90DF90CF90BF900C944E
:10574000ED29CF92DF92EF920F931F93CF93DF93C8
:105750006C01EB01142FE22E09A92FEF45E00E9406
:105760005426E12E0E8D2FEF4AE1BE01C6010E94A4
:1057700054262396EE24E39407E025E040E050E031
:1057800061E070E0CE010E94F12425E040E050E0AD
:1057900066E170E0CE010E94F12420E041EE53E189
:1057A00062E070E081E090E00E94ED2921E041EEAE
:1057B00053E162E070E086E190E0DF91CF911F91CC
:1057C0000F91EF90DF90CF900C94ED298F929F92E4
:1057D000AF92BF92CF92DF92EF92FF920F93CF934F
:1057E000DF936C01DB011696ED90FC901797C22FAA
:1057F000D0E0A42EB12C4FEB52E1BE01C5010E94B6
:1058000066244501BDE08B0E911CC7018F77992757
:1058100021E0843008F020E043E952E1BE016F5EF0
:105820007F4FC4010E94DD2921E0013009F020E012
:10583000BE01695F7F4F41E452E1C4010E94DD294E
:10584000F601828D6896F5013F96882399F0D6017E
:1058500059969C919D7F913069F4C70164E270E094
:105860000E9437346CE00E942B34282F882319F0D3
:105870002E5F01C0202F4BE851E1BE01CF01DF9127
:10588000CF910F91FF90EF90DF90CF90BF90AF90AE
:105890009F908F900C94DD29CF92DF92EF92FF9230
:1058A0000F931F93CF938C01FC0187A1CBEF8C9FAB
:1058B000C02D11247801FFE1EF0EF11CCA5CC12C50
:1058C000D12CF70141917F014F3F69F0F80187A189
:1058D00090E0019721E08C159D0509F420E06DE032
:1058E0008C2F0E94522BFFEFCF1ADF0AC65F88E091
:1058F000C816D10431F7CF911F910F91FF90EF900F
:10590000DF90CF90089520E0FC0140A56CE080E09E
:105910000E94522B20E04EE750E160E170E085E00C
:1059200090E00C94DD29EF920F93FC019685990F7E
:10593000292F220F220F920F945F969524E3291BA3
:10594000FAE06F9FC0011124820F911DE12C00E04D
:1059500020E430E14EE550E163E370E001960E94FF
:10596000FD290F91EF900895EF92FF920F931F93EF
:10597000CF93DF93FC01E759FF4F2081FC012111F8
:1059800003C0E784C5E202C0E2A0C0E0662319F0CC
:10599000613081F02DC06C2F70E020E047E150E1D4
:1059A00080E090E0DF91CF911F910F91FF90EF90F9
:1059B0000C94DD29EE20E1F0D0E020E04EEE5FE037
:1059C000BE0180E090E00E94DD2904E010E0FF24A9
:1059D000F394FE1469F0BE01600F711F20E046EDE4
:1059E0005FE0C8010E94DD29F3940E5F1F4FF1CFE5
:1059F000DF91CF911F910F91FF90EF900895FF924B
:105A00000F931F93CF93DF93EC01F42E122F0F9679
:105A10000E94001FFD8A1E8B80E38F8B088F83E01E
:105A2000898F81E08A8FDF91CF911F910F91FF9035
:105A30000895FC01E559FF4F9C0121543F4F80E040
:105A400090819F3F31F09581890F3796E217F307D8
:105A5000B9F70895DC01FB01818580959085892344
:105A600083FF0FC0868D893718F481A9893738F0F4
:105A70005C961C925C978CE01C968C9308955C96C7
:105A80004C930895EF92FF921F93CF93DF93EC0115
:105A9000162F7C0181E2E80EF11CFE01B39660E056
:105AA0008191181721F06F5F6630D1F76FEFC70152
:105AB0000E94A016FE01E759FF4F8081612F8111DE
:105AC00003C0CE010E9601C0C701DF91CF911F9197
:105AD000FF90EF900C94C116AF92BF92CF92DF92DD
