:100000000C94EE090C94160A0C94160A0C94160A19
:100010000C94160A0C94160A0C94160A0C94160AE0
:100020000C94160A0C94160A0C942E210C94A02100
:100030000C94160A0C94160A0C94160A0C94160AC0
:100040000C94160A0C94160A0C94160A0C94160AB0
:100050000C94160A0C94160A0C94160A0C94502848
:100060000C94160A0C94160A0C94160A0C94160A90
:100070000C94160A0C94160A0C94160A0C94160A80
:100080000C94160A0C94160A0C94160A0C94160A70
:100090000C94160A0C94160A0C94160A0C94160A60
:1000A0000C94160A0C94160A0C94160A590AA20A01
:1000B000E80B610C160D270DFB0C700FEE125013A0
:1000C00050135013611403133013351330133513C9
:1000D00030133513301335139F14CD14D314CD14AE
:1000E000D314CD14D314CD14D3145A1855185A1848
:1000F000601878187818781884188B18CF18CF18CB
:10010000CF188B184920616D20736F72727940206F
:10011000796F750A206C6F7374207468652067614D
:100120006D652E0A202020202020204920776F6E28
:100130002100436F6E67726174756C6174696F6ED4
:1001400073210A20202020202020202020596F7594
:1001500020576F6E210020596F757220637269629B
:10016000400020204D792063726962400020596F61
:1001700075722068616E64400020204D79206861AE
:100180006E64400020596F75722068616E64400093
:10019000204D792068616E6440002020476F212047
:1001A000200020476F20666F7220312E2000202013
:1001B000476F2120200020476F20666F7220312E6C
:1001C00020004D79207475726E20746F20737461F5
:1001D00072744000596F7572207475726E20746F5E
:1001E000207374617274400054776F20666F7220C0
:1001F000686973206865656C73210054776F2066A9
:100200006F7220686973206865656C732100202017
:1002100020492077696C6C207468726F770A746863
:100220006573652074776F2063617264732E0003B9
:10023000081F051F1F151B1F11111F110E1F151160
:100240001F05011F111D1F041F001F0010101F1F7D
:10025000041B1F10101F061F1F011F1F111F1F054A
:10026000071F311F1F051B17151D011F011F101F21
:100270000F100F1F0C1F1B041B071C071915130C55
:10028000121E1F120C1E12120C121F0C1A14041F25
:10029000052E2A1E1F021C001D00201D001F041A0F
:1002A000011F001E041E1E021E1E121E3E120C0CFA
:1002B000123E1E020614120A020F121E101E0E100B
:1002C0000E1E081E1A041A2E281E1A12161F111F9F
:1002D000121F101D151711151F07041F17151D1FBD
:1002E000151D01011F1F151F17151F0017000010F6
:1002F00000040404040E040229060A000010001081
:100300001C14FD1D1D5D9ABABAFAF4F4F474A8A881
:10031000485050505040404040C0E018E4FA1B3371
:1003200077F7F0F8FFFFFF07F807F8FE06FF07F77B
:1003300007FFFFFFFF0FF1FE7F3F080C0E0F0F0FAF
:100340000F0F0F000F000F0F0E0702060E0F0F0703
:10035000080F0F0F0E0C1C14C3E7FFFF0FF1FEFF79
:10036000FF07F604FE07FFFF00FF00FFFFFFFFFF90
:10037000FFE7C381FF7F87783F2F2F2F2FAEAEAED1
:10038000AF265751EEF1FEFFFFDFD190AE8E8CFD10
:100390000502010000000000000000000001010152
:1003A00002020202050505050B0B0B0B801800006D
:1003B000000000000000000000000000000000003D
:1003C0000000C030180C040404040404040C0808E1
:1003D000000000000000C0C080000000000000809D
:1003E0008000008080000000C040404040000000CD
:1003F000000000E010080C0404040C08183060C071
:10040000008000000000008080000000808080806C
:10041000800000000080808080000000000000005C
:1004200000000000000000000000000000000000CC
:1004300000000000000000000000000000000000BC
:10044000001F60408080808080808080804040E00D
:1004500030000000F02E2320213618E08000FF003D
:10046000010F0701011FF000001F704CC4848000C1
:100470000000001F30C08080808080C04060380F46
:100480000001070C70C07C03000E3B6949C88884DA
:1004900085878000000FF0000101000000000000CF
:1004A000000000000000000000000000000000004C
:1004B000000000000000000000000000000000003C
:1004C0000000000000000000000000000000000725
:1004D0000000000301000000000000000300000015
:1004E0000000000000000704000000000000000001
:1004F00000000000000000000000000000000000FC
:1005000000000000000000000000000000000000EB
:1005100000000000000001000000000000000000DA
:1005200000000000000000000000000000001610A5
:10053000FF00FF55AA55AA55AA55AA55AA55AA556E
:10054000AA55AAFF00FF1F205FB5AAB5AAB5AAB594
:10055000AAB5AAB5AAB5AAB5BA5F201F0E100000A9
:1005600000FFAA55AA55AA55AAFF00FF0008A0BF80
:10057000AAB5AAB5AAB5BA5F201F0E15F804FAFDF0
:10058000FDFDFDFDFDFDFD050000FF00FFFFFFFF80
:10059000FFFFFFFFFF0000001F001F1F1F1F1F1F87
:1005A0001F1F1F0000001615F804FAFDFDFDFDFDDC
:1005B000FDFDFDFDFDFDFDFDFDFDFDFA04F8FF0067
:1005C000FFFFFFFFFFFFFFFFFFFFFFFFFFFFFFFF3B
:1005D000FFFF00FF1F001F1F1F1F1F1F1F1F1F1FC9
:1005E0001F1F1F1F1F1F1F1F001F546F74616C3AB6
:1005F0000007040103070F070301010204080402B6
:10060000010704080C0E0F0E0C0808040201020476
:10061000084E6F7468696E672021004D792043721F
:1006200069624000596F7572204372696240004DE3
:10063000792048616E644000596F75722048616E80
:10064000644000596F75722048616E6440004D79B6
:100650002048616E6440004B3800FF010105010134
:10066000FF00515551555155515551555155515501
:10067000515551555155515551555155515551554A
:10068000515551555155515551555155515551553A
:100690005155515551555155515551A1A1428224A1
:1006A000081020C00077747475B45427301C1D1CCA
:1006B0005D1C5D1C5D1C5D1C5D1C5D1C5D1C5D1C72
:1006C0005D1C5D1C5D1C5D1C5D1C5D1C5D1C5D1C62
:1006D0005D1C5D1C5D1C5D1C5D1C5D1C5D1C5D1C52
:1006E0005D1C5D1C4900AA807F807F000800FF0020
:1006F00000FC028100F208F40AA90595C5D5C5D50C
:10070000C5D5C5D5C5D5C5D5C5D5C5D5C5D5C5D519
:10071000C5D5C5D5C5D5C5D5C5D5C5D5C5D5C5D509
:10072000C5D5C5D5C5D5C5D5C5D5C5D5C5D5C5D5F9
:10073000C5C4C2E1E0F2783C1E0700007FE0C08043
:10074000270817282A505451555155515551555184
:100750005551555155515551555155515551555169
:100760005551555155515551555155515551555159
:10077000555155515551555155515551A1A143828E
:1007800024081020C00000808183476F1E5E1C5C1F
:100790001C5D1C5D1C5D1C5D1C5D1C5D1C5D1C5D91
:1007A0001C5D1C5D1C5D1C5D1C5D1C5D1C5D1C5D81
:1007B0001C5D1C5D1C5D1C5D1C5D1C5D1C5D1C5D71
:1007C0001C5D1C5D1C4900AA807F807F000800FF23
:1007D0001837686A68F7E0C5D5C5D5C5D5C5D5C58C
:1007E000D5C5D5C5D5C5D5C5D5C5D5C5D5C5D5C539
:1007F000D5C5D5C5D5C5D5C5D5C5D5C5D5C5D5C529
:10080000D5C5D5C5D5C5D5C5D5C5D5C5D5C5D54598
:10081000D5C5C4C2E1E0F2783C1E0700000000002C
:1008200000010101010101010101010101010101B9
:1008300001010101010101010101010101010101A8
:100840000101010101010101010101010101010198
:100850000101010101010101010101010101010188
:100860000000000000000340FFFF55FFFF55FFFFA1
:1008700055FFFF55FFFF55FFFF55FFFF55CF3F5574
:10088000D5F08D14A1C881CFD9F1AF2000080B009D
:100890000202020100090400000102020000052416
:1008A00000100105240101010424020605240600AC
:1008B000010705810310004009040100020A00003D
:1008C0000007050202400000070583024000000403
:1008D00003090412010002EF0201404123368000A7
:1008E000010102030141726475696E6F204C4C4333
:1008F0000041726475696E6F204C656F6E61726441
:100900006F0035053B053D053F05410543054505A0
:10091000470549054B054D054F055105530555053F
:10092000570559055B055D055F05610563056505AF
:10093000670569056B056D056F0571057788798E0B
:10094000779471176F176D176B176917671765170E
:10095000631761175F175D175B17591757175517FF
:10096000531751174F174D174B174917471745176F
:10097000431741173F173D173B183B1A3B1C3D1DC2
:100980003F1D411D431D451D471D491D4B1D4D1D4F
:100990004F1D511D531D551D571D591D5B1D5D1DBF
:1009A0005F1D611D631D651D671D691D6B1D6D1D2F
:1009B0006F1D711D77A079A677AC712F6F2F6D2FEA
:1009C0006B2F692F672F652F632F612F5F2F5D2F8F
:1009D0005B2F592F572F552F532F512F4F2F4D2FFF
:1009E0004B2F492F472F452F432F412F3F2F3D2F6F
:1009F0003B2F392F34AC020207020200020702002B
:100A0000050300020502000002070200350B3B0B44
:100A10003D0B3F0B410B430B450B470B490B4B0B5E
:100A20004D0B4F0B510B530B550B570B590B5B0BCE
:100A30005D0B5F0B610B630B650B670B690B6B0B3E
:100A40006D0B6F0B710B738C738E739071116F1133
:100A50006D116B11691167116511631161115F11DE
:100A60005D115B11591157115511531151114F114E
:100A70004D114B11491147114511431141113F11BE
:100A80003D113714351A37203D233F23412343239B
:100A90004523472349234B234D234F2351235323DE
:100AA0005523572359235B235D235F23612363234E
:100AB0006523672369236B236D236F23712373A43D
:100AC00073A673A871296F296D296B296929672974
:100AD0006529632961295F295D295B2959295729DE
:100AE0005529532951294F294D294B29492947294E
:100AF0004529432941293F293D293B29392934AC3E
:100B0000FFFFFFFFFFFFFFFFFFFFFFFFFFFFFFFFF5
:100B1000FFFFFFFFFFFFFF7F3F1F010103070F0FD5
:100B20000F0F0F1F3F7FFFFF7F3D190101010101E3
:100B3000000000001A10BFBFBF1FEFEFEFEFEF1F65
:100B4000BFBFBFBFBFBFBFBFBFBFBFBF5F201F0013
:100B50000000010205050505050219245A5A24184A
:100B6000000000000000000000000F1F3F7FFFFF9B
:100B7000FFFF0808000F102F5F5F5F5FFFFFFFFFA1
:100B80007F3F1F0F08085F5F5F5F2F100F001F3F41
:100B90007FFFFFFFFFFFFFFFFFFFFFFFFFFFFFFFE5
:100BA000FFFFFFFFFFFFFFFF000000000101010149
:100BB00001193D7FFFFF7F3F1F0F0F0F0F0F07032F
:100BC00001011A10001F205FBFBFBFBFBFBFBFBF63
:100BD000BFBFBFBF1FEFEFEFEFEF1FBFBFBF0000F3
:100BE000000000000000000018245A5A24190205D1
:100BF0000505050502010000FFFFFFFFFEFCF8F000
:100C00000808FAFAFAFAF408F000F0F8FCFEFFFF20
:100C1000FFFF080800F008F4FAFAFAFA21080F0FAB
:100C200008080006090B06000E03030E000F090F4B
:100C300006000F0F000F02030F000E0F090D000E2C
:100C400010BEBDBEBDBEBDBEBDBEBDBEBDBE0000F4
:100C5000040004000400040004000400004E080F17
:100C60000D0702000F050F0A000F0D0900020B0D02
:100C700000020B0D00000000000F0D0702000F0F17
:100C80000808000E03030E00030E0E03000000060A
:100C9000090B06000F02030F00000000010F0F01F7
:100CA0000E03030E000F0D0702000F0D090E10A713
:100CB000C7A7C7A7C7A7C7A7C7A7C7A7000707078B
:100CC000070707070707070707070024080E1F1F66
:100CD0001F0E00000000000000000000001F0E04B6
:100CE000000000000000000000040E1F00040E1FA2
:100CF000001C14FD1D1D5D9ABABAFAF4F4F474A830
:100D0000A8485050505040404040C0E018E4FA1B02
:100D10003377F7F0F8FFFFFF07F807F8FE06FF0745
:100D2000F707FFFFFFFF0FF1FE7F3F080C0E0F0FCD
:100D30000F0F0F0F000F000F0F0E0702060E0F0F01
:100D400007080F0F0F0E0C721900C0F0F81C0C04EE
:100D50000682C2C2C2060CFCF8F8F8780000000057
:100D60000080800000808080000000AAABABABABAD
:100D7000AA000004FCFEFEFE0000808080800000CF
:100D8000000004FCFEFEFE00008080808000000069
:100D90000000000080808080808000000000000053
:100DA00000000000808080808000808000000000C3
:100DB00000808080808080000000003EFFFFFFF008
:100DC000C080000107050C0C0E0F07030300800014
:100DD00001FFFFFFFF0E07070707070000001FFFC7
:100DE000FF1F00000000FFFFFFFF0301010103FFE1
:100DF000FFFFFC0000FFFFFFFF0301010103FFFFF6
:100E0000FFFC0080C6E3F131190F3FFFFFFE8000B9
:100E10000000F0FCFEFF03000000FFFFFFFF0000EA
:100E2000F8FEFFE1202020233F3F3E380000000372
:100E300007070F0F1F1E1E1C1C1C1C0C0C0E06038C
:100E40000100101F1F1F1F10000000000000000005
:100E5000001F1F00000000100F0F0F1F18101018A8
:100E60001E0F07030000100F0F0F1F181010181E81
:100E70000F07030000070F1F1F181010101F1F1F60
:100E80001F10000081C78F9F1E1C1C0E9FFFFFFFBD
:100E900070000103070F0F1E1E1C1C1C0C04000019
:100EA0000000000000000000000000000000000042
:100EB0000000000000000000000000000000000032
:100EC0000000000000000000000000000000000022
:100ED0000000000000000000000000000000000012
:100EE0000000000000000000000000000000000002
:100EF00000000000000000000101010101010101EA
:100F000000000000000000000000000000000000E1
:100F1000003510BF7FE0840A44A04F1024AA24208B
:100F20004955494149554941495549414955494121
:100F30004955494149554941495549414955494111
:100F40004955494149554941000102050B0A162CF2
:100F50002C595A5958B2B5B2B0B2B5B2B0B2B5B256
:100F6000B0B2B5B2B0B2B5B2B0B2B5B2B0B2B5B25D
:100F7000B0B2B5B2B0B2B5B2B0B2B5B2B003051F3F
:100F8000041B03050F190F030508100F05051F00AB
:100F90001F111F030507051F03051F151F03051953
:100FA000050303051F151D030517151D030507047C
:100FB0001F030511151F03051D151703051F051F29
:100FC0000B0F00000000000000000000FF40404048
:100FD000404040404040201F0D11FC0251A955A93E
:100FE00055A955A95102FC7F80152A552A552A5525
:100FF0002A15807F000001010101010101010100AA
:10100000000D11A80200010001000100010002A86A
:101010002A80000000000000000000802A0000007C
:10102000010001000100010000000080F8FCFEFF4B
:10103000FEFCF8F8F8F8F0E0C0070F1F3F7FFFFF55
:10104000FFFFFF7F3F1F0F070F100000807804FA9B
:1010500004D810D010D020C000000708172C5F5F04
:101060005B5F5B2F170807000D14000000000000F5
:10107000000000000000FF00000000000000000071
:10108000000000FF0808080808080808080804020B
:101090000105060E1F3E1F0E0C1E3F1E0C0C2E3FA0
:1010A0002E0C0C2F372F0CFCFEFFFFFFFFFFFFFF66
:1010B000FFFFFFFFFFFFFEFCFFFFFFFFFFFFFFFF44
:1010C000FFFFFFFFFFFFFFFFFF1F3F7F7F7F7F7F50
:1010D0007F7F7F7F7F7F7F7F3F1F1117005004003E
:1010E000020002000200020002000450000055004D
:1010F0000000000000000000000000005500000596
:10110000100020002000200020002000100500001A
:10111000F80452AA52AA52AA52AA52AA5204F80099
:1011200000FF0055AA55AA55AA55AA55AA5500FF71
:1011300000000F10252A252A252A252A252A2510D0
:101140000F0000F804F2FAFAFAFAFAFAFAFAFAF2E6
:1011500004F80000FF00FFFFFFFFFFFFFFFFFFFF9E
:10116000FF00FF00000F10272F2F2F2F2F2F2F2FC3
:101170002F27100F00120AFFFFFFFFD7D353525241
:10118000525353D3D7FFFFFF7F0001010101010339
:101190000302020303010101010100FFFFFFFFED54
:1011A000D95B525252535BD9EDFFFFFF7F00010123
:1011B000010101030302020303010101010100FF18
:1011C000FFFFFFB7D3535252525353D3B7FFFFFF22
:1011D0007F00010101010103030202030301010178
:1011E000010100FFFFFFFFD7D353D2929293939355
:1011F000D7FFFFFF7F00010101010103020202028C
:1012000003010101010100FFFFFFFFD793939292B9
:1012100092D353D3D7FFFFFF7F00010101010103E8
:1012200002020202030101010101001409FFFFFF94
:10123000F77E7E7676F6F6F6F6F676767E7EFEF625
:10124000FC0101010000000000000101010000009C
:101250000000000101FFFFFF3B3E7E7A7AFAFAF6BA
:10126000F6F676767E7EFEF6FC01010101000000B6
:101270000000010101000000000000010115040050
:101280000606040604040604000B00040604040613
:1012900004060600000606040404040404000B000F
:1012A00004040404040406060030300000000000BA
:1012B0000000C02010080402024202020202020AD8
:1012C0000A0A0A0A0A0A0A0A0A0A0A0A0A12A408DE
:1012D00050A0C0000000000000000000000000005E
:1012E0000000FF00800000FE000000000000000081
:1012F000000000000000000000000000FC003F8033
:10130000552AFF000000000000000000000000005F
:10131000FE0101F95A81FCFDA1A1E1E1E1E1E1E178
:1013200021E1F7E1E1E1E1E1E1E1E1A1A1FCFD82FF
:1013300059F80101FE00000000000000000000005C
:10134000010202050990A7DF3F7F000000000000B6
:101350000000000000000000000000003FDFA79038
:1013600089050404030000000000000000C020D034
:10137000E8F4FA79B95204022C5ABC78F878B81813
:1013800040B07070B04018B878F878BC5A2C4AA4B5
:101390007AF1FAF4E8D020C0000000000300030353
:1013A0000301020100000000000000010201000032
:1013B0000000030300000000010201000000000023
:1013C00001020103030303000300000503000205FB
:1013D0000200000207020000E931472F11241FBE5E
:1013E000CFEFDAE0DEBFCDBF12E0A0E0B1E0ECEB82
:1013F000FCE602C005900D92A831B107D9F727E0AD
:10140000A8E1B2E001C01D92A73AB207E1F719E0E6
:10141000CDEED9E004C02197FE010E944834CC3EB5
:10142000D107C9F70E944B2F0C9451360C94000041
:101430002F923F924F925F926F927F928F929F92E4
:10144000AF92BF92CF92DF92EF92FF920F931F93D2
:10145000CF93DF93CDB7DEB729970FB6F894DEBFF1
:101460000FBECDBFDC01FB015B012EE0A20EB11C63
:101470008B010F5D1F4F91849094808598229E96DA
:101480008C919E97882321F08CE01C968C931C975E
:101490001C969C911C97492F50E04D30510510F03F
:1014A0000C946A156F017D01FA01EA5AFF4F0C9402
:1014B0004834D60116968D919C9117978F70992775
:1014C000892B31F41E968C91882311F40C94E0142E
:1014D000F60166856630A0F5868197818F70992721
:1014E000892B11F00C946A1584A991E0980F94ABA4
:1014F000E60FF11DD601A80FB11DD5968C91808BFA
:101500006F5FD6011E966C93C60140960E94192B00
:10151000F60184A991E0980F94AB61A1E60FF11D4B
:10152000D601A80FB11DD5968C9183A36F5FD6010C
:1015300091966C93C60183960E94192B0C94E51228
:1015400081E055C2D6011E968C91853008F43EC0CC
:1015500095FE06C0F701838D882311F08150838F9B
:1015600096FE0EC0D7015B962C91422F50E0F601FB
:10157000868590E001974817590714F40C94EF14EE
:1015800093FC02C00C946A1581E0D7011E968C93DF
:101590001E975B966C91C5010E942917682FF60172
:1015A000E759FF4F8081811102C0C50101C0C80108
:1015B0000E944A17F701838DD6011E969C918913CC
:1015C0000C946A158150838F0C946A158FEFF70184
:1015D000858F868F86E0E6E1F1E0DE0111960190CD
:1015E0000D928A95E1F73601F3E26F0E711CA601A8
:1015F000475D5F4F9E012F5F3F4FD3011DE001E02C
:101600008D91612F0E942834943011F4F9010083E8
:101610002F5F3F4F4A175B0799F78E010A5F1F4FF5
:10162000FE01319693015DE0B2E0BB2ED901AD9091
:101630009D018C91652F0E94283441E0490F8A2D2D
:101640000E9428349F5F491308C080818F3F09F4AE
:10165000B08281818F3F09F4B1823196E017F107A2
:1016600029F78E010F5F1F4FB12CFDE0AF2EA3E0D5
:101670009A2EB394F30181913F016A2D0E94283480
:101680009F5F292F30E02F5F3F4F8B2C482D50E07C
:10169000F601E40FF51F83A16A2D0E9428349F5F95
:1016A000892F90E02817390779F4D8018C918F3F62
:1016B00009F49C92E1E0F0E0EC0FFD1FE40FF51F50
:1016C00080818F3F09F490828394B6E08B12DECF45
:1016D0000F5F1F4FB5E0BB12CCCF9E01295F3F4F7C
:1016E000D601FE0131964DE058E016E080818F3F33
:1016F000B9F493968C919397642F0E94283481E0DB
:10170000890F893038F4873050F4943048F49B5F67
:10171000908306C09950943018F4508301C0108310
:1017200031961196E217F30709F78FEF96012B5FB9
:101730003F4FF601AE014F5F5F4FDA019D91AD0162
:10174000981315C0D7015D969C915D979F3F21F43A
:1017500093A15D969C930BC0981749F0D7015E96B4
:101760009C915E979F3F19F493A15E969C9331964E
:10177000E217F30711F78150E1F6F701858D8F3FEE
:1017800059F40E94113326E030E040E050E00E941E
:101790008E33D7015D966C93F701868D8F3FB1F440
:1017A000E6E08E2E912CA12CB12CD7015D969C9158
:1017B0005D975E968C91981749F00E941133A501B0
:1017C00094010E948E33F701668FEFCF82E073C0E1
:1017D000FD01848D8F5F848F8D33D8F48F3208F0B4
:1017E00049C08E3238F54DE2B601CD010E94582D28
:1017F0006EE072E0CE0101960E94BB2001E020E085
:1018000042E0BE016F5F7F4FC7010E94242E0C94FF
:1018100012158A3648F48E3308F046C0FD01868DD5
:10182000F601B39660E028C08A3611F00C946A1570
:1018300083E041C05D968C91F601B39660E0919192
:10184000891721F06F5F6630D1F76FEFC8010E94F2
:101850002917F601E759FF4F8081811103C0F70175
:10186000658D1DC0D7015D966C91C8010E944A1715
:101870000C946A154CE319C09191891721F06F5FA0
:101880006630D1F76FEFC8010E942917F601E759BA
:10189000FF4F8081811105C0D7015E966C91C50113
:1018A000E5CFF701668DE1CF49E6B601C7010E9499
:1018B000582D0C946A15D7011C968C931C970C9488
:1018C0005E14FD01848D8F5F848F8934D8F48B3151
:1018D00008F05DC08A31D0F5803100F58F3011F00D
:1018E0000C946A15D601D4968C91D49791E0980FF8
:1018F000D4969C93F601E80FF11D85A9F70180A706
:101900000C946A158E3728F48E3408F042C04DE7E7
:10191000CCCF8E3709F462C00C946A1561E0C50122
:101920000E94541662E0C8010E945416D70198968E
:101930008C9198976DE00E9428349A3011F40C94A1
:101940006A158DE45C968C930C946A15F601E75940
:10195000FF4F808162E081110CC0C5010E945817C1
:101960006BEF71E0CE0101960E94BB2000E022E007
:101970000BC0C8010E94581768EE71E0CE010196B5
:101980000E94BB2001E021E04EE40C940C154DE7D1
:10199000C5C5B601CD010E94CB1E4DE7B601C701FA
:1019A0000E94582DF601E759FF4F8081813059F48C
:1019B00064ED71E0CE0101960E94BB2001E020E0C1
:1019C00041E50C940C1562EC71E0CE0101960E9489
:1019D000BB2001E020E047E40C940C155C961C92BF
:1019E000F601E759FF4F80818130F1F484E0F7017F
:1019F00084870C946A155C968C915C978F5F5C96DB
:101A00008C935C97853308F45AC0853311F00C949D
:101A10006A15B601CD010E94CB1EF701148ED601C6
:101A2000D3968C91811162C087E00CC0BD01615ECC
:101A30007F4FC5010E94841E81113FC081E0F601E5
:101A400080A386E0D7011C968C930C946A15FD0147
:101A5000848D8E3208F454C08E3211F00C946A15C5
:101A6000B601CD010E94CB1EC7010E94B41EF70132
:101A7000148E8F3109F41DC287E08487F60180A19E
:101A800081110C946A1583A9882309F424C2B70133
:101A9000615E7F4FC5010E94841E81110EC0B60198
:101AA000C7010E94741ED60191968C919197811165
:101AB000BBCF1E968C91882309F185E098CF8730A3
:101AC00068F4863011F00C946A15F60183A981112F
:101AD0008CC781A1882309F488C795C744E3B60160
:101AE000CD010E94582D81E0D701E0C1B601C701A8
:101AF0000E94741EF6018685811178CF88E0A2CFFE
:101B0000813008F0C5C195FE08C05B968C915B974B
:101B1000882319F081505B968C9396FE0DC0F701D7
:101B2000238D422F50E0D6011E968C9190E00197B4
:101B3000481759070CF47BC793FECCC7C7010E9416
:101B4000B41E282FF701438DF601E40FF11D8089A3
:101B50006DE00E94283431E0390F3B3008F03AE064
:101B6000822F90E0830F911D80970CF0B3C7642FF4
:101B7000C5010E942917D70197960C91F701E00F34
:101B8000F11D878F0F5FF70107A3838DD6011E9686
:101B90009C91891302C08150838FC7010E94B41E9B
:101BA000982EF60153A9511104C051E081A1811171
:101BB00050E0023008F43FC7F701E00FF11D858DBA
:101BC0003DE0632F0E94283421E0290F868D0E947A
:101BD000283431E0390F321302C012E001C010E0A6
:101BE0000230C9F0848D6DE00E94283441E0490F35
:101BF000241303C0321301C01C5F033061F0838DD6
:101C00006DE00E9428349F5F491305C0241303C070
:101C1000321301C01A5F892D8F7E8F3009F41E5F49
:101C2000033008F411C1F701E00FF11D848D3DE090
:101C3000632F0E942834B1E0B90F858D0E942834AB
:101C400088248394890E868D0E94283421E0290FF0
:101C50008B1601F12B17F1F02815E1F0B81518F4E7
:101C6000882D8B1B02C08B2F8819833098F4B217F4
:101C700018F4822F8B1B02C08B2F821B833050F4F1
:101C8000821618F4822F881902C0882D821B833097
:101C900008F4D3C6A0E0033009F4D6C0838D6DE00C
:101CA0000E94283431E0390FB31709F442C083167B
:101CB00009F43FC02317E9F18B16D9F12B17C9F1AD
:101CC0002815B9F13B1718F48B2F831B02C0832F03
:101CD0008B1B843070F5381518F4882D831B02C0D7
:101CE000832F8819843028F5321718F4822F831B2C
:101CF00002C0832F821B8430E0F4B81518F4882DBD
:101D00008B1B02C08B2F8819843098F4B21718F4FB
:101D1000822F8B1B02C08B2F821B843050F48216C3
:101D200018F4822F881902C0882D821B843008F491
:101D300087C640E0043009F487C0828D6DE00E94C0
:101D4000283481E0890F381709F47EC0B81709F4E8
:101D50007BC0881609F478C0281709F475C0B3173A
:101D600009F472C0831609F46FC0231709F46CC01C
:101D70008B1609F469C02B1709F466C0281509F4FD
:101D800063C0831718F4932F981B02C0982F931BDE
:101D9000953008F059C08B1718F49B2F981B02C080
:101DA000982F9B1B953008F04FC0881518F4982D7C
:101DB000981B02C0982F9819953008F045C08217DB
:101DC00020F4F22FF81B8F2F01C0821B8530E0F525
:101DD0003B1718F48B2F831B02C0832F8B1B85307E
:101DE00098F5381518F4882D831B02C0832F8819A5
:101DF000853050F5321720F4622F631B362F01C057
:101E0000321B353008F5B81518F4882D8B1B02C02D
:101E10008B2F88198530C0F4B21720F4722F7B1BEA
:101E2000B72F01C0B21BB53078F4821610F4281910
:101E300002C0821A282D253038F4AA2309F40BC6D3
:101E4000442309F406C61F5F8FE1981689F05523D5
:101E500079F0D6011E968C91882309F400C6B7014B
:101E6000615E7F4FC5010E94841E882309F4F7C577
:101E7000612FC5010E94581700E022E0412F692D13
:101E8000C7010E94602EF701848D8F5F848F22C668
:101E90004DE2B601CD010E94582DD7015C968C9180
:101EA0005C978F5F5C968C935C9781E05A968C93DD
:101EB00011C6D60191968C91882319F087E084870A
:101EC00005C0F6018685882309F418CEB601C7013E
:101ED0000E94741EFFC581A1882309F4D8CDFAC5DC
:101EE000FD01848D8F5F848F8D3330F4813108F054
:101EF00014C3803129F0EEC58D3309F417C3EAC548
:101F0000D6011E968C911E97823030F090969C914F
:101F100081E0292E282601C0212C4701BFE18B0E2C
:101F2000911C86E0E6E1F1E09E012F5F3F4F5901F1
:101F3000D90101900D928A95E1F7F401A701495D5D
:101F40005F4F30E0712C2DE081918F3F49F0739409
:101F5000622F0E9428349F5F9B3008F09AE0390F6F
:101F6000E417F50789F7D60191962C91A6014D5DEE
:101F70005F4FB2E0B71508F044C02401470C511C74
:101F8000D20112978C91BDE06B2F0E942834A1E002
:101F9000A90FC2010397FC0180810E9428349F5F32
:101FA000A91332C0329680810E942834B1E0B90F63
:101FB000BA132AC08B2FBB3008F08AE0682E630E5C
:101FC000FFE1F61508F1FA01A0E07DE0572E2A178F
:101FD000D9F08191652D0E9428349F5FB9130FC0FD
:101FE0006A2FC8010E942917382F2FE0621629F0A6
:101FF0006FE18CE06612FEC041C08EE0FBC0AF5FB7
:10200000E6CF72E07712F8C0F401E70DF11DDF01B1
:1020100012978C916DE0662E662D0E94283455240F
:102020005394590ECF010197DC018C910E94283402
:1020300066246394690E651027C0862DBAE0B61534
:1020400008F48AE0482E430E6FE16415E8F0DA01E7
:10205000312C2315C9F08D916DE00E9428349F5FCB
:10206000691210C0632DC8010E942917382F7FE024
:10207000471631F08FE1481280C086E092E0F5C04B
:1020800088E0B8C03394E5CF92E0971508F077C0A8
:10209000339780816DE00E942834A1E0A90FA51537
:1020A00018F4452C4A1A02C04A2E4518A61520F4E9
:1020B000B62DBA1BB98703C0EA2FE619E987561473
:1020C00018F4362C351802C0352C3618FA01B0E059
:1020D0002B1709F457C081916DE00E9428349F5F4F
:1020E000892F9B3008F08AE0830F8F83803208F0BD
:1020F000B8C45A1609F4B5C46A1609F4B2C4A917CB
:1021000009F4AFC4651409F4ACC4591609F4A9C4A0
:10211000691609F4A6C463E0641508F4A2C47985BD
:10212000743008F09EC4A91718F4892F8A1B02C0C6
:102130008A2F891B843008F094C483E0831508F447
:1021400090C4591618F4892F851902C0852D891B52
:10215000843008F086C4691610F4961903C0662D01
:10216000691B962F943008F07CC46B2FC8010E9425
:102170002917382FFF81FF30C1F586E03BC082E090
:1021800078123AC0561418F4B62DB51902C0B52D00
:10219000B619FA01A0E09DE0392E2A1769F1819164
:1021A000632D0E9428349F5F892F9B3008F08AE0BE
:1021B000482E430E6FE1641508F455C4651409F404
:1021C00052C4591609F44FC4691609F44CC4B3300B
:1021D00008F049C4591610F4951903C0752D791BE0
:1021E000972F933008F03FC440C47F8184E07F3153
:1021F00009F444CF90E039C0211002C0711005C02D
:102200002A01FA01A0E0BDE036C0F401E70DF11D9E
:10221000319780816DE00E942834B1E0B90FFA0156
:10222000A0E08DE0582E2A1759F38191652D0E9468
:1022300028349F5F892F9B3008F08AE0682E630E58
:102240006FE16615A8F0B91313C06A2FC8010E9488
:102250002917382F7FE0671631F08FE192E068127E
:1022600003C082E002C094E080E0792E780E00C1C5
:10227000AF5FD9CFAF5F2A17A1F081916B2F0E947A
:1022800028349F5F9B3008F09AE0930F9F7E9F3029
:1022900089F76A2FC8010E942917382F72E0772E1C
:1022A000E7C0DA01612C6DE0262EE32FF0E0F8871D
:1022B000EF83261509F18D91622D0E9428349F5FCE
:1022C0009B3008F09AE0EF81F885E90FF11D3B970C
:1022D00089F4F601312C631449F083A1622D0E9428
:1022E00028349F5F9A3010F0662D17C033943196D2
:1022F0002311F1CF6394DDCFD7015F968C918F3F8F
:10230000A1F4FA01A0E0BDE02A1779F081916B2FCA
:102310000E942834933039F46A2FC8010E9429178B
:10232000382F712CA5C0AF5FEFCF272C312CB1E037
:102330002B1A3108280C391CF10180816DE00E94B4
:1023400028349F5F9F83FA0150E040E0BDE02517ED
:1023500059F081916B2F0E9428349F5FAF81A913A0
:1023600001C04F5F5F5FF3CF4130A9F4F5014DE04D
:10237000642E432F50E00BC0D2018D912D01662DAC
:102380000E9428349F5FBF81B91761F031968E2F6C
:102390008A19821788F3F501D6019DE0692E432F33
:1023A00050E011C08B2FBB3008F08AE0BA01680FF3
:1023B000711D603271050CF469C3E8CF80818F3FD5
:1023C00039F0119631968E2F8A198217B8F313C0FF
:1023D00093968C919397662D0E94283481E0890F03
:1023E0008B3008F08AE0BA01680F711D6032710508
:1023F0000CF44FC3E6CF66246A948DE0582E432F29
:1024000050E0D501F60130E0231799F08D91681264
:1024100043C383A1652D0E9428349F5F9B3008F041
:102420009AE0BA01690F711D603271050CF034C376
:1024300007C06A946110E5CF81E0F60183AB4DC01F
:10244000632FC8010E942917382F772009F427C36A
:10245000D1018C914DE0642F0E94283421E0290F96
:10246000832F0E9428349F5F81E0291318C3782EA0
:102470003F3F99F1D70197968C91F701E80FF11D35
:10248000378F8F5FF70187A3C7010E94B41EB82E54
:10249000FFE18F17B1F0D6011E968C911E9788230D
:1024A00021F090968C91882361F0F60181A1882318
:1024B00009F4F7C2B401C8010E94841E882309F4FC
:1024C000F0C2672DC8010E94581701E021E0472D96
:1024D0006B2DC7010E94602EFDC2D60190968C9193
:1024E000882369F061E0C8010E94581762EA71E030
:1024F000C5010E94BB2001E021E04DE208C06AE96D
:1025000071E0C5010E94BB2001E020E042E2B5017C
:10251000C7010E94D71EC50187C24CE3B601C7019F
:102520000E94582D81E0F701828FD4C2B601CD01FF
:102530000E94CB1ED7015C961C92C7010E94B41E5C
:10254000F60196858F3169F4992311F084E005C076
:10255000F60181A1882351F087E0D7011C968C9366
:1025600011C0911107C081A1811111C088E0F7014C
:1025700084872BC084E0F7018487D60190968C91E4
:10258000882319F1B601C7010E94741E1EC084E0A1
:10259000F7018487D60190968C919097811104C0A1
:1025A0001E969C91911111C0F60193A99111E8CF4B
:1025B000B701615E7F4FC8010E94841E882309F421
:1025C00072C287E0D7011C968C9361E0C5010E941E
:1025D000541662E0C8010E9454167CC2F60186813E
:1025E00097818F709927892B09F044C05C968C9154
:1025F0005C97482F50E049305105E0F5FA01ED595C
:10260000FF4F0C944834F601878D9A969C919A97C7
:10261000981710F49A968C93F60182A9D7019B968D
:102620009C919B97981710F49B968C93F70192A519
:10263000D6015E962C915E9783A5921728F0D196CD
:102640009C91891720F038C29F5FF70192A7D601AD
:10265000D1969C91891770F48F5FF70183A70AC008
:1026600099961C9299978F5F29C291E0FD0191A7DD
:102670008F5F848F93FE2EC289E0D7011C968C93C6
:102680001C975C961C925C9781E099968C93999725
:102690009C961C92F601868D878F81A982AB1AC207
:1026A0005C968C915C978E36D8F48F3508F0DAC042
:1026B000823309F470C050F4813308F061C021E026
:1026C000280F8630E8F4FD01248FD0C0803508F053
:1026D000C0C0813408F0C6C0833309F487C0C6C0C7
:1026E0008B3938F48C3808F0B4C08D3708F0BAC094
:1026F000B0C08A3A08F4B6C0893B08F0B7C0A9C098
:102700005C962C93F601E759FF4F80819A3009F1CE
:102710009B3039F1811109C060E971E0CE01019669
:102720000E94BB2003E021E008C064E871E0CE0114
:1027300001960E94BB2003E022E044E3BE016F5FEC
:102740007F4FC7010E94D71ECE0101960E94771FBE
:102750008DC0813019F469E771E007C06DE671E062
:10276000E6CF813051F462E671E0CE0101960E941D
:10277000BB2003E021E042E3E1CF66E571E0D7CF83
:1027800082E3FD01848FB601CD010E941B1ED7019B
:102790009D968C936BC0C5010E94792793FE0AC059
:1027A000F70195A5911102C0148E04C093E3948F94
:1027B000912C08C097FE06C0F70194A5992311F04B
:1027C000915094A794FE52C0D7019C969C919C97DF
:1027D000492F50E04B5F5F4F282F30E042175307DF
:1027E0000CF044C09F5F9C969C9340C0F601878D7F
:1027F0009A969C919A97981710F49A968C93F60152
:1028000082A9D7019B969C919B97981710F49B9651
:102810008C93F601868197818F709927892B31F5EA
:10282000D7019A969C919A97268D9B968C91921798
:1028300020F091A9891720F044C19F5FF70192A76A
:10284000D601D1969C91891788F48F5FF70183A7F1
:102850000DC08F5FD7015C968C935C9781E0999651
:102860008C9304C08F5FF701848F11A693FE32C151
:10287000D7015C968C91823330F4B601C7010E9477
:102880001B1EF70185A7D7011C968C911C978A30D7
:1028900041F08B3051F0893059F48AE01C968C93CA
:1028A00007C08BE0F701848703C0D7011C961C92F8
:1028B000F601868D878F81A982ABD7015C961C9229
:1028C00009C1FD01848DD601823420F55E968C917C
:1028D000893750F062E371E0CE0101960E94BB207F
:1028E00002E02CE442E009C064E071E0CE01019610
:1028F0000E94BB2001E023E443E0BE016F5F7F4FF5
:10290000C7010E942D2DCE0101960E94771FF7016D
:10291000848D4CC016962D913C9117972F703327BC
:10292000232B09F045C0482F50E0FA01E254F10989
:10293000E930F105E8F5E459FF4F0C944834F6010D
:10294000878DD7019A969C919A97981710F49A962A
:102950008C93F60182A9D7019B969C919B9798171F
:1029600010F49B968C93F70192A5D6015E962C915C
:102970005E9783A5921728F0D1969C91891720F035
:10298000A4C09F5FF70192A7D601D1969C918917A9
:1029900078F48F5FF70183A70BC0D70199961C923B
:1029A00099978F5F94C091E0F70191A78F5F848F13
:1029B00093FE90C0F601E054FF4F83E080838AC00D
:1029C000B601C7010E94702DF601E759FF4F81E063
:1029D0009081913009F480E080830C94680A2F5F25
:1029E000D7015B962C930C94C00A61E0C5010E944C
:1029F000581766EB71E0CE0101960E94BB2000E003
:102A000022E04DE209C06EEA71E0CE0101960E941B
:102A1000BB2000E020E042E2BE016F5F7F4FC701B4
:102A20000E94D71ECE0101960E94771F53C02F5FD0
:102A3000F701238F81C810E0EEC81D5FA1E02BC90C
:102A4000AA2329F081E0180F41E0A1E073C984E0D6
:102A5000FACF1E5FF9C94111F7C91B5FF5C91F5FA6
:102A600007CABF5F35CBAF5F98CB6A2FC8010E9402
:102A70002917382F2FE0421639F08FE1481202C093
:102A800083E0FCCA83E0B6CB85E0B4CB61E0608331
:102A90007DCC9B5E908395CC3F5F3196B5CC80E03A
:102AA000E6CC73940ECDD6011E968C9181116ACD21
:102AB00087E0F701848766CD81E0D7015C968C932F
:102AC000D9CD81E4F701848FD1CE83E4D7015C9620
:102AD0008C936ECF29960FB6F894DEBF0FBECDBF94
:102AE000DF91CF911F910F91FF90EF90DF90CF90EA
:102AF000BF90AF909F908F907F906F905F904F901E
:102B00003F902F900895DC01FB0121852095908551
:102B10002923868197818F709927892B59F45096A4
:102B20009C9150979F5F9C3119F050969C9302C0E6
:102B300050961C9223FF0FC083E884BD8FEF87BDA2
:102B400081EF809380001092880010928A00E054F8
:102B5000FF4F81E080830895089580E090E008951C
:102B60000895CF93DF93FC016A3039F48581848323
:102B700096818185890F868351C08481603219F4E2
:102B80008E5F84834BC06E37D9F3262FEF016681A9
:102B90006F5F2A3331F178F42D32C9F130F42132EC
:102BA00011F12B3271F521E41FC02E32A1F0203338
:102BB00040F12C5F19C02B3540F4213470F42F33D1
:102BC00071F02034F1F424E40FC09FE9920F9A31A0
:102BD000C0F4275409C02FE307C0215405C022E4E4
:102BE00003C023E401C02EE33F81062E000C770BC7
:102BF000082E000C990B313061F44FE252E00E9434
:102C00000B2A88858D5F9C81890F8C8307C020E407
:102C1000EBCF4FE252E00E941B2AF3CF81E090E01D
:102C2000DF91CF9108950F931F93CF93DF938C0182
:102C30004CEA53E064E170E080E090E00E94B5244B
:102C4000CAE9D0E0F801808920E046E553E06FEF63
:102C50007FEFFE01E80FF11DCF010E940B2A6C9758
:102C6000CA3BFFEFDF0771F7CCEEDFEFF801808999
:102C700020E040E053E06DE270E0FE01E81BF10966
:102C8000CF010E940B2A6C96C03BD10579F7DF91EA
:102C9000CF911F910F9108950C94E6340C94E63473
:102CA0000C94E6340C94E634CF92DF92FF920F93AB
:102CB0001F93CF93DF938C01C62F69EC71E084E200
:102CC00096E00E94F3236C2F84E296E00E942E2669
:102CD00061ED71E084E296E00E94F323C0E08DE0B4
:102CE000F82EF8018081C81708F062C064ED71E029
:102CF00084E296E00E94F3236801CC0ED11CF60119
:102D0000628184E296E00E942E2666ED71E084E204
:102D100096E00E94F323F601D281DF3F19F469EDBA
:102D200071E03AC08D2F6F2D0E94283461E0690F49
:102D30006B3081F018F4623040F404C06C3069F0FC
:102D40006D3071F06CED71E00DC084E296E00E9490
:102D50002E260CC06EED71E005C060EE71E002C081
:102D600062EE71E084E296E00E94F3238D2F6F2DD6
:102D70000E942834813059F068F0823029F0833085
:102D800079F466EE71E008C064EE71E005C068EEAB
:102D900071E002C06AEE71E084E296E00E94F323E3
:102DA00065E172E084E296E00E94F323CF5F99CF61
:102DB0006EEE71E084E296E00E94DE236CEE71E03C
:102DC00084E296E0DF91CF911F910F91FF90DF9009
:102DD000CF900C94DE23CF93DF93FC0110821182FD
:102DE000DC01129686E0ED0119928A95E9F71A96B0
:102DF00084E0ED0119928A95E9F7128A662311F0B1
:102E0000108A118ADF91CF9108950F931F93CF936A
:102E1000DF938C01EB0161E0CE010E960E94EB1670
:102E200061E0CE0181960E94EB16BE01C8010E94AE
:102E3000702DF8011686148616A6FE01E759FF4F7D
:102E40001082C659DF4F1882DF91CF911F910F91E9
:102E50000895FC01DC01A60FB11D12968C9166301D
:102E600050F4DF01A60FB11D13969C911397129693
:102E70009C936F5FF4CF9FEF9783908191509083E5
:102E8000943039F4DF011896329601900D929A959C
:102E9000E1F70895FC019181DF01A90FB11D1C9696
:102EA0006C9361E0690F6183CF010C960C94192B30
:102EB000FC019089690F6A3710F4608B089589E7E7
:102EC000808B089508950895089508952F923F9254
:102ED0004F925F926F927F928F929F92AF92BF922A
:102EE000CF92DF92EF92FF920F931F93CF93DF93D6
:102EF000CDB7DEB72C970FB6F894DEBF0FBECDBFAF
:102F00005C014B01FB0166807780FC018485885061
:102F1000853008F4BDC0008D22E147E5C5010E945F
:102F2000142CF4018685880F982F990F990F890F1B
:102F3000845F869594E3F92EF81AE12C5DE0D52E96
:102F4000F4018685E81608F059C02E2D30E090E097
:102F50000197E20FF31F0F2D10E0C08828173907E3
:102F600024F520E04AE755E069E270E0C8010E94DC
:102F70000B2A0D5F1F4F8C2D6D2D0E942834C92EFA
:102F8000282F41E950E164E370E0C8010E941B2A48
:102F9000EC2DF0E0EE0FFF1FE155FE4F4081518117
:102FA00020E06DE270E0C80123C020E046EA55E071
:102FB00069E270E0C8010E940B2A8C2D6D2D0E94E1
:102FC0002834C92E282F41E950E164E370E0C8019C
:102FD00008960E941B2AEC2DF0E0EE0FFF1FE15532
:102FE000FE4F4081518120E06DE270E0C801039600
:102FF0000E941B2AE394FAE0FF0EA2CFF40111A174
:10300000110F812F880F880F180F145F16951A5C07
:1030100000E0F40181A10817F0F4202F30E090E0E7
:103020000197281739074CF4812F90E020E04CE5F8
:1030300055E068EF7FEF0A9709C082E0810F90E0CA
:1030400020E04EE255E068EF7FEF46970E940B2AA2
:103050000F5F1A50DECF21E040E86DE370E080E0C2
:1030600090E00E94482A20E040E86CE370E080E0B5
:1030700090E00E94482A00E010E041E06FE370E039
:10308000C8010E94882A0E5F1F4F00381105A9F75A
:10309000F5012485822F90E08D30910508F050C213
:1030A000FC01EB58FF4F0C944834F501638DC401CB
:1030B0000E94C12CF5016685C4010E94E22C40C229
:1030C000F50180A58F3F09F080C221E04AED50E173
:1030D0006CE070E080E090E00E940B2A20E048E67F
:1030E00050E160E170E085E090E00E940B2A28C288
:1030F000C5010E94B12CF501848D811108C0638D3A
:10310000C4010E94C12C03C0C5010E94B12CC5019D
:103110000E947A2C15C2F40191A9868D891710F0AE
:1031200002E001C001E026E140E0B401C5010E94D7
:10313000142C20E046E658E060E070E08BE290E07E
:103140000E940B2A20E047E556E064E070E083E34C
:1031500090E00E940B2AF401968D878D981719F044
:10316000F50111A501C010E0F40182A991A99817F9
:1031700019F0F50141A501C040E0F50163A50E94E9
:103180001627412FF50162A5F401878D0E94D226F2
:1031900021E041E0B401C5010E94CF2BD1C16401FF
:1031A000FEE0CF0ED11CC40187599F4F7C01FC016A
:1031B0008081293019F4882319F009C0813039F44D
:1031C000C6010E947927882311F001E001C002E0C6
:1031D00026E140E0B401C5010E94142C20E046E63F
:1031E00058E060E070E08BE290E00E940B2AF5016D
:1031F000828D81112AC093012F71332781E0213103
:1032000008F480E0F5012485948D2A3049F02B30B4
:1032100039F02930D1F4F7012081211105C00BC00C
:10322000F7012081211107C041E0993B08F440E0FB
:10323000482B21E006C021E0993B08F420E0282B30
:1032400041E0B401C5010E94CF2BF501848D82338A
:1032500009F050C186838783108684858A3081F087
:103260008B30D1F0893029F5F7012081C501029614
:10327000211103C06EE476E01AC063E476E017C063
:10328000F7012081C5010296211103C068E376E0B1
:103290000EC06FE276E00BC0F7012081C5010296F7
:1032A000211103C064E276E002C06BE176E00E9487
:1032B0005A27C6010E947927E82E81110DC088E4A3
:1032C000F501868387838CE1808761E176E0C50123
:1032D00002960E945A2734C1F5E0F81768F421E0FD
:1032E000F50184A5811120E041E056E061E070E045
:1032F00088E790E00E940B2A3401FBE66F0E711CF8
:10330000230119861886F12C95012E5F3F4F3C87CB
:103310002B879885F50184A59E1508F090C0981715
:1033200008F484C090E005962885398582179307B4
:103330000CF47CC038E0F39EC00111246C01EAE07B
:10334000CE0ED11C120102E310E01F82F101808138
:103350008F3F49F1FF81FF5FFF836DE00E942834BA
:103360009F5FE92FF0E0EE0FFF1FE355FE4F408116
:103370005181E1E0F0E09A3011F0E0E0F0E020E08F
:10338000B601C8018E1B9F0B0E940B2AF1018081A0
:103390006DE00E942834282F41E950E1B601C801B0
:1033A00005960E940B2AFFEF2F1A3F0A025F1F4F5C
:1033B0000837110559F62F2D220F220F220F2A87C9
:1033C0003F81353090F0F201158128E7F501268321
:1033D00027838A85875F80871A3010F564E172E061
:1033E0008B859C850E94F3231BC03F818EE0389F14
:1033F000002D11240E5C82E7282E201A312CCA845D
:103400009FE0C90ED12C10E041E0B601C801830D48
:10341000911D0E94882A339433942314A8F7D3CFA4
:10342000612F8B859C850E942E26F394E885F98573
:103430003196F987E887F7E04F0E511C6ACF0E2DC1
:1034400010E025E02E1578F490E0059621E0801735
:1034500091070CF420E041EF55E06CE370E088E761
:1034600090E00E940B2AF50184A590E00596801754
:1034700091070CF465C081E081871F2D110F110F9A
:10348000110F165F8DE58683878310877501F2E043
:10349000EF0EF11C6AEE75E0C7010E945A2788E71B
:1034A000F501868387831087840101541F4FF30140
:1034B00080E090819F3F11F09581890F37960E171C
:1034C0001F07B9F78A3028F464E172E0C7010E944F
:1034D000F32360E0F30180818F3F11F08581680F55
:1034E000F7E06F0E711C06151705A1F7C7010E94C2
:1034F0002E2626C020E047E556E064E070E083E336
:1035000090E00E940B2AF401968D878D981719F090
:10351000F50111A501C010E0F40182A991A9981745
:1035200019F0F50141A501C040E0F50163A50E9435
:103530001627412FF50162A5F401878D0E94D2263E
:10354000F501848588508530E0F0828D882329F04C
:10355000818D882311F0833051F4EE24E394F4013B
:1035600001A92FEF42E7B401C5010E947226EE24A3
:10357000E394F401068D24E342E7B401C5010E94FF
:103580007226F501828D882321F1C18CE788068996
:1035900015891A8219821C821B821E821D82B50126
:1035A000615F7F4FCE0101960E944D1F212FAE011A
:1035B0004F5F5F4FB401C5010E940125CE01019606
:1035C0000E94771FF501128E04C0C5010E94B12C24
:1035D000B7CF2C960FB6F894DEBF0FBECDBFDF91EC
:1035E000CF911F910F91FF90EF90DF90CF90BF9000
:1035F000AF909F908F907F906F905F904F903F9093
:103600002F90089521E531E0FC01318320830F964E
:103610000C94771FCF93DF93EC010E94021BCE0125
:10362000DF91CF910C94E6342BEA31E0FC01318339
:10363000208384529F4F0C94021BCF93DF93EC01A5
:103640000E94141BCE01DF91CF910C94E6342F928F
:103650003F924F925F926F927F928F929F92AF9222
:10366000BF92CF92DF92EF92FF920F931F93CF936F
:10367000DF93CDB7DEB72C970FB6F894DEBF0FBE41
:10368000CDBF8C017A876987D42E1C0144E5240EB6
:10369000311C7C0145E050E06FEF70E0C7010E94F3
:1036A0004336D70115961C92B7E0EB0EF11CE214DD
:1036B000F30481F78D2D6DE00E942834C82E4985D2
:1036C0005A854B5F5F4FA985BA8520E09DE0B92EF2
:1036D00037E0F32EEE24E3943D913D1549F0832F1E
:1036E0006B2D0E9428349A3019F4C81609F43EC292
:1036F000A417B50789F78FE1482E512CFE013196AA
:103700007F013DE05E01F6E0AF0EB11C60901C0150
:1037100070901D0180901E0185E0EFE1F1E0D7017E
:1037200001900D928A95E1F7E985FA8580E090E0B5
:10373000D12CA201082E02C0559547950A94E2F7B4
:1037400040FF06C04081D701AD0DB11D4C93D3940D
:10375000019631968530910561F742E0D41287C019
:1037600049815A81852F632F0E942834CC24C39429
:10377000C90E842F0E9428349F5FC91278C0F801B7
:10378000FC87EB878681813009F054C08081632FEC
:103790000E9428349F5FC9124DC0BF01C12C90E028
:1037A00080E0DB019D90BD01491102C0CC24C3948F
:1037B000BFEF9B1203C0911101C0982F8F5F85301E
:1037C00081F7C11005C0BF01690F711DDB014C936A
:1037D000BF0140E080E090E0DB01CD90BD015C11D5
:1037E00001C041E0BFEFCB1203C0811101C0892F9E
:1037F0009F5F953089F7411106C08F5FBF01680F49
:10380000711DDB015C9390E080E041914F3F09F036
:10381000982F8F5F8530C9F76E827F828886E5E0BA
:10382000F0E0EC0FFD1FE90FF11D8081EB85FC85B9
:1038300085831DC037962E163F0609F0A1CFB8012B
:1038400087E0289F600D711D1124D701CB014D9198
:10385000FC014193CF01AA15BB05C9F7E2E0DB01EA
:103860001596EC931597F1E01696FC932F5FF701F0
:10387000D70140E08A2F8E198D1550F48D91632F5A
:103880000E9428349F5F9B3008F09AE0490FF2CFE6
:103890004F30E1F4B80187E0289F600D711D1124BD
:1038A0007C876B87AB01C701DC016D91CD01DA012B
:1038B0006D93AD01A816B906B9F742E0AB85BC859A
:1038C00015964C93159716961C922F5F63E0D612AF
:1038D00066C0D9808D2D632F0E9428349F5F492FA9
:1038E00050E0CA80DA0111968C2D0E9428349F5F27
:1038F000892F90E0A817B90709F01AC19B804E5F85
:103900005F4F892D0E9428349F5F892F90E04817D0
:10391000590709F00DC1D80140E016965C91169741
:103920005450523018F57C9111966C911197129663
:103930005C911297D71204C0C61202C09516A9F066
:10394000D61207C0C51205C013966C911397961630
:1039500061F0D5120BC013965C911397C51206C087
:1039600014965C911497951201C041E017962A169F
:103970003B0699F64111DCC0B80187E0289F600D35
:10398000711D1124CB014191DC014D93CD01EA154C
:10399000FB05C9F743E0FB01458386E0C7C094E01F
:1039A000D91278C0D9808D2D632F0E9428349F5F53
:1039B000492F50E0CA80DA0111968C2D0E942834DC
:1039C0009F5F892F90E0A817B90709F0B1C09B80CD
:1039D000892D0E9428349F5F892F90E0BA016E5F85
:1039E0007F4F6817790709F0A3C0AC81AB874D5FA3
:1039F0005F4F8A2F632F0E9428349F5F892F90E0AA
:103A00004817590709F094C0C80140E0DC01169638
:103A10005C911697543029F56C9111965C91119731
:103A2000D6120CC0C5120AC012966C91129796124B
:103A300005C013966C91BB85B61791F0D51211C0D5
:103A4000DC0112965C911297C5120BC013965C9123
:103A50001397951206C014965C91BB85B51301C0EF
:103A600041E007962816390689F6411161C0B80170
:103A700047E0249F600D711D1124CB014191DC01B1
:103A80004D93CD01EA15FB05C9F744E0FB014583E1
:103A900085E04CC095E0D9124BC08981632F0E940C
:103AA00028349F5F492F50E0DA0111968A810E94E5
:103AB00028349F5F892F90E0A817B907C9F58B813B
:103AC0000E9428349F5F892F90E0BA016E5F7F4F7C
:103AD0006817790769F58C81632F0E9428349F5FEE
:103AE000892F90E0BA016D5F7F4F6817790701F564
:103AF0004C5F5F4F8D81632F0E9428349F5F892F19
:103B000090E048175907A1F4B801A7E02A9F600D7B
:103B1000711D1124CB014191DC014D93CD01AE16F5
:103B2000BF06C9F745E0FB01458384E086832F5F2C
:103B300091E0491A510809F0EFCD2C960FB6F89490
:103B4000DEBF0FBECDBFDF91CF911F910F91FF90D0
:103B5000EF90DF90CF90BF90AF909F908F907F902D
:103B60006F905F904F903F902F900895F80167E01D
:103B7000269FE00DF11D11243083E582F6822F5F30
:103B8000B7CDEF92FF921F93CF93DF9300D000D079
:103B90001F92CDB7DEB77B01142FFC013C9694E059
:103BA000DE01119601900D929A95E1F74D8365E043
:103BB000CE0101960E94192B412FBE016F5F7F4FEE
:103BC000C7010E94271B0F900F900F900F900F902E
:103BD000DF91CF911F91FF90EF900895EF92FF92A8
:103BE0001F93CF93DF9300D000D01F92CDB7DEB7E5
:103BF0007B01142FFC01389694E0DE0111960190B0
:103C00000D929A95E1F74D8365E0CE0101960E94F1
:103C1000192B412FBE016F5F7F4FC7010E94271BE9
:103C20000F900F900F900F900F90DF91CF911F91F9
:103C3000FF90EF900895EF92FF920F931F93CF9311
:103C4000DF93FC01EB017B018EE0E80EF11C8B01A0
:103C50000F5D1F4F84858A3071F08B30E9F0893019
:103C6000D1F5DB01A759BF4F8C9165597F4F40A516
:103C700081110AC00DC0DB01A759BF4F8C91655956
:103C80007F4F40A5811104C0C7010E94EE1D10C0E6
:103C9000C8010E94EE1D16C0DB01A759BF4F8C91D1
:103CA00065597F4F40A581110AC0C7010E94C11DFF
:103CB000CE010E94472DC82F682FC70109C0C80137
:103CC0000E94C11DCE010E94472DC82F682FC80138
:103CD0000E94581701C0C0E08C2FDF91CF911F9137
:103CE0000F91FF90EF900895FC017F969C01295D54
:103CF0003F4F4FEF4193E217F307E1F7FC0117A2A3
:103D0000FB0110A213AA0895FC01DB01AB01485F7F
:103D10005F4F20E03DE08D918F3F41F0632F0E9487
:103D200028349F5F9B3008F09AE0290FA417B5074D
:103D300091F75081329640E0ADE030E0541781F0C9
:103D400081916A2F0E9428349F5F9B3008F09AE08F
:103D5000B901690F711D6032710524F04F5FEECF1C
:103D600080E0089581E00895FC017F969C01295D23
:103D70003F4F40E05DE081918F3F41F0652F0E9411
:103D800028349F5F9B3008F09AE0490FE217F30751
:103D900091F7842F0895FB01268D293718F421A966
:103DA000293720F0FC01148E21E026A70895DF9228
:103DB000EF92FF920F931F93CF93DF9300D000D029
:103DC00000D0CDB7DEB77C01D42E122F1A82198213
:103DD0001C821B821E821D82CE0101960E944D1FF5
:103DE000BE016F5F7F4FC7010F960E944D1F81E09C
:103DF000F701858BD68A9FEF978B108F018F828F6B
:103E0000CE0101960E94771F26960FB6F894DEBF6A
:103E10000FBECDBFDF91CF911F910F91FF90EF901B
:103E2000DF9008950E9435360F931F93CF93DF9351
:103E3000EC0188819981009729F02A813B8126171E
:103E4000370788F48B016F5F7F4F0E946F350097B3
:103E500061F0998388831B830A832C813D81232B06
:103E600011F4FC01108281E001C080E0DF91CF916C
:103E70001F910F910895CF93DF93EC018881998171
:103E8000009711F00E94E634198218821D821C826C
:103E90001B821A82DF91CF910895EF92FF920F93C8
:103EA0001F93CF93DF93EC0186179707C1F0FB01B7
:103EB000008111810115110539F0E480F580B70109
:103EC0000E94141F811104C0CE010E943B1F07C035
:103ED000FD82EC82B801888199810E944A36CE0128
:103EE000DF91CF911F910F91FF90EF900895FC010A
:103EF000808191810C94E6344091200650912106F6
:103F000020911E0630911F0642175307B4F490917A
:103F1000E8009570E1F39091E80092FD19C080935C
:103F2000F100809120069091210601968F739927C8
:103F3000892B19F48EEF8093E800809120069091F0
:103F400021060196909321068093200681E0089532
:103F500080E00895DF92EF92FF920F931F93CF932B
:103F6000DF93D82E8A017B01E40EF51EEB01CE15FE
:103F7000DF0571F0D7FE03C0FE01849101C0888186
:103F80000E947C1F21968111F2CF8FEF9FEF01C01D
:103F9000C801DF91CF911F910F91FF90EF90DF90BB
:103FA0000895615030F02091F100FC0120830196CA
:103FB000F8CF289884E6809395070895CF92DF92F2
:103FC000EF92FF920F931F93CF93DF936C017A01CF
:103FD0008B01C0E0D0E0CE15DF0581F0D8016D91F6
:103FE0008D01D601ED91FC910190F081E02DC6018B
:103FF0000995892B11F02196EECF7E01C701DF9143
:10400000CF911F910F91FF90EF90DF90CF90089587
:10401000CF93DF931F92CDB7DEB76983DC01ED91BB
:10402000FC910280F381E02D41E050E0BE016F5F22
:104030007F4F09950F90DF91CF91089583E0809392
:10404000E9008091F200882319F08AE38093E80068
:104050000895FC018485958597FD0BC09FB7F89462
:1040600082E08093E9008091F2009FBF90E001968A
:1040700008959FB7F89482E08093E9008091F20060
:104080009FBF90E008950F931F93CF93DF931F92EC
:10409000CDB7DEB782E0898342E450E06DE878E096
:1040A00080E80E94AA1F0E94102EDC0112960D913A
:1040B0001C9113970115110589F0D801ED91FC9120
:1040C0000280F381E02DBE016F5F7F4FC80109952B
:1040D00097FD04C0F80100851185ECCF89810F9010
:1040E000DF91CF911F910F9108950E94FF2D90E0D5
:1040F00008950F931F93CF93DF931F92CDB7DEB731
:104100008C01FC018485958597FF0EC0CE01019638
:104110000E94D12D019719F4898190E002C08FEFA0
:104120009FEFF80195878487F801848595850F9026
:10413000DF91CF911F910F910895CF93DF931F923D
:10414000CDB7DEB7FC018485958597FD05C02FEFBF
:104150003FEF358724870BC0CE0101960E94D12DF9
:10416000019719F4898190E002C08FEF9FEF0F90C3
:10417000DF91CF910895EF92FF920F931F93CF930A
:10418000DF93EC01198218821B821A821D821C8225
:104190006115710509F18B01CB010E946F337C0120
:1041A000BC01CE010E94141F811109C0CE01DF9114
:1041B000CF911F910F91FF90EF900C943B1FFD82C8
:1041C000EC82B80188819981DF91CF911F910F9185
:1041D000FF90EF900C946833DF91CF911F910F9176
:1041E000FF90EF900895EF92FF920F931F93CF935C
:1041F000DF93EC01198218821B821A821D821C82B5
:104200006115710521F18B01FB0101900020E9F797
:1042100031977F01E61AF70AB7010E94141F811136
:1042200009C0CE01DF91CF911F910F91FF90EF90C8
:104230000C943B1FFD82EC82B80188819981DF914B
:10424000CF911F910F91FF90EF900C944A36DF9120
:10425000CF911F910F91FF90EF9008951F920F92B1
:104260000FB60F9211248F939F938091E10090914C
:10427000E100937F9093E10083FF0FC01092E9006B
:1042800091E09093EB001092EC0092E39093ED009C
:104290001092960798E09093F00082FF20C093E080
:1042A0009093E9009091F200992319F09AE390938A
:1042B000E80090912306992339F0909123069150BC
:1042C00090932306992389F190919507992339F0CA
:1042D00090919507915090939507992341F184FF10
:1042E00010C08091E2008E7E81608093E200809118
:1042F000E1008F7E8093E100809118028E7E8061C4
:1043000011C080FF16C08091E2008E7E8061809394
:10431000E2008091E1008E7E8093E100809118029E
:104320008E7E81608093180204C05D9ACDCF289A5A
:10433000D6CF9F918F910F900FBE0F901F90189521
:104340001F920F920FB60F921124CF92DF92EF922D
:10435000FF920F931F932F933F934F935F936F930E
:104360007F938F939F93AF93BF93EF93FF93CF93DD
:10437000DF93CDB7DEB76C97DEBFCDBF1092E900FB
:104380008091E80083FFFBC168E0CE0145960E9462
:10439000D11F82EF8093E8008D8987FF05C090913F
:1043A000E80090FFFCCF03C09EEF9093E800982FA9
:1043B000907609F0C6C09E894F89588D2F89F88C58
:1043C00091110CC0803829F4809119028093F1007A
:1043D00002C01092F1001092F10045C1913051F4E9
:1043E000811141C14130510509F03DC1809119024F
:1043F0008D7F0BC0933061F4811135C1413051057F
:1044000009F031C1809119028260809319022BC199
:10441000953049F48091E80080FFFCCF822F8068BE
:104420008093E30020C1963009F05EC00B8D1C8D97
:1044300022E01092E9001092210610922006F2125A
:1044400032C010921F0610921E060E94432099E06F
:10445000BE016F5F7F4FDB01E92F1D92EA95E9F7FF
:104460009983FA8291E09E8390EA98879AEF9987E0
:104470002091200630912106275F3F4F3C832B83FC
:104480008D831092E900109221061092200610935D
:104490001F0600931E0649E050E080E00E94AA1F1C
:1044A0000E944320E0C010931F0600931E060E9446
:1044B000102EDC0112960D911C9113970115110518
:1044C00009F4BBC0D801ED91FC910480F581E02D89
:1044D000BE016B5E7F4FC8010995009709F0C7C008
:1044E000F80100851185EACF973009F445C198306D
:1044F00021F481E08093F100B6C0993009F0B3C097
:10450000837009F039C1E5E2F1E081E031E096E342
:104510002081211109C08EE78093EA001092EA0001
:104520008F89809396079FC08093E9003093EB00BA
:1045300021912093EC009093ED008F5F873041F73D
:10454000EACF8B8D9C8D1092E9001092210610927B
:10455000200690931F0680931E06898D811153C0FB
:104560008E899D89913A49F4813209F005C147E06D
:1045700050E064E071E080E0BBC0913209F0FCC023
:10458000833269F48F89988DA0E0B0E080930001B8
:1045900090930101A0930201B093030164C08032A3
:1045A00069F48091E80082FFFCCF67E084E091E04D
:1045B0000E94D11F8BEF8093E80055C0823209F032
:1045C00052C08F8980930B01EEEFFFE785919491A4
:1045D0008B3F9C4D19F0E0E0F8E002C0EEEFFAE00E
:1045E0008091040190910501A0910601B09107010D
:1045F000803B9440A105B10509F09EC080910B015C
:1046000080FF79C099C00E94102EFC0102811381A5
:104610000115110509F4B0C0D801ED91FC9101908C
:10462000F081E02DBE016B5E7F4FC80109958111BD
:104630001AC0F80100851185EBCFF1E0FF1609F4EF
:104640004EC0F3E0FF1298C08F89882309F44AC056
:10465000823089F440E860E181EF98E00E94B43153
:10466000882309F489C08EEF8093E80088C018166B
:104670001906CCF381C0813029F440E86BE085EE67
:1046800098E0ECCF833009F077C00E94102EDC0157
:104690001296ED90FC9013978E010F5F1F4F6801EB
:1046A000E114F10479F0D701ED91FC910680F781D6
:1046B000E02DB801C7010995080F111DF701E0842D
:1046C000F184EECFD8011C92F60101900020E9F7A9
:1046D0003197BF016C197D0940E0C601BFCF63ED82
:1046E00078E002C06FEC78E0FB01449150E080E894
:1046F0000E94AA1FB8CFEE3F2AE0F20751F0808156
:1047000091818737A7E79A0721F09093FF0A80935A
:10471000FE0A87E797E7918380838091600080930A
:1047200022069BE088E10FB6F894A895809360007C
:104730000FBE9093600097CF808191818737974714
:1047400009F091CFA8958091600088618093600006
:104750008091220680936000EE3FBAE0FB0739F0BB
:104760008091FE0A9091FF0A918380837CCF109202
:10477000FF0A1092FE0A77CF81E28093EB006C96DD
:104780000FB6F894DEBF0FBECDBFDF91CF91FF9182
:10479000EF91BF91AF919F918F917F916F915F91B9
:1047A0004F913F912F911F910F91FF90EF90DF90CC
:1047B000CF900F900FBE0F901F9018956115710547
:1047C00079F0FB0101900020E9F73197AF01461B1A
:1047D000570BDC01ED91FC910280F381E02D0994EF
:1047E00080E090E008950C94DE238F929F92AF9228
:1047F000BF92CF92DF92EF92FF926B017C010E94F9
:104800002B284B015C01C114D104E104F104F1F047
:104810000E942B28DC01CB0188199909AA09BB0940
:10482000883E9340A105B10570F321E0C21AD1087A
:10483000E108F10888EE880E83E0981EA11CB11CE7
:10484000C114D104E104F10419F7DDCFFF90EF901A
:10485000DF90CF90BF90AF909F908F9008958F92F0
:104860009F92AF92BF92CF92DF92EF92FF920F93FF
:104870001F93CF93DF936C017B018A0180910B0121
:10488000882309F45CC080919607882309F457C0F7
:104890008091180280FF05C08091E00082608093C3
:1048A000E000E801B12C8AEFA82E93E0892E2AE3DC
:1048B000922E209711F4BB20D9F10E94FF2D811177
:1048C0000AC0AA94AA20D9F161E070E080E090E0EB
:1048D0000E94F523EECF282F30E0C217D3070CF447
:1048E0008C2F9FB7F8948092E9002091E80025FF73
:1048F0001DC0282F30E0C21BD30BF701815020F0E0
:1049000041914093F100FACFE20EF31EBB2019F063
:104910009092E8000AC08091E80085FD07C090925F
:10492000E800BB24B394209709F0B12C9FBFC1CFFE
:104930005D9884E6809323061016110644F081E00A
:1049400090E0F6019383828380E090E001C0C8018B
:10495000DF91CF911F910F91FF90EF90DF90CF905B
:10496000BF90AF909F908F900895CF92EF920F934A
:104970001F9322E0C22EE12C00E010E020E00E9414
:104980009A281F910F91EF90CF9008958F929F9248
:10499000AF92BF92CF92DF92EF920F931F93CF937C
:1049A000DF936A01EB014B01820E911C5A01A00EAC
:1049B000B11CC815D905CCF48601D7FE02C000E0B1
:1049C00010E0C50121E4A216B10414F080E490E0E7
:1049D0000817190744F44E2DB801CE010E94882A09
:1049E0000F5F1F4FEECF2196E4CFDF91CF911F9144
:1049F0000F91EF90DF90CF90BF90AF909F908F90EE
:104A000008952F923F924F925F926F927F928F9272
:104A10009F92AF92BF92CF92DF92EF92FF920F934D
:104A20001F93CF93DF9300D01F92CDB7DEB75C0109
:104A30001A01702E4C2CCC2039F083E0C81621F0DE
:104A400080E8582E501A01C0512C9FEFE9125E2CBD
:104A5000122F110F110F110FE3E0E10FE983C52CA5
:104A6000D12CCB0103969B838A8304E0010FE12CB8
:104A7000272D43E050E0B6010E94C624460194E091
:104A8000890E911C0CE0010F28EFF22EF70C2F2D50
:104A90004FEF5FEFB4018A819B810E94C62405E03D
:104AA000010FB6016F5F7F4FEE24E3942EEF270DC9
:104AB00043E050E08A819B810E94C6240AE0010FF6
:104AC0002F2D40E050E0B4018A819B810E94C624D2
:104AD00038E0F32EF10E4CEF642E670CF60132969F
:104AE000FB83EA8320E0462D61E070E0CF010E9465
:104AF000482A0F2D10E0FFE3FF1538F020E0462D87
:104B0000B8018A819B810E94482A0F5F1F4FEE24C3
:104B1000E394F12C4801013411051CF080E4882E47
:104B2000912CE814F90454F440E0B7018A819B8188
:104B30000E94882A8FEFE81AF80AECCFEA81FB81FD
:104B4000E60DF11D3197FB83EA8301E010E00815C3
:104B5000190549F040E0B8018A819B810E94882AAA
:104B60000F5F1F4FF4CFE12C00E02AE03CE042E170
:104B70005CE06FEF7FEFC6010E942B2A4601870C95
:104B8000911C3401F8E06F1A710828EF3BE040E017
:104B90005CE06FEF7FEFC3010E942B2A9981892F80
:104BA00090E09B838A83442019F0E3E04E1215C005
:104BB0006A817B8161507109E12C00E02EE83BE0C5
:104BC00042EC5BE0C6010E942B2A2CE73BE044E864
:104BD0005BE06A817B81C30115C0E12C00E02AE61D
:104BE0003BE042E75BE06A817B81C6010E942B2AA1
:104BF0006A817B816150710920E03BE044E35BE026
:104C0000C4014A970E942B2A86E0850DF501868310
:104C1000878385E080871186F10144815581608119
:104C20007181C50102960E94DE1F81E0F501818736
:104C30000F900F900F90DF91CF911F910F91FF90E8
:104C4000EF90DF90CF90BF90AF909F908F907F902C
:104C50006F905F904F903F902F9008958F929F920A
:104C6000AF92BF92EF92FF920F931F93CF93DF9378
:104C7000CDB7DEB7A1970FB6F894DEBF0FBECDBF9C
:104C80007C01262F30E040E050E019A28E010F5D3C
:104C90001F4F8AE0882E912CA12CB12CCA01B9019A
:104CA000A50194010E94F733605DF80162938F01C2
:104CB000211531054105510589F7BF01C7010E9442
:104CC000DE23A1960FB6F894DEBF0FBECDBFDF91F5
:104CD000CF911F910F91FF90EF90BF90AF909F9059
:104CE0008F9008956F927F928F929F92AF92BF9212
:104CF000CF92DF92EF92FF920F931F93CF93DF93A8
:104D00006C01122F702E6E2C89E0801718F026E0AF
:104D1000F22E08C0E3E6E01718F094E0F92E02C086
:104D200082E0F82EF40EF6011186812E012E000C81
:104D30009908C42FD0E05B01F3E0AF0EB11CE12C69
:104D400008E02EE0A401BE01C5010E94C624A40112
:104D50004F5F5F4FBE016F5F7F4FEE24E39407E02C
:104D60002DE0C5010E94C624F601F682F7821F5F7E
:104D70001087662029F0672DC60102960E942E2614
:104D800081E0F6018187DF91CF911F910F91FF9014
:104D9000EF90DF90CF90BF90AF909F908F907F90DB
:104DA0006F900895EF92FF920F931F93CF93DF932D
:104DB000D42FE82FF0E0EE0FFF1FE45FF54F849152
:104DC00031969491E62FF0E0EE0FFF1FE45FF54F70
:104DD000F4903196C49197FF04C09F77EE24E3943A
:104DE00001C0E12CC7FF03C0CF7711E001C010E084
:104DF000692F70E001E026EF39E040E05AE090E0F2
:104E00000E942B2ADD2359F06C2F70E0E12E26EF53
:104E100039E040E05AE08F2D90E00E942B2ADF918C
:104E2000CF911F910F91FF90EF900895EF92FF9215
:104E30000F931F93CF93DF93D42FE82FF0E0EE0F63
:104E4000FF1FEE5FF64F849131969491E62FF0E0CC
:104E5000EE0FFF1FEE5FF64FF4903196C49197FF6F
:104E600004C09F77EE24E39401C0E12CC7FF03C088
:104E7000CF7711E001C010E0692F70E000E026EF6D
:104E800039E040E05AE090E00E942B2ADD2359F0FF
:104E90006C2F70E0E12E26EF39E040E05AE08F2DD4
:104EA00090E00E942B2ADF91CF911F910F91FF90EC
:104EB000EF900895EF92FF920F931F93CF93DF939C
:104EC0008C017B01C0E0D0E0F701EC0FFD1F649185
:104ED000662339F0C8010E94B115892B11F0219683
:104EE000F3CFCE01DF91CF911F910F91FF90EF9003
:104EF0000895FC01E35AFF4F9C012F543F4F80E07F
:104F000090819F3F09F08F5F3796E217F307C1F753
:104F100008950895DC01FB019085818580958923A2
:104F200094FF18C01C969C911C97903128F49F5FA9
:104F30001C969C931C9711C0F89487E780930008F7
:104F400080930108A89588E18093600088E08093B1
:104F50006000FFCF1C961C921C97268137812F7012
:104F60003327232B59F41D969C911D979F5F9C31ED
:104F700019F01D969C9302C01D961C9283FF04C0DD
:104F8000E054FF4F82E0808308950895FC01DB0127
:104F900019968C911997809518969C91892399F070
:104FA0008485882311F08CE78487948591110EC045
:104FB00081E0848780E48093900081E49FE0909377
:104FC00099008093980094859923C1F09F5F9487FE
:104FD000953059F09D3761F0923081F480E596E488
:104FE00090939900809398000895109290000895EE
:104FF000FB01E054FF4F81E08083089508950F93F3
:105000001F93CF93DF938C0141E15FE060E070E09C
:105010008BE490E00E94B52447E45DE060E170E03D
:1050200087E090E00E94B524CCEEDFEFF8018585A3
:1050300041EF5CE06CE270E09E01281B3109C90180
:105040000E94B5246C96C03BD10581F7DF91CF91CA
:105050001F910F9108953FB7F89480919107909117
:105060009207A0919307B091940726B5A89B05C01D
:105070002F3F19F00196A11DB11D3FBFBA2FA92FD7
:10508000982F8827820F911DA11DB11DBC01CD0154
:1050900042E0660F771F881F991F4A95D1F7089540
:1050A0001F920F920FB60F9211242F933F938F935D
:1050B0009F93AF93BF9380911A0690911B06A09186
:1050C0001C06B0911D063091900723E0230F2D3769
:1050D00020F40196A11DB11D05C026E8230F0296FC
:1050E000A11DB11D2093900780931A0690931B0673
:1050F000A0931C06B0931D06809191079091920792
:10510000A0919307B09194070196A11DB11D8093C2
:10511000910790939207A0939307B0939407BF9140
:10512000AF919F918F913F912F910F900FBE0F9054
:105130001F9018952F923F924F925F926F927F929D
:105140008F929F92AF92BF92CF92DF92EF92FF9297
:105150000F931F93CF93DF9300D000D000D0CDB733
:10516000DEB74115510509F43DC1FA01B4903196FD
:10517000E4914E5F5F4F6B2C712C211102C0EE2029
:1051800061F1A1E0B0E03E2F377011F4A0E0B0E093
:105190003E2F3695369536954D01830E911C869C93
:1051A000D001879CB00D969CB00D1124F3E0CF1276
:1051B00003C0AA0FBB1F0AC00115110539F0EA9EF2
:1051C0004001EB9E900C1124080D191D2A9F7001BF
:1051D0002B9FF00C11244E0D5F1D2FEFC21208C043
:1051E0000115110519F0CC24C39402C032E0C32E7E
:1051F0007301E80EF91E1E141F040CF0F3C0803872
:1052000091050CF0EFC09B012E0F311D12161306F5
:105210000CF0E8C0603471050CF0E4C04115510594
:1052200009F4E0C0362F37703D83DB0177FD179618
:1052300023E0B595A7952A95E1F73A2F77FF05C0AA
:105240006D81662311F03FEF3A0F97FF05C0AA2743
:10525000BB27A81BB90B02C0A0E0B0E0F0E8EF1636
:10526000F10424F020E8D22ED81A01C0DB2CDA1A7F
:10527000632F032E000C770B3F3F1CF4A62EA09447
:1052800001C0A12CF1E02E2F277009F4F0E0E69583
:10529000E695E695FE0F6F0F711D6930710514F0EC
:1052A000F8E0F31B7A2C730E272D60E82603800D9F
:1052B000911D11244C018A0E9B1E61E070E00D804F
:1052C00002C0660F771F0A94E2F783E0C81611F058
:1052D000E1E001C0E2E02B2D2D192E9F202D11249D
:1052E000EE2EF12CBA9CA00DB11D1124AE9DC00173
:1052F000AF9D900DBE9D900D11245A01A80EB91EB0
:105300000115110509F0A801D70111978A0F9B1FFC
:10531000480F591FAFEFA69FC001A79F900D112402
:105320002C0140945094C401865E9D4FF30FFE8380
:1053300030E0ED9D200D311D1124EE817E1609F423
:1053400051C0DC014A018501612CD61409F442C028
:10535000F8013490369EF001379EF00D1124FA8347
:10536000E983E095F095FC83EB83F2E0CF1203C074
:105370005C824B8211C0EBEFCE1203C01A821982FD
:105380000BC0F4013490369EF001379EF00D1124CD
:10539000E095F095FC83EB8377FC06C0FB81EC91F4
:1053A000EF23F981EF2BEC93FD81FF2361F0E6E021
:1053B000E7154CF0FD01E058FF4F20803C80322083
:1053C0002A80322830828E0C9F1C0E0D1F1D639484
:1053D0001196BBCF7394A20EB31E420F531F805879
:1053E0009F4FABCF26960FB6F894DEBF0FBECDBF52
:1053F000DF91CF911F910F91FF90EF90DF90CF90B1
:10540000BF90AF909F908F907F906F905F904F90E4
:105410003F902F900895CF92EF920F931F933AEF02
:10542000C32EE12C00E010E00E949A281F910F91FA
:10543000EF90CF900895CF92EF920F931F933BEF91
:10544000C32EE12C00E010E00E949A281F910F91DA
:10545000EF90CF900895CF92EF920F931F93F901A1
:10546000202FCC24C3948F010E949A281F910F9162
:10547000EF90CF900895BC0180E090E00C94F5236C
:105480008FB18095807F669B88601C9B84600895A7
:10549000FC01E40FF11DAF011E161F06C4F5803894
:1054A0009105ACF597FF02C080E090E041385105CE
:1054B00014F040E850E0481BFB0177FD379633E0DD
:1054C000F595E7953A95E1F7F695FE2FEE27F795D6
:1054D000E795E80FF91FE65EFD4F6770772781E0DB
:1054E00090E001C0880F6A95EAF7382F222341F037
:1054F000213069F4415058F08081832B8193FACF99
:105500008095415020F0908198239193FACF08958F
:1055100080389105B8F460347105A0F490E121E081
:1055200061FD24E060FD220F62FD2295687F969F59
:10553000D0011124A80FA65EBD4F8C91822B40FF95
:1055400082278C9308950F931F93CF93DF93EC01E1
:105550004BEC5CE061E170E08FE290E00E94B524EA
:105560004DEA5CE06AE170E08BE290E00E94B524D5
:105570004DEA5CE06AE170E089E490E00E94B524C5
:105580008C85811114C04DEA5CE06AE170E08AE329
:1055900090E00E94B5244DE55CE06EE270E08AE1A7
:1055A00090E0DF91CF911F910F910C94B5244FE3C0
:1055B0005CE06AE170E08AE390E00E94B5244CE18F
:1055C0005CE06EE270E08CE290E00E94B5248C8595
:1055D0006FE00E942834082F0370CFE4D0E010E081
:1055E000011749F041E061E370E0CE010E94882A92
:1055F0001F5F2296F5CFDF91CF911F910F910895F4
:10560000FF920F931F93CF93DF93EC01F62E088147
:105610001981C8010E947833F81621F06F2DC80156
:105620000E948033CE01DF91CF911F910F91FF90A7
:1056300008954F925F927F928F929F92AF92BF9206
:10564000CF92DF92EF92FF920F931F93CF93DF934E
:105650008C01A0E0462F50E06A0131E0C31AD10866
:105660008DE0B82E8A2F90E08C159D05CCF5B0E02A
:10567000EA01C81BD90B2E0161E0461A51082B2FF5
:1056800030E02415350554F57801E20EF31EE701EC
:10569000A8808A2D6B2D0E942834782E892E2F5FAA
:1056A0003F4FF801E20FF31F9080892D0E942834AC
:1056B000292F90E0DAE02D9F800D911D1124272DD8
:1056C00030E06AE0869E200D311D11248217930779
:1056D00018F4E7019882A082BF5FD1CFAF5FC2CF3D
:1056E000DF91CF911F910F91FF90EF90DF90CF90BE
:1056F000BF90AF909F908F907F905F904F90089554
:10570000BF92CF92DF92EF92FF920F931F93CF93AE
:10571000DF93C82FC62E842F6DE00E942834B82E48
:1057200011E0190F211103C026E0F22E02C094E00F
:10573000F92ED12CD0E0E12C02E027EA30E14AED4D
:1057400050E1B601CE010E942B2ACF0DD11DB6012A
:10575000645F7F4F2B2D41E950E1CE010E941B2A4F
:10576000E12FF0E0EE0FFF1FE355FE4F4081518126
:10577000B6016B5F7F4F81E090E01A3011F480E05A
:1057800090E020E08C0F9D1FDF91CF911F910F9132
:10579000FF90EF90DF90CF90BF900C941B2ACF9298
:1057A000DF92EF920F931F93CF93DF936C01EB0186
:1057B000142FE22E09A92FEF45E00E947226E12E58
:1057C0000E8D2FEF4AE1BE01C6010E94722623967C
:1057D000EE24E39407E025E040E050E061E070E073
:1057E000CE010E94C62425E040E050E066E170E072
:1057F000CE010E94C62420E04BEC53E162E070E051
:1058000081E090E00E941B2A21E04BEC53E162E032
:1058100070E086E190E0DF91CF911F910F91EF90C2
:10582000DF90CF900C941B2A8F929F92AF92BF92E1
:10583000CF92DF92EF92FF920F93CF93DF936C01A1
:10584000DB011696ED90FC901797C22FD0E0A42EA6
:10585000B12C49EA52E1BE01C5010E94B5244501BF
:10586000BDE08B0E911CC7018F77992721E0843012
:1058700008F020E04DE752E1BE016F5E7F4FC401AA
:105880000E940B2A21E0013009F020E0BE01695F8F
:105890007F4F4BE252E1C4010E940B2AF601828D38
:1058A0006896F5013F96882399F0D60159969C9108
:1058B0009D7F913069F4C70164E270E00E94343446
:1058C0006CE00E942834282F882319F02E5F01C035
:1058D000202F45E751E1BE01CF01DF91CF910F911C
:1058E000FF90EF90DF90CF90BF90AF909F908F9000
:1058F0000C940B2ACF92DF92EF92FF920F931F939B
:10590000CF938C01FC0187A1CBEF8C9FC02D11247C
:105910007801FFE1EF0EF11CCA5CC12CD12CF7011C
:1059200041917F014F3F69F0F80187A190E0019715
:1059300021E08C159D0509F420E06DE08C2F0E947C
:10594000802BFFEFCF1ADF0AC65F88E0C816D104AC
:1059500031F7CF911F910F91FF90EF90DF90CF9093
:10596000089520E0FC0140A56CE080E00E94802BBF
:1059700020E048E650E160E170E085E090E00C94C2
:105980000B2AEF920F93FC019685990F292F220F76
:10599000220F920F945F969524E3291BFAE06F9FE4
:1059A000C0011124820F911DE12C00E02AE230E1B8
:1059B00048E450E163E370E001960E942B2A0F91C6
:1059C000EF900895EF92FF920F931F93CF93DF9381
:1059D000FC01E759FF4F2081FC01211103C0E7843E
:1059E000C5E202C0E2A0C0E0662319F0613081F098
:1059F0002DC06C2F70E020E041E050E180E090E0AD
:105A0000DF91CF911F910F91FF90EF900C940B2A93
:105A1000EE20E1F0D0E020E048ED5FE0BE0180E064
:105A200090E00E940B2A04E010E0FF24F394FE149F
:105A300069F0BE01600F711F20E040EC5FE0C8011B
:105A40000E940B2AF3940E5F1F4FF1CFDF91CF918D
:105A50001F910F91FF90EF900895FF920F931F9366
:105A6000CF93DF93EC01F42E122F0F960E944D1F5F
:105A7000FD8A1E8B80E38F8B088F83E0898F81E006
:105A80008A8FDF91CF911F910F91FF900895FC01B4
:105A9000E559FF4F9C0121543F4F80E090819F3F8B
:105AA00031F09581890F3796E217F307B9F708951A
:105AB000DC01FB01818580959085892383FF0FC0E0
:105AC000868D893718F481A9893738F05C961C9245
:105AD0005C978CE01C968C9308955C964C9308958B
