:100000000C942D0A0C94550A0C94550A0C94550A1C
:100010000C94550A0C94550A0C94550A0C94550AE4
:100020000C94550A0C94550A0C94FD1D0C946F1EEB
:100030000C94550A0C94550A0C94550A0C94550AC4
:100040000C94550A0C94550A0C94550A0C94550AB4
:100050000C94550A0C94550A0C94550A0C94F92BDF
:100060000C94550A0C94550A0C94550A0C94550A94
:100070000C94550A0C94550A0C94550A0C94550A84
:100080000C94550A0C94550A0C94550A0C94550A74
:100090000C94550A0C94550A0C94550A0C94550A64
:1000A0000C94550A0C94550A0C94550A990AE20AC4
:1000B000400C8F0C550D650D310DB30F9F12E312DF
:1000C000E312E312D613B412B912C112B912C1125B
:1000D000B912C112B912C112131418141D14181434
:1000E0001D1418141D1418141D14A2179D17A217FF
:1000F000A817C017C017C017CC17D3172318231879
:100100002318D3174920616D20736F7272794020D4
:10011000796F750A206C6F7374207468652067614D
:100120006D652E0A202020202020204920776F6E28
:100130002100436F6E67726174756C6174696F6ED4
:1001400073210A20202020202020202020596F7594
:1001500020576F6E210020596F757220637269629B
:10016000400020204D792063726962400020596F61
:1001700075722068616E64400020204D79206861AE
:100180006E64400020596F75722068616E64400093
:10019000204D792068616E6440002020476F212047
:1001A000200020476F20666F7220312E2000202013
:1001B000476F2120200020476F20666F7220312E6C
:1001C00020004D79207475726E20746F20737461F5
:1001D00072744000596F7572207475726E20746F5E
:1001E000207374617274400054776F20666F7220C0
:1001F000686973206865656C73210054776F2066A9
:100200006F7220686973206865656C732100202017
:1002100020492077696C6C207468726F770A746863
:100220006573652074776F2063617264732E005468
:1002300068726F772074776F2063617264730A6FDE
:10024000757420746F2074686520637269622E0073
:1002500003081F051F1F151B1F11111F110E1F154E
:10026000111F05011F111D1F041F001F0010101F6B
:100270001F041B1F10101F061F1F011F1F111F1F10
:1002800005071F311F1F051B17151D011F011F101B
:100290001F0F100F1F0C1F1B041B071C0719151322
:1002A0000C121E1F120C1E12120C121F0C1A140418
:1002B0001F052E2A1E1F021C001D00201D001F04EA
:1002C0001A011F001E041E1E021E1E121E3E120CCC
:1002D0000C123E1E020614120A020F121E101E0EEF
:1002E000100E1E081E1A041A2E281E1A12161F118E
:1002F0001F121F101D151711151F07041F17151D9D
:100300001F151D01011F1F151F17151F00170000C6
:100310001000040404040E040229060A0000100060
:10032000100080F8FCFEFFFEFCF8F8F8F8F0E0C0E2
:10033000070F1F3F7FFFFFFFFFFF7F3F1F0F070FCD
:10034000100000807804FA04D810D010D020C0002B
:10035000000708172C5F5F5B5F5B2F170807001C07
:1003600014FD1D1D5D9ABABAFAF4F4F474A8A848F5
:100370005050505040404040C0E018E4FA1B3377E2
:10038000F7F0F8FFFFFF07F807F8FE06FF07F7078B
:10039000FFFFFFFF0FF1FE7F3F080C0E0F0F0F0F47
:1003A0000F0F000F000F0F0E0702060E0F0F0708AA
:1003B0000F0F0F0E0C4A0F020E3EFEF0C080E03E03
:1003C0000E82C1202020E0C0800000C0E0A090107C
:1003D000302000000000000000000000000000804D
:1003E000E0F03C18000000000000000002FE0E1EBD
:1003F0007EF0C08006FE060080E0F0101010E0E005
:1004000080000000203F3F3F200000071F1D3931C2
:1004100031311100001133232327273F1E00000034
:10042000000000000060703C1F0703000000000097
:10043000000000000000303F30000001071F7E3F39
:100440003020071F1F2020201F1F07621102FEFE01
:10045000FE02020286C67C7C3802FEFF00000060BD
:1004600020B0B0F0E0C0002060E0C0000020E0E07C
:100470002000000000000000000C04C23E02063C08
:10048000FCF88400000000C0E0301010F0E0100024
:100490006020B0B0F0E0C0000000EEEEE000002010
:1004A000E0E0202020E0E000083C12C2FE7C382082
:1004B0003F3F3F020D010000000000203F3F2000B1
:1004C0001C1E3F2120273F3F200000818FBF7C0C56
:1004D0000300000000000000000020303E31010158
:1004E0000101233F3F3820008F9F3F383010BFFF6E
:1004F000601C1E3F2120273F3F2000203F3F3F2020
:1005000000203F3F2000003F3F200000103B300014
:1005100000000000000000000000000000000000DB
:1005200000000000000000000000000000010101C8
:1005300000000000000000000000000000000000BB
:1005400000000000000000000000000101010101A6
:10055000010000000000000000000000000000009A
:10056000000000000000000000000000000000008B
:100570000000001610FF00FF55AA55AA55AA55AA5B
:1005800055AA55AA55AA55AAFF00FF1F205FB5AA74
:10059000B5AAB5AAB5AAB5AAB5AAB5AAB5BA5F2033
:1005A0001F0E10000000FFAA55AA55AA55AAFF0069
:1005B000FF0008A0BFAAB5AAB5AAB5BA5F201F0E52
:1005C00015F804FAFDFDFDFDFDFDFDFD050000FF34
:1005D00000FFFFFFFFFFFFFFFFFF0000001F001FE6
:1005E0001F1F1F1F1F1F1F1F0000001615F804FAF2
:1005F000FDFDFDFDFDFDFDFDFDFDFDFDFDFDFDFD2B
:10060000FA04F8FF00FFFFFFFFFFFFFFFFFFFFFF00
:10061000FFFFFFFFFFFFFF00FF1F001F1F1F1F1F28
:100620001F1F1F1F1F1F1F1F1F1F1F1F1F001F54C4
:100630006F74616C3A0007040103070F070301019F
:100640000204080402010704080C0E0F0E0C08082F
:100650000402010204084E6F7468696E672021006D
:10066000204D79204372696200596F757220437280
:10067000696200596F75722048616E6400204D797F
:100680002048616E64002053636F72653A20004B0E
:100690003800FF0101050101FF0051555155515529
:1006A000515551555155515551555155515551551A
:1006B000515551555155515551555155515551550A
:1006C00051555155515551555155515551555155FA
:1006D000515551A1A1428224081020C000777474A2
:1006E00075B45427301C1D1C5D1C5D1C5D1C5D1CFD
:1006F0005D1C5D1C5D1C5D1C5D1C5D1C5D1C5D1C32
:100700005D1C5D1C5D1C5D1C5D1C5D1C5D1C5D1C21
:100710005D1C5D1C5D1C5D1C5D1C5D1C4900AA8090
:100720007F807F000800FF0000FC028100F208F4D7
:100730000AA90595C5D5C5D5C5D5C5D5C5D5C5D5D0
:10074000C5D5C5D5C5D5C5D5C5D5C5D5C5D5C5D5D9
:10075000C5D5C5D5C5D5C5D5C5D5C5D5C5D5C5D5C9
:10076000C5D5C5D5C5D5C5D5C5C4C2E1E0F2783C6F
:100770001E0700007FE0C080270817282A50545128
:100780005551555155515551555155515551555139
:100790005551555155515551555155515551555129
:1007A0005551555155515551555155515551555119
:1007B00055515551A1A1438224081020C00000804A
:1007C0008183476F1E5E1C5C1C5D1C5D1C5D1C5D97
:1007D0001C5D1C5D1C5D1C5D1C5D1C5D1C5D1C5D51
:1007E0001C5D1C5D1C5D1C5D1C5D1C5D1C5D1C5D41
:1007F0001C5D1C5D1C5D1C5D1C5D1C5D1C4900AA14
:10080000807F807F000800FF1837686A68F7E0C5BE
:10081000D5C5D5C5D5C5D5C5D5C5D5C5D5C5D5C508
:10082000D5C5D5C5D5C5D5C5D5C5D5C5D5C5D5C5F8
:10083000D5C5D5C5D5C5D5C5D5C5D5C5D5C5D5C5E8
:10084000D5C5D5C5D5C5D545D5C5C4C2E1E0F27875
:100850003C1E070000000000000101010101010130
:100860000101010101010101010101010101010178
:100870000101010101010101010101010101010168
:100880000101010101010101010101010101010158
:10089000010101010101010100000000000003400D
:1008A000FFFF55FFFF55FFFF55FFFF55FFFF55FFAA
:1008B000FF55FFFF55CF3F55080B00020202010014
:1008C00009040000010202000005240010010524B3
:1008D0000101010424020605240600010705810325
:1008E00010004009040100020A000000070502028E
:1008F00040000007058302400000040309041201C0
:100900000002EF0201404123368000010102030191
:1009100041726475696E6F204C4C4300417264757E
:10092000696E6F204C656F6E6172646F00D5F08DDB
:1009300014A1C881CFD9F1AF200003051F041B0308
:10094000050F190F030508100F05051F001F111FC4
:10095000030507051F03051F151F030519050303DD
:10096000051F151D030517151D030507041F0305A6
:1009700011151F03051D151703051F051F05060E7D
:100980001F3E1F0E0C1E3F1E0C0C2E3F2E0C0C2F5C
:10099000372F0CFCFEFFFFFFFFFFFFFFFFFFFFFFF6
:1009A000FFFFFEFCFFFFFFFFFFFFFFFFFFFFFFFF5B
:1009B000FFFFFFFFFF1F3F7F7F7F7F7F7F7F7F7F67
:1009C0007F7F7F7F3F1F111700500400020002004D
:1009D0000200020002000450000055000000000068
:1009E000000000000000000055000005100020007D
:1009F000200020002000200010050000F80452AA6A
:100A000052AA52AA52AA52AA5204F80000FF005554
:100A1000AA55AA55AA55AA55AA5500FF00000F10BD
:100A2000252A252A252A252A252A25100F0000F8FF
:100A300004F2FAFAFAFAFAFAFAFAFAF204F8000008
:100A4000FF00FFFFFFFFFFFFFFFFFFFFFF00FF00B3
:100A5000000F10272F2F2F2F2F2F2F2F2F27100F63
:100A60000035053B053D053F054105430545054767
:100A70000549054B054D054F0551055305550557CE
:100A80000559055B055D055F05610563056505673E
:100A90000569056B056D056F0571057788798E779A
:100AA0009471176F176D176B1769176717651763C1
:100AB0001761175F175D175B1759175717551753AE
:100AC0001751174F174D174B17491747174517431E
:100AD0001741173F173D173B183B1A3B1C3D1D3F65
:100AE0001D411D431D451D471D491D4B1D4D1D4FDE
:100AF0001D511D531D551D571D591D5B1D5D1D5F4E
:100B00001D611D631D651D671D691D6B1D6D1D6FBD
:100B10001D711D77A079A677AC712F6F2F6D2F6B8C
:100B20002F692F672F652F632F612F5F2F5D2F5B3D
:100B30002F592F572F552F532F512F4F2F4D2F4BAD
:100B40002F492F472F452F432F412F3F2F3D2F3B1D
:100B50002F392F34AC0202070202000207020005FF
:100B60000300020502000002070200350B3B0B3DAB
:100B70000B3F0B410B430B450B470B490B4B0B4DED
:100B80000B4F0B510B530B550B570B590B5B0B5D5D
:100B90000B5F0B610B630B650B670B690B6B0B6DCD
:100BA0000B6F0B710B738C738E739071116F116DD2
:100BB000116B11691167116511631161115F115D8D
:100BC000115B11591157115511531151114F114DFD
:100BD000114B11491147114511431141113F113D6D
:100BE000113714351A37203D233F23412343234532
:100BF00023472349234B234D234F2351235323556D
:100C000023572359235B235D235F236123632365DC
:100C100023672369236B236D236F23712373A473CD
:100C2000A673A871296F296D296B29692967296520
:100C300029632961295F295D295B2959295729558C
:100C400029532951294F294D294B294929472945FC
:100C500029432941293F293D293B29392934ACFF22
:100C6000FFFFFFFFFFFFFFFFFFFFFFFFFFFFFFFF94
:100C7000FFFFFFFFFFFF7F3F1F010103070F0F0F64
:100C80000F0F1F3F7FFFFF7F3D1901010101010091
:100C90000000001A10BFBFBF1FEFEFEFEFEF1FBF45
:100CA000BFBFBFBFBFBFBFBFBFBFBF5F201F000071
:100CB00000010205050505050219245A5A241800E9
:100CC0000000000000000000000F1F3F7FFFFFFF3B
:100CD000FF0808000F102F5F5F5F5FFFFFFFFF7FC0
:100CE0003F1F0F08085F5F5F5F2F100F001F3F7FE0
:100CF000FFFFFFFFFFFFFFFFFFFFFFFFFFFFFFFF04
:100D0000FFFFFFFFFFFFFF000000000101010101E5
:100D1000193D7FFFFF7F3F1F0F0F0F0F0F070301CD
:100D2000011A10001F205FBFBFBFBFBFBFBFBFBF43
:100D3000BFBFBF1FEFEFEFEFEF1FBFBFBF00000050
:100D40000000000000000018245A5A24190205056A
:100D500005050502010000FFFFFFFFFEFCF8F0089B
:100D600008FAFAFAFAF408F000F0F8FCFEFFFFFFC8
:100D7000FF080800F008F4FAFAFAFA0C083B3B3BCB
:100D80006B6B4B4B6B6B3B3BBB3D3B3B6B6B4B4BD1
:100D90006B6B3B3BBD373B3B6B6B4B4B6B6B3B3BE5
:100DA000B73D39357575555575753539BD3D39358D
:100DB0007575555579793939BD3D3939797959552F
:100DC00075753539BD1508D0D6F4F6F4F4F6F496F9
:100DD000707B7076F4F6F4F4F6F4D6D0D0D6F4F452
:100DE000F4F4F4F496707B7076F4F4F4F4F4F4D63E
:100DF000D00000000000C0E0F0F8FCFEFFFFFFFFA5
:100E0000FFFFFFFFFFFFFFFFFFFFFFFFFFFFFFFFF2
:100E1000FFFFFFFEFCF8F0E0C00000000000000053
:100E2000000000FFFFFFFFFFFFFFFFFFFFFFFFFFCF
:100E3000FFFFFFFFFFFFFFFFFFFFFFFFFFFFFFFFC2
:100E4000FFFFFFFFFFFF000000000000000000FCAC
:100E5000FFFFFFFFFFFFFFFFFFFFFFFFFFFFFFFFA2
:100E6000FFFFFFFFFFFFFFFFFFFFFFFFFFFFFFFF92
:100E7000FFFFFFFC000000000000000003070F8FD1
:100E80009FFFFFFFFFFFFFFFFFFFFFFFFFFFFFFFD2
:100E9000FFFFFFFFFFFFFFFFFFFFFFFF9F8F0F071A
:100EA0000300000000C0E0F0F8FCFEFFFFFFFFFFC2
:100EB000FFFFFFFFFFFFFFFFFFFFFFFFFFFFFFFF42
:100EC000FFFFFFFFFFFFFFFFFFFFFFFFFEFCF8F04C
:100ED000E0C0030303030303030303030303030348
:100EE00003030303030303030303030303030303D2
:100EF0000303030303030303030303030303032D98
:100F00002A000000000000C02050A8040282C6820F
:100F1000820202020A0A0A0A0A0A0E0A0E0A0A0AC9
:100F20000A0A16A40850A0C000000000000000003B
:100F300000000000FF40800000FEFFFFFF7B3F3FFE
:100F40003B3B7BFBFBFB7B3B3B3F3F7FFBFEFC00DC
:100F50003FC0552AFF000000000000000000000014
:100F6000FC37F95E81FCFD01010101010101010174
:100F7000010101010101010101010101FCFDAA5969
:100F8000F823FC000000000000000000000305053D
:100F90000B90A7DF3E7EFEFEFE0200000000000078
:100FA0000000000002FEFE7E3EDFA790090504035C
:100FB000000000000000C020D0E8F4FA79BD52041F
:100FC000022D5ABC7BF978B81840B87070B04078E0
:100FD000F878F979BD5A2D4AA47BF1FAF4E8D020CB
:100FE000C000000003030301020100000000000034
:100FF00000010201000000000303020100000102E1
:101000000100000000000102010303030300000BC4
:101010000F00000000000000000000FF40404040C2
:101020004040404040201F0D11FC0251A955A955D8
:10103000A955A95102FC7F80152A552A552A552AFF
:1010400015807F0000010101010101010101000083
:101050000D11A80200010001000100010002A82AF0
:1010600080000000000000000000802A0000000155
:101070000001000100010000000080F8FCFEFFFEFE
:10108000FCF8F8F8F8F0E0C0070F1F3F7FFFFFFF04
:10109000FFFF7F3F1F0F070F100000807804FA0446
:1010A000D810D010D020C000000708172C5F5F5B5D
:1010B0005F5B2F170807000D140000000000000000
:1010C0000000000000FF0000000000000000000021
:1010D0000000FF08080808080808080808040201BA
:1010E00005030002050200000207020021080F0F9D
:1010F00008080006090B06000E03030E000F090F77
:1011000006000F0F000F02030F000E0F090D000E57
:1011100010BEBDBEBDBEBDBEBDBEBDBEBDBE00001F
:10112000040004000400040004000400004E080F42
:101130000D0702000F050F0A000F0D0900020B0D2D
:1011400000020B0D00000000000F0D0702000F0F42
:101150000808000E03030E00030E0E030000000635
:10116000090B06000F02030F00000000010F0F0122
:101170000E03030E000F0D0702000F0D090E10A73E
:10118000C7A7C7A7C7A7C7A7C7A7C7A700070707B6
:10119000070707070707070707070024080E1F1F91
:1011A0001F0E00000000000000000000001F0E04E1
:1011B000000000000000000000040E1F00040E1FCD
:1011C000001C14FD1D1D5D9ABABAFAF4F4F474A85B
:1011D000A8485050505040404040C0E018E4FA1B2E
:1011E0003377F7F0F8FFFFFF07F807F8FE06FF0771
:1011F000F707FFFFFFFF0FF1FE7F3F080C0E0F0FF9
:101200000F0F0F0F000F000F0F0E0702060E0F0F2C
:1012100007080F0F0F0E0C721900C0F0F81C0C0419
:101220000682C2C2C2060CFCF8F8F8780000000082
:101230000080800000808080000000AAABABABABD8
:10124000AA000004FCFEFEFE0000808080800000FA
:10125000000004FCFEFEFE00008080808000000094
:10126000000000008080808080800000000000007E
:1012700000000000808080808000808000000000EE
:1012800000808080808080000000003EFFFFFFF033
:10129000C080000107050C0C0E0F0703030080003F
:1012A00001FFFFFFFF0E07070707070000001FFFF2
:1012B000FF1F00000000FFFFFFFF0301010103FF0C
:1012C000FFFFFC0000FFFFFFFF0301010103FFFF21
:1012D000FFFC0080C6E3F131190F3FFFFFFE8000E5
:1012E0000000F0FCFEFF03000000FFFFFFFF000016
:1012F000F8FEFFE1202020233F3F3E38000000039E
:1013000007070F0F1F1E1E1C1C1C1C0C0C0E0603B7
:101310000100101F1F1F1F10000000000000000030
:10132000001F1F00000000100F0F0F1F18101018D3
:101330001E0F07030000100F0F0F1F181010181EAC
:101340000F07030000070F1F1F181010101F1F1F8B
:101350001F10000081C78F9F1E1C1C0E9FFFFFFFE8
:1013600070000103070F0F1E1E1C1C1C0C04000044
:10137000000000000000000000000000000000006D
:10138000000000000000000000000000000000005D
:10139000000000000000000000000000000000004D
:1013A000000000000000000000000000000000003D
:1013B000000000000000000000000000000000002D
:1013C0000000000000000000010101010101010115
:1013D000000000000000000000000000000000000D
:1013E000003510BF7FE0840A44A04F1024AA2420B7
:1013F000495549414955494149554941495549414D
:10140000495549414955494149554941495549413C
:101410004955494149554941000102050B0A162C1D
:101420002C595A5958B2B5B2B0B2B5B2B0B2B5B281
:10143000B0B2B5B2B0B2B5B2B0B2B5B2B0B2B5B288
:10144000B0B2B5B2B0B2B5B2B0B2B5B2B00102048A
:10145000081020408000F6325F3011241FBECFEF0D
:10146000DAE0DEBFCDBF11E0A0E0B1E0EEECFEE6D9
:1014700002C005900D92A43FB107D9F727E0A4EF71
:10148000B1E001C01D92A238B207E1F71AE0CCE248
:10149000DAE004C02197FE010E945135CB32D1071A
:1014A000C9F70E9498300C945A370C9400002F9280
:1014B0003F924F925F926F927F928F929F92AF92E4
:1014C000BF92CF92DF92EF92FF920F931F93CF9331
:1014D000DF93CDB7DEB729970FB6F894DEBF0FBE06
:1014E000CDBFDC01FB013B012EE0620E711C4B0104
:1014F00031E2830E911C20851185109512239E9652
:101500008C919E97882321F08CE01C968C931C97DD
:101510001C969C911C97492F50E04D30510510F0BE
:101520000C9438155F016D01FA01EA5AFF4F0C94D3
:101530005135D50116968D919C9117978F709927EB
:10154000892B31F41E968C91882311F40C942D1460
:10155000F50166856630A0F5868197818F709927A1
:10156000892B11F00C94381584A991E0980F94AB55
:10157000E60FF11DD501A80FB11DD5968C91808B7A
:101580006F5FD5011E966C93C50140960E94F82F9F
:10159000F50184A991E0980F94AB61A1E60FF11DCC
:1015A000D501A80FB11DD5968C9183A36F5FD5018E
:1015B00091966C93C50183960E94F82F0C94381570
:1015C00081E04BC25C968C915C97873418F48F5FF6
:1015D0005C968C93F5018685853008F458C0D60159
:1015E0005C968C918634A8F46FE272E0CE0101968D
:1015F0000E948A1DEE24E39400E026E442E0BE014E
:101600006F5F7F4FC6010E944F26CE0101960E9458
:10161000F12615FF06C0F601838D882311F0815055
:10162000838F16FF0EC0D6015B962C91422F50E09F
:10163000F501868590E001974817590714F40C943A
:101640003C1413FD02C00C94381581E0D6011E969F
:101650008C931E975B966C91C3010E945516682F60
:10166000F501E759FF4F8081811102C0C30101C01C
:10167000C4010E947616F601838DD5011E969C91B9
:1016800089130C9438158150838F0C9438158FEF83
:10169000F601858F868F86E0E6E1F1E0DE011196A6
:1016A00001900D928A95E1F785010D5D1F4F95011F
:1016B000275D3F4FDE011196F8014DE051E0819129
:1016C000642F0E943135943009F45C931196E2172F
:1016D000F307A9F7AE014A5F5F4FFE013196D801CB
:1016E0003DE082E0F82EED908C91632F0E94313521
:1016F00021E0290F8E2D0E9431359F5F291308C0EC
:1017000080818F3F09F4F08281818F3F09F4F1825B
:101710003196E417F50739F7DE011196F12CEDE06B
:10172000EE2EF3E09F2EF394F80181918F016E2D40
:101730000E9431359F5F292F30E02F5F3F4F8F2C64
:10174000482D50E0F501E40FF51F83A16E2D0E9496
:1017500031359F5F892F90E02817390771F48C91FC
:101760008F3F09F49C92E1E0F0E0EC0FFD1FE40FE5
:10177000F51F80818F3F09F490828394F6E08F12E9
:10178000DFCF1196F5E0FF12CECF9E01295F3F4FCC
:10179000D501FE0131964DE058E016E080818F3F83
:1017A000B9F493968C919397642F0E94313581E020
:1017B000890F893038F4873050F4943048F49B5FB7
:1017C000908306C09950943018F4508301C0108360
:1017D00031961196E217F30709F78FEF95012B5F0A
:1017E0003F4FF501AE014F5F5F4FDA019D91AD01B3
:1017F000981315C0D6015D969C915D979F3F21F48B
:1018000093A15D969C930BC0981749F0D6015E9604
:101810009C915E979F3F19F493A15E969C9331969D
:101820002E173F0711F78150E1F6F601858D8F3FA6
:1018300059F40E941A3426E030E040E050E00E9463
:101840009734D6015D966C93F601868D8F3FB1F487
:1018500076E0872E912CA12CB12CD6015D969C911F
:101860005D975E968C91981749F00E941A34A501F5
:1018700094010E949734F601668FEFCF82E04AC050
:10188000FD01848D8F5F848F863478F546E4B50141
:10189000CD010E94A32A6EE072E0CE0101960E9463
:1018A0008A1D01E020E042E0BE016F5F7F4FC6016C
:1018B0000E94432CCE0101960E94F126D6015C962F
:1018C0008C915C97893129F45D966C91C5010E94D9
:1018D000BB2AF601848D823311F00C943815668D85
:1018E000C5010E94BB2A0C943815D50191968C91A4
:1018F000863028F0F601668DC5010E94BB2AD5010D
:1019000091968C91853028F0F601658DC5010E9475
:10191000BB2A83E0D6011C968C931C9744C7FD011B
:10192000848D8F5F848F8D35D8F48B3108F065C03E
:101930008A31B0F5803128F58F3011F00C943815CC
:10194000D501D4968C91D49791E0980FD4969C931E
:10195000F501E80FF11D85A9F60180A70C94381553
:101960008C3E50F4883A08F04AC04BEEB501CD01E8
:101970000E94A32A0C9438158C3E09F465C00C947F
:10198000381598968C9198976DE00E9431359A3071
:1019900011F40C94381587EA5C968C930C943815E6
:1019A000F501E759FF4F808162E081110CC0C3014E
:1019B0000E9484166BEF71E0CE0101960E948A1D91
:1019C000E12C02E00CC0C4010E94841668EE71E0B4
:1019D000CE0101960E948A1DEE24E39401E02EE4DC
:1019E00041E0BE016F5F7F4FC6010E944F26CE01CE
:1019F00001960E94F1260C9438154BEEBAC0B50141
:101A0000CD010E94FD254BEEB501C6010E94A32A1F
:101A1000F501E759FF4F8081813059F464ED71E0A1
:101A2000CE0101960E948A1DEE24E39400E021E598
:101A3000D7CF62EC71E0CE0101960E948A1DEE24A0
:101A4000E39400E027E4CCCF5C961C92F501E759C3
:101A5000FF4F8081813039F584E0F60184870C9452
:101A600038155C968C915C978F5F5C968C935C9735
:101A700022FF6AC091E09F969C93893408F467C066
:101A8000893411F00C943815B501C6010E94FD256A
:101A9000D6015C961C92F50183A981110AC781A128
:101AA000882309F406C787E00CC0BD01615E7F4F43
:101AB000C3010E941F26811145C081E0F50180A36A
:101AC00086E0D6011C968C93D3C722FF5AC081E0D2
:101AD0009F968C93D6015C968C918C3408F454C0FC
:101AE0008C3409F0C5C7B501C6010E94FD25C601A9
:101AF0000E94EA27F601148E8F3109F422C287E092
:101B0000F6018487D50190968C9190978111B0C78A
:101B1000D3968C91D397882309F41FC2B601615ED6
:101B20007F4FC3010E941F2681110CC0B501C60161
:101B30000E940926F50181A18111B5CF86858823F0
:101B400009F409C285E089CFFD0117A696CF873039
:101B500078F4863009F08CC7D501D3968C91D39751
:101B600081118FC691968C91882309F48AC697C6F5
:101B700048E4B501C6010E94A32A81E0F601828FE4
:101B800077C7FD0117A6A6CF813008F0C9C115FFA0
:101B900006C0F601838D882311F08150838F16FFD4
:101BA0000DC0D6015B962C91422F50E0F501868541
:101BB00090E00197481759070CF48AC613FF58C7DD
:101BC000C6010E94EA27282FD6015B964C91F501A9
:101BD000E40FF11D80896DE00E94313531E0390F4D
:101BE0003B3008F03AE0822F90E0830F911D809700
:101BF0000CF03EC7642FC3010E945516F60107A1E1
:101C0000E00FF11D878F0F5FD60197960C93979782
:101C10005B968C915B97F5019685891303C0815083
:101C20005B968C93C6010E94EA27F82ED501D396C5
:101C30005C91D397511105C051E091968C9181111F
:101C400050E0023008F448C6F601E00FF11D858D22
:101C50003DE0632F0E94313521E0290F868D0E94DF
:101C6000313531E0390F321302C012E001C010E00B
:101C70000230C9F0848D6DE00E94313541E0490F9A
:101C8000241303C0321301C01C5F033061F0838D45
:101C90006DE00E9431359F5F491305C0241303C0D6
:101CA000321301C01A5F8F2D8F7E8F3009F41E5FB3
:101CB000033008F411C1F601E00FF11D848D3DE001
:101CC000632F0E943135B1E0B90F858D0E94313507
:101CD000EE24E394E90E868D0E94313521E0290F30
:101CE000EB1601F12B17F1F02E15E1F0BE1518F4EB
:101CF0008E2D8B1B02C08B2F8E19833098F4B21758
:101D000018F4822F8B1B02C08B2F821B833050F460
:101D1000E21618F4822F8E1902C08E2D821B83309A
:101D200008F4DCC5A0E0033009F4D6C0838D6DE073
:101D30000E94313531E0390FB31709F442C0E31680
:101D400009F43FC02317E9F1EB16D9F12B17C9F1BC
:101D50002E15B9F13B1718F48B2F831B02C0832F6C
:101D60008B1B843070F53E1518F48E2D831B02C03A
:101D7000832F8E19843028F5321718F4822F831B95
:101D800002C0832F821B8430E0F4BE1518F48E2D20
:101D90008B1B02C08B2F8E19843098F4B21718F465
:101DA000822F8B1B02C08B2F821B843050F4E216D3
:101DB00018F4822F8E1902C08E2D821B843008F4F5
:101DC00090C540E0043009F487C0828D6DE00E9428
:101DD000313581E0890F381709F47EC0B81709F44E
:101DE0007BC0E81609F478C0281709F475C0B3174A
:101DF00009F472C0E31609F46FC0231709F46CC02C
:101E0000EB1609F469C02B1709F466C02E1509F406
:101E100063C0831718F4932F981B02C0982F931B4D
:101E2000953008F059C08B1718F49B2F981B02C0EF
:101E3000982F9B1B953008F04FC08E1518F49E2DDF
:101E4000981B02C0982F9E19953008F045C0821744
:101E500020F4E22FE81B8E2F01C0821B8530E0F5B5
:101E60003B1718F48B2F831B02C0832F8B1B8530ED
:101E700098F53E1518F48E2D831B02C0832F8E1902
:101E8000853050F5321720F4F22FF31B3F2F01C09D
:101E9000321B353008F5BE1518F48E2D8B1B02C091
:101EA0008B2F8E198530C0F4B21720F4322F3B1BD4
:101EB000B32F01C0B21BB53078F4E21610F42E191E
:101EC00002C0E21A2E2D253038F4AA2309F414C5D5
:101ED000442309F40FC51F5F6FE1F61689F05523FF
:101EE00079F0D5011E968C91882309F409C5B601B5
:101EF000615E7F4FC3010E941F26882309F400C53D
:101F0000612FC3010E94841600E022E0412F6F2D53
:101F1000C6010E947F2CF601848D8F5F848FA8C537
:101F20004BE4B501C6010E94A32AD6015C968C91B0
:101F30005C978F5F5C968C935C9781E05A968C934C
:101F400097C5D50191968C918111F5C2D5011E9648
:101F50008C918111B9C288E080CD91968C918823B3
:101F600009F4DCCD85C55C968C915C978F5F5C969F
:101F70008C935C9722FF04C091E09F969C9302C0D3
:101F8000FD0117A68B3530F4813108F087C280310E
:101F900029F06EC58B3509F483C26AC5D5011E963A
:101FA0008C911E97823030F090969C9181E098271A
:101FB000998701C019867601BFE1EB0EF11C86E01E
:101FC000E6E1F1E09E012F5F3F4F3901D901019019
:101FD0000D928A95E1F7F7019601295D3F4F412C5B
:101FE000512C4DE081918F3F49F05394642F0E9412
:101FF00031359F5F9B3008F09AE0490EE217F307F6
:1020000089F785010D5D1F4F32E0351508F044C09A
:10201000F701E50DF11DDF0112978C912DE0622F84
:102020000E94313531E0390F11978C910E94313582
:102030009F5F391334C0319780810E94313521E090
:10204000290F23132CC0822F2B3008F08AE0382E62
:10205000340C6FE1631518F1D50191964C91F8019C
:1020600030E05DE04317D9F08191652F0E94313552
:102070009F5F29130FC0632FC4010E945516382F8C
:10208000BFE03B1629F0EFE18CE03E124AC144C1AB
:102090008EE047C13F5FE6CFF2E05F12F7C0A701D5
:1020A000450D511DFA01329780812DE0622F0E946B
:1020B000313531E0390F319680810E94313521E090
:1020C000290F231329C0822F2B3008F08AE0382EE5
:1020D000340C6FE1631500F1D50191962C90F80155
:1020E000A0E0BDE02A16C1F081916B2F0E9431352E
:1020F0009F5F29130FC06A2FC4010E945516382F05
:10210000BFE03B1629F0EFE116E03E12BDC0B9C0BA
:1021100018E0BAC0AF5FE6CFF2E0F51508F06EC088
:10212000FA01339780816DE00E94313541E0490F1B
:10213000D50191963C90431718F4232E241A02C01F
:10214000242E231A421718F4A22FA41B02C0A42F76
:10215000A21B321718F4B22FB31B02C0B32FB21B4D
:10216000F80150E0351609F44CC081916DE00E94F1
:1021700031359F5F892F9B3008F08AE0840D8F8373
:10218000803208F0BFC3341709F4BCC3241709F424
:10219000B9C3491709F4B6C3231709F4B3C33917F0
:1021A00009F4B0C3291709F4ADC363E0621508F45C
:1021B000A9C3A43008F0A6C3491718F4892F841BBB
:1021C00002C0842F891B843008F09CC3B43008F00F
:1021D00099C3391718F4892F831B02C0832F891BD9
:1021E000843008F08FC3291710F4921B03C0722F9C
:1021F000791B972F943008F085C337C092E05912AD
:1022000045C0F501A1A1321718F4522F531B02C08B
:10221000532F521BF80140E0BDE0A417B9F18191A2
:102220006B2F0E9431359F5F892F9B3008F08AE029
:10223000382E340C6FE1631508F466C3231709F4D4
:1022400063C3391709F460C3291709F45DC3533018
:1022500008F05AC3391710F4931B03C0732F791B6E
:10226000972F933008F050C351C3652FC4010E94CB
:102270005516382FFF81FF3031F08F8114E08F31F8
:1022800019F482E04FC016E080E04CC0298521118E
:1022900014C0552009F449C3F701E50DF11D31972C
:1022A00080816DE00E94313531E0390FD501919682
:1022B0005C91F80120E04DE01EC00E941A3423E03A
:1022C00030E040E050E00E949734613071058105B4
:1022D000910509F02AC3DDCF8191642F0E94313529
:1022E0009F5F892F9B3008F08AE0382E340C6FE115
:1022F000631520F42F5F5213EFCF17C33913FACFB2
:10230000622FC4010E945516382F7FE0371631F036
:102310008FE1381205C082E012E004C084E001C001
:1023200082E010E0180F16C02F5F421709F448C072
:102330008191632F0E9431359F5F9B3008F09AE0B6
:10234000940D9F7E9F3081F7622FC4010E94551625
:10235000382F12E03F3F09F47EC0D60197968C914A
:10236000F601E80FF11D378F8F5FF60187A3C601D5
:102370000E94EA27782EFFE18F17B1F0D5011E9653
:102380008C911E97882321F090968C91882361F080
:10239000F50181A1882309F467C3B701C4010E9434
:1023A0001F26882309F460C3612FC4010E9484168C
:1023B00001E021E0412F672DC6010E947F2C58C308
:1023C000980150E06DE0262EE42DF0E0F887EF83D1
:1023D0004513B2C2F601878D8F3F29F4F80120E042
:1023E0003DE04213CCC2252C312CF1E02F1A3108EC
:1023F0002E0C3F1CF10180816DE00E94313551E0CF
:10240000590FF80130E020E01DE04313C6C221302F
:1024100051F4F3010DE0242D30E011E08E2F8619E8
:10242000841708F4C4C2F301D5015DE0242D30E027
:102430008E2F8619841708F4CDC25FEF1DE0242D7E
:1024400030E0D301F50100E04013DBC25150C9F781
:1024500081E0F50183ABD50190968C91882371F0D2
:1024600061E0C4010E94841662EA71E0C3010E9427
:102470008A1DEE24E39401E02DE209C06AE971E0CF
:10248000C3010E948A1DEE24E39400E022E241E0B1
:10249000B301C6010E944F26C301ABCA4AE569CB0E
:1024A000B501C6010E94FD25D6015C961C92C601AD
:1024B0000E94EA27F50196858F3189F4992349F026
:1024C00084E0D6011C968C93B501C6010E940926B2
:1024D000CFC2F50181A1882309F43DCD2CC0911113
:1024E00005C081A1882309F436CD07C084E0F60138
:1024F0008487D50190968C91B9C284E0F6018487D7
:10250000D50190968C919097811104C01E969C9154
:102510009111AEC2F50193A99111A8C2B601615EF5
:102520007F4FC4010E941F268111BDCAD5011E968E
:102530008C918111C9CF87E0F6018487C5CFD50181
:1025400016968D919C9117978F709927892B29F555
:10255000F601848D482F50E049305105C0F4FA014E
:10256000ED59FF4F0C945135B501C6010E94622E02
:1025700014C0D60199961C9299978F5F5C968C93A4
:102580000CC091E0F60191A78F5F848F06C081E0B7
:1025900081A7B501C6010E94FD2513FF69C289E02C
:1025A000F6018487148E81E081A714A6D5015E967A
:1025B0008C915E975F968C935F97D1968C91D19713
:1025C000D2968C9355C2FD01848D8D37E0F48E3602
:1025D00008F0A6C08E3409F475C050F48D3408F0AC
:1025E00066C021E0280F8630F0F45C962C93AEC0D4
:1025F0008F3508F09EC0803508F092C0B501CD013E
:102600000E94622EA3C08A3A38F48B3908F091C038
:102610008C3808F085C08DC0893B08F481C0883CA7
:1026200008F08CC086C0FD01248FF501E759FF4FEB
:1026300080819A3021F19B3051F181110AC060E90B
:1026400071E0CE0101960E948A1D23E0E22E01E096
:1026500009C064E871E0CE0101960E948A1D93E0F2
:10266000E92E02E024E341E0BE016F5F7F4FC60127
:102670000E944F26CE0101960E94F12667C081304C
:1026800019F469E771E007C06DE671E0E4CF8130CD
:1026900059F462E671E0CE0101960E948A1D83E042
:1026A000E82E01E022E3DFCF66E571E0D4CF8EE4CF
:1026B0005C968C935C97B501CD010E94A425F60130
:1026C00085A744C0C3010E94932A13FF0EC0D60100
:1026D0009D969C919D97911103C05C961C9205C09C
:1026E0009FE4F601948F10E00BC017FF09C0D601DC
:1026F0009C969C919C97992319F091509C969C9341
:1027000014FF24C0F60194A5492F50E04D5F5F4FA0
:10271000282F30E042175307CCF49F5F94A716C0D0
:102720008F5FD6015C968C935C9781E099968C9331
:102730000DC08F5FF601848F11A608C081E09996C5
:102740008C939997B501CD010E94FD2513FF90C18F
:10275000F601848D8E3438F4B501C6010E94A4259B
:10276000D6019D968C93F501868D878F81A982ABCA
:10277000D6011C968C911C978A3041F08B3051F019
:10278000893059F48AE01C968C9307C08BE0F601DF
:10279000848703C0D6011C961C92F501868D878F15
:1027A00081A982ABD6015C961C9262C1FD01848D29
:1027B000D5018C3420F55E968C91893750F062E318
:1027C00071E0CE0101960E948A1D02E02CE442E0F5
:1027D00009C064E071E0CE0101960E948A1D01E00B
:1027E00023E443E0BE016F5F7F4FC6010E948C2E41
:1027F000CE0101960E94F126F601848D1BC016962B
:102800002D913C9117972F703327232BF1F4482FEC
:1028100050E0FA01EC54F109E930F105B0F4E45963
:10282000FF4F0C945135B501C6010E94622E0DC0B8
:10283000F60111A68F5F848F08C091E0D6019996AA
:102840009C9399978F5F5C968C9313FF11C1F50150
:10285000E054FF4F83E080830BC1B501C6010E94A5
:10286000E52AF501E759FF4F81E09081913009F4A5
:1028700080E080830C94A80A2F5FF601238F0C94CC
:10288000210B61E0C3010E94841666EB71E0CE016A
:1028900001960E948A1DE12C02E02DE2A1C86EEA99
:1028A00071E0CE0101960E948A1DE12C00E022E237
:1028B00097C8B501C6010E940926D50191968C9151
:1028C0008111F1C8D5011E968C918111C5C843CBE9
:1028D0002F5FF601238F72C910E0E5C91D5FA1E0EB
:1028E00022CAAA2329F081E0180F41E0A1E06ACAB8
:1028F00084E0FACF1E5FF0CA4111EECA1B5FECCA3A
:102900001F5FFECA5F5F2ECC4F5F87CC642FC40170
:102910000E945516382F2FE0321629F08FE113E070
:102920003812B2CCAECC15E0AFCCF50141A1D80144
:10293000F80120E03DE0F9CCF90181919F01622D81
:102940000E9431359F5F9B3008F09AE0EF81F88557
:10295000E90FF11D3B9789F4F501312C531549F02E
:1029600083A1622D0E9431359F5F9A3010F0652F50
:102970000DC0339431964311F1CF5F5F29CD819122
:10298000632F0E943135933031F4622FC4010E94CD
:102990005516382F64C02F5F24CD8191612F0E947E
:1029A00031359F5F591301C02F5F3F5F2ECD8D9151
:1029B000602F0E9431359F5F59130AC0852F5B300D
:1029C00008F08AE0B901680F711D603271055CF191
:1029D000319624CD80818F3F89F493968C91939783
:1029E000652F0E94313581E0890F8B3008F08AE035
:1029F000B901680F711D60327105BCF011963196F6
:102A000017CD8D9158132DC083A1612F0E943135B0
:102A10009F5F9B3008F09AE0B901690F711D603229
:102A20007105FCF405C01083D3CF9B5E9083E6CF85
:102A3000602FC4010E945516382F552081F0D10116
:102A40008C914DE0642F0E94313521E0290F832FB6
:102A50000E9431359F5F11E0291709F47BCC10E00B
:102A600079CC0F5F3196F0CC1F5F9ECC81112CCDBD
:102A700029960FB6F894DEBF0FBECDBFDF91CF9180
:102A80001F910F91FF90EF90DF90CF90BF90AF908C
:102A90009F908F907F906F905F904F903F902F907E
:102AA0000895FC01DB0119968C9119978095189671
:102AB0009C911897892316962D913C911797277012
:102AC0003327232B39F495859F5F9C3111F095872F
:102AD00001C0158685FF04C09685913009F41686DD
:102AE00086FF05C09685911102C091E0968783FF0D
:102AF00009C08685A054BF4F811102C082E001C089
:102B000081E08C930895089580E090E00895089501
:102B10000F931F93CF93DF93EC018B0119821882DF
:102B20001B821A821D821C820E94C726F8018681A0
:102B30008E8387818F838085888781858987828539
:102B40008A8783858B87DF91CF911F910F9108959D
:102B5000CF93DF93FC016A3039F4858184839681B9
:102B60008185890F868351C08481603219F48E5F1C
:102B700084834BC06E37D9F3262FEF0166816F5FD8
:102B80002A3331F178F42D32C9F130F4213211F1C8
:102B90002B3271F521E41FC02E32A1F0203340F119
:102BA0002C5F19C02B3540F4213470F42F3371F0B1
:102BB0002034F1F424E40FC09FE9920F9A31C0F45D
:102BC000275409C02FE307C0215405C022E403C0E5
:102BD00023E401C02EE33F81062E000C770B082E64
:102BE000000C990B313061F440E552E00E94332231
:102BF00088858D5F9C81890F8C8307C020E4EBCF93
:102C000040E552E00E944322F3CF81E090E0DF9163
:102C1000CF9108950C94EF350C94EF350C94EF356B
:102C20000C94EF351F93CF93DF93EC01162F18828E
:102C3000198246E050E06FEF70E002960E944C3738
:102C400044E050E06FEF70E0CE010C960E944C37EC
:102C50001A8A112311F0188A198ADF91CF911F91D6
:102C600008950F931F93CF93DF938C01EB010E9484
:102C7000E52A61E0CE010E960E94121661E0CE01B7
:102C800081960E941216F8011686148616A612A6C0
:102C900013A6FE01E759FF4F1082C659DF4F188275
:102CA000DF91CF911F910F910895FC01DC01A60FD8
:102CB000B11D12968C91663050F4DF01A60FB11D44
:102CC00013969C91139712969C936F5FF4CF9FEF8E
:102CD0009783908191509083943039F4DF01189656
:102CE000329601900D929A95E1F70895FC01918139
:102CF000DF01A90FB11D1C966C9361E0690F618320
:102D0000CF010C960C94F82FFC019089690F6A375B
:102D100010F4608B089589E7808B089508950895D5
:102D2000089508952F923F924F925F926F927F92F3
:102D30008F929F92AF92BF92CF92DF92EF92FF92CB
:102D40000F931F93CF93DF93CDB7DEB765970FB681
:102D5000F894DEBF0FBECDBF1C012B01FB01A68086
:102D6000B780FC0184858850853008F4D9C0B10152
:102D7000615F7F4FCE0101960E9488158E010F5F23
:102D80001F4FF101208D42E168E5C2010E94372703
:102D9000C8010E94F126F2010685902F990F892F14
:102DA000880F880F890F845F86953201F0E16F0EDE
:102DB000711C14E3181BC12CD12C802E912C21E006
:102DC000821A9108C01608F059C0F30121913F0101
:102DD0002D87E12EF12C20E0C814D9042CF54FEBFF
:102DE00055E069E270E0C7010E94332233E0E30E50
:102DF000F11C8D856DE00E9431359D87282F4DE7B0
:102E000059E064E370E0C7010E9443228D85E82FFA
:102E1000F0E0EE0FFF1FE55DFE4F4081518120E0A5
:102E20006DE270E0C70123C04BEE55E069E270E04F
:102E3000C7010E9433228D856DE00E9431359D8748
:102E4000282F4DE759E064E370E0C70108960E941F
:102E500043229D85E92FF0E0EE0FFF1FE55DFE4F59
:102E60004081518120E06DE270E0C70103960E942D
:102E70004322EFEFCE1ADE0A165FA4CFF20101A1C2
:102E8000102F110F812F880F880F180F145F1695C0
:102E90001A5CE12CF12CC02ED12CF1E0CF1AD10814
:102EA000E016E0F4EC14FD044CF4812F90E020E0F7
:102EB00041EA55E068EF7FEF0A9709C082E0810F91
:102EC00090E020E043E755E068EF7FEF46970E94EF
:102ED00033222FEFE21AF20A1A50E2CF21E040E843
:102EE0006DE370E080E090E00E94702220E040E816
:102EF0006CE370E080E090E00E94702200E010E05F
:102F0000720133E0E30EF11C21E04FE350E0B80121
:102F1000C7010E94592F0E5F1F4F00381105A1F7FE
:102F2000F1012485822F90E08D30910508F0C8C210
:102F3000FC01EB58FF4F0C945135F101638DC20138
:102F40000E94F62DF1016685C2010E94172EB8C2BB
:102F5000F10180A58F3F09F038C321E046EC59E02C
:102F60006CE070E080E090E00E94332220E047EBCC
:102F700050E160E170E085E090E00E943322A0C261
:102F8000C1010E94E62DF101848D811108C0638D7D
:102F9000C2010E94F62D03C0C1010E94E62DC101AD
:102FA0000E94AF2D8DC2B101615F7F4FCE010196AE
:102FB0000E948815F20191A9868D891710F022E0F0
:102FC00001C021E08E010F5F1F4F46E16FEFC2018C
:102FD0000E943727C8010E94F12620E04EE958E000
:102FE00060E070E08BE290E00E94332220E04FE846
:102FF00056E067E070E083E390E00E943322F20144
:10300000968D878D981719F0F10111A501C010E078
:10301000F20182A991A9981719F0F10141A501C007
:1030200040E0F10163A50E94FD29412FF10162A555
:10303000F201878D0E94B62921E041E0B201C10171
:103040000E946A2D3DC2C20187599F4F6C0111E059
:10305000FC018081293019F4882321F002C08130DD
:1030600009F010E04201FEE08F0E911CB101615F9A
:103070007F4FCE0101960E948815112339F0C401BB
:103080000E94932A882311F021E001C022E08E01E2
:103090000F5F1F4F46E16FEFC2010E943727C80143
:1030A0000E94F12620E04EE958E060E070E08BE2FB
:1030B00090E00E943322F101828D81112AC0950196
:1030C0002F71332781E0213108F480E0F10124855C
:1030D000948D2A3049F02B3039F02930D1F4F601A3
:1030E0002081211105C00BC0F6012081211107C0EC
:1030F00041E0993B08F440E0482B21E006C021E084
:10310000993B08F420E0282B41E0B201C1010E9464
:103110006A2DF101848D8E3409F0ACC184E0868380
:10312000878388E0808792012D5F3F4F398B288B02
:10313000EE24E39407E027E248E050E061E070E02D
:10314000888999890E94F626F1019485993038F191
:103150009B3018F09B30B1F022C0F60180819101C4
:103160002E5F3F4F811103C0993041F404C081307C
:1031700029F49A3019F46DE776E002C063E776E04F
:10318000C9010BC0F6012081C1010296211103C0C3
:1031900069E676E002C060E676E00E94012881E000
:1031A000F1018187C4010E94932AE82E81110DC08C
:1031B00088E4F101868387838CE1808766E576E089
:1031C000C10102960E94012852C120E0F10140A5F0
:1031D00061E081E30E94442A820144E4B42EF12C90
:1031E000F1018485893038F18B3018F08B3091F003
:1031F00022C0F6019081911103C0893041F404C0CE
:10320000913029F48A3019F4F80141A50BC0F80176
:10321000468908C0F6018081F801811102C0428D03
:1032200001C045A521E0F3E0FF1201C020E061E00C
:103230008B2D0E94442AF3942AE0B20E0F5F1F4F99
:1032400034E0F312CDCF85E08E1568F421E0F10172
:1032500084A5811120E046E456E063E170E088E750
:1032600090E00E9433225201FBE6AF0EB11C4501F3
:103270001E861D86F12C91012E5F3F4F3D8B2C8BBE
:103280009D85F10184A59E1508F09AC0981708F451
:103290008EC090E003962D853E85821793070CF42F
:1032A00086C06F2C712CC30133E0880F991F3A95AB
:1032B000E1F7FC017B96FB8BEA8B640102E310E0F3
:1032C0001F86F60180818F3F59F1FF85FF5FFF87E1
:1032D0006DE00E9431359F5FE92FF0E0EE0FFF1F98
:1032E000E75DFE4F40815181E1E0F0E09A3011F05E
:1032F000E0E0F0E020E06A897B89C8018E1B9F0B2B
:103300000E943322F60180816DE00E943135282F22
:103310004DE759E06A897B89C80105960E943322EE
:10332000FFEFCF1ADF0A025F1F4F0C35110549F678
:103330002F852530A8F0F401158128E7F1012683B7
:1033400027838F2D880F880F880F865E80871A301D
:1033500040F560EF71E08C899D890E94AD2021C00D
:10336000630134E0C30ED11CCC0CCC0CCC0C8F858B
:103370009EE0899F002D11240E5C82E7782E701A42
:10338000612CD12C10E0B801660D711D21E0A60161
:10339000888999890E94592F63946394761498F7C9
:1033A000CACF612F8C899D890E94A627F394ED8551
:1033B000FE853196FE87ED87F7E08F0E911C60CF7A
:1033C0000E2D10E023E02E1578F490E0039621E016
:1033D000801791070CF420E046E356E06CE370E0C0
:1033E00088E790E00E943322F10184A590E00396E3
:1033F00080179107E4F11F2D110F110F110F155EAA
:103400008DE58683878310877101F2E0EF0EF11C52
:103410006FE276E0C7010E94012888E7F101868308
:1034200087831087820101541F4FF50180E090814E
:103430009F3F11F09581890F37960E171F07B9F737
:103440008A3028F460EF71E0C7010E94AD2060E08F
:10345000F50180818F3F11F08581680FF7E0AF0E95
:10346000B11C0A151B05A1F7C7010E94A627F1018F
:10347000118626C020E04FE856E067E070E083E365
:1034800090E00E943322F201968D878D981719F0F3
:10349000F10111A501C010E0F20182A991A99817CC
:1034A00019F0F10141A501C040E0F10163A50E94BE
:1034B000FD29412FF10162A5F201878D0E94B629F5
:1034C000F101848588508530E0F0828D882329F0D1
:1034D000818D882311F0833051F4EE24E394F201BE
:1034E00001A92FEF42E7B201C1010E944D29EE244C
:1034F000E394F201068D24E342E7B201C1010E9488
:103500004D29F101828D8823F9F0C18CE788068965
:1035100015891A8219821C821B821E821D82B101AA
:10352000615F7F4FCE0101960E94C726212FAE0119
:103530004F5F5F4FB201C1010E942028CE0101966A
:103540000E94F126F101128EF10187A5882309F46A
:1035500040C06201F3E0CF0ED11CE12C0BE02AE267
:103560004AE150E06AE270E0C6010E94F626EE24CD
:10357000E39409E028E24BE150E06BE270E0C60121
:103580000E94F6268DE2F101868387838CE1808795
:1035900081010E5F1F4F66E876E0C8010E94012896
:1035A000C1010E94EA278A3018F062EF71E002C080
:1035B00069EC71E0C8010E94AD20C1010E94EA27B8
:1035C000682FC8010E94A62704C0C1010E94E62DF1
:1035D00077CF65960FB6F894DEBF0FBECDBFDF91F3
:1035E000CF911F910F91FF90EF90DF90CF90BF9000
:1035F000AF909F908F907F906F905F904F903F9093
:103600002F9008952BE631E0FC01318320830F9643
:103610000C94F126CF93DF93EC010E94021BCE01A4
:10362000DF91CF910C94EF3525EC31E0FC01318333
:10363000208384529F4F0C94021BCF93DF93EC01A5
:103640000E94141BCE01DF91CF910C94EF35AF9205
:10365000BF92CF92DF92EF920F931F93CF93DF939E
:10366000CDB7DEB768970FB6F894DEBF0FBECDBFFB
:103670005C016B014BE454E060E070E080E090E0BE
:103680000E94952745EB53E063E170E081E090E014
:103690000E9495270CEE1FEFF501858520E04FE590
:1036A00053E06DE270E0F801E81BF109CF010E94E0
:1036B0003322045E1F4F003B110571F762EF71E08A
:1036C000CE010D960E94C21D1E8A84E08F8B188E3B
:1036D000BE01635F7F4FCE0101960E9488158E0167
:1036E0000F5F1F4F20E042E167E5C6010E943727C8
:1036F000C8010E94F126F3E0CF0ED11CE12C0FE3AC
:1037000020E84CE350E060E070E0C6010E94F6263D
:1037100021E040E86DE370E080E090E00E947022DC
:1037200000E010E021E04FE350E0B801C6010E9444
:10373000592F0E5F1F4F00381105A1F7F50186853F
:10374000882319F08AE390E002C08AE090E0E12C3F
:1037500000E021E233E04FE353E062E270E00E94D8
:103760005322CE010D960E94F12668960FB6F8946A
:10377000DEBF0FBECDBFDF91CF911F910F91EF90B4
:10378000DF90CF90BF90AF9008954091F601509197
:10379000F7012091F4013091F50142175307B4F479
:1037A0009091E8009570E1F39091E80092FD19C0C6
:1037B0008093F1008091F6019091F70101968F734B
:1037C0009927892B19F48EEF8093E8008091F601F8
:1037D0009091F70101969093F7018093F60181E0B3
:1037E000089580E00895DF92EF92FF920F931F9368
:1037F000CF93DF93D82E8A017B01E40EF51EEB01F7
:10380000CE15DF0571F0D7FE03C0FE01849101C023
:1038100088810E94C51B21968111F2CF8FEF9FEF07
:1038200001C0C801DF91CF911F910F91FF90EF90E0
:10383000DF900895615030F02091F100FC01208369
:103840000196F8CF289884E680936B070895CF926D
:10385000DF92EF92FF920F931F93CF93DF936C0150
:103860007A018B01C0E0D0E0CE15DF0581F0D801F0
:103870006D918D01D601ED91FC910190F081E02DCB
:10388000C6010995892B11F02196EECF7E01C70163
:10389000DF91CF911F910F91FF90EF90DF90CF902C
:1038A0000895CF93DF931F92CDB7DEB76983DC0114
:1038B000ED91FC910280F381E02D41E050E0BE01EA
:1038C0006F5F7F4F09950F90DF91CF91089583E04F
:1038D0008093E9008091F200882319F08AE38093B5
:1038E000E8000895FC018485958597FD0BC09FB77E
:1038F000F89482E08093E9008091F2009FBF90E00D
:10390000019608959FB7F89482E08093E900809132
:10391000F2009FBF90E008950F931F93CF93DF9322
:103920001F92CDB7DEB782E0898342E450E068EBB6
:1039300078E080E80E94F31B0E94862BDC0112963F
:103940000D911C9113970115110589F0D801ED9186
:10395000FC910280F381E02DBE016F5F7F4FC801B3
:10396000099597FD04C0F80100851185ECCF898188
:103970000F90DF91CF911F910F9108958F929F9299
:10398000AF92BF92CF92DF92EF92FF920F931F936D
:10399000CF93DF936C017B018A0180910B01882317
:1039A00009F45CC080916C07882309F457C08091AA
:1039B000FA0180FF05C08091E00082608093E00002
:1039C000E801B12C8AEFA82E93E0892E2AE3922EEB
:1039D000209711F4BB20D9F10E94752B81110AC0E8
:1039E000AA94AA20D9F161E070E080E090E00E9402
:1039F000BF2BEECF282F30E0C217D3070CF48C2F4B
:103A00009FB7F8948092E9002091E80025FF1DC03F
:103A1000282F30E0C21BD30BF701815020F04191D9
:103A20004093F100FACFE20EF31EBB2019F0909202
:103A3000E8000AC08091E80085FD07C09092E80088
:103A4000BB24B394209709F0B12C9FBFC1CF5D98E0
:103A500084E68093F9011016110644F081E090E0AD
:103A6000F6019383828380E090E001C0C801DF917A
:103A7000CF911F910F91FF90EF90DF90CF90BF906B
:103A8000AF909F908F9008950E94752B90E00895BD
:103A90000F931F93CF93DF931F92CDB7DEB78C01A7
:103AA000FC018485958597FF0EC0CE0101960E948A
:103AB000472B019719F4898190E002C08FEF9FEFA7
:103AC000F80195878487F801848595850F90DF91AB
:103AD000CF911F910F910895CF93DF931F92CDB790
:103AE000DEB7FC018485958597FD05C02FEF3FEF7C
:103AF000358724870BC0CE0101960E94472B019782
:103B000019F4898190E002C08FEF9FEF0F90DF9151
:103B1000CF910895EF92FF920F931F93CF93DF936E
:103B2000EC01198218821B821A821D821C82611587
:103B3000710509F18B01CB010E9478347C01BC0135
:103B4000CE010E948E26811109C0CE01DF91CF9156
:103B50001F910F91FF90EF900C94B526FD82EC829F
:103B6000B80188819981DF91CF911F910F91FF90CA
:103B7000EF900C947134DF91CF911F910F91FF90D2
:103B8000EF900895EF92FF920F931F93CF93DF93DF
:103B9000EC01198218821B821A821D821C82611517
:103BA000710521F18B01FB0101900020E9F73197AC
:103BB0007F01E61AF70AB7010E948E26811109C01B
:103BC000CE01DF91CF911F910F91FF90EF900C9458
:103BD000B526FD82EC82B80188819981DF91CF9171
:103BE0001F910F91FF90EF900C945337DF91CF917D
:103BF0001F910F91FF90EF9008951F920F920FB6B3
:103C00000F9211248F939F938091E1009091E10096
:103C1000937F9093E10083FF0FC01092E90091E041
:103C20009093EB001092EC0092E39093ED001092D1
:103C30006C0798E09093F00082FF20C093E090938F
:103C4000E9009091F200992319F09AE39093E8002B
:103C50009091F901992339F09091F9019150909345
:103C6000F901992389F190916B07992339F090918B
:103C70006B07915090936B07992341F184FF10C01B
:103C80008091E2008E7E81608093E2008091E1006D
:103C90008F7E8093E1008091FA018E7E806111C059
:103CA00080FF16C08091E2008E7E80618093E200EA
:103CB0008091E1008E7E8093E1008091FA018E7EFA
:103CC00081608093FA0104C05D9ACDCF289AD6CF47
:103CD0009F918F910F900FBE0F901F9018951F927C
:103CE0000F920FB60F921124CF92DF92EF92FF92B4
:103CF0000F931F932F933F934F935F936F937F93F4
:103D00008F939F93AF93BF93EF93FF93CF93DF93E3
:103D1000CDB7DEB76C97DEBFCDBF1092E9008091C2
:103D2000E80083FFFBC168E0CE0145960E941A1CA3
:103D300082EF8093E8008D8987FF05C09091E800AD
:103D400090FFFCCF03C09EEF9093E800982F9076F1
:103D500009F0C6C09E894F89588D2F89F88C911122
:103D60000CC0803829F48091FB018093F10002C0DF
:103D70001092F1001092F10045C1913051F481117F
:103D800041C14130510509F03DC18091FB018D7F5A
:103D90000BC0933061F4811135C14130510509F0F8
:103DA00031C18091FB0182608093FB012BC1953072
:103DB00049F48091E80080FFFCCF822F80688093D7
:103DC000E30020C1963009F05EC00B8D1C8D22E00F
:103DD0001092E9001092F7011092F601F21232C02F
:103DE0001092F5011092F4010E948C1C99E0BE0122
:103DF0006F5F7F4FDB01E92F1D92EA95E9F7998309
:103E0000FA8291E09E8390EA98879AEF99872091B1
:103E1000F6013091F701275F3F4F3C832B838D8361
:103E20001092E9001092F7011092F6011093F5013B
:103E30000093F40149E050E080E00E94F31B0E94EF
:103E40008C1CE0C01093F5010093F4010E94862BB6
:103E5000DC0112960D911C9113970115110509F4BF
:103E6000BBC0D801ED91FC910480F581E02DBE012D
:103E70006B5E7F4FC8010995009709F0C7C0F80134
:103E800000851185EACF973009F445C1983021F4B7
:103E900081E08093F100B6C0993009F0B3C083701F
:103EA00009F039C1EDE1F1E081E031E096E32081F4
:103EB000211109C08EE78093EA001092EA008F89F1
:103EC00080936C079FC08093E9003093EB002191B1
:103ED0002093EC009093ED008F5F873041F7EACF9D
:103EE0008B8D9C8D1092E9001092F7011092F601D3
:103EF0009093F5018093F401898D811153C08E89CF
:103F00009D89913A49F4813209F005C147E050E0BA
:103F100064E071E080E0BBC0913209F0FCC0833204
:103F200069F48F89988DA0E0B0E0809300019093B0
:103F30000101A0930201B093030164C0803269F4CF
:103F40008091E80082FFFCCF67E084E091E00E946E
:103F50001A1C8BEF8093E80055C0823209F052C0E2
:103F60008F8980930B01EEEFFFE7859194918B3F52
:103F70009C4D19F0E0E0F8E002C0EEEFFAE080912D
:103F8000040190910501A0910601B0910701803BC9
:103F90009440A105B10509F09EC080910B0180FFFE
:103FA00079C099C00E94862BFC0102811381011502
:103FB000110509F4B0C0D801ED91FC910190F08198
:103FC000E02DBE016B5E7F4FC801099581111AC0BB
:103FD000F80100851185EBCFF1E0FF1609F44EC022
:103FE000F3E0FF1298C08F89882309F44AC0823019
:103FF00089F440E860E18CE199E00E946330882315
:1040000009F489C08EEF8093E80088C0181619065D
:10401000CCF381C0813029F440E86BE080E199E085
:10402000ECCF833009F077C00E94862BDC0112961A
:10403000ED90FC9013978E010F5F1F4F6801E11404
:10404000F10479F0D701ED91FC910680F781E02D24
:10405000B801C7010995080F111DF701E084F1842B
:10406000EECFD8011C92F60101900020E9F73197BC
:10407000BF016C197D0940E0C601BFCF6EEF78E04B
:1040800002C06AEF78E0FB01449150E080E80E94B2
:10409000F31BB8CFEE3F2AE0F20751F08081918107
:1040A0008737A7E79A0721F09093FF0A8093FE0ACB
:1040B00087E797E791838083809160008093F80180
:1040C0009BE088E10FB6F894A895809360000FBE3E
:1040D0009093600097CF808191818737974709F04F
:1040E00091CFA89580916000886180936000809155
:1040F000F80180936000EE3FBAE0FB0739F0809151
:10410000FE0A9091FF0A918380837CCF1092FF0A70
:104110001092FE0A77CF81E28093EB006C960FB687
:10412000F894DEBF0FBECDBFDF91CF91FF91EF912D
:10413000BF91AF919F918F917F916F915F914F91BF
:104140003F912F911F910F91FF90EF90DF90CF90B3
:104150000F900FBE0F901F9018956115710579F0A3
:10416000FB0101900020E9F73197AF01461B570B87
:10417000DC01ED91FC910280F381E02D099480E057
:1041800090E008952F923F924F925F926F927F92AC
:104190008F929F92AF92BF92CF92DF92EF92FF9257
:1041A0000F931F93CF93DF9300D000D000D0CDB7F3
:1041B000DEB74115510509F43DC1FA01B4903196BD
:1041C000E4914E5F5F4F6B2C712C211102C0EE20E9
:1041D00061F1A1E0B0E03E2F377011F4A0E0B0E053
:1041E0003E2F3695369536954D01830E911C869C53
:1041F000D001879CB00D969CB00D1124F3E0CF1236
:1042000003C0AA0FBB1F0AC00115110539F0EA9EB1
:104210004001EB9E900C1124080D191D2A9F70017E
:104220002B9FF00C11244E0D5F1D2FEFC21208C002
:104230000115110519F0CC24C39402C032E0C32E3D
:104240007301E80EF91E1E141F040CF0F3C0803831
:1042500091050CF0EFC09B012E0F311D12161306B5
:104260000CF0E8C0603471050CF0E4C04115510554
:1042700009F4E0C0362F37703D83DB0177FD1796D8
:1042800023E0B595A7952A95E1F73A2F77FF05C06A
:104290006D81662311F03FEF3A0F97FF05C0AA2703
:1042A000BB27A81BB90B02C0A0E0B0E0F0E8EF16F6
:1042B000F10424F020E8D22ED81A01C0DB2CDA1A3F
:1042C000632F032E000C770B3F3F1CF4A62EA09407
:1042D00001C0A12CF1E02E2F277009F4F0E0E69543
:1042E000E695E695FE0F6F0F711D6930710514F0AC
:1042F000F8E0F31B7A2C730E272D60E82603800D5F
:10430000911D11244C018A0E9B1E61E070E00D800E
:1043100002C0660F771F0A94E2F783E0C81611F017
:10432000E1E001C0E2E02B2D2D192E9F202D11245C
:10433000EE2EF12CBA9CA00DB11D1124AE9DC00132
:10434000AF9D900DBE9D900D11245A01A80EB91E6F
:104350000115110509F0A801D70111978A0F9B1FBC
:10436000480F591FAFEFA69FC001A79F900D1124C2
:104370002C0140945094C40184509E4FF30FFE834F
:1043800030E0ED9D200D311D1124EE817E1609F4E3
:1043900051C0DC014A018501612CD61409F442C0E8
:1043A000F8013490369EF001379EF00D1124FA8307
:1043B000E983E095F095FC83EB83F2E0CF1203C034
:1043C0005C824B8211C0EBEFCE1203C01A821982BD
:1043D0000BC0F4013490369EF001379EF00D11248D
:1043E000E095F095FC83EB8377FC06C0FB81EC91B4
:1043F000EF23F981EF2BEC93FD81FF2361F0E6E0E1
:10440000E7154CF0FD01E058FF4F20803C80322042
:104410002A80322830828E0C9F1C0E0D1F1D639443
:104420001196BBCF7394A20EB31E420F531F805838
:104430009F4FABCF26960FB6F894DEBF0FBECDBF11
:10444000DF91CF911F910F91FF90EF90DF90CF9070
:10445000BF90AF909F908F907F906F905F904F90A4
:104460003F902F900895CF92EF920F931F933AEFC2
:10447000C32EE12C00E010E00E94C2201F910F919A
:10448000EF90CF900895CF92EF920F931F933BEF51
:10449000C32EE12C00E010E00E94C2201F910F917A
:1044A000EF90CF900895CF92EF920F931F93F90161
:1044B000202FCC24C3948F010E94C2201F910F9102
:1044C000EF90CF900895BC0180E090E00C94BF2B5A
:1044D0008FB18095807F669B88601C9B8460089567
:1044E000FC01E40FF11DAF011E161F06C4F5803854
:1044F0009105ACF597FF02C080E090E0413851058E
:1045000014F040E850E0481BFB0177FD379633E09C
:10451000F595E7953A95E1F7F695FE2FEE27F79595
:10452000E795E80FF91FE450FE4F6770772781E0A9
:1045300090E001C0880F6A95EAF7382F222341F0F6
:10454000213069F4415058F08081832B8193FACF58
:104550008095415020F0908198239193FACF08954F
:104560002F923F924F925F926F927F928F929F9283
:10457000AF92BF92CF92DF92EF92FF920F931F9371
:10458000CF93DF93CDB7DEB72C970FB6F894DEBF8D
:104590000FBECDBF8C017A876987D42E1C0144E5FC
:1045A000240E311C7C0145E050E06FEF70E0C70144
:1045B0000E944C37D70115961C92B7E0EB0EF11C08
:1045C000E214F30481F78D2D6DE00E943135C82E81
:1045D00049855A854B5F5F4FA985BA8520E09DE0EC
:1045E000B92E37E0F32EEE24E3943D913D1549F0CA
:1045F000832F6B2D0E9431359A3019F4C81609F4B7
:104600003EC2A417B50789F78FE1482E512CFE0151
:1046100031967F013DE05E01F6E0AF0EB11C609087
:104620002301709024018090250185E0E6E2F1E00D
:10463000D70101900D928A95E1F7E985FA8580E02E
:1046400090E0D12CA201082E02C0559547950A94FE
:10465000E2F740FF06C04081D701AD0DB11D4C937C
:10466000D394019631968530910561F742E0D412DA
:1046700087C049815A81852F632F0E943135CC2410
:10468000C394C90E842F0E9431359F5FC91278C030
:10469000F801FC87EB878681813009F054C0808166
:1046A000632F0E9431359F5FC9124DC0BF01C12CDD
:1046B00090E080E0DB019D90BD01491102C0CC2457
:1046C000C394BFEF9B1203C0911101C0982F8F5F5D
:1046D000853081F7C11005C0BF01690F711DDB0175
:1046E0004C93BF0140E080E090E0DB01CD90BD0144
:1046F0005C1101C041E0BFEFCB1203C0811101C0CA
:10470000892F9F5F953089F7411106C08F5FBF01E8
:10471000680F711DDB015C9390E080E041914F3F99
:1047200009F0982F8F5F8530C9F76E827F82888667
:10473000E5E0F0E0EC0FFD1FE90FF11D8081EB8556
:10474000FC8585831DC037962E163F0609F0A1CF44
:10475000B80187E0289F600D711D1124D701CB019E
:104760004D91FC014193CF01AA15BB05C9F7E2E0C9
:10477000DB011596EC931597F1E01696FC932F5FED
:10478000F701D70140E08A2F8E198D1550F48D91D5
:10479000632F0E9431359F5F9B3008F09AE0490FEC
:1047A000F2CF4F30E1F4B80187E0289F600D711D12
:1047B00011247C876B87AB01C701DC016D91CD01B2
:1047C000DA016D93AD01A816B906B9F742E0AB85E1
:1047D000BC8515964C93159716961C922F5F63E037
:1047E000D61266C0D9808D2D632F0E9431359F5F10
:1047F000492F50E0CA80DA0111968C2D0E94313584
:104800009F5F892F90E0A817B90709F01AC19B8014
:104810004E5F5F4F892D0E9431359F5F892F90E059
:104820004817590709F00DC1D80140E016965C9170
:1048300016975450523018F57C9111966C9111973F
:1048400012965C911297D71204C0C61202C0951638
:10485000A9F0D61207C0C51205C013966C91139724
:10486000961661F0D5120BC013965C911397C51282
:1048700006C014965C911497951201C041E01796FA
:104880002A163B0699F64111DCC0B80187E0289F43
:10489000600D711D1124CB014191DC014D93CD01BF
:1048A000EA15FB05C9F743E0FB01458386E0C7C075
:1048B00094E0D91278C0D9808D2D632F0E943135B4
:1048C0009F5F492F50E0CA80DA0111968C2D0E941B
:1048D00031359F5F892F90E0A817B90709F0B1C063
:1048E0009B80892D0E9431359F5F892F90E0BA010E
:1048F0006E5F7F4F6817790709F0A3C0AC81AB8763
:104900004D5F5F4F8A2F632F0E9431359F5F892F44
:1049100090E04817590709F094C0C80140E0DC0155
:1049200016965C911697543029F56C9111965C910E
:104930001197D6120CC0C5120AC012966C9112972C
:10494000961205C013966C91BB85B61791F0D512DF
:1049500011C0DC0112965C911297C5120BC0139620
:104960005C911397951206C014965C91BB85B513A4
:1049700001C041E007962816390689F6411161C049
:10498000B80147E0249F600D711D1124CB014191B6
:10499000DC014D93CD01EA15FB05C9F744E0FB01AD
:1049A000458385E04CC095E0D9124BC08981632FC7
:1049B0000E9431359F5F492F50E0DA0111968A81BC
:1049C0000E9431359F5F892F90E0A817B907C9F57C
:1049D0008B810E9431359F5F892F90E0BA016E5F15
:1049E0007F4F6817790769F58C81632F0E943135F5
:1049F0009F5F892F90E0BA016D5F7F4F681779073D
:104A000001F54C5F5F4F8D81632F0E9431359F5FB1
:104A1000892F90E048175907A1F4B801A7E02A9F11
:104A2000600D711D1124CB014191DC014D93CD012D
:104A3000AE16BF06C9F745E0FB01458384E08683D7
:104A40002F5F91E0491A510809F0EFCD2C960FB66F
:104A5000F894DEBF0FBECDBFDF91CF911F910F91B4
:104A6000FF90EF90DF90CF90BF90AF909F908F908E
:104A70007F906F905F904F903F902F900895F80136
:104A800067E0269FE00DF11D11243083E582F68258
:104A90002F5FB7CDEF92FF921F93CF93DF9300D09C
:104AA00000D01F92CDB7DEB77B01142FFC013C96DE
:104AB00094E0DE01119601900D929A95E1F74D83F5
:104AC00065E0CE0101960E94F82F412FBE016F5F75
:104AD0007F4FC7010E94B0220F900F900F900F9050
:104AE0000F90DF91CF911F91FF90EF900895EF927B
:104AF000FF921F93CF93DF9300D000D01F92CDB7CA
:104B0000DEB77B01142FFC01389694E0DE0111968C
:104B100001900D929A95E1F74D8365E0CE010196E3
:104B20000E94F82F412FBE016F5F7F4FC7010E9487
:104B3000B0220F900F900F900F900F90DF91CF91B8
:104B40001F91FF90EF900895EF92FF920F931F93A4
:104B5000CF93DF93FC01EB017B018EE0E80EF11CAB
:104B60008B010F5D1F4F84858A3071F08B30E9F027
:104B70008930D1F5DB01A759BF4F8C9165597F4F23
:104B800040A581110AC00DC0DB01A759BF4F8C9110
:104B900065597F4F40A5811104C0C7010E94772548
:104BA00010C0C8010E94772516C0DB01A759BF4F6E
:104BB0008C9165597F4F40A581110AC0C7010E94A1
:104BC0004A25CE010E94A62EC82F682FC70109C012
:104BD000C8010E944A25CE010E94A62EC82F682F28
:104BE000C8010E94841601C0C0E08C2FDF91CF91D4
:104BF0001F910F91FF90EF900895FB01268D2937AB
:104C000018F421A9293720F0FC01148E21E026A7F1
:104C100008950F931F93CF93DF938C01EB0148E02E
:104C200050E06FEF70E04F960E944C37F80117A2EA
:104C300018A21BAADF91CF911F910F910895FC013B
:104C4000DB01AB01485F5F4F20E03DE08D918F3F7E
:104C500041F0632F0E9431359F5F9B3008F09AE04E
:104C6000290FA417B50791F75081329640E0ADE0C7
:104C700030E0541781F081916A2F0E9431359F5F97
:104C80009B3008F09AE0B901690F711D603271051F
:104C900024F04F5FEECF80E0089581E00895CF9239
:104CA000DF92EF92FF920F931F93CF93DF9300D089
:104CB00000D000D0CDB7DEB76C01F42E122F1A82CF
:104CC00019821C821B821E821D82CE0101960E94C7
:104CD000C726BE016F5F7F4FC6010F960E94C72691
:104CE000F601F58A168B8FEF878B008FE18E81E0BE
:104CF000828FCE0101960E94F12626960FB6F89477
:104D0000DEBF0FBECDBFDF91CF911F910F91FF90FE
:104D1000EF90DF90CF9008950E943E370F931F933E
:104D2000CF93DF93EC0188819981009729F02A8144
:104D30003B812617370788F48B016F5F7F4F0E94F6
:104D40007836009761F0998388831B830A832C81CE
:104D50003D81232B11F4FC01108281E001C080E031
:104D6000DF91CF911F910F910895CF93DF93EC01C5
:104D700088819981009711F00E94EF35198218827D
:104D80001D821C821B821A82DF91CF910895EF92BF
:104D9000FF920F931F93CF93DF93EC018617970732
:104DA000C1F0FB01008111810115110539F0E4808A
:104DB000F580B7010E948E26811104C0CE010E94A9
:104DC000B52607C0FD82EC82B801888199810E94D6
:104DD0005337CE01DF91CF911F910F91FF90EF904C
:104DE0000895FC01808191810C94EF356F927F9240
:104DF0008F929F92AF92BF92CF92DF92EF920F93DA
:104E00001F93CF93DF934C016A01EB013B01620ECC
:104E1000711C5A01A00EB11CC615D705D4F4860129
:104E2000D7FE02C000E010E0C50121E4A216B104E3
:104E300014F080E490E0081719074CF42E2DA80117
:104E4000BE01C4010E94592F0F5F1F4FEDCF219665
:104E5000E3CFDF91CF911F910F91EF90DF90CF9033
:104E6000BF90AF909F908F907F906F9008958F929A
:104E70009F92AF92BF92CF92DF92EF92FF920F93E9
:104E80001F93CF93DF93F22E4801DC011696AD906D
:104E9000BC901797C42ED12CC62F660FDD0BE12CCA
:104EA00000E021EF3DE04FEF5EE0B601CE010E9451
:104EB0005322C5018F77992721E0843008F020E044
:104EC000B6016F5E7F4F45EC5DE0CE010C960E940F
:104ED0003322F4018385F6017B966196882391F055
:104EE000D4011A968C918D7F813061F4C50160E305
:104EF00070E00E943D356CE00E94313581118E5F7B
:104F0000282F01C02F2D4BE75DE0BF01CE01DF91BF
:104F1000CF911F910F91FF90EF90DF90CF90BF90B6
:104F2000AF909F908F900C943322CF92EF920F937B
:104F30001F9322E0C22EE12C00E010E020E00E944E
:104F4000C2201F910F91EF90CF9008958F929F9262
:104F5000AF92BF92EF92FF920F931F93CF93DF9385
:104F6000CDB7DEB7A1970FB6F894DEBF0FBECDBFA9
:104F70007C01262F30E040E050E019A28E010F5D49
:104F80001F4F8AE0882E912CA12CB12CCA01B901A7
:104F9000A50194010E940035605DF80162938F01C4
:104FA000211531054105510589F7BF01C7010E944F
:104FB000AD20A1960FB6F894DEBF0FBECDBFDF9136
:104FC000CF911F910F91FF90EF90BF90AF909F9066
:104FD0008F900895FC017F969C01295D3F4F40E032
:104FE0005DE081918F3F41F0652F0E9431359F5FD9
:104FF0009B3008F09AE0490FE217F30791F7842FEE
:105000000895EF92FF920F931F93CF93DF938C013C
:105010007B01C0E0D0E0F701EC0FFD1F6491662337
:1050200039F0C8010E94A815892B11F02196F3CF01
:10503000CE01DF91CF911F910F91FF90EF900895D6
:105040002F923F924F925F926F927F928F929F9298
:10505000AF92BF92CF92DF92EF92FF920F931F9386
:10506000CF93DF9300D000D01F92CDB7DEB75C01A5
:105070001A01702ECA82CC2039F08C2D833021F099
:1050800080E8682E601A01C0612C9FEFE9126E2C37
:10509000122F110F110F110FE3E0E10FEB83862D9B
:1050A00090E09D838C836B0193E0C90ED11C04E0DA
:1050B000010FE12C272D43E050E06C817D81C6017A
:1050C0000E94F6268C809D80E4E08E0E911C0CE000
:1050D000010F38EFF32EF70C2F2D4FEF5FEFB401D8
:1050E000C6010E94F62605E0010F6C817D816F5F8D
:1050F0007F4FEE24E3942EEF270D43E050E0C601EE
:105100000E94F6260AE0010F2F2D40E050E0B40186
:10511000C6010E94F62648E0942E910EFCEFF70D92
:10512000F9830C811D810E5F1F4F20E04F2F61E03E
:1051300070E0C8010E947022E92CF12C8FE38915E0
:1051400030F020E04981B701C8010E9470229FEF32
:10515000E91AF90A88248394912C2701E1E4EE16D8
:10516000F1041CF090E4492E512C8414950454F45D
:1051700020E0A401B801C6010E94592FFFEF8F1A49
:105180009F0AEBCF8981080F111D01501109EE24F0
:10519000E394F12CE414F50451F020E0A701B801E8
:1051A000C6010E94592F9FEFE91AF90AF3CFE12CAB
:1051B00000E029E63DE041E75DE06FEF7FEF8C81A5
:1051C0009D810E9453228C809D80870C911C24011C
:1051D000E8E04E1A510827E53DE04FE55DE06FEF4E
:1051E0007FEFC2010E945322FB81CF2ED12C8A81F6
:1051F000882311F08330A1F4B60161507109E12CCC
:1052000000E02DEE3CE041E25DE08C819D810E945A
:1052100053222BED3CE043EE5CE0B601C20114C02A
:10522000E12C00E029EC3CE041ED5CE0B6018C8132
:105230009D810E945322B601615071092FE53CE027
:1052400043E95CE0C4014A970E94532286E0860D40
:10525000F5018683878385E08087F101448155814C
:1052600060817181C50102960F900F900F900F9091
:105270000F90DF91CF911F910F91FF90EF90DF90F2
:10528000CF90BF90AF909F908F907F906F905F90E6
:105290004F903F902F900C94271C6F927F928F928B
:1052A0009F92AF92BF92CF92DF92EF92FF920F93B5
:1052B0001F93CF93DF936C01122F702E6E2C89E019
:1052C000801718F026E0F22E08C0E3E6E01718F089
:1052D00094E0F92E02C082E0F82EF40E812E012E09
:1052E000000C9908C42FD0E05B01F3E0AF0EB11CB5
:1052F000E12C08E02EE0A401BE01C5010E94F626C3
:10530000A4014F5F5F4FBE016F5F7F4FEE24E394B8
:1053100007E02DE0C5010E94F626F601F682F7822D
:105320001F5F1087662099F0672DC6010296DF91F6
:10533000CF911F910F91FF90EF90DF90CF90BF9092
:10534000AF909F908F907F906F900C94A627DF91E5
:10535000CF911F910F91FF90EF90DF90CF90BF9072
:10536000AF909F908F907F906F900895EF92FF92F3
:105370000F931F93CF93DF93D42FE82FF0E0EE0F1E
:10538000FF1FE559F44F8491319694919D5FE62F6C
:10539000F0E0EE0FFF1FE559F44FF4903196649161
:1053A000C3E0C60F97FF04C09F77EE24E39401C0CB
:1053B000E12CC7FF03C0CF7711E001C010E0692FD7
:1053C00070E001E025E53BE04FE55BE090E00E9406
:1053D0005322DD2359F06C2F70E0E12E25E53BE0F0
:1053E0004FE55BE08F2D90E00E945322DF91CF913B
:1053F0001F910F91FF90EF900895EF92FF920F93FE
:105400001F93CF93DF93D42FE82FF0E0EE0FFF1F11
:10541000EF59F54F8491319694919D5FE62FF0E01E
:10542000EE0FFF1FEF59F54FF49031966491C3E0F2
:10543000C60F97FF04C09F77EE24E39401C0E12CD0
:10544000C7FF03C0CF7711E001C010E0692F70E003
:1054500000E025E53BE04FE55BE090E00E94532251
:10546000DD2359F06C2F70E0E12E25E53BE04FE5A0
:105470005BE08F2D90E00E945322DF91CF911F912E
:105480000F91FF90EF900895BF92CF92DF92EF922D
:10549000FF920F931F93CF93DF93C82FC62E842FB5
:1054A0006DE00E943135B82E11E0190F211103C0B3
:1054B00026E0F22E02C094E0F92ED12CD0E0E12CAF
:1054C00002E023E939E046EC59E0B601CE010E9442
:1054D0005322CF0DD11DB601645F7F4F2B2D4DE7B9
:1054E00059E0CE010E944322E12FF0E0EE0FFF1FB2
:1054F000E75DFE4F40815181B6016B5F7F4F81E0D8
:1055000090E01A3011F480E090E020E08C0F9D1FB5
:10551000DF91CF911F910F91FF90EF90DF90CF908F
:10552000BF900C944322FC01E35AFF4F9C012F547F
:105530003F4F80E090819F3F09F08F5F3796E217E1
:10554000F307C1F70895DC01FB0181858095908503
:10555000892383FF0FC0868D893718F481A9893785
:1055600038F05C961C925C978CE01C968C930895A6
:105570005C964C930895EF92FF921F93CF93DF9325
:10558000EC01162F7C0181E2E80EF11CFE01B396BE
:1055900060E08191181721F06F5F6630D1F76FEFEF
:1055A000C7010E945516FE01E759FF4F8081612F08
:1055B000811103C0CE010E9601C0C701DF91CF91CA
:1055C0001F91FF90EF900C947616AF92BF92CF92FE
:1055D000DF92EF92FF920F931F93CF93DF93EC0133
:1055E0008B0160E0C8010E960E94121660E0C801AF
:1055F00081960E941216F801F59680E081938F5FE4
:105600008433E1F7580189E6A80EB11C84E3C82E63
:10561000D12CE12CF12C0E941A34A70196010E9492
:105620009734F801E60FF11D85A9D5019E915D0122
:1056300095AB8C93B1E0CB1AD108E108F108E1E019
:10564000CE16D104E104F10431F7D801D4961C92AE
:1056500048E050E06FEF70E0CE014F960E944C376B
:105660001E861B8E1C8E1D8E1E8E1FA28FEF88A77E
:1056700081E089A71AA61BA6DF91CF911F910F91F8
:10568000FF90EF90DF90CF90BF90AF900895209162
:105690006C07211103C08FEF9FEF08955FB7F89457
:1056A00022E02093E9002091F20030E01216130668
:1056B00014F421E030E0422FFC0184E6415038F040
:1056C000289880936B079091F1009193F7CF211563
:1056D000310521F08091F200882319F05FBFC901E4
:1056E00008958BE68093E800F9CF2FB7F89483E014
:1056F0008093E9009091E800892F807295FF04C0A3
:105700009091F20080E4891B2FBF08958091760765
:1057100081110DC082E08093720784E0809373074B
:10572000109275071092740781E08093760782E7E4
:1057300097E008953FB7F89480916E0790916F07B6
:10574000A0917007B091710726B5A89B05C02F3FA7
:1057500019F00196A11DB11D3FBFBA2FA92F982F97
:105760008827820F911DA11DB11DBC01CD0142E012
:10577000660F771F881F991F4A95D1F708958F925A
:105780009F92AF92BF92CF92DF92EF92FF926B0106
:105790007C010E949A2B4B015C01C114D104E104ED
:1057A000F104F1F00E949A2BDC01CB0188199909D0
:1057B000AA09BB09883E9340A105B10570F321E019
:1057C000C21AD108E108F10888EE880E83E0981E1D
:1057D000A11CB11CC114D104E104F10419F7DDCFFF
:1057E000FF90EF90DF90CF90BF90AF909F908F9001
:1057F00008951F920F920FB60F9211242F933F938B
:105800008F939F93AF93BF938091670790916807A1
:10581000A0916907B0916A0730916D0723E0230FCB
:105820002D3720F40196A11DB11D05C026E8230FD8
:105830000296A11DB11D20936D0780936707909379
:105840006807A0936907B0936A0780916E079091EB
:105850006F07A0917007B09171070196A11DB11D4E
:1058600080936E0790936F07A0937007B0937107B2
:10587000BF91AF919F918F913F912F910F900FBE4C
:105880000F901F901895DF92EF92FF920F931F9346
:10589000CF93DF9300D000D000D0CDB7DEB77C012E
:1058A000D42E122F1A8219821C821B821E821D8204
:1058B000CE0101960E94C726BE016F5F7F4FC701D0
:1058C0000F960E94C726F701D58A88E4868B8FEF52
:1058D000878B108F018F81E0828FCE0101960E940D
:1058E000F12626960FB6F894DEBF0FBECDBFDF912E
:1058F000CF911F910F91FF90EF90DF900895CF927D
:10590000DF92EF920F931F93CF93DF93CDB7DEB764
:10591000AE970FB6F894DEBF0FBECDBF6C01362F29
:10592000122F442309F48AC086E0EBECF1E0DE019B
:10593000999601900D928A95E1F788E0E1EDF1E00A
:10594000DE015B9601900D928A95E1F789E0E9ED21
:10595000F1E0DE01529601900D928A95E1F781E126
:10596000E2EEF1E0DE01119601900D928A95E1F7E9
:105970006A3040F0862F6AE00E943135805D89836D
:1059800021E001C020E0E1E0F0E0EC0FFD1FE20FBC
:10599000F11D5AE0832F652F0E943135905D908371
:1059A00081E0820FA1E0B0E0AC0FBD1FA80FB11DD8
:1059B00085E0FE01B99601900D928A95E1F786E0A7
:1059C000820F90E0295FE1E0F0E0EC0FFD1FE80FAF
:1059D000F91F4A3078F0842F0E943135805D808332
:1059E000A1E0B0E0AC0FBD1FA20FB11D88E0FE0129
:1059F00072960EC030E3340F3083413089F7A1E056
:105A0000B0E0AC0FBD1FA20FB11D87E0FE017B9679
:105A100001900D928A95E1F7BE016F5F7F4FCE0135
:105A200083960E94C21D212F41E0BE016D5D7F4F14
:105A3000C6010E94432CCE0183963CC087E0ECEE69
:105A4000F1E0DE01119601900D928A95E1F76A303E
:105A500040F0862F6AE00E943135805D8C8324E01F
:105A600001C023E0E1E0F0E0EC0FFD1FE20FF11DCB
:105A7000832F6AE00E943135905D90832F5FE1E0D3
:105A8000F0E0EC0FFD1FE20FF11D8EE28083BE01FE
:105A90006F5F7F4FCE0142960E94C21DE02E012F04
:105AA00022E241E0BE016E5E7F4FC6010E944F269A
:105AB000CE0142960E94F126AE960FB6F894DEBF54
:105AC0000FBECDBFDF91CF911F910F91EF90DF906F
:105AD000CF900895CF92DF92EF920F931F93CF93C1
