:100000000C94AD0A0C94D50A0C94D50A0C94D50A1C
:100010000C94D50A0C94D50A0C94D50A0C94D50AE4
:100020000C94D50A0C94D50A0C941D220C948F22A2
:100030000C94D50A0C94D50A0C94D50A0C94D50AC4
:100040000C94D50A0C94D50A0C94D50A0C94D50AB4
:100050000C94D50A0C94D50A0C94D50A0C94BC299E
:100060000C94D50A0C94D50A0C94D50A0C94D50A94
:100070000C94D50A0C94D50A0C94D50A0C94D50A84
:100080000C94D50A0C94D50A0C94D50A0C94D50A74
:100090000C94D50A0C94D50A0C94D50A0C94D50A64
:1000A0000C94D50A0C94D50A0C94D50A190B620B42
:1000B000C00C0F0DD20DE30DB10D2010CF1239136E
:1000C000391339135914E51210131513101315139E
:1000D00010131513101315139714C514CB14C5144E
:1000E000CB14C514CB14C514CB148E1889188E18D4
:1000F0009418AC18AC18AC18B818BF180F190F1911
:100100000F19BF184920616D20736F7272794020FA
:10011000796F750A206C6F7374207468652067614D
:100120006D652E0A202020202020204920776F6E28
:100130002100436F6E67726174756C6174696F6ED4
:1001400073210A20202020202020202020596F7594
:1001500020576F6E210020596F757220637269629B
:10016000400020204D792063726962400020596F61
:1001700075722068616E64400020204D79206861AE
:100180006E64400020596F75722068616E64400093
:10019000204D792068616E6440002020476F212047
:1001A000200020476F20666F7220312E2000202013
:1001B000476F2120200020476F20666F7220312E6C
:1001C00020004D79207475726E20746F20737461F5
:1001D00072744000596F7572207475726E20746F5E
:1001E000207374617274400054776F20666F7220C0
:1001F000686973206865656C73210054776F2066A9
:100200006F7220686973206865656C732100202017
:1002100020492077696C6C207468726F770A746863
:100220006573652074776F2063617264732E005468
:1002300068726F772074776F2063617264730A6FDE
:10024000757420746F2074686520637269622E0073
:1002500003081F051F1F151B1F11111F110E1F154E
:10026000111F05011F111D1F041F001F0010101F6B
:100270001F041B1F10101F061F1F011F1F111F1F10
:1002800005071F311F1F051B17151D011F011F101B
:100290001F0F100F1F0C1F1B041B071C0719151322
:1002A0000C121E1F120C1E12120C121F0C1A140418
:1002B0001F052E2A1E1F021C001D00201D001F04EA
:1002C0001A011F001E041E1E021E1E121E3E120CCC
:1002D0000C123E1E020614120A020F121E101E0EEF
:1002E000100E1E081E1A041A2E281E1A12161F118E
:1002F0001F121F101D151711151F07041F17151D9D
:100300001F151D01011F1F151F17151F00170000C6
:100310001000040404040E040229060A0000100060
:10032000100080F8FCFEFFFEFCF8F8F8F8F0E0C0E2
:10033000070F1F3F7FFFFFFFFFFF7F3F1F0F070FCD
:10034000100000807804FA04D810D010D020C0002B
:10035000000708172C5F5F5B5F5B2F170807001C07
:1003600014FD1D1D5D9ABABAFAF4F4F474A8A848F5
:100370005050505040404040C0E018E4FA1B3377E2
:10038000F7F0F8FFFFFF07F807F8FE06FF07F7078B
:10039000FFFFFFFF0FF1FE7F3F080C0E0F0F0F0F47
:1003A0000F0F000F000F0F0E0702060E0F0F0708AA
:1003B0000F0F0F0E0C622202FEFEFE02020286C624
:1003C0007C7C3802FEFF0000006020B0B0F0E0C08E
:1003D000002060E0C0000020E0E0200000000000FD
:1003E0000000000C04C23E02063CFCF88400000041
:1003F00000C0E0301010F0E010006020B0B0F0E07D
:10040000C0000000EEEEE0000020E0E0202020E050
:10041000E000083C12C2FE7C38203F3F3F020D0145
:100420000000000000203F3F20001C1E3F2120272D
:100430003F3F200000818FBF7C0C030000000000C4
:100440000000000020303E3101010101233F3F3810
:1004500020008F9F3F383010BFFF601C1E3F2120BF
:10046000273F3F2000203F3F3F2000203F3F20000C
:10047000003F3F200000103B300000001070F0F003
:1004800080000000F0701008000000000000000074
:1004900000000080808000010101000000000000D9
:1004A00000000000000080E0C0000000000000002C
:1004B0000010F070F0F181010131F1300000008096
:1004C00080808000000000000000000000000000AC
:1004D000000000000000000000000000000000001C
:1004E0000107FFFEFC0701003CFEE9C9898F8E8CE5
:1004F00000008E9F1D1C3839F9F00000000000003C
:1005000000000080E0F83C1F070100000000000030
:1005100000000080FF8000030F3EFCF0FF80003CE5
:10052000FFFF000000FFFF3C000000000000000093
:1005300000000000000000000000000000000000BB
:1005400000000001010101010000000000010101A3
:100550000100000000010101010101000000000094
:100560000000000003030100000000000000000084
:100570000000000000010101000000000003010173
:100580000100000001010100000000000000000067
:10059000000000000000000000000000000000005B
:1005A000001610FF00FF55AA55AA55AA55AA55AA2C
:1005B00055AA55AA55AAFF00FF1F205FB5AAB5AAE4
:1005C000B5AAB5AAB5AAB5AAB5AAB5BA5F201F0E35
:1005D00010000000FFAA55AA55AA55AAFF00FF0067
:1005E00008A0BFAAB5AAB5AAB5BA5F201F0E15F814
:1005F00004FAFDFDFDFDFDFDFDFD050000FF00FF12
:10060000FFFFFFFFFFFFFFFF0000001F001F1F1F76
:100610001F1F1F1F1F1F0000001615F804FAFDFD05
:10062000FDFDFDFDFDFDFDFDFDFDFDFDFDFDFA04F6
:10063000F8FF00FFFFFFFFFFFFFFFFFFFFFFFFFFD0
:10064000FFFFFFFFFF00FF1F001F1F1F1F1F1F1FB8
:100650001F1F1F1F1F1F1F1F1F1F1F001F546F74EF
:10066000616C3A0007040103070F0703010102044C
:10067000080402010704080C0E0F0E0C08080402FF
:10068000010204084E6F7468696E672021004D797D
:1006900020437269624000596F757220437269622B
:1006A0004000596F75722048616E6440004D79209A
:1006B00048616E6440004B3800FF0101050101FFF5
:1006C000005155515551555155515551555155514F
:1006D00055515551555155515551555155515551EA
:1006E00055515551555155515551555155515551DA
:1006F00055515551555155515551A1A1428224088A
:100700001020C00077747475B45427301C1D1C5D14
:100710001C5D1C5D1C5D1C5D1C5D1C5D1C5D1C5D11
:100720001C5D1C5D1C5D1C5D1C5D1C5D1C5D1C5D01
:100730001C5D1C5D1C5D1C5D1C5D1C5D1C5D1C5DF1
:100740001C5D1C4900AA807F807F000800FF00001C
:10075000FC028100F208F40AA90595C5D5C5D5C5E6
:10076000D5C5D5C5D5C5D5C5D5C5D5C5D5C5D5C5B9
:10077000D5C5D5C5D5C5D5C5D5C5D5C5D5C5D5C5A9
:10078000D5C5D5C5D5C5D5C5D5C5D5C5D5C5D5C599
:10079000C4C2E1E0F2783C1E0700007FE0C0802781
:1007A0000817282A505451555155515551555155F6
:1007B0005155515551555155515551555155515509
:1007C00051555155515551555155515551555155F9
:1007D0005155515551555155515551A1A14382245F
:1007E000081020C00000808183476F1E5E1C5C1CC7
:1007F0005D1C5D1C5D1C5D1C5D1C5D1C5D1C5D1C31
:100800005D1C5D1C5D1C5D1C5D1C5D1C5D1C5D1C20
:100810005D1C5D1C5D1C5D1C5D1C5D1C5D1C5D1C10
:100820005D1C5D1C4900AA807F807F000800FF18C6
:1008300037686A68F7E0C5D5C5D5C5D5C5D5C5D56E
:10084000C5D5C5D5C5D5C5D5C5D5C5D5C5D5C5D5D8
:10085000C5D5C5D5C5D5C5D5C5D5C5D5C5D5C5D5C8
:10086000C5D5C5D5C5D5C5D5C5D5C5D5C5D545D538
:10087000C5C4C2E1E0F2783C1E07000000000000A1
:100880000101010101010101010101010101010158
:100890000101010101010101010101010101010148
:1008A0000101010101010101010101010101010138
:1008B0000101010101010101010101010101010029
:1008C00000000000000340FFFF55FFFF55FFFF55EC
:1008D000FFFF55FFFF55FFFF55FFFF55CF3F55D594
:1008E000F08D14A1C881CFD9F1AF2000080B000210
:1008F00002020100090400000102020000052400B8
:10090000100105240101010424020605240600014A
:100910000705810310004009040100020A000000DD
:10092000070502024000000705830240000004039F
:10093000090412010002EF02014041233680000148
:100940000102030141726475696E6F204C4C4300D3
:1009500041726475696E6F204C656F6E6172646F71
:100960000035053B053D053F054105430545054768
:100970000549054B054D054F0551055305550557CF
:100980000559055B055D055F05610563056505673F
:100990000569056B056D056F0571057788798E779B
:1009A0009471176F176D176B1769176717651763C2
:1009B0001761175F175D175B1759175717551753AF
:1009C0001751174F174D174B17491747174517431F
:1009D0001741173F173D173B183B1A3B1C3D1D3F66
:1009E0001D411D431D451D471D491D4B1D4D1D4FDF
:1009F0001D511D531D551D571D591D5B1D5D1D5F4F
:100A00001D611D631D651D671D691D6B1D6D1D6FBE
:100A10001D711D77A079A677AC712F6F2F6D2F6B8D
:100A20002F692F672F652F632F612F5F2F5D2F5B3E
:100A30002F592F572F552F532F512F4F2F4D2F4BAE
:100A40002F492F472F452F432F412F3F2F3D2F3B1E
:100A50002F392F34AC020207020200020702000500
:100A60000300020502000002070200350B3B0B3DAC
:100A70000B3F0B410B430B450B470B490B4B0B4DEE
:100A80000B4F0B510B530B550B570B590B5B0B5D5E
:100A90000B5F0B610B630B650B670B690B6B0B6DCE
:100AA0000B6F0B710B738C738E739071116F116DD3
:100AB000116B11691167116511631161115F115D8E
:100AC000115B11591157115511531151114F114DFE
:100AD000114B11491147114511431141113F113D6E
:100AE000113714351A37203D233F23412343234533
:100AF00023472349234B234D234F2351235323556E
:100B000023572359235B235D235F236123632365DD
:100B100023672369236B236D236F23712373A473CE
:100B2000A673A871296F296D296B29692967296521
:100B300029632961295F295D295B2959295729558D
:100B400029532951294F294D294B294929472945FD
:100B500029432941293F293D293B29392934ACFF23
:100B6000FFFFFFFFFFFFFFFFFFFFFFFFFFFFFFFF95
:100B7000FFFFFFFFFFFF7F3F1F010103070F0F0F65
:100B80000F0F1F3F7FFFFF7F3D1901010101010092
:100B90000000001A10BFBFBF1FEFEFEFEFEF1FBF46
:100BA000BFBFBFBFBFBFBFBFBFBFBF5F201F000072
:100BB00000010205050505050219245A5A241800EA
:100BC0000000000000000000000F1F3F7FFFFFFF3C
:100BD000FF0808000F102F5F5F5F5FFFFFFFFF7FC1
:100BE0003F1F0F08085F5F5F5F2F100F001F3F7FE1
:100BF000FFFFFFFFFFFFFFFFFFFFFFFFFFFFFFFF05
:100C0000FFFFFFFFFFFFFF000000000101010101E6
:100C1000193D7FFFFF7F3F1F0F0F0F0F0F070301CE
:100C2000011A10001F205FBFBFBFBFBFBFBFBFBF44
:100C3000BFBFBF1FEFEFEFEFEF1FBFBFBF00000051
:100C40000000000000000018245A5A24190205056B
:100C500005050502010000FFFFFFFFFEFCF8F0089C
:100C600008FAFAFAFAF408F000F0F8FCFEFFFFFFC9
:100C7000FF080800F008F4FAFAFAFA120AFFFFFF78
:100C8000FFD7D3535252525353D3D7FFFFFF7F00A6
:100C9000010101010103030202030301010101013A
:100CA00000FFFFFFFFD7B3B3B2B2B2B3B3B3D7FF06
:100CB000FFFF7F00010101010103020202020301A3
:100CC0000101010100FFFFFFFFB7D35352525253FE
:100CD00053D3B7FFFFFF7F000101010101030302AE
:100CE000020303010101010100FFFFFFFFD7D353FE
:100CF000D29292939393D7FFFFFF7F0001010101EE
:100D000001030202020203010101010100FFFFFFD2
:100D1000FFD79393929292D353D3D7FFFFFF7F00D5
:100D200001010101010302020202030101010101AB
:100D3000001409FFFFFFF77E7E7676F6F6F6F6F6EC
:100D400076767E7EFEF6FC010101000000000000C8
:100D50000101010000000000000101FFFFFF3B3E18
:100D60007E7A7AFAFAF6F6F676767E7EFEF6FC0162
:100D7000010101000000000001010100000000006D
:100D80000001011504000606040604040604000B15
:100D90000004060404060406060000060604040413
:100DA000040404000B000404040404040606000008
:100DB0000000000000C0E0F0F8FCFEFFFFFFFFFFB6
:100DC000FFFFFFFFFFFFFFFFFFFFFFFFFFFFFFFF33
:100DD000FFFFFEFCF8F0E0C0000000000000000093
:100DE0000000000000FFFFFFFFFFFFFFFFFFFFFF0E
:100DF000FFFFFFFFFFFFFFFFFFFFFFFFFFFFFFFF03
:100E0000FFFFFFFFFFFFFFFF0000000000000000EA
:100E1000000000FEFFFFFFFFFFFFFFFFFFFFFFFFE0
:100E2000FFFFFFFFFFFFFFFFFFFFFFFFFFFFFFFFD2
:100E3000FFFFFFFFFFFFFFFFFFFE000000000000BD
:100E4000000000010307078F9FFFFFFFFFFFFFFF69
:100E5000FFFFFFFFFFFFFFFFFFFFFFFFFFFFFFFFA2
:100E6000FFFFFFFFDF8F0F0F0703000000000000F0
:100E7000C0E0F0F8FCFEFFFFFFFFFFFFFFFFFFFFFA
:100E8000FFFFFFFFFFFFFFFFFFFFFFFFFFFFFFFF72
:100E9000FFFFFFFFFFFFFFFEFCF8F0E0C0000007D0
:100EA00007070707070707070707070707070707D2
:100EB00007070707070707070707070707070707C2
:100EC0000707070707070707070707070707003090
:100ED0003000000000000000C020100804020242A0
:100EE00002020202020A0A0A0A0A0A0A0A0A0A0A8A
:100EF0000A0A0A12A40850A0C00000000000000066
:100F00000000000000000000FF00800000FE000064
:100F100000000000000000000000000000000000D1
:100F20000000FC003F80552AFF0000000000000088
:100F3000000000000000FE0101F95A81FCFDA1A1A2
:100F4000E1E1E1E1E1E121E1F7E1E1E1E1E1E1E13B
:100F5000E1A1A1FCFD8259F80101FE0000000000A2
:100F6000000000000000010202050990A7DF3F7F9A
:100F70000000000000000000000000000000000071
:100F800000003FDFA7908905040403000000000073
:100F9000000000C020D0E8F4FA79B95204022C5ABB
:100FA000BC78F878B81840B07070B04018B878F8CD
:100FB00078BC5A2C4AA47AF1FAF4E8D020C0000098
:100FC0000000030003030301020100000000000011
:100FD0000001020100000000030300000000010204
:100FE00001000000000001020103030303000300ED
:100FF0000021080F0F08080006090B06000E030366
:101000000E000F090F06000F0F000F02030F000E56
:101010000F090D000E10BEBDBEBDBEBDBEBDBEBD26
:10102000BEBDBE000004000400040004000400046F
:1010300000004E080F0D0702000F050F0A000F0DEC
:101040000900020B0D00020B0D00000000000F0D47
:101050000702000F0F0808000E03030E00030E0E18
:101060000300000006090B06000F02030F0000003A
:1010700000010F0F010E03030E000F0D0702000FFA
:101080000D090E10A7C7A7C7A7C7A7C7A7C7A7C798
:10109000A70007070707070707070707070707004E
:1010A00024080E1F1F1F0E0000000000000000009B
:1010B00000001F0E04000000000000000000040EED
:1010C0001F00040E1F001C14FD1D1D5D9ABABAFA04
:1010D000F4F4F474A8A8485050505040404040C028
:1010E000E018E4FA1B3377F7F0F8FFFFFF07F80783
:1010F000F8FE06FF07F707FFFFFFFF0FF1FE7F3F38
:10110000080C0E0F0F0F0F0F0F000F000F0F0E0721
:1011100002060E0F0F07080F0F0F0E0C721900C0FA
:10112000F0F81C0C040682C2C2C2060CFCF8F8F8E7
:1011300078000000000080800000808080000000B7
:10114000AAABABABABAA000004FCFEFEFE00008025
:101150008080800000000004FCFEFEFE0000808015
:10116000808000000000000000808080808080007F
:10117000000000000000000000808080808000806F
:1011800080000000000080808080808000000000DF
:101190003EFFFFFFF0C080000107050C0C0E0F079B
:1011A000030300800001FFFFFFFF0E07070707078B
:1011B0000000001FFFFF1F00000000FFFFFFFF03F4
:1011C00001010103FFFFFFFC0000FFFFFFFF030120
:1011D000010103FFFFFFFC0080C6E3F131190F3F5F
:1011E000FFFFFE80000000F0FCFEFF03000000FF98
:1011F000FFFFFF0000F8FEFFE1202020233F3F3EDD
:10120000380000000307070F0F1F1E1E1C1C1C1CAC
:101210000C0C0E06030100101F1F1F1F1000000002
:101220000000000000001F1F00000000100F0F0F43
:101230001F181010181E0F07030000100F0F0F1FAC
:10124000181010181E0F07030000070F1F1F18109B
:1012500010101F1F1F1F10000081C78F9F1E1C1C16
:101260000E9FFFFFFF70000103070F0F1E1E1C1CC7
:101270001C0C040000000000000000000000000042
:10128000000000000000000000000000000000005E
:10129000000000000000000000000000000000004E
:1012A000000000000000000000000000000000003E
:1012B000000000000000000000000000000000002E
:1012C000000000000000000000000000000101011B
:1012D0000101010101000000000000000000000009
:1012E0000000000000003510BF7FE0840A44A04FDA
:1012F0001024AA2420495549414955494149554995
:10130000414955494149554941495549414955493D
:101310004149554941495549414955494100010211
:10132000050B0A162C2C595A5958B2B5B2B0B2B5A1
:10133000B2B0B2B5B2B0B2B5B2B0B2B5B2B0B2B589
:10134000B2B0B2B5B2B0B2B5B2B0B2B5B2B0B2B579
:10135000B2B003051F041B03050F190F0305081086
:101360000F05051F001F111F030507051F03051F9C
:10137000151F030519050303051F151D0305171583
:101380001D030507041F030511151F03051D151770
:1013900003051F051F0B0F000000000000000000E8
:1013A00000FF404040404040404040201F0D11FCA5
:1013B0000251A955A955A955A95102FC7F80152AAA
:1013C000552A552A552A15807F0000010101010187
:1013D0000101010100000D11A8020001000100013E
:1013E00000010002A82A80000000000000000000A8
:1013F000802A00000001000100010001000000003F
:1014000080F8FCFEFFFEFCF8F8F8F8F0E0C0070FEB
:101410001F3F7FFFFFFFFFFF7F3F1F0F070F1000E2
:1014200000807804FA04D810D010D020C000000743
:1014300008172C5F5F5B5F5B2F170807000D140018
:101440000000000000000000000000FF000000009D
:101450000000000000000000FF0808080808080855
:1014600008080804020105060E1F3E1F0E0C1E3F51
:101470001E0C0C2E3F2E0C0C2F372F0CFCFEFFFFEA
:10148000FFFFFFFFFFFFFFFFFFFFFFFEFCFFFFFF70
:10149000FFFFFFFFFFFFFFFFFFFFFFFFFFFF1F3FFC
:1014A0007F7F7F7F7F7F7F7F7F7F7F7F7F3F1F115A
:1014B00017005004000200020002000200020004B3
:1014C0005000005500000000000000000000000077
:1014D0000055000005100020002000200020002002
:1014E0000010050000F80452AA52AA52AA52AA52A9
:1014F000AA5204F80000FF0055AA55AA55AA55AAF9
:1015000055AA5500FF00000F10252A252A252A2557
:101510002A252A25100F0000F804F2FAFAFAFAFA3E
:10152000FAFAFAFAF204F80000FF00FFFFFFFFFFEB
:10153000FFFFFFFFFFFF00FF00000F10272F2F2FDF
:101540002F2F2F2F2F2F27100F000503000205022A
:1015500000000207020013337C3011241FBECFEFBE
:10156000DAE0DEBFCDBF11E0A0E0B1E0E8E0FFE6E9
:1015700002C005900D92A23FB107D9F727E0A2EF74
:10158000B1E001C01D92A038B207E1F71AE0CCEA41
:10159000DAE004C02197FE010E946E35CB3AD107F4
:1015A000C9F70E9480300C9477370C9400002F927A
:1015B0003F924F925F926F927F928F929F92AF92E3
:1015C000BF92CF92DF92EF92FF920F931F93CF9330
:1015D000DF93CDB7DEB729970FB6F894DEBF0FBE05
:1015E000CDBFDC01FB013B012EE0620E711C4B0103
:1015F00031E2830E911C11851095808518239E96EB
:101600008C919E97882321F08CE01C968C931C97DC
:101610001C969C911C97492F50E04D30510510F0BD
:101620000C9427165F016D01FA01EA5AFF4F0C94E2
:101630006E35D50116968D919C9117978F709927CD
:10164000892B31F41E968C91882311F40C94D814B4
:10165000F50166856630A0F5868197818F709927A0
:10166000892B11F00C94271684A991E0980F94AB64
:10167000E60FF11DD501A80FB11DD5968C91808B79
:101680006F5FD5011E966C93C50140960E94852C14
:10169000F50184A991E0980F94AB61A1E60FF11DCB
:1016A000D501A80FB11DD5968C9183A36F5FD5018D
:1016B00091966C93C50183960E94852C0C942716F5
:1016C00081E04BC25C968C915C97873418F48F5FF5
:1016D0005C968C93F5018685853008F458C0D60158
:1016E0005C968C918634A8F46FE272E0CE0101968C
:1016F0000E94AA21EE24E39400E026E442E0BE0129
:101700006F5F7F4FC6010E94C41FCE0101960E94E9
:10171000662015FF06C0F601838D882311F08150E5
:10172000838F16FF0EC0D6015B962C91422F50E09E
:10173000F501868590E001974817590714F40C9439
:10174000E71413FD02C00C94271681E0D6011E9603
:101750008C931E975B966C91C3010E944417682F6F
:10176000F501E759FF4F8081811102C0C30101C01B
:10177000C4010E946517F601838DD5011E969C91C8
:1017800089130C9427168150838F0C9427168FEFA2
:10179000F601858F868F86E0E6E1F1E0DE011196A5
:1017A00001900D928A95E1F785010D5D1F4F95011E
:1017B000275D3F4FDE011196F8014DE051E0819128
:1017C000642F0E944E35943009F45C931196E21711
:1017D000F307A9F7AE014A5F5F4FFE013196D801CA
:1017E0003DE082E0F82EED908C91632F0E944E3503
:1017F00021E0290F8E2D0E944E359F5F291308C0CE
:1018000080818F3F09F4F08281818F3F09F4F1825A
:101810003196E417F50739F7DE011196F12CEDE06A
:10182000EE2EF3E09F2EF394F80181918F016E2D3F
:101830000E944E359F5F292F30E02F5F3F4F8F2C46
:10184000482D50E0F501E40FF51F83A16E2D0E9495
:101850004E359F5F892F90E02817390771F48C91DE
:101860008F3F09F49C92E1E0F0E0EC0FFD1FE40FE4
:10187000F51F80818F3F09F490828394F6E08F12E8
:10188000DFCF1196F5E0FF12CECF9E01295F3F4FCB
:10189000D501FE0131964DE058E016E080818F3F82
:1018A000B9F493968C919397642F0E944E3581E002
:1018B000890F893038F4873050F4943048F49B5FB6
:1018C000908306C09950943018F4508301C010835F
:1018D000319611962E173F0709F78FEF95012B5F71
:1018E0003F4FF501AE014F5F5F4FDA019D91AD01B2
:1018F000981315C0D6015D969C915D979F3F21F48A
:1019000093A15D969C930BC0981749F0D6015E9603
:101910009C915E979F3F19F493A15E969C9331969C
:101920002E173F0711F78150E1F6F601858D8F3FA5
:1019300059F40E94373426E030E040E050E00E9445
:10194000B434D6015D966C93F601868D8F3FB1F469
:1019500076E0872E912CA12CB12CD6015D969C911E
:101960005D975E968C91981749F00E943734A501D7
:1019700094010E94B434F601668FEFCF82E04AC032
:10198000FD01848D8F5F848F863478F546E4B50140
:10199000CD010E94EC2C6EE072E0CE0101960E9417
:1019A000AA2101E020E042E0BE016F5F7F4FC60147
:1019B0000E94E32DCE0101960E946620D6015C961E
:1019C0008C915C97893129F45D966C91C5010E94D8
:1019D000042DF601848D823311F00C942716668D48
:1019E000C5010E94042D0C942716D50191968C9167
:1019F000863028F0F601668DC5010E94042DD501C0
:101A000091968C91853028F0F601658DC5010E9474
:101A1000042D83E0D6011C968C931C9747C7FD01CB
:101A2000848D8F5F848F8D35D8F48B3108F065C03D
:101A30008A31B0F5803128F58F3011F00C942716DB
:101A4000D501D4968C91D49791E0980FD4969C931D
:101A5000F501E80FF11D85A9F60180A70C94271662
:101A60008C3E50F4883A08F04AC04BEEB501CD01E7
:101A70000E94EC2C0C9427168C3E09F465C00C9443
:101A8000271698968C9198976DE00E944E359A3063
:101A900011F40C94271687EA5C968C930C94271605
:101AA000F501E759FF4F808162E081110CC0C3014D
:101AB0000E9473176BEF71E0CE0101960E94AA217C
:101AC000E12C02E00CC0C4010E94731768EE71E0C3
:101AD000CE0101960E94AA21EE24E39401E02EE4B7
:101AE00041E0BE016F5F7F4FC6010E94C41FCE015F
:101AF00001960E9466200C9427164BEEF9C4B5019E
:101B0000CD010E945B1F4BEEB501C6010E94EC2C7B
:101B1000F501E759FF4F8081813059F464ED71E0A0
:101B2000CE0101960E94AA21EE24E39400E021E573
:101B3000D7CF62EC71E0CE0101960E94AA21EE247B
:101B4000E39400E027E4CCCF5C961C92F501E759C2
:101B5000FF4F8081813021F584E0F60184870C9469
:101B600027165C968C915C978F5F5C968C935C9744
:101B7000893408F463C0893411F00C942716B50138
:101B8000CD010E945B1FF601148ED501D3968C9176
:101B9000D39781113AC791968C91882309F435C760
:101BA00087E00CC0BD01615E7F4FC3010E947D1FB5
:101BB000811142C081E0F50180A386E0D6011C9628
:101BC0008C930C942716FD01848D8C3408F44DC041
:101BD0008C3411F00C942716B501CD010E945B1FC7
:101BE000C6010E94AD1FF601148E8F3109F416C292
:101BF00087E0F6018487D50190968C9190978111AA
:101C00000C942716D3968C91D397882309F412C28B
:101C1000B601615E7F4FC3010E947D1F81110CC020
:101C2000B501C6010E94671FF50181A18111B8CFDE
:101C30008685882309F4FCC185E08FCF873068F45E
:101C4000863011F00C942716F50183A98111C5C6C1
:101C500081A1882309F4C1C6CEC648E4B501CD01EF
:101C60000E94EC2C81E0D601D6C1813008F0C5C1BC
:101C700015FF08C05B968C915B97882319F0815003
:101C80005B968C9316FF0DC0F601238D422F50E01A
:101C9000D5011E968C9190E00197481759070CF4D6
:101CA000C1C613FFD4C7C6010E94AD1F282FF6017D
:101CB000438DF501E40FF11D80896DE00E944E35E2
:101CC00031E0390F3B3008F03AE0822F90E0830F8B
:101CD000911D80970CF0BBC7642FC3010E9444176D
:101CE000D60197960C91F601E00FF11D878F0F5FDB
:101CF000F60107A3838DD5011E969C91891302C01E
:101D00008150838FC6010E94AD1FF82EF50153A9A3
:101D1000511104C051E081A1811150E0023008F45A
:101D200084C6F601E00FF11D858D3DE0632F0E9412
:101D30004E3521E0290F868D0E944E3531E0390F56
:101D4000321302C012E001C010E00230C9F0848DED
:101D50006DE00E944E3541E0490F241303C0321359
:101D600001C01C5F033061F0838D6DE00E944E3531
:101D70009F5F491305C0241303C0321301C01A5FCB
:101D80008F2D8F7E8F3009F41E5F033008F411C150
:101D9000F601E00FF11D848D3DE0632F0E944E356A
:101DA000B1E0B90F858D0E944E35EE24E394E90E23
:101DB000868D0E944E3521E0290FEB1601F12B177D
:101DC000F1F02E15E1F0BE1518F48E2D8B1B02C01C
:101DD0008B2F8E19833098F4B21718F4822F8B1B37
:101DE00002C08B2F821B833050F4E21618F4822F2E
:101DF0008E1902C08E2D821B833008F418C6A0E015
:101E0000033009F4D6C0838D6DE00E944E3531E079
:101E1000390FB31709F442C0E31609F43FC0231782
:101E2000E9F1EB16D9F12B17C9F12E15B9F13B17D2
:101E300018F48B2F831B02C0832F8B1B843070F50B
:101E40003E1518F48E2D831B02C0832F8E1984300B
:101E500028F5321718F4822F831B02C0832F821BB0
:101E60008430E0F4BE1518F48E2D8B1B02C08B2F2E
:101E70008E19843098F4B21718F4822F8B1B02C08D
:101E80008B2F821B843050F4E21618F4822F8E19A7
:101E900002C08E2D821B843008F4CCC540E0043093
:101EA00009F487C0828D6DE00E944E3581E0890F74
:101EB000381709F47EC0B81709F47BC0E81609F496
:101EC00078C0281709F475C0B31709F472C0E31677
:101ED00009F46FC0231709F46CC0EB1609F469C04C
:101EE0002B1709F466C02E1509F463C0831718F484
:101EF000932F981B02C0982F931B953008F059C060
:101F00008B1718F49B2F981B02C0982F9B1B9530A2
:101F100008F04FC08E1518F49E2D981B02C0982F04
:101F20009E19953008F045C0821720F4F22FF81B57
:101F30008F2F01C0821B8530E0F53B1718F48B2FE3
:101F4000831B02C0832F8B1B853098F53E1518F438
:101F50008E2D831B02C0832F8E19853050F53217CA
:101F600020F4622F631B362F01C0321B353008F579
:101F7000BE1518F48E2D8B1B02C08B2F8E19853049
:101F8000C0F4B21720F4722F7B1BB72F01C0B21B15
:101F9000B53078F4E21610F42E1902C0E21A2E2D94
:101FA000253038F4AA2309F450C5442309F44BC55D
:101FB0001F5F8FE1F81689F0552379F0D5011E9641
:101FC0008C91882309F445C5B601615E7F4FC3013A
:101FD0000E947D1F882309F43CC5612FC3010E9424
:101FE000731700E022E0412F6F2DC6010E941F2EC3
:101FF000F601848D8F5F848F2AC64BE4B501CD0135
:102000000E94EC2CD6015C968C915C978F5F5C965D
:102010008C935C9781E05A968C9319C6D501919662
:102020008C918111B8C2D5011E968C9181117CC210
:1020300088E0C4CD91968C91882309F4E9CD07C638
:102040005C968C915C978F5F5C968C935C978B35DC
:1020500030F4813108F04BC2803129F0F8C58B355E
:1020600009F44EC2F4C5F5018685823028F090A1AE
:1020700081E09827998701C019867601FFE1EF0E6C
:10208000F11C86E0E6E1F1E09E012F5F3F4F390150
:10209000D90101900D928A95E1F7F7019601295D2A
:1020A0003F4F412C512C4DE081918F3F49F053948B
:1020B000642F0E944E359F5F9B3008F09AE0490ED6
:1020C0002E173F0789F785010D5D1F4F32E035154B
:1020D00008F042C0F701E50DF11DDF0112978C9168
:1020E0002DE0622F0E944E3531E0390F11978C910F
:1020F0000E944E359F5F391332C0319780810E9414
:102100004E3521E0290F23132AC0822F2B3008F0EF
:102110008AE0382E340C6FE1631508F1D5019196F1
:102120004C91F80130E05DE04317C9F08191652FD3
:102130000E944E359F5F29130DC0632FC4010E947A
:102140004417382FBFE03B1619F0EFE18CE03DC09B
:102150008EE010C13F5FE8CFF2E05F12E6C0A7015A
:10216000450D511DFA01329780812DE0622F0E94AA
:102170004E3531E0390F319680810E944E3521E095
:10218000290F231329C0822F2B3008F08AE0382E24
:10219000340C6FE1631500F1D50191962C90F80194
:1021A000A0E0BDE02A16C1F081916B2F0E944E3550
:1021B0009F5F29130FC06A2FC4010E944417382F54
:1021C000BFE03B1629F0EFE186E03E12D3C0CFC05E
:1021D00088E0D0C0AF5FE6CFF2E0F51508F06EC042
:1021E000FA01339780816DE00E944E3541E0490F3E
:1021F000D50191963C90431718F4232E241A02C05F
:10220000242E231A421718F4A22FA41B02C0A42FB5
:10221000A21B321718F4B22FB31B02C0B32FB21B8C
:10222000F80150E0351609F44CC081916DE00E9430
:102230004E359F5F892F9B3008F08AE0840D8F8395
:10224000803208F008C4341709F405C4241709F4CF
:1022500002C4491709F4FFC3231709F4FCC3391753
:1022600009F4F9C3291709F4F6C363E0621508F409
:10227000F2C3A43008F0EFC3491718F4892F841B68
:1022800002C0842F891B843008F0E5C3B43008F005
:10229000E2C3391718F4892F831B02C0832F891BCF
:1022A000843008F0D8C3291710F4921B03C0722F92
:1022B000791B972F943008F0CEC34CC092E059128E
:1022C00034C0F501A1A1321718F4522F531B02C0DC
:1022D000532F521BF80140E0BDE0A41731F181916A
:1022E0006B2F0E944E359F5F892F9B3008F08AE04C
:1022F000382E340C6FE1631508F4DDC3231709F49D
:10230000DAC3391709F4D7C3291709F4D4C35330F2
:1023100008F0D1C3391710F4931B03C0732F791B36
:10232000972F933008F0C7C3B5C32985211103C087
:10233000511043C4C2C30E94373423E030E040E070
:1023400050E00E94B434613071058105910509F0B7
:10235000B4C3EECF652FC4010E944417382FBF814C
:10236000BF3039F08F818F3109F092C384E012E0E1
:1023700002C086E010E0180F16C02F5F421709F464
:1023800048C08191632F0E944E359F5F9B3008F0BB
:102390009AE0940D9F7E9F3081F7622FC4010E94C6
:1023A0004417382F12E03F3F09F47EC0D6019796BC
:1023B0008C91F601E80FF11D378F8F5FF60187A32F
:1023C000C6010E94AD1F782EFFE18F17B1F0D50135
:1023D0001E968C911E97882321F090968C918823CD
:1023E00061F0F50181A1882309F41FC4B701C4017C
:1023F0000E947D1F882309F418C4612FC4010E9424
:10240000731701E021E0412F672DC6010E941F2EA6
:102410001EC4980150E06DE0262EE42DF0E0F88710
:10242000EF83451352C3F601878D8F3F29F4F801DE
:1024300020E03DE042136CC3252C312CF1E02F1A33
:1024400031082E0C3F1CF10180816DE00E944E3559
:1024500051E0590FF80130E020E01DE0431366C35E
:10246000213051F4F3010DE0242D30E011E08E2FE6
:102470008619841708F464C3F301D5015DE0242DA7
:1024800030E08E2F8619841708F46EC35FEF1DE0CD
:10249000242D30E0D301F50100E040137CC35150FE
:1024A000C9F781E0F50183ABD50190968C91882323
:1024B00071F061E0C4010E94731762EA71E0C30128
:1024C0000E94AA21EE24E39401E02DE209C06AE90A
:1024D00071E0C3010E94AA21EE24E39400E022E20D
:1024E00041E0B301C6010E94C41FC30102CB4AE50B
:1024F000B501C6010E94EC2C81E0F601828FA7C3D2
:10250000B501CD010E945B1FD6015C961C92C601ED
:102510000E94AD1FF50196858F3189F4992349F00A
:1025200084E0D6011C968C93B501C6010E94671FFA
:102530008EC3F50181A1882309F47ACD2CC09111B5
:1025400005C081A1882309F473CD07C084E0F6019A
:102550008487D50190968C9178C384E0F6018487B6
:10256000D50190968C919097811104C01E969C91F4
:1025700091116DC3F50193A9911167C3B601615E15
:102580007F4FC4010E947D1F81110ACBD5011E9689
:102590008C918111C9CF87E0F6018487C5CFD50121
:1025A00016968D919C9117978F709927892B09F01A
:1025B0004AC0F601848D482F50E049305105E0F5BE
:1025C000FA01ED59FF4F0C946E35D5015F968C9151
:1025D000F60192A5981708F482A7D501D2968C919E
:1025E000F60193A5981708F483A7D6019A969C91B3
:1025F0009A97F501268D9B968C91921720F091A9C0
:10260000891728F014C39F5FD6019A969C93F50111
:1026100091A98917C0F48F5FD6019B968C9313C044
:10262000F60111A68F5F848F0EC091E0D6019996B6
:102630009C9399978F5FFDC281E0F60181A7B50158
:10264000C6010E945B1F13FF02C389E0D6011C96DE
:102650008C931C975C961C925C9781E099968C9366
:1026600099979C961C92F501868D878F81A982ABE4
:10267000EEC25C968C915C978D37C0F48E3608F074
:10268000D2C08E3409F471C050F48D3408F062C0A9
:1026900021E0280F8630D0F4FD01248FDAC08F3579
:1026A00008F0CAC0803508F48BC0BDC08A3A38F43F
:1026B0008B3908F0C1C08C3808F0B5C0BDC0893B6B
:1026C00008F4B1C0883C08F0BCC0B6C05C962C933E
:1026D000F501E759FF4F80819A3021F19B3051F18C
:1026E00081110AC060E971E0CE0101960E94AA2121
:1026F00023E0E22E01E009C064E871E0CE0101961A
:102700000E94AA2193E0E92E02E024E341E0BE0109
:102710006F5F7F4FC6010E94C41FCE0101960E94C9
:10272000662097C0813019F469E771E007C06DE653
:1027300071E0E4CF813059F462E671E0CE01019698
:102740000E94AA2183E0E82E01E022E3DFCF66E5C4
:1027500071E0D4CF8EE4FD01848FB501CD010E94DC
:10276000021FD6019D968C9374C0C3010E94E52878
:1027700013FF0AC0F60195A5911102C0148E04C082
:102780009FE4948F10E008C017FF06C0F60194A5DF
:10279000992311F0915094A714FF5BC0D6019C9629
:1027A0009C919C97492F50E04B5F5F4F282F30E062
:1027B000421753070CF04DC09F5F9C969C9349C0F5
:1027C000F501878D9A969C919A97981710F49A968E
:1027D0008C93F50182A9D6019B969C919B979817A3
:1027E00010F49B968C93F501868197818F709927C1
:1027F000892B79F5D6019A969C919A97268D9B966E
:102800008C91921720F091A9891720F015C29F5F33
:10281000F60192A7D501D1969C918917D0F48F5FCC
:10282000F60183A716C08F5FD6015C968C935C97E8
:1028300081E099968C930DC08F5FF601848F11A66D
:1028400008C081E099968C939997B501CD010E94BB
:102850005B1F13FFFCC1F601848D8E3438F4B50183
:10286000C6010E94021FD6019D968C93F501868DAC
:10287000878F81A982ABD6011C968C911C978A30D8
:1028800041F08B3051F0893059F48AE01C968C93DA
:1028900007C08BE0F601848703C0D6011C961C920A
:1028A000F501868D878F81A982ABD6015C961C923B
:1028B000CEC1FD01848DD5018C3420F55E968C91BE
:1028C000893750F062E371E0CE0101960E94AA219F
:1028D00002E02CE442E009C064E071E0CE01019620
:1028E0000E94AA2101E023E443E0BE016F5F7F4F15
:1028F000C6010E945130CE0101960E946620F60169
:10290000848D4CC016962D913C9117972F703327CC
:10291000232B09F045C0482F50E0FA01EC54F1098F
:10292000E930F105E8F5E459FF4F0C946E35F501F7
:10293000878DD6019A969C919A97981710F49A963B
:102940008C93F50182A9D6019B969C919B97981731
:1029500010F49B968C93F60192A5D5015E962C916E
:102960005E9783A5921728F0D1969C91891720F045
:1029700067C19F5FF60192A7D501D1969C918917F7
:1029800078F48F5FF60183A70BC0D60199961C924D
:1029900099978F5F57C191E0F60191A78F5F848F60
:1029A00013FF55C1F501E054FF4F83E080834FC111
:1029B000B501C6010E942E2DF501E759FF4F81E0B8
:1029C0009081913009F480E080830C94280B2F5F74
:1029D000D6015B962C930C94A10B61E0C3010E947D
:1029E000731766EB71E0CE0101960E94AA21E12CDB
:1029F00002E02DE275C86EEA71E0CE0101960E94F8
:102A0000AA21E12C00E022E26BC8B501C6010E94B8
:102A1000671FF50181A18111C3C8F5018685811168
:102A20009BC806CB2F5F238F3CC910E0A9C91D5F4F
:102A3000A1E0E6C9AA2329F081E0180F41E0A1E056
:102A40002ECA84E0FACF1E5FB4CA4111B2CA1B5F1E
:102A5000B0CA1F5FC2CA5F5FE5CB2F5F521769F133
:102A60008191642F0E944E359F5F892F9B3008F023
:102A70008AE0382E340C6FE1631578F33913EDCF0B
:102A8000622FC4010E944417382F7FE03712A5C07F
:102A900084E070CC642FC4010E944417382FEFE00B
:102AA0003E1631F08FE113E0381203C082E063CCB0
:102AB00015E080E060CC4F5F10CCD50191964C9131
:102AC000D801F80120E03DE059CCF90181919F0146
:102AD000622D0E944E359F5F9B3008F09AE0EF8197
:102AE000F885E90FF11D3B9789F4F501312C531559
:102AF00049F083A1622D0E944E359F5F9A3010F0FD
:102B0000652F0DC0339431964311F1CF5F5F89CCAF
:102B10008191632F0E944E35933031F4622FC401AE
:102B20000E944417382F7CC02F5F84CC8191612F85
:102B30000E944E359F5F591301C02F5F3F5F8ECCBF
:102B40008D91602F0E944E359F5F59130BC0852FCA
:102B50005B3008F08AE0B901680F711D60327105C1
:102B60000CF442C0319683CC80818F3F89F49396D8
:102B70008C919397652F0E944E3581E0890F8B30A1
:102B800008F08AE0B901680F711D6032710574F1B7
:102B90001196319676CC8D91581344C083A1612F44
:102BA0000E944E359F5F9B3008F09AE0B901690F93
:102BB000711D60327105B4F51CC0F701E50DF11D02
:102BC000319780816DE00E944E3531E0390FF5017B
:102BD00051A1F80120E04DE041CF8FE1381202C051
:102BE00082E0C5CB82E0C6CB1083BCCF9B5E9083D6
:102BF000CFCF602FC4010E944417382F552081F099
:102C0000D1018C914DE0642F0E944E3521E0290FB7
:102C1000832F0E944E359F5F11E0291709F4C3CB23
:102C200010E0C1CB0F5F319638CC1F5FE6CB81E05F
:102C3000D6015C968C9307CD8FE5F601848F09CE83
:102C40008DE4D6015C968C93ABCE81116DCC299628
:102C50000FB6F894DEBF0FBECDBFDF91CF911F91AD
:102C60000F91FF90EF90DF90CF90BF90AF909F902B
:102C70008F907F906F905F904F903F902F9008952E
:102C8000FC01DB0119968C911997809518969C91FF
:102C90001897892316962D913C9117972770332703
:102CA000232B39F495859F5F9C3111F0958701C0E6
:102CB000158685FF04C09685913009F4168686FF37
:102CC00005C09685911102C091E0968783FF09C0E7
:102CD0008685A054BF4F811102C082E001C081E00F
:102CE0008C930895089580E090E0089508950F93DF
:102CF0001F93CF93DF93EC018B01198218821B8203
:102D00001A821D821C820E943C20F80186818E83DB
:102D100087818F83808588878185898782858A8757
:102D200083858B87DF91CF911F910F910895CF936A
:102D3000DF93FC016A3039F4858184839681818533
:102D4000890F868351C08481603219F48E5F848339
:102D50004BC06E37D9F3262FEF0166816F5F2A33A0
:102D600031F178F42D32C9F130F4213211F12B32E6
:102D700071F521E41FC02E32A1F0203340F12C5F09
:102D800019C02B3540F4213470F42F3371F0203406
:102D9000F1F424E40FC09FE9920F9A31C0F4275454
:102DA00009C02FE307C0215405C022E403C023E477
:102DB00001C02EE33F81062E000C770B082E000C7D
:102DC000990B313061F440E552E00E94772B888501
:102DD0008D5F9C81890F8C8307C020E4EBCF40E599
:102DE00052E00E94872BF3CF81E090E0DF91CF91FA
:102DF00008950C940C360C940C360C940C360C94F0
:102E00000C361F93CF93DF93EC01162F1882198293
:102E100046E050E06FEF70E002960E94693744E0B0
:102E200050E06FEF70E0CE010C960E9469371A8A6D
:102E3000112311F0188A198ADF91CF911F910895FB
:102E40000F931F93CF93DF938C01EB010E942E2DE4
:102E500061E0CE010E960E94011761E0CE018196DD
:102E60000E940117F8011686148616A612A613A64C
:102E7000FE01E759FF4F1082C659DF4F1882DF91DC
:102E8000CF911F910F910895FC01DC01A60FB11D98
:102E900012968C91663050F4DF01A60FB11D139687
:102EA0009C91139712969C936F5FF4CF9FEF97833B
:102EB000908191509083943039F4DF0118963296C6
:102EC00001900D929A95E1F70895FC019181DF013F
:102ED000A90FB11D1C966C9361E0690F6183CF014E
:102EE0000C960C94852CFC019089690F6A3710F4BC
:102EF000608B089589E7808B08950895089508955B
:102F000008952F923F924F925F926F927F928F928D
:102F10009F92AF92BF92CF92DF92EF92FF920F9368
:102F20001F93CF93DF93CDB7DEB762970FB6F894B8
:102F3000DEBF0FBECDBF5C013B01FB0126803780A9
:102F4000FC0184858850853008F4D6C0B501615FE6
:102F50007F4FCE0101960E9477168E010F5F1F4FA3
:102F6000F501208D42E167E5C3010E942426C801D6
:102F70000E946620F3010685902F990F892F880FF4
:102F8000880F890F845F86959301205F3F4F3E87AE
:102F90002D8714E3181BC12CD12C802E912C31E0ED
:102FA000831A91085DE0452EC01608F058C0ED85E3
:102FB000FE855190FE87ED87E12EF12C20E0C814AC
:102FC000D90424F54DEE55E069E270E0C7010E9496
:102FD000772BF3E0EF0EF11C852D642D0E944E350A
:102FE000592E282F46E654E164E370E0C7010E94A1
:102FF000872BE52DF0E0EE0FFF1FE155FE4F4081DE
:10300000518120E06DE270E0C70122C049E156E045
:1030100069E270E0C7010E94772B852D642D0E9424
:103020004E35592E282F46E654E164E370E0C7017F
:1030300008960E94872BE52DF0E0EE0FFF1FE1556B
:10304000FE4F4081518120E06DE270E0C7010396A0
:103050000E94872B2FEFC21AD20A165FA5CFF30169
:1030600001A1102F110F812F880F880F180F145FE7
:1030700016951A5CE12CF12CC02ED12CF1E0CF1A60
:10308000D108E016E0F4EC14FD044CF4812F90E03C
:1030900020E04FEC55E068EF7FEF0A9709C082E02F
:1030A000810F90E020E041EA55E068EF7FEF46971E
:1030B0000E94772B2FEFE21AF20A1A50E2CF21E09A
:1030C00040E86DE370E080E090E00E94B42B20E0E7
:1030D00040E86CE370E080E090E00E94B42B00E0F8
:1030E00010E041E06FE370E0C8010E94F42B0E5F36
:1030F0001F4F00381105A9F7F5012485822F90E0B4
:103100008D30910508F070C2FC01EB58FF4F0C9414
:103110006E35F501638DC3010E94E52FF5016685CB
:10312000C3010E94063060C2F50180A58F3F09F0FF
:10313000A0C221E04FEA54E16CE070E080E090E052
:103140000E94772B20E04DE354E160E170E085E0E0
:1031500090E00E94772B48C2C5010E94D52FF5014F
:10316000848D811108C0638DC3010E94E52F03C0C7
:10317000C5010E94D52FC5010E949E2F35C2B50101
:10318000615F7F4FCE0101960E947716F30191A9EE
:10319000868D891710F022E001C021E08E010F5FBB
:1031A0001F4F46E160E0C3010E942426C8010E942F
:1031B000662020E045EC58E060E070E08BE290E0B3
:1031C0000E94772B20E046EB56E067E070E083E357
:1031D00090E00E94772BF301968D878D981719F058
:1031E000F50111A501C010E0F30182A991A998177A
:1031F00019F0F50141A501C040E0F50163A50E9469
:103200007928412FF50162A5F301878D0E943228AC
:1032100021E041E0B301C5010E94592FE5C1C3017E
:1032200087599F4F7C0111E0FC018081293019F4FE
:10323000882321F002C0813009F010E06301FEE034
:10324000CF0ED11CB501615F7F4FCE0101960E9468
:103250007716112339F0C6010E94E528882311F062
:1032600021E001C022E08E010F5F1F4F46E160E0C8
:10327000C3010E942426C8010E94662020E045EC7C
:1032800058E060E070E08BE290E00E94772BF5015F
:10329000828D81112AC091012F71332781E0213164
:1032A00008F480E0F5012485948D2A3049F02B3014
:1032B00039F02930D1F4F7012081211105C00BC06C
:1032C000F7012081211107C041E0993B08F440E05B
:1032D000482B21E006C021E0993B08F420E0282B90
:1032E00041E0B301C5010E94592FF501848D8E3450
:1032F00009F054C182E386838783108681E0818749
:103300009485993038F19B3018F09B30B1F022C091
:10331000F701808195012E5F3F4F811103C09930E5
:1033200041F404C0813029F49A3019F46DEA76E052
:1033300002C062EA76E0C9010BC0F7012081C50135
:103340000296211103C067E976E002C06EE876E0DC
:103350000E94C628C6010E94E528E82E81110DC0F2
:1033600088E4F501868387838CE1808764E876E0D2
:10337000C50102960E94C6280EC1F5E0F81768F450
:1033800021E0F50184A5811120E044E756E061E0E9
:1033900070E088E790E00E94772B4301FBE68F0EF8
:1033A000911C14011E861D86F12C95012E5F3F4F46
:1033B0003A8B298B9D85F50184A59E1508F092C056
:1033C000981708F486C090E005962D853E858217F3
:1033D00093070CF47EC038E0F39EC00111246C0109
:1033E000EAE0CE0ED11C210102E310E01F86F201BB
:1033F00080818F3F49F1FF85FF5FFF876DE00E946D
:103400004E359F5FE92FF0E0EE0FFF1FE355FE4FB3
:1034100040815181E1E0F0E09A3011F0E0E0F0E02D
:1034200020E0B601C8018E1B9F0B0E94772BF20192
:1034300080816DE00E944E35282F46E654E1B601AA
:10344000C80105960E94772BFFEF4F1A5F0A025FB3
:103450001F4F0837110559F62F2D220F220F220F6B
:10346000288B3F85353080F0F101158128E7F50183
:10347000268327838889875F80871A3000F58989AA
:103480009A890E94C0281BC03F858EE0389F002D7E
:1034900011240E5C82E7482E401A512CC8889FE008
:1034A000C90ED12C10E041E0B601C801850D911D77
:1034B0000E94F42B539453944514A8F7D5CF412F71
:1034C00050E060E070E02AE089899A890E94CD246A
:1034D000F394ED85FE853196FE87ED87F7E02F0E9C
:1034E000311C68CF0E2D10E025E02E1578F490E009
:1034F000059621E0801791070CF420E044E656E0A1
:103500006CE370E088E790E00E94772BF50184A5DA
:1035100090E0059680179107F4F11F2D110F110F00
:10352000110F165F8DE58683878310877501F2E0A2
:10353000EF0EF11C6DE576E0C7010E94C62888E712
:10354000F501868387831087830101541F4FF4019F
:1035500080E090819F3F11F09581890F37960E177B
:103560001F07B9F78A3018F4C7010E94C02840E04D
:10357000F40180818F3F11F08581480FF7E08F0EB5
:10358000911C08151905A1F750E060E070E02AE0F1
:10359000C7010E94CD24F501118626C020E046EB2C
:1035A00056E067E070E083E390E00E94772BF30140
:1035B000968D878D981719F0F50111A501C010E0BF
:1035C000F30182A991A9981719F0F50141A501C04D
:1035D00040E0F50163A50E947928412FF50162A51D
:1035E000F301878D0E943228F5018485885085304B
:1035F000E0F0828D882329F0818D882311F08330BB
:1036000051F4EE24E394F30101A92FEF42E7B30153
:10361000C5010E94C727EE24E394F301068D24E33D
:1036200042E7B301C5010E94C727F501828D8823B7
:1036300021F1C18CE788068915891A8219821C82BA
:103640001B821E821D82B501615F7F4FCE010196F4
:103650000E943C20212FAE014F5F5F4FB301C50197
:103660000E949F26CE0101960E946620F501128ECF
:1036700004C0C5010E94D52FB7CF62960FB6F8944B
:10368000DEBF0FBECDBFDF91CF911F910F91FF9095
:10369000EF90DF90CF90BF90AF909F908F907F90F2
:1036A0006F905F904F903F902F90089521E531E00B
:1036B000FC01318320830F960C946620CF93DF9317
:1036C000EC010E94561BCE01DF91CF910C940C3679
:1036D0002BEA31E0FC013183208384529F4F0C940C
:1036E000561BCF93DF93EC010E94681BCE01DF9144
:1036F000CF910C940C36AF92BF92CF92DF92EF92A3
:103700000F931F93CF93DF93CDB7DEB768970FB6B4
:10371000F894DEBF0FBECDBF6C015B0145EB53E0FB
:1037200060E070E080E090E00E948E260CEE1FEFDB
:10373000F601858520E04FE553E06DE270E0F80189
:10374000E81BF109CF010E94772B045E1F4F003B5D
:10375000110571F760EF71E0CE010D960E94E22134
:103760001E8A84E08F8B188EBE01635F7F4FCE016F
:1037700001960E9477168E010F5F1F4F20E042E1F5
:1037800067E5C5010E942426C8010E946620E12C3D
:103790000FE320E84CE350E060E070E0C5010396E1
:1037A0000E94E92521E040E86DE370E080E090E0D0
:1037B0000E94B42B00E010E041E06FE370E0C8012C
:1037C0000E94F42B0E5F1F4F00381105A9F7F60178
:1037D0008685882319F08AE390E002C08AE090E0B1
:1037E000E12C00E021E233E04FE353E062E270E0DD
:1037F0000E94972BCE010D960E94662068960FB608
:10380000F894DEBF0FBECDBFDF91CF911F910F9116
:10381000EF90DF90CF90BF90AF9008952F923F929E
:103820004F925F926F927F928F929F92AF92BF92D0
:10383000CF92DF92EF92FF920F931F93CF93DF937C
:10384000CDB7DEB72C970FB6F894DEBF0FBECDBF55
:103850008C017A876987D42E1C0144E5240E311C23
:103860007C0145E050E06FEF70E0C7010E946937CE
:10387000D70115961C92B7E0EB0EF11CE214F3048D
:1038800081F78D2D6DE00E944E35C82E49855A85F1
:103890004B5F5F4FA985BA8520E09DE0B92E37E0E8
:1038A000F32EEE24E3943D913D1549F0832F6B2DCB
:1038B0000E944E359A3019F4C81609F43EC2A41776
:1038C000B50789F78FE1482E512CFE0131967F0113
:1038D0003DE05E01F6E0AF0EB11C60901C017090FF
:1038E0001D0180901E0185E0EFE1F1E0D70101901C
:1038F0000D928A95E1F7E985FA8580E090E0D12C78
:10390000A201082E02C0559547950A94E2F740FFA0
:1039100006C04081D701AD0DB11D4C93D3940196E3
:1039200031968530910561F742E0D41287C0498114
:103930005A81852F632F0E944E35CC24C394C90E23
:10394000842F0E944E359F5FC91278C0F801FC8712
:10395000EB878681813009F054C08081632F0E94FB
:103960004E359F5FC9124DC0BF01C12C90E080E071
:10397000DB019D90BD01491102C0CC24C394BFEF6F
:103980009B1203C0911101C0982F8F5F853081F782
:10399000C11005C0BF01690F711DDB014C93BF0150
:1039A00040E080E090E0DB01CD90BD015C1101C002
:1039B00041E0BFEFCB1203C0811101C0892F9F5F8F
:1039C000953089F7411106C08F5FBF01680F711DE7
:1039D000DB015C9390E080E041914F3F09F0982F2C
:1039E0008F5F8530C9F76E827F828886E5E0F0E0E0
:1039F000EC0FFD1FE90FF11D8081EB85FC858583B0
:103A00001DC037962E163F0609F0A1CFB80187E0FA
:103A1000289F600D711D1124D701CB014D91FC0130
:103A20004193CF01AA15BB05C9F7E2E0DB0115966A
:103A3000EC931597F1E01696FC932F5FF701D701F1
:103A400040E08A2F8E198D1550F48D91632F0E94BE
:103A50004E359F5F9B3008F09AE0490FF2CF4F3010
:103A6000E1F4B80187E0289F600D711D11247C8767
:103A70006B87AB01C701DC016D91CD01DA016D935C
:103A8000AD01A816B906B9F742E0AB85BC8515961D
:103A90004C93159716961C922F5F63E0D61266C062
:103AA000D9808D2D632F0E944E359F5F492F50E0A6
:103AB000CA80DA0111968C2D0E944E359F5F892FA6
:103AC00090E0A817B90709F01AC19B804E5F5F4FBD
:103AD000892D0E944E359F5F892F90E04817590726
:103AE00009F00DC1D80140E016965C91169754502C
:103AF000523018F57C9111966C91119712965C9149
:103B00001297D71204C0C61202C09516A9F0D61299
:103B100007C0C51205C013966C911397961661F0F5
:103B2000D5120BC013965C911397C51206C014965C
:103B30005C911497951201C041E017962A163B0636
:103B400099F64111DCC0B80187E0289F600D711D16
:103B50001124CB014191DC014D93CD01EA15FB0508
:103B6000C9F743E0FB01458386E0C7C094E0D91262
:103B700078C0D9808D2D632F0E944E359F5F492FCD
:103B800050E0CA80DA0111968C2D0E944E359F5F5D
:103B9000892F90E0A817B90709F0B1C09B80892D43
:103BA0000E944E359F5F892F90E0BA016E5F7F4F74
:103BB0006817790709F0A3C0AC81AB874D5F5F4FF1
:103BC0008A2F632F0E944E359F5F892F90E0481700
:103BD000590709F094C0C80140E0DC0116965C91D9
:103BE0001697543029F56C9111965C911197D61265
:103BF0000CC0C5120AC012966C911297961205C09D
:103C000013966C91BB85B61791F0D51211C0DC01EB
:103C100012965C911297C5120BC013965C91139784
:103C2000951206C014965C91BB85B51301C041E0A6
:103C300007962816390689F6411161C0B80147E098
:103C4000249F600D711D1124CB014191DC014D9326
:103C5000CD01EA15FB05C9F744E0FB01458385E08A
:103C60004CC095E0D9124BC08981632F0E944E351C
:103C70009F5F492F50E0DA0111968A810E944E35EC
:103C80009F5F892F90E0A817B907C9F58B810E9423
:103C90004E359F5F892F90E0BA016E5F7F4F6817A6
:103CA000790769F58C81632F0E944E359F5F892FBC
:103CB00090E0BA016D5F7F4F6817790701F54C5F9F
:103CC0005F4F8D81632F0E944E359F5F892F90E05B
:103CD00048175907A1F4B801A7E02A9F600D711D8C
:103CE0001124CB014191DC014D93CD01AE16BF06ED
:103CF000C9F745E0FB01458384E086832F5F91E0AF
:103D0000491A510809F0EFCD2C960FB6F894DEBF92
:103D10000FBECDBFDF91CF911F910F91FF90EF901C
:103D2000DF90CF90BF90AF909F908F907F906F90DB
:103D30005F904F903F902F900895F80167E0269F85
:103D4000E00DF11D11243083E582F6822F5FB7CD9F
:103D5000EF92FF921F93CF93DF9300D000D01F927A
:103D6000CDB7DEB77B01142FFC013C9694E0DE0159
:103D7000119601900D929A95E1F74D8365E0CE0181
:103D800001960E94852C412FBE016F5F7F4FC701B6
:103D90000E940E1C0F900F900F900F900F90DF91CC
:103DA000CF911F91FF90EF900895EF92FF921F9394
:103DB000CF93DF9300D000D01F92CDB7DEB77B0149
:103DC000142FFC01389694E0DE01119601900D92BB
:103DD0009A95E1F74D8365E0CE0101960E94852C0E
:103DE000412FBE016F5F7F4FC7010E940E1C0F90D5
:103DF0000F900F900F900F90DF91CF911F91FF9038
:103E0000EF900895EF92FF920F931F93CF93DF935C
:103E1000FC01EB017B018EE0E80EF11C8B010F5DD4
:103E20001F4F84858A3071F08B30E9F08930D1F5ED
:103E3000DB01A759BF4F8C9165597F4F40A5811178
:103E40000AC00DC0DB01A759BF4F8C9165597F4F48
:103E500040A5811104C0C7010E94D51E10C0C80131
:103E60000E94D51E16C0DB01A759BF4F8C91655922
:103E70007F4F40A581110AC0C7010E94A81ECE0134
:103E80000E946B30C82F682FC70109C0C8010E946B
:103E9000A81ECE010E946B30C82F682FC8010E9457
:103EA000731701C0C0E08C2FDF91CF911F910F914C
:103EB000FF90EF900895FB01268D293718F421A972
:103EC000293720F0FC01148E21E026A708950F93D6
:103ED0001F93CF93DF938C01EB0148E050E06FEF2D
:103EE00070E04F960E946937F80117A218A21BAA2A
:103EF000DF91CF911F910F910895FC01DB01AB0180
:103F0000485F5F4F20E03DE08D918F3F41F0632F90
:103F10000E944E359F5F9B3008F09AE0290FA4174E
:103F2000B50791F75081329640E0ADE030E054178C
:103F300081F081916A2F0E944E359F5F9B3008F07F
:103F40009AE0B901690F711D6032710524F04F5F6D
:103F5000EECF80E0089581E00895FC017F969C01FA
:103F6000295D3F4F40E05DE081918F3F41F0652F3B
:103F70000E944E359F5F9B3008F09AE0490FE21790
:103F8000F30791F7842F0895CF92DF92EF92FF927B
:103F90000F931F93CF93DF9300D000D000D0CDB705
:103FA000DEB76C01F42E122F1A8219821C821B823A
:103FB0001E821D82CE0101960E943C20BE016F5FD1
:103FC0007F4FC6010F960E943C20F601F58A168BA2
:103FD0008FEF878B008FE18E81E0828FCE0101967B
:103FE0000E94662026960FB6F894DEBF0FBECDBFA6
:103FF000DF91CF911F910F91FF90EF90DF90CF90C5
:1040000008950E945B370F931F93CF93DF93EC01CA
:1040100088819981009729F02A813B8126173707EB
:1040200088F48B016F5F7F4F0E949536009761F097
:10403000998388831B830A832C813D81232B11F470
:10404000FC01108281E001C080E0DF91CF911F91DF
:104050000F910895CF93DF93EC01888199810097A8
:1040600011F00E940C36198218821D821C821B825C
:104070001A82DF91CF910895EF92FF920F931F93D1
:10408000CF93DF93EC0186179707C1F0FB01008106
:1040900011810115110539F0E480F580B7010E9406
:1040A0000320811104C0CE010E942A2007C0FD8296
:1040B000EC82B801888199810E947037CE01DF912E
:1040C000CF911F910F91FF90EF900895FC01808197
:1040D00091810C940C364091FA055091FB0520918A
:1040E000F8053091F90542175307B4F49091E800B0
:1040F0009570E1F39091E80092FD19C08093F10072
:104100008091FA059091FB0501968F739927892B71
:1041100019F48EEF8093E8008091FA059091FB05E9
:1041200001969093FB058093FA0581E0089580E065
:104130000895DF92EF92FF920F931F93CF93DF9337
:10414000D82E8A017B01E40EF51EEB01CE15DF05AA
:1041500071F0D7FE03C0FE01849101C088810E94E6
:104160006B2021968111F2CF8FEF9FEF01C0C80124
:10417000DF91CF911F910F91FF90EF90DF90089505
:10418000615030F02091F100FC0120830196F8CFBE
:10419000289884E680936E070895CF92DF92EF927D
:1041A000FF920F931F93CF93DF936C017A018B01E2
:1041B000C0E0D0E0CE15DF0581F0D8016D918D0112
:1041C000D601ED91FC910190F081E02DC601099599
:1041D000892B11F02196EECF7E01C701DF91CF919F
:1041E0001F910F91FF90EF90DF90CF900895CF93A4
:1041F000DF931F92CDB7DEB76983DC01ED91FC91AF
:104200000280F381E02D41E050E0BE016F5F7F4FFF
:1042100009950F90DF91CF91089583E08093E90095
:104220008091F200882319F08AE38093E8000895D2
:10423000FC018485958597FD0BC09FB7F89482E0BB
:104240008093E9008091F2009FBF90E0019608956D
:104250009FB7F89482E08093E9008091F2009FBFBD
:1042600090E008950F931F93CF93DF931F92CDB7E4
:10427000DEB782E0898342E450E06CEE78E080E8CB
:104280000E9499200E94CF2DDC0112960D911C9165
:1042900013970115110589F0D801ED91FC91028069
:1042A000F381E02DBE016F5F7F4FC801099597FD37
:1042B00004C0F80100851185ECCF89810F90DF9152
:1042C000CF911F910F9108950E94BE2D90E0089507
:1042D0000F931F93CF93DF931F92CDB7DEB78C015F
:1042E000FC018485958597FF0EC0CE0101960E9442
:1042F000902D019719F4898190E002C08FEF9FEF14
:10430000F80195878487F801848595850F90DF9162
:10431000CF911F910F910895CF93DF931F92CDB747
:10432000DEB7FC018485958597FD05C02FEF3FEF33
:10433000358724870BC0CE0101960E94902D0197EE
:1043400019F4898190E002C08FEF9FEF0F90DF9109
:10435000CF910895EF92FF920F931F93CF93DF9326
:10436000EC01198218821B821A821D821C8261153F
:10437000710509F18B01CB010E9495347C01BC01D0
:10438000CE010E940320811109C0CE01DF91CF919F
:104390001F910F91FF90EF900C942A20FD82EC82E8
:1043A000B80188819981DF91CF911F910F91FF9082
:1043B000EF900C948E34DF91CF911F910F91FF906D
:1043C000EF900895EF92FF920F931F93CF93DF9397
:1043D000EC01198218821B821A821D821C826115CF
:1043E000710521F18B01FB0101900020E9F7319764
:1043F0007F01E61AF70AB7010E940320811109C064
:10440000CE01DF91CF911F910F91FF90EF900C940F
:104410002A20FD82EC82B80188819981DF91CF91B9
:104420001F910F91FF90EF900C947037DF91CF9117
:104430001F910F91FF90EF9008951F920F920FB66A
:104440000F9211248F939F938091E1009091E1004E
:10445000937F9093E10083FF0FC01092E90091E0F9
:104460009093EB001092EC0092E39093ED00109289
:104470006F0798E09093F00082FF20C093E0909344
:10448000E9009091F200992319F09AE39093E800E3
:104490009091FD05992339F09091FD0591509093ED
:1044A000FD05992389F190916E07992339F0909138
:1044B0006E07915090936E07992341F184FF10C0CD
:1044C0008091E2008E7E81608093E2008091E10025
:1044D0008F7E8093E1008091F2018E7E806111C019
:1044E00080FF16C08091E2008E7E80618093E200A2
:1044F0008091E1008E7E8093E1008091F2018E7EBA
:1045000081608093F20104C05D9ACDCF289AD6CF06
:104510009F918F910F900FBE0F901F9018951F9233
:104520000F920FB60F921124CF92DF92EF92FF926B
:104530000F931F932F933F934F935F936F937F93AB
:104540008F939F93AF93BF93EF93FF93CF93DF939B
:10455000CDB7DEB76C97DEBFCDBF1092E90080917A
:10456000E80083FFFBC168E0CE0145960E94C020B1
:1045700082EF8093E8008D8987FF05C09091E80065
:1045800090FFFCCF03C09EEF9093E800982F9076A9
:1045900009F0C6C09E894F89588D2F89F88C9111DA
:1045A0000CC0803829F48091F3018093F10002C09F
:1045B0001092F1001092F10045C1913051F4811137
:1045C00041C14130510509F03DC18091F3018D7F1A
:1045D0000BC0933061F4811135C14130510509F0B0
:1045E00031C18091F30182608093F3012BC195303A
:1045F00049F48091E80080FFFCCF822F806880938F
:10460000E30020C1963009F05EC00B8D1C8D22E0C6
:104610001092E9001092FB051092FA05F21232C0D6
:104620001092F9051092F8050E94322199E0BE011E
:104630006F5F7F4FDB01E92F1D92EA95E9F79983C0
:10464000FA8291E09E8390EA98879AEF9987209169
:10465000FA053091FB05275F3F4F3C832B838D8309
:104660001092E9001092FB051092FA051093F905DB
:104670000093F80549E050E080E00E9499200E94F4
:104680003221E0C01093F9050093F8050E94CF2D68
:10469000DC0112960D911C9113970115110509F477
:1046A000BBC0D801ED91FC910480F581E02DBE01E5
:1046B0006B5E7F4FC8010995009709F0C7C0F801EC
:1046C00000851185EACF973009F445C1983021F46F
:1046D00081E08093F100B6C0993009F0B3C08370D7
:1046E00009F039C1E5E2F1E081E031E096E32081B3
:1046F000211109C08EE78093EA001092EA008F89A9
:1047000080936F079FC08093E9003093EB00219165
:104710002093EC009093ED008F5F873041F7EACF54
:104720008B8D9C8D1092E9001092FB051092FA057A
:104730009093F9058093F805898D811153C08E8976
:104740009D89913A49F4813209F005C147E050E072
:1047500064E071E080E0BBC0913209F0FCC08332BC
:1047600069F48F89988DA0E0B0E080930001909368
:104770000101A0930201B093030164C0803269F487
:104780008091E80082FFFCCF67E084E091E00E9426
:10479000C0208BEF8093E80055C0823209F052C0F0
:1047A0008F8980930B01EEEFFFE7859194918B3F0A
:1047B0009C4D19F0E0E0F8E002C0EEEFFAE08091E5
:1047C000040190910501A0910601B0910701803B81
:1047D0009440A105B10509F09EC080910B0180FFB6
:1047E00079C099C00E94CF2DFC010281138101156F
:1047F000110509F4B0C0D801ED91FC910190F08150
:10480000E02DBE016B5E7F4FC801099581111AC072
:10481000F80100851185EBCFF1E0FF1609F44EC0D9
:10482000F3E0FF1298C08F89882309F44AC08230D0
:1048300089F440E860E180E599E00E94DE32882357
:1048400009F489C08EEF8093E80088C01816190615
:10485000CCF381C0813029F440E86BE084E499E036
:10486000ECCF833009F077C00E94CF2DDC01129687
:10487000ED90FC9013978E010F5F1F4F6801E114BC
:10488000F10479F0D701ED91FC910680F781E02DDC
:10489000B801C7010995080F111DF701E084F184E3
:1048A000EECFD8011C92F60101900020E9F7319774
:1048B000BF016C197D0940E0C601BFCF62E379E01A
:1048C00002C06EE279E0FB01449150E080E80E9472
:1048D0009920B8CFEE3F2AE0F20751F08081918114
:1048E0008737A7E79A0721F09093FF0A8093FE0A83
:1048F00087E797E791838083809160008093FC0530
:104900009BE088E10FB6F894A895809360000FBEF5
:104910009093600097CF808191818737974709F006
:1049200091CFA8958091600088618093600080910C
:10493000FC0580936000EE3FBAE0FB0739F0809100
:10494000FE0A9091FF0A918380837CCF1092FF0A28
:104950001092FE0A77CF81E28093EB006C960FB63F
:10496000F894DEBF0FBECDBFDF91CF91FF91EF91E5
:10497000BF91AF919F918F917F916F915F914F9177
:104980003F912F911F910F91FF90EF90DF90CF906B
:104990000F900FBE0F901F9018958F929F92AF921D
:1049A000BF92EF92FF920F931F93CF93DF93CDB7F8
:1049B000DEB7A1970FB6F894DEBF0FBECDBF7C0166
:1049C000FA01CB0119A2223008F42AE08E010F5D12
:1049D0001F4F822E912CA12CB12CBF01A501940157
:1049E0000E941D35F901CA01015011096A3014F401
:1049F000605D01C0695CD8016C93232B242B252BAF
:104A000061F70115110591F0F80101900020E9F717
:104A10003197AF01401B510BD701ED91FC91028002
:104A2000F381E02DB801C701099502C080E090E054
:104A3000A1960FB6F894DEBF0FBECDBFDF91CF9128
:104A40001F910F91FF90EF90BF90AF909F908F902C
:104A500008958F929F92AF92BF92CF92DF92EF9282
:104A6000FF926B017C010E9497294B015C01C114EC
:104A7000D104E104F104F1F00E949729DC01CB019B
:104A800088199909AA09BB09883E9340A105B10577
:104A900070F321E0C21AD108E108F10888EE880E0F
:104AA00083E0981EA11CB11CC114D104E104F104DF
:104AB00019F7DDCFFF90EF90DF90CF90BF90AF90D0
:104AC0009F908F9008958F929F92AF92BF92CF92B6
:104AD000DF92EF92FF920F931F93CF93DF936C01BE
:104AE0007B018A0180910B01882309F45CC08091CD
:104AF0006F07882309F457C08091F20180FF05C039
:104B00008091E00082608093E000E801B12C8AEFA0
:104B1000A82E93E0892E2AE3922E209711F4BB2031
:104B2000D9F10E94BE2D81110AC0AA94AA20D9F100
:104B300061E070E080E090E00E942925EECF282F10
:104B400030E0C217D3070CF48C2F9FB7F8948092F3
:104B5000E9002091E80025FF1DC0282F30E0C21B8E
:104B6000D30BF701815020F041914093F100FACF2F
:104B7000E20EF31EBB2019F09092E8000AC080916B
:104B8000E80085FD07C09092E800BB24B39420970D
:104B900009F0B12C9FBFC1CF5D9884E68093FD05DD
:104BA0001016110644F081E090E0F60193838283B1
:104BB00080E090E001C0C801DF91CF911F910F917B
:104BC000FF90EF90DF90CF90BF90AF909F908F902D
:104BD00008958F929F92AF92BF92CF92DF92EF9201
:104BE0000F931F93CF93DF936A01EB014B01820E6A
:104BF000911C5A01A00EB11CC815D905CCF4860130
:104C0000D7FE02C000E010E0C50121E4A216B10405
:104C100014F080E490E00817190744F44E2DB80111
:104C2000CE010E94F42B0F5F1F4FEECF2196E4CFF1
:104C3000DF91CF911F910F91EF90DF90CF90BF90B8
:104C4000AF909F908F9008958F929F92AF92BF9256
:104C5000CF92DF92EF92FF920F931F93CF93DF9348
:104C6000F22E4801DC011696AD90BC901797C42F28
:104C7000D0E0C62ED12CE12C00E02FEA3DE04FEC35
:104C80005EE0BE01C6010E94972B8601035F1F4FA5
:104C9000C5018F77992721E0843008F020E043E8B0
:104CA0005DE0BE016F5E7F4FC8010E94772B21E05F
:104CB000F21220E0BE01695F7F4F41E35DE0C80171
:104CC0000E94772BF40183856896F6013F9688232E
:104CD00091F0D4011A968C918D7F813061F4C501D9
:104CE00064E270E00E945A356CE00E944E358111FA
:104CF0008E5F282F01C02F2D4BE75CE0BE01CF0156
:104D0000DF91CF911F910F91FF90EF90DF90CF90A7
:104D1000BF90AF909F908F900C94772BCF92EF9293
:104D20000F931F9322E0C22EE12C00E010E020E060
:104D30000E94062A1F910F91EF90CF9008952F9215
:104D40003F924F925F926F927F928F929F92AF921B
:104D5000BF92CF92DF92EF92FF920F931F93CF9368
:104D6000DF9300D01F92CDB7DEB75C011A01702E21
:104D70004C2CCC2039F083E0C81621F080E8582E66
:104D8000501A01C0512C9FEFE9125E2C122F110F07
:104D9000110F110FE3E0E10FE983C52CD12CCB01FA
:104DA00003969B838A8304E0010FE12C272D43E0C7
:104DB00050E0B6010E94E925460194E0890E911C5D
:104DC0000CE0010F28EFF22EF70C2F2D4FEF5FEFC5
:104DD000B4018A819B810E94E92505E0010FB6019B
:104DE0006F5F7F4FEE24E3942EEF270D43E050E0FA
:104DF0008A819B810E94E9250AE0010F2F2D40E066
:104E000050E0B4018A819B810E94E92538E0F32EAD
:104E1000F10E4CEF642E670CF6013296FB83EA83A9
:104E200020E0462D61E070E0CF010E94B42B0F2DF1
:104E300010E0FFE3FF1538F020E0462DB8018A812D
:104E40009B810E94B42B0F5F1F4FEE24E394F12C43
:104E50004801013411051CF080E4882E912CE814DF
:104E6000F90454F440E0B7018A819B810E94F42B3D
:104E70008FEFE81AF80AECCFEA81FB81E60DF11D0D
:104E80003197FB83EA8301E010E00815190549F02A
:104E900040E0B8018A819B810E94F42B0F5F1F4F75
:104EA000F4CFE12C00E029E63CE041E75CE06FEF65
:104EB0007FEFC6010E94972B4601870C911C34019D
:104EC000F8E06F1A710827E53CE04FE55CE06FEF12
:104ED0007FEFC3010E94972B9981892F90E09B83DC
:104EE0008A83442019F0E3E04E1215C06A817B8169
:104EF00061507109E12C00E02DEE3BE041E25CE005
:104F0000C6010E94972B2BED3BE043EE5BE06A81EC
:104F10007B81C30115C0E12C00E029EC3BE041EDB1
:104F20005BE06A817B81C6010E94972B6A817B814D
:104F3000615071092FE53BE043E95BE0C4014A970A
:104F40000E94972B86E0850DF5018683878385E097
:104F50008087F1014481558160817181C50102968C
:104F60000F900F900F90DF91CF911F910F91FF90B5
:104F7000EF90DF90CF90BF90AF909F908F907F90F9
:104F80006F905F904F903F902F900C94CD206F9238
:104F90007F928F929F92AF92BF92CF92DF92EF92C9
:104FA000FF920F931F93CF93DF936C01F22E102F7C
:104FB0006E2C0A3018F426E0722E07C0043618F45E
:104FC00094E0792E02C082E0782E740E8F2C0F2C84
:104FD000000C9908C42FD0E05B0183E0A80EB11C3F
:104FE000E12C08E02EE0A401BE01C5010E94E925E4
:104FF000A4014F5F5F4FBE016F5F7F4FEE24E394CC
:1050000007E02DE0C5010E94E925F601768277824E
:10501000F394F0866620B9F0412F50E060E070E034
:105020002AE0C6010296DF91CF911F910F91FF9068
:10503000EF90DF90CF90BF90AF909F908F907F9038
:105040006F900C94CD24DF91CF911F910F91FF9021
:10505000EF90DF90CF90BF90AF909F908F907F9018
:105060006F900895EF92FF920F931F93CF93DF936A
:10507000D42FE82FF0E0EE0FFF1FE559F54F849194
:10508000319694919D5FE62FF0E0EE0FFF1FE559FA
:10509000F54FF49031966491C3E0C60F97FF04C0BA
:1050A0009F77EE24E39401C0E12CC7FF03C0CF77C4
:1050B00011E001C010E0692F70E001E025E53AE061
:1050C0004FE55AE090E00E94972BDD2359F06C2FBA
:1050D00070E0E12E25E53AE04FE55AE08F2D90E0B3
:1050E0000E94972BDF91CF911F910F91FF90EF902E
:1050F0000895EF92FF920F931F93CF93DF93D42FD6
:10510000E82FF0E0EE0FFF1FEF59F64F8491319634
:1051100094919D5FE62FF0E0EE0FFF1FEF59F64FE1
:10512000F49031966491C3E0C60F97FF04C09F7757
:10513000EE24E39401C0E12CC7FF03C0CF7711E058
:1051400001C010E0692F70E000E025E53AE04FE58E
:105150005AE090E00E94972BDD2359F06C2F70E00D
:10516000E12E25E53AE04FE55AE08F2D90E00E94D0
:10517000972BDF91CF911F910F91FF90EF900895A2
:1051800042E050E06EEE71E00C94CD20EF92FF9281
:105190000F931F93CF93DF938C017B01C0E0D0E08E
:1051A000F701EC0FFD1F6491662339F0C8010E94DE
:1051B0009716892B11F02196F3CFCE01DF91CF9175
:1051C0001F910F91FF90EF900895FC01E35AFF4F5C
:1051D0009C012F543F4F80E090819F3F09F08F5FEB
:1051E0003796E217F307C1F708950895DC01FB0134
:1051F000908581858095892394FF18C01C969C9189
:105200001C97903128F49F5F1C969C931C9711C0AB
:10521000F89487E78093000880930108A89588E1B7
:105220008093600088E080936000FFCF1C961C9202
:105230001C972681378127703327232B59F41D961D
:105240009C911D979F5F9C3119F01D969C9302C005
:105250001D961C9283FF04C0E054FF4F82E08083C0
:1052600008950895FC01DB0119968C91199780959A
:1052700018969C91892399F08485882311F08CE7F6
:105280008487948591110EC081E0848780E48093A7
:10529000900081E49FE0909399008093980094851A
:1052A0009923C1F09F5F9487953059F09D3761F045
:1052B000923081F480E596E4909399008093980071
:1052C0000895109290000895FB01E054FF4F81E093
:1052D0008083089508950F931F93CF93DF938C01DC
:1052E00046EE52E160E070E08BE490E00E948E2692
:1052F0004CE151E160E170E087E090E00E948E2691
:10530000CCEEDFEFF801858546EC50E16CE270E011
:105310009E01281B3109C9010E948E266C96C03B54
:10532000D10581F7DF91CF911F910F9108953FB77C
:10533000F89480916A0790916B07A0916C07B091E7
:105340006D0726B5A89B05C02F3F19F00196A11D3A
:10535000B11D3FBFBA2FA92F982F8827820F911D0B
:10536000A11DB11DBC01CD0142E0660F771F881F52
:10537000991F4A95D1F708951F920F920FB60F9279
:1053800011242F933F938F939F93AF93BF9380915B
:10539000F4059091F505A091F605B091F7053091CF
:1053A000690723E0230F2D3720F40196A11DB11DBD
:1053B00005C026E8230F0296A11DB11D20936907A1
:1053C0008093F4059093F505A093F605B093F70547
:1053D00080916A0790916B07A0916C07B0916D075F
:1053E0000196A11DB11D80936A0790936B07A0934E
:1053F0006C07B0936D07BF91AF919F918F913F91D3
:105400002F910F900FBE0F901F9018952F923F92E3
:105410004F925F926F927F928F929F92AF92BF92C4
:10542000CF92DF92EF92FF920F931F93CF93DF9370
:1054300000D000D000D0CDB7DEB74115510509F43A
:105440003DC1FA01B4903196E4914E5F5F4F6B2CF1
:10545000712C211102C0EE2061F1A1E0B0E03E2FDD
:10546000377011F4A0E0B0E03E2F369536953695B2
:105470004D01830E911C869CD001879CB00D969C9B
:10548000B00D1124F3E0CF1203C0AA0FBB1F0AC056
:105490000115110539F0EA9E4001EB9E900C112494
:1054A000080D191D2A9F70012B9FF00C11244E0D21
:1054B0005F1D2FEFC21208C00115110519F0CC2491
:1054C000C39402C032E0C32E7301E80EF91E1E140D
:1054D0001F040CF0F3C0803891050CF0EFC09B0165
:1054E0002E0F311D121613060CF0E8C06034710542
:1054F0000CF0E4C04115510509F4E0C0362F3770B7
:105500003D83DB0177FD179623E0B595A7952A9596
:10551000E1F73A2F77FF05C06D81662311F03FEF69
:105520003A0F97FF05C0AA27BB27A81BB90B02C0DB
:10553000A0E0B0E0F0E8EF16F10424F020E8D22E6D
:10554000D81A01C0DB2CDA1A632F032E000C770B5C
:105550003F3F1CF4A62EA09401C0A12CF1E02E2FF9
:10556000277009F4F0E0E695E695E695FE0F6F0FDB
:10557000711D6930710514F0F8E0F31B7A2C730E7D
:10558000272D60E82603800D911D11244C018A0E01
:105590009B1E61E070E00D8002C0660F771F0A94C9
:1055A000E2F783E0C81611F0E1E001C0E2E02B2D44
:1055B0002D192E9F202D1124EE2EF12CBA9CA00D1A
:1055C000B11D1124AE9DC001AF9D900DBE9D900DEB
:1055D00011245A01A80EB91E0115110509F0A801E0
:1055E000D70111978A0F9B1F480F591FAFEFA69F36
:1055F000C001A79F900D11242C0140945094C40128
:105600008C509E4FF30FFE8330E0ED9D200D311D39
:105610001124EE817E1609F451C0DC014A01850196
:10562000612CD61409F442C0F8013490369EF00182
:10563000379EF00D1124FA83E983E095F095FC8301
:10564000EB83F2E0CF1203C05C824B8211C0EBEF20
:10565000CE1203C01A8219820BC0F4013490369E18
:10566000F001379EF00D1124E095F095FC83EB835B
:1056700077FC06C0FB81EC91EF23F981EF2BEC93D3
:10568000FD81FF2361F0E6E0E7154CF0FD01E058F5
:10569000FF4F20803C8032202A80322830828E0CBE
:1056A0009F1C0E0D1F1D63941196BBCF7394A20E09
:1056B000B31E420F531F80589F4FABCF26960FB695
:1056C000F894DEBF0FBECDBFDF91CF911F910F9138
:1056D000FF90EF90DF90CF90BF90AF909F908F9012
:1056E0007F906F905F904F903F902F900895CF9252
:1056F000EF920F931F933AEFC32EE12C00E010E0DE
:105700000E94062A1F910F91EF90CF900895CF929B
:10571000EF920F931F933BEFC32EE12C00E010E0BC
:105720000E94062A1F910F91EF90CF900895CF927B
:10573000EF920F931F93F901202FCC24C3948F0174
:105740000E94062A1F910F91EF90CF900895BC01FF
:1057500080E090E00C9429258FB18095807F669B36
:1057600088601C9B84600895FC01E40FF11DAF016B
:105770001E161F06C4F580389105ACF597FF02C0D0
:1057800080E090E04138510514F040E850E0481BBB
:10579000FB0177FD379633E0F595E7953A95E1F70C
:1057A000F695FE2FEE27F795E795E80FF91FEC50D9
:1057B000FE4F6770772781E090E001C0880F6A95FF
:1057C000EAF7382F222341F0213069F4415058F094
:1057D0008081832B8193FACF8095415020F0908176
:1057E00098239193FACF089580389105B8F46034E6
:1057F0007105A0F490E121E061FD24E060FD220F3D
:1058000062FD2295687F969FD0011124A80FAC50AD
:10581000BE4F8C91822B40FF82278C9308950F936B
:105820001F93CF93DF93EC0140EA50E161E170E018
:105830008FE290E00E948E2642E850E16AE170E03B
:105840008BE290E00E948E2642E850E16AE170E02F
:1058500089E490E00E948E268C85811114C042E874
:1058600050E16AE170E08AE390E00E948E2642E314
:1058700050E16EE270E08AE190E0DF91CF911F91FC
:105880000F910C948E2644E150E16AE170E08AE3C6
:1058900090E00E948E2641EF5FE06EE270E08CE2C5
:1058A00090E00E948E268C856FE00E944E35082F76
:1058B0000370CFE4D0E010E0011749F041E061E36C
:1058C00070E0CE010E94F42B1F5F2296F5CFDF918E
:1058D000CF911F910F910895FF920F931F93CF9334
:1058E000DF93EC01F62E08811981C8010E949E34D5
:1058F000F81621F06F2DC8010E94A634CE01DF9169
:10590000CF911F910F91FF9008954F925F927F92D8
:105910008F929F92AF92BF92CF92DF92EF92FF92BF
:105920000F931F93CF93DF938C01A0E0462F50E09D
:105930006A0131E0C31AD1088DE0B82E8A2F90E0B9
:105940008C159D05CCF5B0E0EA01C81BD90B2E01E2
:1059500061E0461A51082B2F30E02415350554F527
:105960007801E20EF31EE701A8808A2D6B2D0E94BC
:105970004E35782E892E2F5F3F4FF801E20FF31F2F
:105980009080892D0E944E35292F90E0DAE02D9FDE
:10599000800D911D1124272D30E06AE0869E200D98
:1059A000311D11248217930718F4E7019882A08211
:1059B000BF5FD1CFAF5FC2CFDF91CF911F910F916A
:1059C000FF90EF90DF90CF90BF90AF909F908F901F
:1059D0007F905F904F900895DC01FB018185809559
:1059E0009085892383FF0FC0868D893718F481A99C
:1059F000893738F05C961C925C978CE01C968C93EF
:105A000008955C964C930895EF92FF921F93CF9365
:105A1000DF93EC01162F7C0181E2E80EF11CFE0100
:105A2000B39660E08191181721F06F5F6630D1F76F
:105A30006FEFC7010E944417FE01E759FF4F8081B5
:105A4000612F811103C0CE010E9601C0C701DF9105
:105A5000CF911F91FF90EF900C946517AF92BF927A
:105A6000CF92DF92EF92FF920F931F93CF93DF932A
:105A7000EC018B0160E0C8010E960E94011760E006
:105A8000C80181960E940117F801F59680E0819384
:105A90008F5F8433E1F7580189E6A80EB11C84E3D7
:105AA000C82ED12CE12CF12C0E943734A70196018D
:105AB0000E94B434F801E60FF11D85A9D5019E912D
:105AC0005D0195AB8C93B1E0CB1AD108E108F108E8
:105AD000E1E0CE16D104E104F10431F7D801D49607
